:100000002E1C0400000000000000000000000000A2
:1000100000000000000000000000000000000000E0
:1000200000000000000000000000000000000000D0
:1000300000000000000000000000000000000000C0
:1000400000000000000000000000000000000000B0
:10385C000F872000F0FF270020A0B70010002000E9
:10386C0034A0B700400020004420B7004E1C0200DA
:10387C0000000000581C02000000000097FF070029
:10388C00DFFF0700AAFF0700FEFF3700FFFF37002E
:1036E8008A1F78008B1F78008C1F7800200D280017
:1036F800800578001420EF00B1FF07000BAC2D0007
:103708000C0020000AC2B30041FC0700380020006A
:10371800578D20000E20ED00FEFF3A001020ED002E
:10372800FCFF3A004F067800CF0578004F05780077
:043738000000060087
:1035C8008A1F7800080037000B05780088FC070080
:1035D8000A0037000B057800BCFB0700070037001E
:1035E80010C0B300050037006054E100F6FF320058
:1035F8006154E100F7FF3200F9FF37004F0578000A
:0436080000000600B8
:1027F8008A1F78008B1F78001A05BE0093FD07001A
:1028080000C0B300CF0578004F057800000006002F
:101E54000400FA00B0FD0700EAFC0700421F20005E
:101E640003002000EAFC07000001BE00829FBE00C0
:101E74008A9FBE000200BE00026829008309200078
:101E84000002EB00CEFD07004F05BE004F01BE006F
:101E940000079800110798000200BE000A01BE0066
:101EA4000002EB00C6FD07000001BE006000470011
:101EB40030015100A081590061005100E0805900B7
:101EC400A010880017E2A800C7FC07001822EF0042
:101ED400BEFC0700D7FC07000080FA0000000600E3
:10151C000000FA00E0602000E040880080242000F9
:10152C00D040880020312000F0408800603220003C
:10153C0020418800C03A200010418800E02F200094
:0C154C00004188000080FA00000006004A
:0C12080000F4210001002000000006009E
:1011EC0038002000578D20000E20ED00FEFF3A0045
:0C11FC001020ED00FCFF3A00000006008F
:1011D0000000FA0091FE07000000E20001003A0062
:0C11E000FCFF37000080FA000000060051
:100C1C000000FA000260EF001602AF000260EC0068
:100C2C000060EF001642AF000060EC008180FB001A
:100C3C000080FB00808070000060EF001662AF0047
:100C4C000060EC000080FB00808070000060EF0012
:100C5C001682AF000060EC000080FB00808070000A
:100C6C000060EF001622AF000060EC000080FB007B
:100C7C00808070000060EF0019C2AF000060EC00D3
:100C8C000080FB00008070000000E2000060EF00BC
:100C9C0001003A000060EC000080FB000080FA00CC
:040CAC00000006003E
:1012380000000000000000000000000000000000A6
:04124800000006009C
:101214000000FA00020AB800500088000200B8007A
:1012240081004200032AB800810042000080FA00D5
:0412340000000600B0
:1015C4000000FA0002000700300B040000000000D5
:1015D4000800E20002003A001000070000000600C4
:1015E400839F68000200E20002003D0060001000DA
:1015F400E08018000600E20002003D0060011100D6
:10160400E0811900050007004F00E00002003B00E4
:1016140060001000E0801800000006006022B8009E
:10162400060220000000D0008180D2000482D20093
:101634008582D2000000A8000202520083825A0070
:1016440003003B000202420083824A000000A10022
:101654000603E900F3FF3A00000006000080FA00E8
:04166400000006007C
:1024D4008A1F78008B1F78001A05BE005CFE070077
:1024E40000C0B300CF0578004F0578000000060057
:102818008A1F78008B1F78008C1F78001200370001
:102828000B0578008C057800FCFE070019003700BE
:102838000B0578008C057800F6FE070015003700B8
:102848000B0578008C057800EDFE070011003700B5
:102858000B0578008C057800F5FE07000D003700A1
:1028680010C0B3000B0037006054E100ECFF3200E9
:102878006154E100EEFF320000C2B3000054E100F1
:10288800EFFF320000C3B3000054E100F0FF320054
:10289800F3FF37004F067800CF0578004F05780022
:0428A8000000060026
:10242400AFFE070060E92000704288000020EF0042
:04243400000006009E
:101EE4000800FA0060E9200060418800C023200057
:101EF400504188002023200040418800202F2000EA
:101F0400304188003022EF000000280032A2B700E0
:101F14003062A900BBFC07000001BE00803E200027
:101F240001002000BAFC07000001BE00CDFD07003F
:101F34004100DE006400400080007800600047003B
:101F44000A88BE008100E900030035001018D000A3
:101F54001090D200FBFF3700829FBE008A9FBE0014
:101F64000200BE000E0190009E0190000002EB00F2
:101F7400BEFD07004F05BE004F01BE0020079800BC
:101F8400310798008A9FBE000200BE000E01900037
:101F94009E0190000002EB0089FD07004F05BE0082
:101FA4008001780001027800600047005001D100F0
:101FB400C080D300640047003008E1002090E100B5
:101FC4000700310061804100E0004A00800278008F
:101FD40001037800050178008601780002003700CB
:101FE40003017800840178000280710033003A0014
:101FF40084FC07000001BE00803E20000100200098
:1020040083FC07000001BE0096FD07004100DE00CE
:1020140000A0EC0080007800600047000A88BE0041
:102024008100E900030035001018D0001090D200A0
:10203400FBFF3700829FBE000200BE000E0190002D
:102044009E0190000002EB0088FD07004F01BE00D6
:1020540020079800310798000200BE000E0190008E
:102064009E0190000002EB0055FD070080017800FE
:1020740001027800600047005001D100C080D30005
:10208400640047003008E1002090E10007003100BF
:1020940061804100E0004A0080027800010378007A
:1020A40005017800860178000200370003017800FA
:1020B400840178003062A8000000370061005100FC
:1020C400E0805900C01188003222A90031E2A80042
:1020D4003342A80044FC070043FC07000080FA00D8
:0420E40000000600F2
:08166800200020000000060034
:101670000000FA00020007008C0B040000000000CC
:101680000800E20002003A00100007000000060017
:10169000811F78000200E20002003D00600010009F
:1016A000E08018000600E20002003D006001110029
:1016B000E0811900050007004F00E00002003B0038
:1016C00060001000E0801800000006000200070023
:1016D0000480BE00000006006022B8000602200060
:1016E0000000D0008180D2000482D2008582D20026
:1016F0000000A8000202520083825A0003003B004F
:101700000202420083824A000000A1000603E900B1
:10171000F3FF3A00000006000080FA000000060017
:08241C0060C0B30000000600DF
:10240800B6FE070060E92000704288000020EF0057
:0424180000000600BA
:10243800BBFD070020F12000704288000020EF005B
:04244800000006008A
:101B28000800FA0020F1200060418800C029200048
:101B3800504188008022200040418800C0212000B8
:101B4800304188002022EF000000280022A2B700C0
:101B58002062A900AAFD07000001BE00803E200007
:101B680001002000A9FD07000001BE00BCFE07001F
:101B78004100DE00640040008000780060004700FB
:101B88000A88BE008100E900030035001018D00063
:101B98001090D200FBFF3700829FBE008A9FBE00D4
:101BA8000200BE000E0190009E0190000002EB00B2
:101BB800ADFE07004F05BE004F01BE00200798008C
:101BC800310798008A9FBE000200BE000E019000F7
:101BD8009E0190000002EB0078FE07004F05BE0052
:101BE8008001780001027800600047005001D100B0
:101BF800C080D300640047003008E1002090E10075
:101C08000700310061804100E0004A00800278004E
:101C1800010378000501780086017800020037008A
:101C280003017800840178000280710033003A00D3
:101C380073FD07000001BE00803E20000100200067
:101C480072FD07000001BE0085FE07004100DE00AE
:101C580000A0EC0080007800600047000A88BE0001
:101C68008100E900030035001018D0001090D20060
:101C7800FBFF3700829FBE000200BE000E019000ED
:101C88009E0190000002EB0077FE07004F01BE00A6
:101C980020079800310798000200BE000E0190004E
:101CA8009E0190000002EB0044FE070080017800CE
:101CB80001027800600047005001D100C080D300C5
:101CC800640047003008E1002090E100070031007F
:101CD80061804100E0004A0080027800010378003A
:101CE80005017800860178000200370003017800BA
:101CF800840178002062A8000000370061005100CC
:101D0800E0805900401188002222A90021E2A800A1
:101D18002342A80033FD070032FD07000080FA00C7
:041D280000000600B1
:10380C008A1F78008B1F78008C1F7800ACC3B30024
:10381C008B0C28002A03280005FF0700B8002000A5
:10382C00D7C222000E20ED00FEFF3A001020ED0062
:10383C00FCFF3A001AFC07003AC0B3002AFB070051
:10384C004F067800CF0578004F0578000000060081
:10343C00C08420000C4878008A1F78000B057800A7
:10344C00FFFB07004F0578000CFC0700000006008E
:10244C001A00780050428800E20045001100780024
:10245C00A0428800E40045001100780090428800FA
:10246C00E60045001100780080428800E800450035
:0C247C0011007800B0428800000006004B
:04248800000006004A
:1028AC000400FA008A1F78008B1F78008C1F7800B8
:1028BC008D1F7800EA2E2000F1FE07001AC0B3002D
:1028CC0009FF0700CA40220018FF0700B5FA0700ED
:1028DC0000079800110798000C0020000D102C0028
:1028EC000A0020000B00240051FF07000E0190008D
:1028FC009E019000F0F8070070418800814188002B
:10290C00EA40220009FF0700A6FA0700000798001A
:10291C00110798000C0020000D1A2C000A00200052
:10292C000B00240042FF07000E0190009E01900056
:10293C00E1F80700D0418800E14188000A412200FB
:10294C00FAFE070097FA0700000798001107980095
:10295C000C0020000D232C000A0020000B0024008A
:10296C0033FF07000E0190009E019000D2F8070083
:10297C0030428800414288002A412200EBFE0700C9
:10298C0088FA070000079800110798000C00200037
:10299C000D102C000A0020000B00240024FF07005F
:1029AC000E0190009E019000C3F807009041880032
:1029BC00A14188004A422200DCFE070079FA070098
:1029CC0000079800110798000C0020000D182C002F
:1029DC000A0020000B00240015FF07000E019000D8
:1029EC009E019000B4F80700C0428800D1428800D4
:1029FC006A422200CDFE07006AFA07000007980021
:102A0C00110798000C0020000D102C000A0020006B
:102A1C000B00240006FF07000E0190009E019000A1
:102A2C00A5F80700F0418800014288008A42220084
:102A3C00BEFE07005BFA070000079800110798001C
:102A4C000C0020008D232C000A0020000B00240019
:102A5C00F7FE07000E0190009E01900096F807000B
:102A6C002043880031438800AA422200AFFE0700B1
:102A7C004CFA070000079800110798000C00200082
:102A8C000D212C000A0020000B002400E8FE07009A
:102A9C000E0190009E01900087F8070060438800AB
:102AAC0071438800CA422200A0FE07003DFA0700CD
:102ABC0000079800110798000C0020000D212C0035
:102ACC000A0020000B002400D9FE07000E01900024
:102ADC009E01900078F8070040438800514388001D
:102AEC00EA422200ACF707008000EB002DFA070049
:102AFC0000079800110798000C0020000D122C0004
:102B0C000A0020000B002400C9FE07000E019000F3
:102B1C009E01900068F80700B0418800C141880010
:102B2C00FA4222009CF707008000EB001DFA070018
:102B3C0000079800110798000C0020000D122C00C3
:102B4C000A0020000B002400B9FE07000E019000C3
:102B5C009E01900058F8070010428800214288001E
:102B6C001A4822008CF707008000EB000DFA0700D2
:102B7C0000079800110798000C0020000D162C007F
:102B8C000A0020000B002400A9FE07000E01900093
:102B9C009E01900048F8070000438800114388000C
:102BAC002A4822007CF707008000EB00FDF90700A3
:102BBC0000079800110798000C0020000D162C003F
:102BCC000A0020000B00240099FE07000E01900063
:102BDC009E01900038F80700E0428800F14288001E
:102BEC00CF0678004F067800CF0578004F057800A7
:082BFC000080FA000000060051
:10248C000200FA0000002000000798008A1F780064
:10249C009EFD07004F0578000040E2000800320066
:1024AC0064FE07000E0090000020EC00000798006E
:1024BC000A00E1000100360001003700F3FF37008D
:0824CC000080FA000000060088
:101B180001FF07000120200001006000000006000E
:101720008A1F7800FAFF23009EFC07004F0578000F
:0417300000000600AF
:1009A4000400FA008A1F78008B1F78008C1F7800DF
:1009B4008D1F7800E000470000F02F000000650064
:1009C4004800DE00804878000220EC00F00F200090
:1009D400000065008048780073FF0700E0004700CE
:1009E400C08420001DC0B3002C00200081057800C5
:1009F4001045780075FF0700E2004700C08420001E
:100A04001A20EF002C0020008105780010457800A2
:100A1400A5FF0700620047001081FB00C810DD003D
:100A24000020EC001080FB0000807000CF067800EE
:100A34004F067800CF0578004F0578000080FA0053
:040A440000000600A8
:1007AC000200FA000000200000079800514280006F
:1007BC0001000100E0004700110070000080FA0009
:0407CC000000060023
:100550000000FA000260EF000602AF000260EC004B
:100560000060EF000642AF000060EC008180FB00FD
:100570000080FB00808070000060EF000662AF002A
:100580000060EC000080FB00808070000060EF00E5
:100590000682AF000060EC000080FB0080807000ED
:1005A0000060EF000622AF000060EC000080FB005E
:1005B000808070000060EF0009C2AF000060EC00B6
:1005C0000080FB00008070000000E2000060EF008F
:1005D00001003A000060EC000080FB000080FA009F
:0405E0000000060011
:1004E4000000FA000420EF00007122000010E10077
:1004F40006003E00150007000000E2000100320083
:10050400020037000420EC00F7FF370010712200CE
:100514000010E10002003900F00F20000300370052
:100524000602A800B5FF07000020EF000080FA00D3
:0405340000000600BD
:100400000000FA008620AF0001003700FDFF370032
:0C0410008620A9000080FA000000060011
:100490000000FA000420EF00007122000010E100CB
:1004A00006003E00DD0107000000E200010032000E
:1004B000020037000420EC00F7FF37001071220023
:1004C0000010E10002003900F00F200003003700A7
:1004D0001602A800D1FF07000020EF000080FA00FC
:0404E0000000060012
:10041C000000FA008A40AF0001003700FDFF3700F2
:0C042C008A40A9000080FA0000000600D1
:100538000000FA0000000000000000002682BF0052
:080548000080FA00000006002B
:100450000000FA002282BF00610060000080FA0004
:040460000000060092
:100438000000FA000020EF002302AF000020EC00CB
:080448000080FA00000006002C
:100478000000FA0000000000000000003682BF0003
:080488000080FA0000000600EC
:100464000000FA003282BF00610060000080FA00E0
:04047400000006007E
:1005E4000000FA000020EF003302AF000020EC000E
:0805F4000080FA00000006007F
:1007D0000400FA008A1F780000002000100798002B
:1007E0000B0798000A80FB004100DD008C9FBE00D3
:1007F0000045780081428000010001004F06BE00E4
:1008000062014700E2004700920870008C00780007
:1008100061005600000678000200E2000F0032007E
:100820000E0090008C9FBE008A9FBE00104578008D
:1008300081428000010001004F05BE004F06BE004E
:1008400062014700E2004700920870008E009000AD
:100850006000470061884000ECFF3700606CE100F9
:1008600006003A00A04280008C9FBE008A9FBE0016
:10087000000001004F05BE004F06BE00616CE100A4
:1008800006003A00504280008C9FBE008A9FBE0046
:10089000000001004F05BE004F06BE001E00900084
:0C08A0004F0578000080FA000000060000
:10072C000000FA000A80FB0002A2B70008E2AE004B
:10073C000200370010002000020037002DFF0700D8
:0C074C000020EF000080FA000000060012
:100758000000FA000A80FB0012A2B70018E2AE00FF
:1007680002003700100020000200370029FF0700B0
:0C0778000020EF000080FA0000000600E6
:100784000000FA000682BF007F0060000000E20063
:1007940001003200FBFF37000622A80017FF070004
:0807A4000080FA0000000600CD
:100704000000FA000682BF007F0060000000E200E3
:1007140001003200FBFF37000642A80037FF070044
:080724000080FA00000006004D
:100624000000FA000682BF007F0060000000E200C4
:1006340001003200FBFF37001622A80076FF0700F6
:080644000080FA00000006002E
:1005FC000000FA001682BF007F0060000000E200DD
:10060C0001003200FBFF37001642A80080FF0700F4
:08061C000080FA000000060056
:1008AC000400FA008A1F780000002000100798004E
:1008BC000B0798000A80FB004100DD00610070000E
:1008CC008C9FBE0000457800814280000100010031
:1008DC004F06BE0062014700E2004700920870001C
:1008EC0061005600000678001800E2000D0032008E
:1008FC008C9FBE008A9FBE001420EF00B142800086
:10090C00010001004F05BE004F06BE008E00900096
:10091C00804878008E00900060004700618840009D
:10092C00EFFF37008C9FBE008A9FBE001A0020008C
:10093C00B1428000010001004F05BE004F06BE0011
:10094C008E00900080487800606CE10006003A0050
:10095C00A04280008C9FBE008A9FBE000000010058
:10096C004F05BE004F06BE00616CE10006003A0068
:10097C00904280008C9FBE008A9FBE000000010048
:10098C004F05BE004F06BE001E0090004F057800BC
:08099C000080FA0000000600D3
:1006A8000000FA000682BF007F0060000000E20040
:1006B80001003200FBFF37000662A8004EFF07006A
:1006C8000682BF007F0060000000E20001003200E7
:1006D800FBFF37001400E2000200320006A2A80067
:1006E8000100370006A2A9000682A80042FF070001
:0C06F80000C2BF000080FA0000000600F5
:10064C000000FA001682BF007F0060000000E2008C
:10065C0001003200FBFF37001662A8006CFF070098
:10066C001682BF007F0060000000E2000100320033
:10067C00FBFF37001400E2000200320016A2A800B3
:10068C000100370016A2A9001682A80060FF07001F
:0C069C0010C2BF000080FA000000060041
:101E4000575320000E20ED00FEFF3A000000000076
:041E50000000060088
:1024F4008A1F78008B1F78008A1F78001A00230037
:1025040027F907004F05780091FF2F008100600034
:102514000A80FB004100DD00008070008005780027
:102524001A0023004FFD0700CF0578004F057800FF
:04253400000006009D
:101A68000400FA008A1F78008B1F78008C1F78000A
:101A78008D1F7800E200470000F02F00008065000D
:101A88004800DE00804878000220EC00F00F2000BB
:101A98000080650080487800E000470000F02F00D3
:101AA800000065004800DE00804878000220EC0055
:101AB800F00F2000000065008048780039FB07001F
:101AC800E0004700C08420001DC0B3002C002000A7
:101AD80081057800104578003BFB0700E2004700CD
:101AE800C08420001A20EF002C0020008105780017
:101AF8001045780034FB0700CF0678004F067800C1
:101B0800CF0578004F0578000080FA000000060035
:102538000600FA008A1F78008B1F78008C1F78002D
:102548008D1F7800E000470000F02F0000006500B4
:102558004800DE00804878000220EC00F00F2000E0
:1025680000006500804878008EF80700E00047000A
:10257800C08420001DC0B3002C0020008105780015
:102588001045780090F80700E2004700C08420005A
:102598001A20EF004C0020008105780010457800D3
:1025A800C0F8070062024700620042001080FB008A
:1025B8008000EB00C809DD004801DE0083017100DE
:1025C8004801DD00630042001080FB008000EB0042
:1025D8000000710081807100C809DD004801DE003B
:1025E800830171004801DD001480FB008000EB00CE
:1025F8000000710081807100C809DD004801DE001B
:10260800830171004801DD00610042001080FB0079
:102618008000EB000000710081807100CF06780017
:102628004F067800CF0578004F0578000080FA0043
:042638000000060098
:10263C000600FA0000002000200798008C9FBE00C6
:10264C008A9FBE000C00BE000420EF000620EF00A5
:10265C00FBFA07000000E0000060EF0001003A0008
:10266C000060EC004F05BE004F06BE000040E200CB
:10267C00030032000000200001F82300590037004D
:10268C008C9FBE008A9FBE000A00BE000420EF0093
:10269C000620EF00EAFA07000000E0000060EF00FF
:1026AC0001003A000060EC004F05BE004F06BE0072
:1026BC000040E200030032000020EF000220EF0097
:1026CC00480037008C9FBE008A9FBE000420EF009C
:1026DC000620EF000A00BE00D9FA07000000E00057
:1026EC000060EF0001003D000060EC004F05BE00F3
:1026FC004F06BE000040E200210032008C9FBE005D
:10270C008A9FBE000C00BE0005F907000007980068
:10271C00110798000081EB0022FB07004F05BE005B
:10272C004F06BE008C9FBE008A9FBE000C01BE00EF
:10273C00C3FA07000000E0000060EF000100320067
:10274C000060EC004F05BE004F06BE000040E200EA
:10275C00030032000020EF000220EF0021003700C0
:10276C008E0090006400470061886000000020002B
:10277C000100280000006D0081806D000005BE0086
:10278C008C9FBE008A9FBE006CFD07004F05BE00EB
:10279C004F06BE000005BE008A9FBE000C01BE00A5
:1027AC0045F907004F05BE000005BE008A9FBE001C
:1027BC000005BE0049FE07004F05BE000005BE0027
:1027CC00640047001000E00005003200000020000B
:1027DC000100280000006D0081806D0001003700B1
:0C27EC000A00BE000080FA000000060099
:101D48000200FA008C1F78008D1F78008A9FBE0061
:101D58000420EF000620EF000A00BE0039FD07004E
:101D68000000E0000060EF0001003C000060EC00B3
:101D78004F05BE000040E200030032000020EF00E3
:101D88000220EF00210037006000470000067800BD
:101D9800EFFD07008A9FBE00020020000300240018
:101DA800C6FB07000200200003F82300FEFD070021
:101DB8004F05BE000005BE0013002000600147006B
:101DC800128911008A9FBE008D002000AC082800EF
:101DD8000005BE0020FD07004F05BE000005BE003F
:101DE8008A9FBE000E009000CF80DE000081EB00CD
:101DF8006DFD07008221270013F32300AFFB0700C6
:101E08004F05BE000A01BE0039FC0700CF06780066
:0C1E18004F0678000080FA000000060071
:101558000400FA000A0798001B0798009E009000F4
:1015680000F8270080806000C708DE00E007200040
:1015780000805000000E780001F023006200470050
:101588009080680000F827008080600062004700B3
:1015980090806800110798000E0090009E0090004F
:0815A8000080FA0000000600BB
:101260000000FA004268DD00000146001200BE00E6
:101270000001BE001A00E200130032008C9FBE0085
:101280008A9FBE000200BE000A01BE008DFE07005C
:101290004F05BE004F06BE006181560082067800F1
:1012A0004269DD00020246001401BE008C9FBE00B0
:1012B0008A9FBE0010FF07004F05BE004F06BE000C
:1012C0000001BE00EBFF37000200BE000080FA0004
:0412D0000000060014
:100CC4000000FA000200070078070400000000009A
:100CD400889FBE008A9FBE008C1F780030000700EA
:100CE4003700330003866C006450E10024003200B6
:100CF4006420E100270032006150E100220032004C
:100D04006120E100210032008B854200EB07B10035
:100D14000134B800003AB8000804420089844A004B
:100D2400013AB8000030B8008880400009014A0048
:100D340004003300000040008180480002014900A3
:100D44008B05E900C909DD00830170000100320050
:100D540013002000C814DE004814DD004709DE003B
:100D64001200B200C808DE000884700024000700E6
:100D740001F0A1000CF0A70003E0A800190037005F
:100D84006120E1001B0032000881BE000280BE0029
:100D9400F7FF37006150E100FCFF3A00150037000F
:100DA4000084BE003C0007000083BE000485BE0032
:100DB4000280BE0038000700844F75000000060062
:100DC4000280BE006450E100050036006420E100AA
:100DD400020036000968A30001003A000880BE0042
:100DE40002C0A8004F0678004F05BE004F04BE00A5
:100DF40000000600F0FF2F00F1FF2700F9FF370085
:100E040081002000618055000B003D000B00200094
:100E140061FE2F000100E1001D0034008281710099
:100E2400610164008904D1000884D3000000E80053
:100E3400FAFF3A00710020006100640003007000B2
:100E4400020060000900320061044400E0844C00A8
:100E54000988A500050032008B05E8006808E10058
:100E640002003A008904D1000884D300F20F200064
:100E74000258E10005003D00C75DDD00F907B2003E
:100E84008980750008008800000006000BF8270020
:100E94001B00880000000500C70ADE00F107B2004D
:100EA400F50FB20008003200E1CF42000200320028
:100EB40002E0A80024000500810F70000100320048
:100EC4000408050044000500810F700002003A0088
:100ED400140005008502E9000000400081C04800BC
:100EE400FCFF3B0002E0A800240005000080FA009B
:040EF40000000600F4
:100EF8000000FA0002000700E408040000000000F7
:100F0800889FBE008A9FBE008C1F7800590007008A
:100F1800600033006450E1004F0032006420E100BB
:100F28005200320003826C0007003B000905D00024
:100F38000306D000820F54000C065D000200390041
:100F48000200320039008800C300880085825500FD
:100F580004003D000003FD008103FD008502EA0056
:100F68008B854200840F720002003B006000100075
:100F7800E08018006011B8000005EB007A28E10055
:100F88000A00390006008800C75DDD00F707B200D7
:100F9800878075002D003700828171002A00880043
:100FA800610560008180D1000080D3008502E900DE
:100FB800F9FF3B00060440008784480002003B001C
:100FC80060041400E0841C000988A30007003200B4
:100FD8008A81710082817100610164008904D100F5
:100FE8000884D3008B05E800170037000978A300B0
:100FF80013003A001600E200130034008B05E900E4
:101008000804440089844C000A4474000978A30049
:101018000D003A001600E200070034008B05E900D5
:101028000804440089844C0001003A000B002000A9
:101038000978A300F7FF32000001EB000200370037
:10104800828171002A008800220007000CF0A700A6
:1010580003E0A800180037006420E10002003A000D
:10106800838F6C00180033000881BE000280BE0028
:10107800110037000084BE003C0007000083BE005A
:101088000485BE000280BE0038000700844F75004A
:10109800000006000280BE006450E1000500360032
:1010A8006420E100020036000968A30001003A004C
:1010B8000880BE0002C0A8004F0678004F05BE0099
:1010C8004F04BE0000000600F0FF2F00F1FF2700CC
:1010D800F9FF370081002000618055000B003D00BA
:1010E8000B00200061FE2F000100E1001D0034000C
:1010F80082817100610164008904D1000884D300F1
:101108000000E800FAFF3A00710020006100640066
:10111800030070000200600009003200610444000E
:10112800E0844C000988A500050032008B05E80022
:101138006808E10002003A008904D1000884D3005D
:10114800F20F20000258E10005003D00C75DDD00F8
:10115800F907B200898075000800880000000600C1
:101168000BF827001B00880000000500C70ADE00F6
:10117800F107B200F50FB20008003200E1CF4200DB
:101188000200320002E0A80024000500810F700070
:10119800010032000408050044000500810F7000BA
:1011A80002003A00140005008502E9000000400032
:1011B80081C04800FCFF3B0002E0A80024000500B5
:0811C8000080FA00000006009F
:10124C000000FA0014002000FCFD07000080FA00EA
:04125C000000060088
:100A48000000FA0002000700920504000000000000
:100A5800841F7800140007004F007800110033004D
:100A6800F0FF2F00838F6C0006003B000405650033
:100A78000A00A7000800370009F0A60010002000AF
:100A880008003700820F5400838F5C000300390090
:100A98001000200001003E000000200009F0A7001F
:100AA8000000EA00000006000084BE0006000700FF
:100AB8000083BE000485BE000280BE00020007005D
:100AC800844F750000000600C70ADE00F107B20077
:100AD800F50FB20008003200E1CF420002003200F8
:100AE80002E0A80024000500810F70000100320018
:100AF8000408050044000500810F700002003A0058
:100B0800140005008502E9000000400081C048008B
:100B1800FCFF3B0002E0A800240005000080FA006A
:040B280000000600C3
:1015B0000000FA0007E0AA004FFE07000080FA00D2
:0415C0000000060021
:1013B0000000FA00020007008A0A04000000000092
:1013C0000400E20006003A000005EB000200E20023
:1013D0000F003E000000E200270032000C00370042
:1013E000A10088000200E2000400350008003C0073
:1013F0000000E2002000320005003700600010000D
:10140000E080180002003B0001F02C001A003700B9
:101410000084BE006011B8006B0920000982CF0073
:10142000020039000882CF000441B0006942520036
:101430000E00320008003B008281710061016400EF
:101440008904D1000884D3008B05E8000442E80039
:10145000F9FF3A00050037000804440089844C0075
:101460008B05E9000442E900FBFF3A000300070096
:101470000AF0A70003E0A800000006008100200099
:10148000618055000B003D000B00200061FE2F0025
:101490000100E1001D0034008281710061016400DF
:1014A0008904D1000884D3000000E800FAFF3A0064
:1014B0007100200061006400030070000200600001
:1014C0000900320061044400E0844C000988A50052
:1014D000050032008B05E8006808E10002003A00D0
:1014E0008904D1000884D300F20F20000258E100E3
:1014F00005003D00C75DDD00F907B2008980750079
:1015000008008800000006000BF827001B00880078
:0C151000000005000080FA00000006004A
:1020E8000400FA008C1F78008D1F78008A9FBE00BC
:1020F8000A00BE000420EF000620EF0051FC070094
:102108000000E0000060EF0001003A000060EC0011
:102118004F05BE000040E20003003200000020002E
:1021280001F82300680037008A9FBE00E24F2D00A7
:10213800232B24000A00BE00DBFA07000000E000A1
:102148000060EF00010034000060EC004F05BE00A5
:102158000040E20003003200F0FF2F00F1F72700F3
:10216800590037008A9FBE0002C52A00E32A2C00C6
:102178000A00BE0033FC07000000E0000060EF002A
:1021880001003D000060EC004F05BE000040E20089
:10219800030032000020EF000220EF004A00370061
:1021A8008A9FBE000420EF000620EF000A00BE0050
:1021B80024FC07000000E0000060EF0001003D0083
:1021C8000060EC004F05BE00204798000040E20088
:1021D80005003200000020000100280000006D000A
:1021E80081806D000005BE008A9FBE000A00BE0007
:1021F800B2A32A0083FB2300B0FA07004F05BE00F4
:102208000005BE008A9FBE000005BE002FFC070027
:1022180044FA070000079800CF80DE000081EB0039
:1022280061FC07004F05BE008A9FBE000001BE008A
:102238000A00BE00DCFC07004F05BE000005BE001A
:102248008A9FBE009D0020002C0628000005BE00C5
:1022580001FC07000E0690000005BE00CEFD070039
:102268004F05BE000005BE00620047001004E000F4
:10227800140032008A9FBE000A00BE00F2FF2F0041
:10228800F3F72700EFFB07000000E0000060EF0015
:1022980001003A000060EC004F05BE000040E2007B
:1022A800030032000020EF000220EF000600370094
:1022B8000A01BE000000200001F823001BFD0700F2
:1022C800010037000A00BE00CF0678004F067800EC
:0822D8000080FA00000006007E
:1012D4000000FA00C758DE000001EB00F00F200008
:1012E40080806000F00720000080500080007800BB
:1012F4006000E10010003D000420EF000620EF0034
:101304000A00BE00D0FF07000000E0000060EF000C
:1013140001003D000060EC000040E20003003200E8
:101324000000200001F82B001E0037000020EF0011
:101334000220EF001B0037007808E10002003600AD
:101344000A00BE00170037008A9FBE000A00BE00D4
:10135400F5FD07000081EB00140007004F05BE00F7
:101364000002BE00849FBE000A01BE004FFE0700BB
:101374000000E0000060EF00010034000060EC00B9
:101384004F02BE000040E2000500320002002000CF
:1013940003F823000400BE008400070001003700A6
:0C13A4000400BE000080FA0000000600FB
:100B2C000000FA00020007000A06040000000000A2
:100B3C000081BE001F0007000470A70003F0A10095
:100B4C006509B100160032000D0035006828E1007F
:100B5C0006003500F0FF2F00F1FF27000600E20031
:100B6C0013003B00010028000000050000004000BD
:100B7C00818048008502E900FCFF3A00080037003C
:100B8C00F88F420002003C008000EB0000000500E2
:100B9C008100D1000080D3008502E800FCFF3A0000
:100BAC000600E20002003B0060001000E08018002C
:100BBC0000000600C70ADE00F107B200F50FB20014
:100BCC0008003200E1CF42000200320002E0A8002F
:100BDC0024000500810F700001003200040805009C
:100BEC0044000500810F700002003A00140005005B
:100BFC008502E9000000400081C04800FCFF3B007A
:100C0C0002E0A800240005000080FA0000000600A5
:100CB0000000FA00F4FF2F0063FF07000080FA0035
:040CC000000006002A
:1019A0000400FA000A0798001B0798009E009000A8
:1019B00000F82700008060004700DE0000004600BD
:1019C000000678006000E10003003D000020EF0009
:1019D0000220EF001F003700F00F20000060E10040
:1019E000100034000420EF000620EF000A00BE00C3
:1019F00016FE07000000E0000060EF0001003D005F
:101A00000060EC000040E20003003200F0FF2F0015
:101A1000F1F72F000F003700F0FF2F00F1F727003C
:101A20000C00370070C0B3000000FB008060DD00D8
:101A3000620047009080680000F827008080600006
:101A40006200470090806800110798000E00900027
:0C1A50009E0090000080FA0000000600DC
:101734000000FA0002000700CC0C040000000000C6
:10174400889FBE008A9FBE008C1F78003E00070061
:101754004500330003866C006450E1002E00320023
:101764006420E100330032006150E1002F003200B8
:101774006120E1003100320085855500EB07B0009F
:101784000900200008042000050037000804440074
:1017940089844C000A0031000603430087834B0010
:1017A4000001530081815B00F8FF33000283BE0017
:1017B4001000A8000804440089844C00F6FF390096
:1017C400C639DD00830173000100320013002000DC
:1017D4008904D1000884D3000998A30005003200CD
:1017E4000800A7000600A8008904D1000884D300DB
:1017F4008B05E8008904D1000884D3000001EB00C4
:101804000281D2002800070001F0A1000CF0A7001B
:1018140003E0A8001D0037006420E1001F0032002F
:101824000881BE000280BE00F7FF37006120E1009E
:101834001A0032006000B800F3FF370000002000F7
:1018440001F82700F0FF37000084BE003C000700C9
:101854000083BE000485BE000280BE00380007007D
:10186400844F7500000006000280BE006450E10051
:10187400050036006420E100020036000968A30078
:1018840001003A000880BE0002C0A8004F0678009C
:101894004F05BE004F04BE0000000600F0FF2F00FD
:1018A400F1FF2700F9FF3700810020006180550017
:1018B4000B003D000B00200061FE2F000100E10041
:1018C4001D00340082817100610164008904D1002B
:1018D4000884D3000000E800FAFF3A0071002000F9
:1018E400610064000300700002006000090032001F
:1018F40061044400E0844C000988A500050032001E
:101904008B05E8006808E10002003A008904D10070
:101914000884D300F20F20000258E10005003D00C6
:10192400C75DDD00F907B2008980750008008800F2
:10193400000006000BF827001B00880000000500CB
:10194400C70ADE00F107B200F50FB200080032004A
:10195400E1CF42000200320002E0A80024000500AA
:10196400810F7000010032000408050044000500E6
:10197400810F700002003A00140005008502E9009E
:101984000000400081C04800FCFF3B0002E0A800CA
:0C199400240005000080FA00000006009E
:10373C004800FA008A1F78008B1F78008C1F7800D5
:10374C00F70047000000280030000900B05878004E
:10375C003FFF07000001BE0077004700829FBE00BC
:10376C001BC0B30000057800A5FF07004F01BE0089
:10377C0060004700000678000205BE001EFD070031
:10378C00600047002BC0B300000578009CFF0700C9
:10379C0030FE07000001BE000003200000004700BF
:1037AC00829FBE001BC0B3000005780094FF070089
:1037BC004F01BE0060004700000678000205BE0005
:1037CC000DFD0700600047002BC0B300000578001A
:1037DC008BFF070098022000770B2B000E20ED00CA
:1037EC00FEFF3A001020ED00FCFF3A004F06780077
:1037FC00CF0578004F0578000080FA000000060025
:10345C001800FA008A1F78008B1F78008C1F7800E8
:10346C008D1F7800AAFB07006304E1000100320005
:10347C00C5FB0700B9FB0700EA2E2000CDFB0700B7
:10348C005A00240044F50700000798008A00240025
:10349C0041F50700100798000E009000CF80DE0069
:1034AC000081EB00BFF7070002002000031424008A
:1034BC009DF80700200F9800310F9800B241800052
:1034CC00C3418000FCF50700000F9800110F980015
:1034DC001E009000CF80DE000081EB00B1F70700EA
:1034EC00680247000E0990009E0990007FF60700C5
:1034FC0040079800510798002E089000BE089000D5
:10350C004E019000DE01900087F80700000F980034
:10351C00110F98000C0020008D1924000A002000C7
:10352C000B00240042FC07000E0990009E0990003D
:10353C00E1F50700200798003107980072418000E0
:10354C008341800017F80700D2418000E3418000DE
:10355C0075F8070092418000A341800063F60700D4
:10356C00000F9800110F98002E009000BE009000E4
:10357C0072418000834180000AF807000C00200093
:10358C000D0024000005BE0029FC0700324280001B
:10359C0043428000C8F507000E0990009E09900078
:1035AC0052F60700CF0678004F067800CF0578005A
:0C35BC004F0578000080FA0000000600B7
:10231C008A1F78001A0023009FF907004100DE0095
:0C232C00630060004F0578000000060010
:102394008A1F78008B1F78001A00230080F9070039
:1023A40068007000800578001A002300ADFD070066
:0C23B400CF0578004F05780000000600FF
:102368008A1F78008B1F7800EBFC0700E1FF2F0025
:102378000100600080057800FAFF2300B8FD07001F
:0C238800CF0578004F057800000006002B
:1023C0000200FA0000002000000798008A1F780031
:1023D000A2FD07004F0578000040E20008003A0027
:1023E00097FE07000E0090000020EC000007980008
:1023F0000A00E1000100360001003700F3FF37005A
:082400000080FA000000060054
:0C1A5C0030FF0700610060000000060081
:10360C000200FA008A1F78008A007800D00020009F
:10361C0000479800A00020001047980025003700B4
:10362C000105780046FB07002900370001007800EF
:10363C001004E00008003200801F78008A9FBE0052
:10364C00000578003EFB07004F05BE004F007800D8
:10365C000020EC00F6FF37001D0037000100780059
:10366C001004E00008003200801F78008A9FBE0022
:10367C000005780032FB07004F05BE004F007800B4
:10368C000020EC00F6FF3700600047008A9FBE0068
:10369C00000578002AFB0700610047000005780050
:1036AC0027FB07004F05BE000900370060C0B300C0
:1036BC0007003700605CE100D9FF3200615CE1007B
:1036CC00DAFF3200625CE100E4FF3200F7FF370002
:0C36DC004F0578000080FA000000060096
:10234C008A1F78001A85FB00704280000000010093
:0C235C000020EF004F0578000000060094
:101E24000000FA002302AF0001003700FDFF370075
:0C1E34002A1188000080FA00000006005F
:101D2C000000FA003302AF0001003700FDFF37005E
:0C1D3C00AA1188000080FA0000000600D8
:102C04000600FA008A1F78008B1F7800000020005D
:102C14004047980000002000504798000A07980099
:102C24001B0798000E0190009E019000F0FF2F00FA
:102C3400F1FF2F000010E1000198E10005003A00C7
:102C44000B8120000C057800A4FD070030C0B30000
:102C5400FE00370016C0B300600047006300400068
:102C64001040780000E0AE000D003700600047001F
:102C7400630140009280FB0000082000008068008F
:102C840000497800E1404300D0C2B300004E780010
:102C94006100460000067800014278000100370018
:102CA400064278000E0090009E0090006000E10053
:102CB4006088E10005003A008B8120000C05780053
:102CC40086FD07000020EF00E00037000E019000B1
:102CD4009E0190000000200001F827000010E10090
:102CE4000198E10005003A00CB8020000C05780033
:102CF4007AFD070004407800D40037008C1F780068
:102D04008A9FBE000200200003F823000E009000FA
:102D14009E0090004CF907000000E0000060EF0006
:102D240001003D000060EC004F05BE004F06780036
:102D34000040E2000F0032008C1F78008A9FBE0022
:102D44000E0090009E009000020020000312240058
:102D5400DBF707004F05BE004F0678000007980018
:102D640011079800DE4090006500470061C85000DC
:102D7400E2FF37008C1F78008A9FBE00020020000B
:102D8400031224000E0090009E009000C7F7070075
:102D94000000E0000060EF00010035000060EC007E
:102DA4004F05BE004F0678000040E2000F003200DD
:102DB4008C1F78008A9FBE000E0090009E00900039
:102DC400D2CC2C00C3DC2300BDF707004F05BE00A6
:102DD4004F0678000007980011079800DE40900025
:102DE4006500470061C84000E2FF3700600147000A
:102DF4003200D000A280D20000079800110798008A
:102E0400600047006300400090407800F0C7B300C2
:102E140000C1500060004700E300400010C0B30050
:102E2400804878008281FB00600147001200BE00E8
:102E34008301E900030035000000D0008180D20046
:102E4400FBFF370000079800110798006000470057
:102E540063004000010320001080FB00008040005C
:102E6400004E780061004600000678005E40900045
:102E74006104E100040035005E4090006604E10056
:102E840001003C0006003700E0C2B300004E7800A9
:102E9400610046000006780010C0B3004047980067
:102EA40065C0B300602CE1002C00320060004700D4
:102EB400E30040000020EF008048780060004700F5
:102EC400B001D0002082D2008301D0000482D2005D
:102ED4006001470032804100A2004A0000079800C8
:102EE40011079800600147003200D000A280D20090
:102EF4000007980011079800600047006300400035
:102F0400010320001080FB0000804000004E780088
:102F140061004600000678004E4090006004E10025
:102F24000B003A005E4090000060ED0050479800AE
:102F34006004E10006003A00E0C2B300004E7800ED
:102F4400610046000006780010C0B30040479800B6
:102F540061C0520080427800D2FF3700F0FF2F009A
:102F6400000046009040780000C3B300000CE1006C
:102F740003003A006100560000067800F7FF3700AE
:102F8400F0FF2F000000460090407800E0C2B3003C
:102F9400000CE10002003A006100560000067800CF
:102FA4005E4090006004E1002500320050C6B3008A
:102FB400004E780061004600000678005E409000F4
:102FC4006004E10007003D00D0C2B300004E780069
:102FD4006100460000067800DE409000650047006E
:102FE40060C81000DE4190005E4090006904E1007A
:102FF4000A0036000380FB00A20020001100090033
:103004000200D80080007800000320000100400086
:10301400004E780061004600000678000380FB0043
:10302400A2002000110009000200D80000032000C3
:1030340001004000004E7800610046000006780060
:103044000020EF00004E78000020EF00CF0578004C
:0C3054004F0578000080FA000000060024
:1022E0000000FA000A00780000017800E1014000D7
:1022F0008B007800618045008005780011497800E6
:102300001204E0000200320003007800F6FF3700FC
:0C2310000A0078000080FA0000000600BF
:103060003A00FA008A1F78008B1F78008C1F7800C6
:103070008D1F7800A9FC07006304E1000100320005
:10308000C4FC0700B8FC0700EA2E2000CCFC0700B7
:10309000F20007005A00240042F6070020079800BB
:1030A0008A0024003FF6070030079800A2FC0700C2
:1030B000804078006104E10007003A003A002400F3
:1030C00038F60700000798004A00240035F607008C
:1030D000100798000F003700620CE10007003A006B
:1030E0006A0024002FF60700000798007A002400E9
:1030F0002CF6070010079800060037003A0024005D
:1031000028F60700000798004A00240025F607006B
:10311000100798000020EF00004F98000E48900024
:103120006304E100BD0031002E009000CF80DE007E
:103130000081EB009EF80700020020000314240029
:103140007CF90700301F9800411F9800B2418000B1
:10315000C3418000DBF60700101F9800211F980074
:103160003E009000CF80DE000081EB0090F8070069
:1031700024022000040247001E199000AE1990009E
:103180005DF7070010179800211798003E1890006F
:10319000CE1890001E119000AE11900065F9070046
:1031A000101F9800211F98000C0020008D1924008A
:1031B0000A0020000B00240020FD07001E199000CB
:1031C000AE199000BFF60700700F98000117980025
:1031D0007241800083418000F5F807000C00200058
:1031E0000D0024000005BE0014FD07008E009000B5
:1031F0006200470010804000CF80DE000081EB00BD
:103200006BF80700020020000300240049F90700C2
:1032100050079800610798002E009000CF80DE00D4
:103220000081EB0062F80700020020000314240074
:1032300040F907001242800023428000A1F60700F7
:10324000101F9800211F98003E009000CF80DE00E4
:103250000081EB0056F807001E199000AE1990008F
:1032600025F7070070079800010F98000200200062
:10327000031424005E009000EE0090002DF907007A
:103280007E0190008E0990002AF90700101F980017
:10329000211F98000C0020008D1924000A00200036
:1032A0000B002400E5FC07001E199000AE199000E9
:1032B00084F60700100F9800210F98007E089000F8
:1032C0008E109000F241800003428000B8F80700A1
:1032D000C2428000D342800016F90700020020009D
:1032E000831C240004F70700300F9800410F98005A
:1032F0003233290083382400FFF60700500F98006E
:10330000610F98000040800011408000224380003F
:10331000334380006BF607000243800013438000B4
:1033200068F60700301F9800411F98004040800059
:103330005140800022408000334080009CF807000C
:1033400042438000534380005EF6070002002000E5
:1033500003F82300E8F60700101F9800211F9800CB
:103360003E089000CE089000A2408000B34080004C
:103370008FF80700624380007343800051F6070016
:103380001E199000AE199000DBF607003E19900060
:10339000CE1990004BF607001017980021179800DF
:1033A0001E119000AE1190001E089000AE08900013
:1033B000E0F80700101F9800211F98000C00200063
:1033C0000D0824005E0D9000EE0D90009BFC0700A0
:1033D0001E199000AE199000C7F607000C002000DF
:1033E0000DE823000005BE0094FC070032332900DD
:1033F000833824006EF80700E2428000F342800028
:103400006BF8070020408800314088008E4890000B
:103410006800470061C8400040FF3700204080003E
:1034200031408000CF0678004F067800CF05780045
:0C3430004F0578000080FA000000060044
:10233800F9FC0700C1072000010060004200DE0030
:04234800000006008B
:10389C000A8020000B002000370009000B1D780067
:0438AC000000060012
:1038B00001802000E00A28000C000900B018780000
:0438C00000000600FE
:020000040001F9
:10000000414D000042490000454E000054200000D0
:10001000544500004D50000045520000415400007E
:100020005552000045200000495300003A200000CE
:10003000004F0000424A00004543000054200000E9
:10004000544500004D50000045520000415400004E
:100050005552000045200000495300003A2000009E
:04006000000000009C
:10006400FFFF0000FFFF0000FFFF0000FFFF000094
:10007400FFFF0000FFFF0000FFFF0000FFFF000084
:10008400FFFF0000FFFF0000FFFF0000FFFF000074
:10009400FFFF0000FFFF0000FFFF0000FFFF000064
:1000A400FFFF0000FFFF0000FFFF0000FFFF000054
:1000B400FFFF0000FFFF0000FFFF0000FFFF000044
:1000C40000000000803F000018720000313F000073
:1000D400F0FD0000753E000047580000633D00003D
:1000E400589500001D3C000082C40000AE3A000098
:1000F400A878000021390000EF9300008037000049
:10010400A0920000A73500004656000015340000F8
:10011400FFE60000DB2E0000C4FF00007F3F00006C
:1001240080EF0000FFBE000090E10000A93E000047
:10013400EC82000076BE000082AD00002B3E000081
:100144000E3C0000C3BD000087D10000133D000039
:0801540041780000D3BB00005C
:08015C0000000000803F0000DC
:0801640000000000C84100008A
:08016C0000000000C841000082
:08017400494E000046000000A6
:08017C004E6100004E0000007E
:0801840000000000C84100006A
:04018C00300000003F
:1001900048020000FE02000012030000AC03000051
:0401A0002603000032
:0801A400A0860000010000002C
:0200000401F009
:20000000CF000000CF00000007000000A2000000850000007F000000E7000000C1000000ED
:00000001FF
