:100000000C94E3150C9400000C9400000C94000078
:100010000C9400000C9400000C9400000C94000060
:100020000C9400000C9400000C9400000C94000050
:100030000C9400000C9400000C9400000C94000040
:100040000C9400000C9400000C9400000C94000030
:040050000C9400000C
:102BC600BFE5BDBFB8E0BEBF0E945A1644DF67DF4F
:062BD6008BDFFECFFFCFF4
:102A5C002F923F924F925F926F920FEA1CE2302EB0
:102A6C00412E22248FDDB0EC3B2EBAED4B2EB0E084
:102A7C005B2E6B2EB1E02B2E75DC25E01FE002EFF8
:102A8C000A95F1F71A95E1F72A95D1F76F905F90B7
:082A9C004F903F902F90089528
:102590002F923F924F9211C0232C342C0E94840A18
:1025A00016C0232C342C0E94480911C0232C342C33
:1025B0000E94FE090CC001E00AC0B0E02B1661F3D6
:1025C000B1E02B1671F3B2E02B1681F3F4CF4F90EC
:0625D0003F902F900895DA
:10150800CF93DF93CDB7DEB72297CDBFDEBF21964D
:101518002F923F9281010883198313C0B1B1BE7F16
:10152800B1B9B1B1BD7FB1B9B0E2B0B935DC26C04F
:10153800EDDB222498DB222426DE51DD1FC004E0E7
:101548001EC048815981FA0105911591259135915F
:10155800303029F4213019F4163809F4003AF1F240
:10156800FA010591159125913591303029F42030F3
:1015780019F4103009F40030D9F2E1CF00E03F90BF
:0E1588002F902196CDBFDEBFDF91CF91089549
:100D14002F92409170005091710060917200709117
:100D24007300B4EAB6BFB6B7B7FD25C00091700032
:100D3400109171002091720030917300B02FB12B8B
:100D4400B22BB32BB9F0B42FB52BB62BB72B49F478
:100D5400B5E02B2EE091B200F091B300099501E0CB
:100D640010C08A019B010150104020403040A8016E
:100D7400B90100C0D8CFAEDF0830B0E009F0B1E06F
:060D84000B2F2F900895D3
:100C5600BBB1B5FD01C0FCCFBBB1B6FF03C0BBB194
:080C6600B064BBB92CB808957D
:100C6E002F924091700050917100609172007091BE
:100C7E00730023B8B4E8B6BFB6B7B7FD24C0009171
:100C8E007000109171002091720030917300B02F9E
:100C9E00B12BB22BB32BB1F0B42FB52BB62BB72B88
:100CAE0041F4B4E02B2EE091B200F091B30009951F
:100CBE000AC08A019B010150104020403040A8011B
:0A0CCE00B90100C0D9CF2F9008959E
:0A08580020FABBB3B7F9BBBB08954B
:0A08620020FABBB3B6F9BBBB089542
:0A083A0020FABBB3B5F9BBBB08956B
:0A081C0020FAB8B3B7F9B8BB08958D
:0A08260020FAB8B3B6F9B8BB089584
:0A08300020FAB8B3B5F9B8BB08957B
:0A06A60020FAB2B3B4F9B2BB089514
:0A06420020FAB2B3B2F9B2BB08957A
:0A06380020FAB2B3B0F9B2BB089586
:0A064C0020FAB2B3B1F9B2BB089571
:0A061A0020FAB5B3B0F9B5BB08959E
:0A062E0020FAB5B3B1F9B5BB089589
:0A06240020FABBB3B0F9BBBB089588
:0A069C0020FABBB3B1F9BBBB08950F
:0A067E0020FABBB3B3F9BBBB08952B
:0A066A0020FAB8B3B7F9B8BB089541
:0A06740020FAB8B3B6F9B8BB089538
:0A06600020FAB8B3B5F9B8BB08954D
:0A06920020FAB2B3B5F9B2BB089527
:0A06880020FAB2B3B3F9B2BB089533
:0A06560020FAB2B3B0F9B2BB089568
:0A086C0020FAB2B3B1F9B2BB08954F
:0A096A0020FAB5B3B0F9B5BB08954B
:0A09600020FAB5B3B1F9B5BB089554
:0A09560020FABBB3B4F9BBBB08954F
:0A09740020FAB8B3B0F9B8BB08953B
:0A09920020FAB8B3B4F9B8BB089519
:0A09880020FAB8B3B7F9B8BB089520
:0A097E0020FAB8B3B6F9B8BB08952B
:0A094C0020FAB8B3B5F9B8BB08955E
:0A088A0020FAB8B3B3F9B8BB089523
:0A08800020FAB8B3B2F9B8BB08952E
:0A08760020FAB2B3B2F9B2BB089544
:0A08940020FAB2B3B3F9B2BB089525
:0A09420020FAB5B3B0F9B5BB089573
:0A09380020FAB5B3B1F9B5BB08957C
:060CD80001B1087F089540
:10118E002F92409170005091710060917200709199
:10119E007300B4E8B6BF20FAB6B7B6F9B6BFB6B7A5
:1011AE00B7FD25C000917000109171002091720062
:1011BE0030917300B02FB12BB22BB32BB9F0B42FEB
:1011CE00B52BB62BB72B49F4B3E02B2EE091B20022
:1011DE00F091B300099501E00BC08A019B0101500B
:1011EE00104020403040A801B90100C0D8CF03B153
:0411FE002F90089591
:060FE600B4E9B6BF089556
:0A0DA000B0E3B1B9B4E0B6BF0895A6
:10129000CF93DF93CDB7DEB72297CDBFDEBF2196C8
:1012A0002F923F9281010883198313C0B1B1BE7F91
:1012B000B1B9B1B1BD7FB1B9B0E2B0B971DD26C08D
:1012C00029DD2224D4DC222462DF8DDE1FC004E06D
:1012D0001EC048815981FA010591159125913591DA
:1012E000303029F4213019F4163809F4003AF1F2BB
:1012F000FA010591159125913591303029F420306E
:1013000019F4103009F40030D9F2E1CF00E03F9039
:0E1310002F902196CDBFDEBFDF91CF910895C3
:0413FC0004E008956C
:102370002F923F924F925F926F921AC0232C342C6F
:10238000452C562C97DA21C0232C342C452C562C66
:1023900039D81BC0232C342C452C562C31D815C0D1
:1023A000232C342C452C562CF6D80FC001E00DC040
:1023B000B0E02B1619F3B1E02B1631F3B2E02B1677
:1023C00049F3B0E12B1661F3F1CF6F905F904F901E
:0623D0003F902F900895DC
:1018B4002BC0B7E6B9B9B0E0B0BD75DA73C0B3E315
:1018C400B9B9B0E0B0BD6FDA6DC0B9E1B9B9B0E093
:1018D400B0BD69DA67C0BCE0B9B9B0E0B0BD63DAE5
:1018E40061C0BBB1B260BBB9B0E1B9B9B0E0B0BDE1
:1018F4005ADA58C0BBB1B260BBB9B8E0B9B9B0E00C
:10190400B0BD51DA4FC04EC0B0E05B1641F4B0E058
:101914004B1629F4B2E13B1611F4B0EC2B1649F244
:10192400B0E05B1641F4B0E04B1629F4B5E23B1687
:1019340011F4B0E82B1609F4C2CFB0E05B1641F401
:10194400B0E04B1629F4BBE43B1611F4B0E02B16BF
:1019540009F4BBCFB0E05B1641F4B0E04B1629F4B8
:10196400B6E93B1611F4B0E02B1609F4B4CFB0E09D
:101974005B1641F4B0E04B1629F4B1EE3B1611F4BA
:10198400B0E02B1609F4ADCFB0E05B1641F4B1E042
:101994004B1629F4B2EC3B1611F4B0E02B1609F403
:1019A400A9CFB1CFBBE2B093C000B6E0B093C10001
:0419B40000E00895B2
:100DAA00BBE2B093B400B6E0B093B500B2E9B09339
:100DBA00BA00B0E0B093BB00B4E9B093B800B0E0B9
:100DCA00B093B900BDE8B093B600B0E0B093B700F5
:100DDA00B1B3BE7FB1BBB1B3B260B1BB0AB10861F6
:080DEA000AB9B6E8B0BD089596
:101404002BC0B7E6B9B9B0E0B0BDCDDC73C0B3E36F
:10141400B9B9B0E0B0BDC7DC6DC0B9E1B9B9B0E0ED
:10142400B0BDC1DC67C0BCE0B9B9B0E0B0BDBBDCE5
:1014340061C0BBB1B260BBB9B0E1B9B9B0E0B0BD95
:10144400B2DC58C0BBB1B260BBB9B8E0B9B9B0E066
:10145400B0BDA9DC4FC04EC0B0E05B1641F4B0E0B3
:101464004B1629F4B2E13B1611F4B0EC2B1649F2F9
:10147400B0E05B1641F4B0E04B1629F4B5E23B163C
:1014840011F4B0E82B1609F4C2CFB0E05B1641F4B6
:10149400B0E04B1629F4BBE43B1611F4B0E02B1674
:1014A40009F4BBCFB0E05B1641F4B0E04B1629F46D
:1014B400B6E93B1611F4B0E02B1609F4B4CFB0E052
:1014C4005B1641F4B0E04B1629F4B1EE3B1611F46F
:1014D400B0E02B1609F4ADCFB0E05B1641F4B1E0F7
:1014E4004B1629F4B2EC3B1611F4B0E02B1609F4B8
:1014F400A9CFB1CFBBE2B093C000B6E0B093C100B6
:0415040000E0089566
:0414000006E0089565
:101596002BC0B7E6B9B9B0E0B0BD04DC73C0B3E3A5
:1015A600B9B9B0E0B0BDFEDB6DC0B9E1B9B9B0E024
:1015B600B0BDF8DB67C0BCE0B9B9B0E0B0BDF2DBE6
:1015C60061C0BBB1B260BBB9B0E1B9B9B0E0B0BD02
:1015D600E9DB58C0BBB1B260BBB9B8E0B9B9B0E09D
:1015E600B0BDE0DB4FC04EC0B0E05B1641F4B0E0EA
:1015F6004B1629F4B2E13B1611F4B0EC2B1649F266
:10160600B0E05B1641F4B0E04B1629F4B5E23B16A8
:1016160011F4B0E82B1609F4C2CFB0E05B1641F422
:10162600B0E04B1629F4BBE43B1611F4B0E02B16E0
:1016360009F4BBCFB0E05B1641F4B0E04B1629F4D9
:10164600B6E93B1611F4B0E02B1609F4B4CFB0E0BE
:101656005B1641F4B0E04B1629F4B1EE3B1611F4DB
:10166600B0E02B1609F4ADCFB0E05B1641F4B1E063
:101676004B1629F4B2EC3B1611F4B0E02B1609F424
:10168600A9CFB1CFBBE2B093C000B6E0B093C10022
:0416960000E00895D3
:102AA4002F923F924F925F926F92BAE36B2EB7EAE6
:102AB4004B2EBCE25B2EBDE02B2EBCE23B2E0CD891
:102AC40025E11BE40FEB0A95F1F71A95E1F72A9536
:102AD400D1F700002FDAB3E02B2E0E944F0D6F9038
:0A2AE4005F904F903F902F900895EF
:101ADC006092C2003F922F921201C6DE2F903F906F
:041AEC0018DC089565
:10187400F101059115910093C5001093C600F10183
:101884003296059115910093BE001093BF00F101AB
:101894003496059115910093BC001093BD00F1019D
:1018A4003696059115910093C3001093C4000895D2
:0018B40034
:02131E00089530
:101F3800CF93DF93CDB7DEB72497CDBFDEBF219611
:101F48002F923F924F925F926F927F928F929F92C1
:101F5800BEEE2B2EB2E03B2E50D9B1E02B2E9BDDEE
:101F6800BCE02B2EB4E23B2E23DD35DA088319833F
:101F78002A833B83B0E06B2E7B2E8B2EB1EC9B2EFD
:101F8800B0E02B2E3B2E4B2EB0E45B2E8ADB488133
:101F980059816A817B810E94220400938E001093EC
:101FA8008F002093900030939100BEE02B2EB4E276
:101FB8003B2EFEDC10DA088319832A833B83B0E0CA
:101FC8006B2E7B2EB0EA8B2EB1EC9B2EB0E02B2E25
:101FD8003B2E4B2EB0E45B2E64DB488159816A812D
:101FE8007B810E9422040093920010939300209317
:101FF800940030939500B0E12B2EB4E23B2ED8DC50
:10200800EAD9088319832A833B83B0E06B2E7B2EA1
:10201800B0E38B2EB2EC9B2EB0E02B2E3B2E4B2E3A
:10202800B0E45B2E3EDB488159816A817B810E9446
:1020380022040093A6001093A7002093A8003093D1
:10204800A900B2E12B2EB4E23B2EB2DCC4D908833E
:1020580019832A833B83B0E06B2E7B2E8B2EB1EC49
:102068009B2EB0E02B2E3B2E4B2EB0E45B2E19DBC3
:10207800488159816A817B810E94220400939A00D9
:1020880010939B0020939C0030939D00B4E22B2E6C
:102098003B2E8EDCA0D9088319832A833B83B0E0CA
:1020A8006B2E7B2EB0E88B2EB1EC9B2EB0E02B2E46
:1020B8003B2E4B2EB0E45B2EF4DA488159816A81BD
:1020C8007B810E9422040093A2001093A300209316
:1020D800A4003093A500B6E22B2EB4E23B2E68DCB8
:1020E8007AD9088319832A833B83B0E06B2E7B2E31
:1020F8008B2EB1EC9B2EB0E02B2E3B2E4B2EB0E45A
:102108005B2ECFDA488159816A817B810E94220443
:1021180000939E0010939F002093A0003093A1008D
:10212800B8E22B2EB4E23B2E43DC55D90883198341
:102138002A833B83B0E06B2E7B2EB8E38B2EB2EC68
:102148009B2EB0E02B2E3B2E4B2EB0E45B2EA9DA53
:10215800488159816A817B810E942204009386000C
:10216800109387002093880030938900BAE22B2EC1
:10217800B4E23B2E1DDC2FD9088319832A833B83C5
:10218800B0E06B2E7B2EB0E18B2EB2EC9B2EB0E034
:102198002B2E3B2E4B2EB0E45B2E83DA48815981DF
:1021A8006A817B810E94220400938A0010938B002D
:1021B80020938C0030938D00BCE22B2EB4E23B2E92
:1021C800F7DB09D9088319832A833B83B0E06B2E98
:1021D8007B2EB0E18B2EB2EC9B2EB0E02B2E3B2E4B
:1021E8004B2EB0E45B2E5DDA488159816A817B8190
:1021F8000E9422040093820010938300209384009D
:1022080030938500BEE22B2EB4E23B2E0E944F0491
:1022180020E0322FE0D8088319832A833B83B0E07B
:102228006B2E7B2EB0E28B2EB1EC9B2EB0E02B2ECA
:102238003B2E4B2EB0E45B2E34DA488159816A81FB
:102248007B810E94220400939600109397002093AC
:10225800980030939900BFE22B2EB4E23B2E0E94E7
:102268004F0420E0322FB7D8088319832A833B8391
:10227800B0E06B2E7B2EB0E28B2EB1EC9B2EB0E043
:102288002B2E3B2E4B2EB0E45B2E0BDA4881598166
:102298006A817B810E9422040093AA001093AB00FC
:1022A8002093AC003093AD00B1E82B2EB4E23B2E66
:1022B8000E944F0420E0322F8ED8088319832A8386
:1022C8003B83B0E06B2E7B2EB0E68B2EB1EC9B2EC1
:1022D800B0E02B2E3B2E4B2EB0E45B2EE2D948818A
:1022E80059816A817B810E94220400937E001093A9
:1022F8007F002093800030938100B2E82B2EB4E257
:102308003B2E0E944F0420E0322F65D808831983A2
:102318002A833B83B0E06B2E7B2EB0E68B2EB1EC8C
:102328009B2EB0E02B2E3B2E4B2EB0E45B2EB9D962
:10233800488159816A817B810E9422040093AE0002
:102348001093AF002093B0003093B1009F908F900E
:102358007F906F905F904F903F902F902396CDBFC6
:08236800DEBFDF91CF91089563
:10120200CF93DF93CDB7DEB72297CDBFDEBF219656
:10121200B0E0B883B9833F922F9260DF2F903F9066
:10122200002361F05FDF088119810F5F1F4F088380
:1012320019832016310608F401C0EDCF2196CDBFE7
:08124200DEBFDF91CF9108959A
:0810DE00FFDD0070127008959F
:100CDE002F923F92BFEF2B2EBFE33B2ED9DD3F90DD
:040CEE002F900895A6
:10089E00CF93DF93CDB7DEB72497CDBFDEBF2196C2
:1008AE002F923F924F925F926F927F92FE01810143
:1008BE000070012F10E000838E01F8013196022D99
:1008CE00008385DD8E01B1E07B2EB2E05B2EB0E0C1
:1008DE006B2E302E412E2090C20094DD8E010E5FC5
:1008EE001F4F7724B2E05B2EB0E06B2E302E412EE0
:1008FE002090C200FBDDAE014E5F5F4FFA0100811A
:10090E0010E0302F2227FA013196008110E0022BE1
:10091E00132B7F906F905F904F903F902F90239668
:0A092E00CDBFDEBFDF91CF91089529
:1003DC00CF93DF93CDB7DEB72297CDBFDEBF21968B
:1003EC00B0E0B883B983E091C500F091C6000995DF
:1003FC002881398110E0022B132B2196CDBFDEBF53
:06040C00DF91CF9108957D
:040124000CB108957D
:0A0128000BB0002707FC03950895B3
:0A011A000BB0002706FC03950895C2
:0A01060009B2002707FC03950895D5
:0A01100009B2002706FC03950895CC
:0A01500009B2002705FC039508958D
:0A015A0006B2002707FC0395089584
:0A01460006B2002706FC0395089599
:0A01320006B2002705FC03950895AE
:0A013C0000B2002704FC03950895AB
:0A00FC0000B2002702FC03950895EE
:0A00B60000B2002700FC0395089536
:0A00C00000B2002701FC039508952B
:0A00AC0003B2002700FC039508953D
:0A00980003B2002701FC0395089550
:0A00A20009B2002700FC0395089541
:0A00E80009B2002701FC03950895FA
:0A00F20009B2002703FC03950895EE
:0A00DE0006B2002707FC0395089501
:0A00CA0006B2002706FC0395089516
:0A00D40006B2002705FC039508950D
:0A030E0000B2002705FC03950895D6
:0A03180000B2002703FC03950895CE
:0A03040000B2002700FC03950895E5
:0A02F00000B2002701FC03950895F9
:0A02FA0003B2002700FC03950895ED
:0A03400003B2002701FC03950895A5
:0A034A0009B2002704FC0395089592
:0A03360006B2002700FC03950895AD
:0A03220006B2002704FC03950895BD
:0A032C0006B2002707FC03950895B0
:0A02E60006B2002706FC03950895F8
:0A01820006B2002705FC039508955E
:0A018C0006B2002703FC0395089556
:0A01780006B2002702FC039508956B
:0A01640000B2002702FC0395089585
:0A016E0000B2002703FC039508957A
:0A02D20003B2002700FC0395089515
:0A02DC0003B2002701FC039508950A
:10041200CF93DF93CDB7DEB72497CDBFDEBF219652
:100422002F92B0E0BA83BB8338824982022D000F3B
:100432007F926F925F92202EE091BC00F091BD00FE
:1004420009955F906F907F90252D362D052D162DE5
:1004520001501040502E612EB22FB32BE1F0E881F3
:10046200F98100817F926F925F924F923F922F9219
:10047200202EE091BC00F091BD0009952F903F9095
:100482004F905F906F907F90088119810F5F1F4F8F
:1004920008831983D9CFB0E07B1689F47F926F92DB
:1004A2005F924F923F922F92E091BE00F091BF0077
:1004B20009952F903F904F905F906F907F90B1E0A1
:1004C2007B1689F47F926F925F924F923F922F92A6
:1004D200E091C500F091C60009952F903F904F9092
:1004E2005F906F907F900A811B812F902396CDBFE2
:0804F200DEBFDF91CF910895F8
:1004FA00CF93DF93CDB7DEB72497CDBFDEBF21966A
:10050A002F92B0E0BA83BB8338824982022D000F52
:10051A0001607F926F925F92202EE091BC00F09171
:10052A00BD0009955F906F907F90052D162D0150A3
:10053A001040502E612EB02FB12BE9F07F926F92AE
:10054A005F924F923F922F92B1E02B2EE091C3001F
:10055A00F091C40009952F903F904F905F906F9053
:10056A007F90E881F9810083088119810F5F1F4F0D
:10057A0008831983DACF7F926F925F924F923F92EC
:10058A002F922224E091C300F091C40009952F9084
:10059A003F904F905F906F907F90E881F981008340
:1005AA00B0E07B1689F47F926F925F924F923F92EE
:1005BA002F92E091BE00F091BF0009952F903F90D5
:1005CA004F905F906F907F90B1E07B1689F47F9295
:1005DA006F925F924F923F922F92E091C500F091F5
:1005EA00C60009952F903F904F905F906F907F9033
:1005FA000A811B812F902396CDBFDEBFDF91CF9159
:02060A00089551
:0E10E6001BE003E60A95F1F71A95E1F708956D
:101A9E002F923F924F925F922F92B1E02B2EB0E396
:101AAE003B2E0E944F042F909801297F022D10E0AB
:101ABE00000F111F022B132B2801B1E02B2EB0E3C8
:0E1ACE003B2E11DB5F904F903F902F900895BC
:1010F400CF93DF93CDB7DEB72497CDBFDEBF219664
:101104002F923F924F925F926F927F92FE0132969E
:1011140082010070012F10E000838E010E5F1F4FCB
:10112400F8013196042D0083FE0181010070012F26
:1011340010E000838E01F8013196022D00834CD912
:101144008E01B1E07B2EB2E05B2EB0E06B2E302E30
:10115400412E2090C2005BD98E010E5F1F4F772471
:10116400B2E05B2EB0E06B2E302E412E2090C200F8
:101174004ED97F906F905F904F903F902F90239621
:0A118400CDBFDEBFDF91CF910895CB
:1019B800CF93DF93CDB7DEB72697CDBFDEBF219695
:1019C8002F923F924F925F926F927F92FE01810118
:1019D8000070012F10E000838E01F8013196022D6E
:1019E80000830E94EE018E01B1E07B2EB2E05B2EF7
:1019F800B0E06B2E302E412E2090C2000E940902CA
:101A08008E010E5F1F4F7724B4E05B2EB0E06B2E83
:101A1800302E412E2090C2000E947D02CE010296F7
:101A2800FC013296008110E0212F312F722F612F97
:101A3800502F4427FC013396008110E0212F312FCD
:101A4800042B152B262B372B722F612F502F442751
:101A5800FC01008110E0212F312F042B152B262BA0
:101A6800372B722F612F502F4427FC0131960081AC
:101A780010E0212F312F042B152B262B372B7F908D
:101A88006F905F904F903F902F902596CDBFDEBF0F
:061A9800DF91CF910895DB
:1016AA00CF93DF93CDB7DEB72597CDBFDEBF2196A7
:1016BA00B0E0BC839F928F927F926F925F924F921B
:1016CA003F922F928301940140E050E060E070E085
:1016DA000BDB002800E009F001E02F903F904F90CB
:1016EA005F906F907F908F909F90002329F000E089
:1016FA0010E020E83FE3B3C09F928F927F926F92EF
:10170A005F924F923F922F928101920140E050E006
:10171A0060E070E0E9DA002800E009F001E02F90CB
:10172A003F904F905F906F907F908F909F90002393
:10173A0029F000E010E020E030E091C09F928F9203
:10174A007F926F925F924F923F922F9240E050E0C9
:10175A0060E070E0810192010E947703002800E0B6
:10176A0009F001E02F903F904F905F906F907F902B
:10177A008F909F900023B1F18301940126D80883AA
:10178A0019832A833B835FDA9F928F927F926F92AB
:10179A005F924F923F922F92A301B401F1DA00288F
:1017AA00B0E009F0B1E00B2F2F903F904F905F907F
:1017BA006F907F908F909F90002329F000E010E0B7
:1017CA0020E030E04CC0088101700C838101920155
:1017DA00B0E00B27B0E01B27B0E02B27B0E83B278F
:1017EA00180129019F928F927F926F925F924F9276
:1017FA003F922F92F6DB2F903F904F905F906F9021
:10180A007F908F909F90180129015F924F923F928B
:10181A002F92A301B40111D82F903F904F905F905F
:10182A00180129015F924F923F922F9218012901C4
:10183A00DBDA2F903F904F905F90180129010C81BD
:10184A00002359F081019201B0E00B27B0E01B2779
:10185A00B0E02B27B0E83B2702C081019201249611
:0A186A00CDBFDEBFDF91CF910895DE
:100FEC00CF93DF93CDB7DEB72297CDBFDEBF21966F
:100FFC006F927F928F929F925F924F923F922F921D
:10100C0040E050E060E070E08101920101DE0028D8
:10101C0000E009F001E02F903F904F905F9000238B
:10102C0029F000E010E020E030E049C08E013801EA
:10103C00BEDD5F924F923F922F9240E050E060E015
:10104C0070E4FADB40E050E060E87FE3F1DD2F90E4
:10105C003F904F905F901801290148815981415070
:10106C005040488359835F924F923F922F92B8E041
:10107C008B2EB0E09B2EB5E66B2EBCE27B2E1801BE
:10108C00290186DC2F903F904F905F901801290129
:10109C000881198120E017FD2FEF322FD3DD5F92ED
:1010AC004F923F922F9248E152E761E37FE3C4DB1A
:1010BC002F903F904F905F90A101B20108DB9F9061
:1010CC008F907F906F902196CDBFDEBFDF91CF9137
:0210DC00089575
:100BBA00CF93DF93CDB7DEB72497CDBFDEBF2196A3
:100BCA00288239824A825B820A811B8100781F77D8
:100BDA00B7E016950795BA95E1F70E571040F3015D
:100BEA00019311932A813B818901B0E00B27BFE36E
:100BFA001B2700781F77022713270A831B83088184
:100C0A0019812A813B812396CDBFDEBFDF91CF9127
:020C1A0008953B
:10099C008401000F111F000F111FF801E60DF71D48
:1009AC000591159125913591A801B901B82DB92959
:1009BC0071F19F928F925F924F923F922F92810191
:1009CC0092013ADF2F903F904F905F908F909F90C5
:1009DC00A401415050404A01440F551F440F551F6C
:1009EC00FA01E60DF71D45915591659175919F9210
:1009FC008F925F924F923F922F9269DE2F903F9091
:100A0C004F905F908F909F90A801B901CFCF8A0132
:040A1C009B0108959D
:10084400042E152E262E372E83DD002E112E222E59
:04085400332E0895A2
:10035400A9DF81F1E62ED52EC42EB32EA22E912E26
:10036400802E002D112D222D332D9CDF19F16E25A9
:100374004C0D5D1D40385307F4F441387FEF5707A7
:10038400FCF088279927AA27BB2770E2B695A79582
:1003940097958795379527951795079520F4880D98
:1003A400991DAA1DBB1D7A9589F7032F3A2F292F72
:1003B400182FEFDE0AC00FEF102F2FE73FE7FACF19
:0C03C4000027102F202F302FF5CF0895B8
:1002A800E8DE79F0632F6078220F331F432F5FE772
:1002B800451B55275040269530E8232B3327989423
:0A02C80003C0442755276627089558
:10007A00002329F4112319F4222309F433230895C0
:00008A0076
:1001960071DF11F19F938F938EE790E0332351F037
:1001A600369527951795079548175907B4F44F5F65
:1001B6005F4FF4CF80959095019622239AF0000F19
:1001C600111F221F481759071CF041505040F5CF08
:1001D600002711272227332708C033270FEF102FB8
:0C01E6002FE7322F8F919F913BDF08958F
:1000660009D039F041585F4F342F220F3695279526
:04007600362B089588
:1006DA00042E152E262E372E76DE002E112E222ED1
:0406EA00332E08950E
:0603D000E8940FDF089520
:1001F2004BDF09F441C0E62ED52EC42EB32EA22E1B
:10020200912E802E002D112D222D332D3DDF09F44C
:100212003DC0842F952F8C199D09B9F072F49095E9
:10022200809501964C2D5D2D883180F53595279569
:10023200179507950197D1F708C08831E8F4B5946E
:10024200A794979487940197D1F766272EF0080D0B
:10025200191D2A1D3B1D09C0801A910AA20AB30A60
:10026200082D192D2A2D3B2D332312F4F2DE60E8DE
:1002720091DF01C0F7DE16C0002D112D222D332D86
:10028200D6F7FADEC1F340E83427F5CF082D192D51
:100292002A2D3B2D4C2D5D2D6E2D33235AF7D9DEA1
:0602A20060E8E8CF0895BA
:0E008A000ED121F0662309F0E0DF989408956E
:1000540000951095209530950F5F1F4F2F4F3F4F00
:020064000895FD
:100C1C00002E112E222E332E042F152F262F372F78
:100C2C004BDD00231CF00024039401C00024089524
:000C3C00B8
:1006C40088DE332332F0D7DC11F001E003C00027C9
:0606D40001C00FEF0895C4
:0603D60068940CDF08959D
:100C3C00042E152E262E372EC8DB002E112E222E1A
:040C4C00332E0895A6
:060C5000E8942EDD08957A
:1006B00047E16627552726F0332312F4CBDC60E8A8
:0406C0006ADD089552
:100DF200CF93DF93CDB7DEB72397CDBFDEBF21966A
:100E02006F927F928F929F925F924F923F922F9218
:100E12008101920140E050E060E070E069DF00286B
:100E220000E009F001E02F903F904F905F90002387
:100E320029F000E010E020E83FE3CAC05F924F9241
:100E42003F922F924EEF54ED62EB72E481019201D8
:100E5200B0DC002800E009F001E02F903F904F90B5
:100E62005F90002329F00FEF1FEF2FE73FE7B0C09D
:100E72005F924F923F922F9240E55CEA6EEA72ECEB
:100E82008101920133DC002800E009F001E02F909B
:100E92003F904F905F90002329F000E010E020E0A7
:100EA20030E096C05F924F923F922F9240E050E026
:100EB20060E070E08101920119DC002800E009F095
:100EC20001E02F903F904F905F900A83002361F0E2
:100ED20081019201B0E00B27B0E01B27B0E02B2785
:100EE200B0E83B27180129015F924F923F922F925F
:100EF200810192014BE35AEA68EB7FE3A2DC2F9077
:100F02003F904F905F90180129015F924F923F925C
:100F12002F9218012901DFDD2F903F904F905F90B3
:100F220058DC0883198320E017FD2FEF322F8FDE64
:100F32005F924F923F922F92A801B90181019201D3
:100F42007CDE2F903F904F905F90180129015F92B5
:100F52004F923F922F92B9E08B2EB0E09B2EBDE3D1
:100F62006B2EBCE27B2E1801290117DD6880798087
:100F72001801290154DD2F903F904F905F90180186
:100F820029010A81002311F15F924F923F922F9221
:100F9200810192014FEF5FEF6FE77FE7A9DE002843
:100FA20000E009F001E02F903F904F905F90002306
:100FB20029F000E010E020E030E00AC0A101B20117
:100FC20000E010E020E83FE39ADE02C081019201D6
:100FD2009F908F907F906F902296CDBFDEBFDF9162
:040FE200CF9108950E
:100AD800CF93DF93CDB7DEB72497CDBFDEBF219686
:100AE800288239824A825B82FE010191119121910B
:100AF8003191B7E13695279517950795BA95D1F7AE
:100B0800107098012F573040A90100E010E020171D
:100B18003107CCF440E050E060E070E008811981D2
:100B28002A813B81E0DD002800E009F001E0002394
:100B380029F000E010E020E83FEB35C000E010E0CD
:100B480020E030E030C008E110E00417150728F471
:100B5800088119812A813B8126C0088119812A814F
:100B68003B8134DE71D0A801B9017F936F935F9305
:100B78004F93488159816A817B8118DE0028B0E053
:100B880009F0B1E00B2F4F915F916F917F91002396
:100B980041F08A019B0140E050E060E87FE34AD0E1
:100BA80002C08A019B012396CDBFDEBFDF91CF91A2
:020BB80008959E
:0E06EE008EDF1CF40024039401C00024089544
:0E060C00042E152E262E372E57D000230895CB
:1007D40069DDF1F05523C2F04F31A8F44731C1F07F
:1007E40050F44195495E05C03595279517950795B1
:1007F4004A95D1F70DC04751000F111F221F331F17
:100804004A95D1F705C03FE7232F132F032F03C0C9
:08081400662309F01DDC0895C4
:1007B400002E112E222E332E042F152F262F372FE5
:1007C4007FDF00231CF40024039401C00024089557
:0007D40025
:100A2000CF93DF93CDB7DEB72497CDBFDEBF21963E
:100A3000288239824A825B820A811B8100781F7773
:100A4000B7E016950795BA95E1F79801260D371D81
:100A5000390100E010E0201731072CF400E010E02D
:100A600020E030E033C00FEF10E006151705BCF4AE
:100A700040E050E060E070E08101920138DE002843
:100A800000E009F001E0002329F00FEF1FEF2FE74E
:100A90003FEF1CC00FEF1FEF2FE73FE717C007E046
:100AA000B02F9301BB2321F0220F331FBA95E1F73A
:100AB0000A811B812027312720783F772027312783
:100AC0002A833B83088119812A813B812396CDBFEC
:080AD000DEBFDF91CF91089514
:0E0CF2008CDC19F40024039401C00024089542
:100D0000042E152E262E372EF9DC002E112E222E23
:040D1000332E0895E1
:1006FC003F932F931F930F93002D112D222D332DEC
:10070C00CDDD09F44BC0E62ED52EC42EB32EA22E71
:10071C00912E802E0F911F912F913F91BFDD61F192
:10072C006E254C195D09403853073CF541387FEF75
:10073C0057077CF180E27724632E522E412E302F06
:10074C00222711270027000F111F221F331F441CC3
:10075C00551C661C771C28F0481859086A087B0839
:10076C0004C0480C591C6A1C7B1C0AF001608A9559
:10077C0051F74150504009DD16C00FEF102F2FE7F5
:10078C003FE76623C9F373DCB9F3342D30E8342525
:10079C00F3CF0027102F202F302FEECF0F900F907C
:0807AC000F900F90EACF0895B1
:0E0D8A0040DC19F00024039401C000240895F9
:0613DE00689467D9089530
:102AEE00CF93DF93CDB7DEB7C854D040CDBFDEBF96
:102AFE0021962F923F924F925F926F927F92ECEDC2
:102B0E00FBE2DE01579681E390E00ADA5DDCA80174
:102B1E00B9018E01095E1F4F7F936F935F934F93A1
:102B2E00B1E04B2E18010E94780D4F915F916F917D
:102B3E007F918E0138011A012B0139D88E01B2E036
:102B4E004B2E18010E94780D3FDDA801B9018E01B0
:102B5E00005D1F4F7F936F935F934F93B1E04B2EAA
:102B6E0018010E94780D4F915F916F917F918E01A8
:102B7E0038011A012B011BD88E01B2E04B2E180121
:102B8E000E94780D22E51BE200E00A95F1F71A95F6
:102B9E00E1F72A95D1F700000000000000007F90B9
:102BAE006F905F904F903F902F90C95BDF4FCDBFDE
:082BBE00DEBFDF91CF91089505
:1023D600CF93DF93CDB7DEB76897CDBFDEBF21962B
:1023E6002F923F924F925F926F927F928F929F921F
:1023F6000E94BB09033011F00E94C9090E94DE0940
:10240600BEEE2B2EB2E03B2E0E949709B5E02B2E96
:10241600B0E43B2E0E944F0408831983B8E02B2EAC
:10242600B0E43B2E0E944F040A831B830881198166
:1024360020E017FD2FEF322F0E94280640E050E0E3
:1024460060E471E40E9480060C8B1D8B2E8B3F8B03
:102456004091960050919700609198007091990074
:102466000E942204088B198B2A8B3B8B0A811B81C5
:1024760020E017FD2FEF322F0E9428064889598940
:102486006A897B890E946D03088719872A873B879B
:102496000C891D892E893F89488559856A857B85E2
:1024A6000E948006088B198B2A8B3B8BB0E06B2E23
:1024B6007B2EB8E98B2EB1E49B2EB0E02B2E3B2E63
:1024C6004B2EB0E45B2EEED8488959896A897B8900
:1024D6000E9422040C831D832E833F8340918E002D
:1024E60050918F0060919000709191000E941E069D
:1024F60040919200509193006091940070919500E4
:102506000E94800640919A0050919B0060919C0029
:1025160070919D000E946D03088B198B2A8B3B8B53
:1025260040918E0050918F006091900070919100C3
:102536000C811D812E813F810E941E06B0E06B2E0C
:102546007B2E8B2EB0E49B2E18012901ABD840912F
:10255600A6005091A7006091A8007091A9000E9462
:102566002204488959896A897B890E946D039F9054
:102576008F907F906F905F904F903F902F906796CF
:0A258600CDBFDEBFDF91CF910895B5
:101376002F923F92B1E02B2EB0E33B2E8DDA1695DD
:0C1386000795037010703F902F900895A1
:101392002F923F924F925F92B1E02B2EB0E33B2E01
:1013A2007DDA08602801B1E02B2EB0E33B2EA1DEEE
:0A13B2005F904F903F902F90089538
:1013BC002F923F924F925F928CDC0E7F2801BFEFF1
:1013CC002B2EBFE33B2E90DE5F904F903F902F90E3
:0213DC00089572
:10132E00CF93DF93CDB7DEB72297CDBFDEBF219629
:10133E00B0E0B883B9833F922F9227DD2F903F9074
:10134E00002361F4C9DE088119810F5F1F4F0883E6
:10135E0019832016310608F401C0EDCF2196CDBFBA
:08136E00DEBFDF91CF9108956D
:080D9800A2DF01701070089544
:101AF000CF93DF93CDB7DEB72297CDBFDEBF219660
:101B00002F923F928101BDE0B883BAE0B98341C012
:101B10001801B0DB4AC09801F9010081002389F067
:101B20003F932F934F923F922F921901A3DB2F9057
:101B30003F904F902F913F9189010F5F1F4F980168
:101B4000EBCF33C09801F9010081002389F03F9366
:101B50002F934F923F922F9219018CDB2F903F9041
:101B60004F902F913F9189010F5F1F4F9801EBCF4D
:101B70008E014F923F922F9218017CDB8E010F5FF6
:101B80001F4F180177DB2F903F904F900EC006E05B
:101B90000DC0B0E04B1609F4BBCFB1E04B1609F411
:101BA000BACFB2E04B1671F2F2CF00E03F902F9027
:0C1BB0002196CDBFDEBFDF91CF910895DC
:101274002F923F92F1010081202EE091C000F09165
:0C128400C100099500E03F902F900895F4
:101BBC00CF93DF93CDB7DEB72697CDBFDEBF21968F
:101BCC002F923F924F925F92B0E0BC83B0E0BD8306
:101BDC00288239824A825B82088119812A813B8161
:101BEC003F3F29F42F3F19F41F3F09F40F3F41F4F5
:101BFC00BAE74B2EB0E05B2E130121DB03E087C16B
:101C0C0061E08E01F8013396008107FF16C08E014A
:101C1C0098012D5F3F4FF9010081B0E80B27F901C6
:101C2C000083062F0F5F202FF301BDE2B0838301E9
:101C3C000F5F1F4F3801422F01C0462F08811981B9
:101C4C002A813B81303029F4203019F4103009F40A
:101C5C00003041F4B8E74B2EB0E05B2E1301EFDA05
:101C6C0000E055C1088119812A813B813F3729F455
:101C7C00203819F4103009F4003051F44F93B4E7C4
:101C8C004B2EB0E05B2E1301DADA4F91042F3FC1DB
:101C9C005F924F923F922F9240E050E060E87FE3DA
:101CAC00088119812A813B810E947703002800E07A
:101CBC0009F001E02F903F904F905F900023D1F0FE
:101CCC005F924F923F922F92088119812A813B811A
:101CDC0040E050E060E271E40E9422042F903F90BB
:101CEC004F905F90088319832A833B830D810150A9
:101CFC000D83CECF5F924F923F922F9240E050E0F7
:101D0C0060E271E4088119812A813B8103DB0028A0
:101D1C0000E009F001E02F903F904F905F9000237E
:101D2C00D1F05F924F923F922F92088119812A81B4
:101D3C003B814DEC5CEC6CEC7DE30E9422042F901B
:101D4C003F904F905F90088319832A833B830D81CA
:101D5C000F5F0D83CFCF088119812A813B81000F42
:101D6C00111F221F331F088319832A833B838E0183
:101D7C00F801339600810F57402F8E01F8013396EE
:101D8C00B1E0B083088119812A813B81B42FBB2338
:101D9C0031F0000F111F221F331FBA95D1F70883A2
:101DAC0019832A833B838E01F80133960081005DF1
:101DBC00F301008383010F5F1F4F38010D81013048
:101DCC002CF01D8106E001170CF009C0F301BEE2F6
:101DDC00B08383010F5F1F4F3801B1E0BC8386E0F5
:101DEC00803009F44BC08E01F8013396B0E0B0831B
:101DFC00088119812A813B81A801B901440F551F23
:101E0C00661F771F440F551F661F771F08811981A6
:101E1C002A813B81040F151F261F371F0883198346
:101E2C002A833B83088119812A813B81000F111F72
:101E3C00221F331F088319832A833B838E01F801E9
:101E4C0033960081005DF301008383010F5F1F4F08
:101E5C0038010C81003071F40D8101500D8300307C
:101E6C0049F4F301BEE2B08383010F5F1F4F3801C9
:101E7C00B1E0BC83082F0150802FB2CFF301319712
:101E8C000081003329F48301015010403801F6CF52
:101E9C00F301319700810E3221F48301015010407F
:101EAC0038010D81003079F1F301B5E6B08383017F
:101EBC000F5F1F4F38010D8100305CF4F301BDE260
:101ECC00B08383010F5F1F4F38010D8000E00019B4
:101EDC000D832D811D8109E0011750F4022F4AE07A
:101EEC007BDA005DF301008383010F5F1F4F380124
:101EFC00022F4AE071DA092F005DF30100838301A0
:101F0C000F5F1F4F3801F301B0E0B08300E05F902A
:101F1C004F903F902F902596CDBFDEBFDF91CF9194
:021F2C00089516
:10124A00A1019A018A010F5F1F4FA801F2018201D1
:10125A000F5F1F4F28010081F9010083F901008106
:0A126A00002309F0EECF8101089582
:0E13200075D91CF00024039401C00024089528
:1013E400992779E004C0991F941708F0941B001FF3
:0813F4007A95C9F700950895F0
:1025D600CF93DF93CDB7DEB7E197CDBFDEBF2196B0
:1025E6002F923F924F925F926F927F928F929F921D
:1025F6000E94BB09033011F00E94C9090E94DE093E
:10260600BEEE2B2EB2E03B2E0E949709E1DEB5E02E
:102616002B2EB0E43B2E0E944F040C831D83B8E0A2
:102626002B2EB0E43B2E0E944F040E831F8332D81C
:10263600102F013089F4B3E02B2EB0E43B2E0E941C
:102646004F0408831983B4E02B2EB0E43B2E0E947E
:102656004F040A831B8323C0123089F4B6E02B2E65
:10266600B0E43B2E0E944F0408831983B7E02B2E5B
:10267600B0E43B2E0E944F040A831B8310C0B3E0D4
:102686002B2EB0E43B2E0E944F0408831983B4E03E
:102696002B2EB0E43B2E0E944F040A831B83B0E02E
:1026A600B8870885033008F0C0C10C811D8120E081
:1026B60017FD2FEF322F0E94280640E050E060E41D
:1026C60071E40E9480060DA71EA72FA738AB409184
:1026D60096005091970060919800709199000E9421
:1026E600220409A71AA72BA73CA70E811F8120E069
:1026F60017FD2FEF322F0E94280649A55AA56BA574
:102706007CA50E946D0309A31AA32BA33CA30DA5C8
:102716001EA52FA538A949A15AA16BA17CA10E948B
:10272600800609A71AA72BA73CA7B0E06B2E7B2E25
:10273600B8E98B2EB1E49B2EB0E02B2E3B2E4B2E10
:10274600B0E45B2E0E94550B49A55AA56BA57CA546
:102756000E9422040D8F1E8F2F8F38A340918E006A
:1027660050918F0060919000709191000E941E061A
:10277600B0E06B2E7B2E8B2EB0E49B2E1801290128
:102786000E94550B288139810A811B81020F131F74
:1027960020E017FD2FEF322F0E94280640E050E080
:1027A60060E070E40E94800609871A872B873C87C1
:1027B6000C811D8120E017FD2FEF322F0E94280685
:1027C60040E050E060E471E40E9480064091AA0077
:1027D6005091AB006091AC007091AD000E94220454
:1027E60009A71AA72BA73CA70E811F8120E017FD7A
:1027F6002FEF322F0E94280649A55AA56BA57CA566
:102806000E946D030D871E872F87388B40E050E0AE
:1028160060E471E409851A852B853C850E94800653
:102826004D855E856F8578890E94800609A71AA75F
:102836002BA73CA7B0E06B2E7B2EB8E98B2EB1E41C
:102846009B2EB0E02B2E3B2E4B2EB0E45B2E0E942F
:10285600550B49A55AA56BA57CA50E942204098B98
:102866001A8B2B8B3C8B40919E0050919F00609160
:10287600A0007091A1000D8D1E8D2F8D38A10E9494
:102886001E064091A2005091A3006091A400709191
:10289600A5000E94800640E050E068EC71E40E94CA
:1028A6006D030D8B1E8B2F8B388F43E353E968E83E
:1028B60073E40E946D03098F1A8F2B8F3C8F009152
:1028C6006000109161002091620030916300409198
:1028D60086005091870060918800709189000E945F
:1028E600220440917E0050917F006091800070919B
:1028F60081000E9422040DA71EA72FA738AB409186
:102906006C0050916D0060916E0070916F000091A7
:1029160068001091690020916A0030916B000E9456
:102926001E06409182005091830060918400709150
:1029360085000E94220440E050E060E87FE30E94A8
:102946006D0309A71AA72BA73CA7409164005091D5
:10295600650060916600709167000D891E892F8958
:10296600388D0E941E0640918A0050918B0060911E
:102976008C0070918D000E94220449A55AA56BA572
:102986007CA50E946D034DA55EA56FA578A90E9442
:10299600220409A31AA32BA33CA349A15AA16BA104
:1029A6007CA109891A892B893C890E94800609A77E
:1029B6001AA72BA73CA7B0E06B2E7B2EB0E88B2E78
:1029C600B0E49B2E298C3A8C4B8C5C8C0E94550B68
:1029D60049A55AA56BA57CA50E946D03B0E06B2E98
:1029E6007B2EB0E88B2EBEE39B2E180129010E9498
:1029F600550B43E353E968E873E40E941E064091D1
:102A0600AE005091AF006091B0007091B1000E948D
:102A16001E0600936C0010936D0020936E00309399
:102A26006F0008850F5F08873CCE00916C001091FF
:102A36006D0020916E0030916F009F908F907F9077
:102A46006F905F904F903F902F90E096CDBFDEBF86
:062A5600DF91CF9108950D
:10169A0021DB0C7710701695079516950795089516
:0016AA0040
:0A1F2E0005900D920197E1F7089568
:102CB400A0E6B0E0E9E8FCE28EE190E00E94970F24
:022CC400089571
:102C0D002C0431041D040E04130418045303210372
:102C1D001C0326030D03170383008800A800AD00D5
:102C2D00A30099009E007E005B00600056004C00E2
:082CA7008A06F3073706C7088F
:042CAF00A0860100FA
:102C6500FFE6DB2EC4FF7F3F80EFFFBE90E1A93E6C
:102C7500EC8276BE82AD2B3E0E3CC3BD87D1133DA3
:042C85004178D3BB04
:102C3D000000803F1872313FF0FD753E4758633DEF
:102C4D0058951D3C82C4AE3AA8782139EF93803750
:082C5D00A092A735465615347C
:042C89000000803F88
:042C8D000000C8413A
:042C91000000C84136
:042C95000000C84132
:042C99000000000037
:042C9D00494E460056
:022CA100300001
:042CA3004E614E0030
:102BDC00414D4249454E542054454D504552415467
:092BEC005552452049533A2000DE
:102BF5004F424A4543542054454D50455241545542
:082C050052452049533A20001A
:00000001FF
