:020000040800F2
:10000000FCFF0020092D0000ED2C0000ED2C00006D
:10001000ED2C0000ED2C0000ED2C0000ED2C00007C
:10002000ED2C0000ED2C0000ED2C0000ED2C00006C
:10003000ED2C0000ED2C0000ED2C0000ED2C00005C
:10004000ED2C0000ED2C0000ED2C0000ED2C00004C
:10005000ED2C0000ED2C0000ED2C0000ED2C00003C
:10006000ED2C0000ED2C0000ED2C0000ED2C00002C
:10007000ED2C0000ED2C0000ED2C0000ED2C00001C
:10008000ED2C0000ED2C0000ED2C0000ED2C00000C
:10009000ED2C0000ED2C0000ED2C0000ED2C0000FC
:1000A000ED2C0000ED2C0000ED2C0000ED2C0000EC
:1000B000ED2C0000ED2C0000ED2C0000ED2C0000DC
:1000C000ED2C0000ED2C0000ED2C0000ED2C0000CC
:1000D000ED2C0000ED2C0000ED2C0000ED2C0000BC
:1000E000ED2C0000ED2C0000ED2C0000ED2C0000AC
:1000F000ED2C0000ED2C0000ED2C0000ED2C00009C
:10010000ED2C0000ED2C0000ED2C0000ED2C00008B
:10011000ED2C0000ED2C0000ED2C0000ED2C00007B
:10012000ED2C0000ED2C0000ED2C0000ED2C00006B
:10013000ED2C0000ED2C0000ED2C0000ED2C00005B
:10014000ED2C0000ED2C0000ED2C0000ED2C00004B
:1001500081B000F218010A68C2F3400181F0010188
:10016000C9B2C8B201B0704781B000F214010A6888
:1001700000F218010968090442EA0101084601B0C9
:100180007047FFFF81B00249086001B0704700BFAF
:10019000A081224281B00249086001B0704700BFCF
:1001A000A481224281B00249086001B0704700BFBB
:1001B000A881224281B00249086001B0704700BFA7
:1001C0009401214281B00249086001B0704700BF2C
:1001D0009C81214281B00249086001B0704700BF94
:1001E0009881214281B00249086001B0704700BF88
:1001F0008001214281B00249086001B0704700BF10
:10020000B481224281B00249086001B0704700BF4A
:100210008801224281B00249086001B0704700BFE6
:100220009001214281B00249086001B0704700BFCF
:10023000B001224281B00249086001B0704700BF9E
:10024000AC01224281B00249086001B0704700BF92
:10025000A801224281B00249086001B0704700BF86
:100260009881214281B00249086001B0704700BF07
:100270009481224281B00249086001B0704700BFFA
:100280009881224281B0CDF800E00B46FFF76CFF69
:1002900000EA03029A4240F2000200D10122D0B2E9
:1002A000DDF800E001B0704781B0CDF800E04FF01C
:1002B00000021949884207D118490B6818490A6891
:1002C00018490A601C460BE01749884207D11749B4
:1002D0000B6817490A6813490A601C4600E0144677
:1002E00014490C6003461846FFF732FF70B91149F4
:1002F000096851B12CB905200A4C2468A047002098
:1003000005E0611E08460446FFE7ECE70120DDF842
:1003100000E001B0704700BF005400409000002092
:100320000801002004010020005800409400002033
:100330000C0100209800002081B00249086001B043
:10034000704700BF9C81214281B00249086001B022
:10035000704700BFB081224281B00249086001B0FD
:10036000704700BFA801224281B00249086001B075
:10037000704700BFB881224281B00249086001B0D5
:10038000704700BF8C01224281B00249086001B071
:10039000704700BFB081224281B00249086001B0BD
:1003A000704700BFB001224281B00249086001B02D
:1003B000704700BFAC01224281B00268C2F3401115
:1003C00001B9FAE7011D096888B201B07047FFFF63
:1003D00082B0CDF800E0029E4FF00005564CA042DE
:1003E00006D1564C2768564C2568564C25600AE0C5
:1003F000554CA04206D1554C2768554C2568514CA8
:10040000256000E02F46534C276000F210054C0099
:10041000A4B22C60B9460746904635461E464E4962
:100420003846FFF72FFF88B94A4C24686CB1B9F100
:10043000000F06D10420434C2468A0474FF6FF70FC
:1004400076E0A9F101008146FFE7E8E70020019787
:1004500029463746019E7C1EA04226D206F2100590
:1004600008EB000424782C603A4CD4F800908246C3
:100470000D463A493046FFF705FF88B9354C2468E8
:100480006CB1B9F1000F06D104202E4C2468A047AE
:100490004FF6FF704CE0A9F101008146FFE7E8E765
:1004A0000AF1010420462946D5E706F2100508EBBB
:1004B000000424782C60274C27680D4628493046D4
:1004C000FFF7E0FE70B9234C246854B137B904201B
:1004D0001C4C2468A0474FF6FF7029E0781E0746A1
:1004E000FFE7EBE7012D05D10125346865F34924C9
:1004F00034601CE00125346865F308243460154C31
:100500002768354617492846FFF7BCFE78B9114CD5
:1005100024685CB137B904200A4C2468A0474FF620
:10052000FF7005E07C1E20460746FFE7EAE7002053
:10053000DDF800E002B07047005400409000002059
:100540000801002004010020005800409400002011
:100550000C010020980000208200070080000700A6
:10056000840007000100030081B00168C1F380101E
:1005700001B0704781B00168C1F3401001B070470D
:1005800082B0CDF800E0CFB201469846029B4FF012
:1005900000064FF00005C44CA14207D1C34CD4F86B
:1005A0000090C34C2568C34C25600BE0C24CA142AF
:1005B00007D1C24C2068C24C2568BE4C25608146DC
:1005C00000E0A946BF4CC4F80090F4E101F2100528
:1005D0007C00A4B244F00104A4B22C60019616463B
:1005E0004F46019A01F214042568C5F3400464B92A
:1005F000B44C246844B127B90320AE4C2468A0470A
:10060000E2E1781E0746FFE7ECE700250C6865F39A
:100610008A240C6001F21404206800BF01F218045F
:100620002468240440EA04042046012B05D1012556
:100630000C6865F349240C6004E001250C6865F33F
:1006400008240C609F4C25689146984637460E4614
:100650009D493046FFF716FE68B99A4C24684CB1A4
:1006600025B90320934C2468A047ADE16C1E2046B9
:100670000546FFE7ECE707EB090506F210042468DE
:100680002C70B8F1010F13D18E4C216830460568EB
:10069000C5F340245CB98B4C24683CB121B90320DC
:1006A000844C2468A0478FE1491EFFE7EFE712E082
:1006B000844C216830460568C5F300245CB9814C40
:1006C00024683CB121B903207A4C2468A0477BE11F
:1006D000491EFFE7EFE777E101250C6865F38A24FF
:1006E0000C6001250C6865F3CB240C6001F2100549
:1006F0007C00A4B244F00104A4B22C604F4601F285
:1007000014042568C5F3400464B96E4C246844B1F0
:1007100027B90320674C2468A04755E1781E074697
:10072000FFE7ECE701F21404206800BF01F21804AF
:1007300024682404204300250C6865F38A240C6097
:10074000604C276801F214042568C5F3800464B97D
:100750005C4C246844B127B90320564C2468A04758
:1007600032E1781E0746FFE7ECE7012B05D10125B2
:100770000C6865F349240C6004E001250C6865F3FE
:1007800008240C60951901F2100424682C70741C64
:10079000151901F2100424682C70012B14D1494C56
:1007A00022680D68C5F3402464B9464C246844B1FE
:1007B00022B903203F4C2468A04705E1501E0246A1
:1007C000FFE7EEE7084613E03E4C22680D68C5F3EC
:1007D000002464B93B4C246844B122B90320354C51
:1007E0002468A047F0E0501E0246FFE7EEE7084607
:1007F0000025046865F3CB240460E5E001250C685E
:1008000065F38A240C6001F210057C00A4B244F068
:100810000104A4B22C604646C846894617461D46C8
:100820002A494846FFF72EFD78B9264C24685CB16A
:10083000B8F1000F04D103201E4C2468A047C3E088
:10084000A8F101008046FFE7EAE70021A8464A46F2
:10085000B1463B46A9F10304A14222D2194C2568B6
:100860008A4617461E4618493846FFF70BFD60B901
:10087000144C246844B125B903200E4C2468A047C9
:10088000A2E0681E0546FFE7EDE706EB0A0507F262
:10089000100424682C700AF10104214633463A46BC
:1008A000D8E7084C00F014B8005400409000002035
:1008B000080100200401002000580040940000209E
:1008C0000C010020980000204000030002000300FB
:1008D000276801930B4616464246019906F2140416
:1008E0002568C5F3800464B9394C246844B127B93C
:1008F0000320384C2468A04766E0781E0746FFE7CF
:10090000ECE70025346865F38A243460CD1806F2DC
:10091000100424682C70581C2D4C2368174602467E
:1009200006F214042568C5F3800464B9284C2468D1
:1009300044B123B90320274C2468A04744E0581E43
:100940000346FFE7ECE7012F07D10125346865F383
:10095000492434601046324621E00125346865F3AD
:10096000082434601A4CD4F8008017460D461A4902
:100970003046FFF787FC78B9154C24685CB1B8F1B4
:10098000000F04D10320134C2468A0471CE0A8F1F9
:1009900001008046FFE7EAE72946324638460D184F
:1009A00002F2100424682C70441C0D1902F2100489
:1009B00024682C7008E0B8F1010F3FF407AEB8F1DD
:1009C000020F3FF489AE19E7DDF800E002B070478E
:1009D00098000020040100200100030081B01949A3
:1009E00000EA0101084600220EE0042022E008206F
:1009F00020E010201EE020201CE040201AE0802093
:100A000018E040F2001015E00F498842EDD00F4980
:100A10008842ECD00E498842EBD00E498842EAD099
:100A20000D498842E9D00D498842E8D00C498842F6
:100A3000E7D010460B49096841EA000209490A60FB
:100A400001B0704700FCFFFF00080140000C0140AE
:100A5000001001400014014000180140001C01403A
:100A6000002001401810024083B0CDF800E003469A
:100A70004FF0000026498B4206D126490C682649D2
:100A80000A6826490A600BE025498B4207D12549AF
:100A9000086825490A6821490A60044600E00446BE
:100AA00022490C60019402931846FFF7FDFB029B5C
:100AB000019C10B94FF6FF7025E00122196862F31E
:100AC0000821196003F214010A68C2F3402111B130
:100AD0004FF6FF7017E025461C4615492046FFF7E4
:100AE000D1FB78B91149096859B135B906200B4CC9
:100AF0002468A0474FF6FF7005E0691E08460546CA
:100B0000FFE7EAE70020DDF800E003B0704700BF30
:100B10000054004090000020080100200401002043
:100B200000580040940000200C0100209800002094
:100B30000100030081B0CDF800E00348FFF714FD89
:100B4000DDF800E001B070470044004081B0CDF80E
:100B500000E00348FFF70EFDDDF800E001B070474C
:100B60000044004081B0CDF800E00348FFF724FCCA
:100B7000DDF800E001B070470044004081B0CDF8DE
:100B800000E00348FFF770FFDDF800E001B07047B8
:100B90000058004081B0CDF800E08CB21546774B8C
:100BA00000EA03031E461846FFF718FFB4F1FF0FD3
:100BB0000CD1734B9D4203D14FF033333360D9E0F6
:100BC000422D03D14FF044333360D3E04FF6FF732F
:100BD0009C4214D16A4B9D4207D14FF033333360AE
:100BE000341D4FF033332360C4E0422D07D14FF062
:100BF00044333360341D4FF044332360BAE00021A6
:100C0000002005F001030BB100211DE005F00203F7
:100C100033B105F4C0730BB1082100E0042113E0E7
:100C200005F0040333B105F020030BB1042100E00B
:100C3000002109E005F0080333B105F020030BB1F2
:100C40000C2100E00821FFE74E4B05EA03030BB13E
:100C5000032009E005F400730BB1022004E005F461
:100C600080630BB10120FFE705F00C030BB10143DA
:100C7000FFE704F0FF039BB2002B3BD03768002056
:100C80001FFA84F832462E4608282CD24FF0010372
:100C900003FA00F408EA0403A34222D185004FF0CE
:100CA0000F03AB40DB4307EA030401FA05F344EA10
:100CB00003031D4606F48173B3F5817F05D102F26B
:100CC00014044FF001038340236006F08203822B5B
:100CD00005D102F210044FF00103834023602F4638
:100CE000FFE7401CD0E717601FFA88F00F46314637
:100CF000164602E00F462946A0B2B0F1FF0F39D9DF
:100D0000331DD3F800800022082A30D202F20804F2
:100D10004FF0010303FA04F400EA0403A34224D1D0
:100D200095004FF00F03AB40DB4308EA030807FAD6
:100D300005F348EA030801F48173B3F5817F07D115
:100D400006F2140502F208044FF00103A3402B60E1
:100D500001F08203822B07D106F2100502F208048B
:100D60004FF00103A3402B60FFE7521CCCE7331D7B
:100D7000C3F80080DDF800E001B0704700FCFFFF21
:100D8000140008000008080081B0CDF800E0034816
:100D9000FFF712FBDDF800E001B0704700380140BA
:100DA00081B0CDF800E00348FFF7DEFBDDF800E09E
:100DB00001B070470038014081B0CDF800E0034831
:100DC000FFF7D8FBDDF800E001B0704700380140C4
:100DD00081B0CDF800E008B413460A46C1B2044819
:100DE000FFF7F6FA01B0DDF800E001B0704700BF90
:100DF0000054004081B0CDF800E00348FFF7B4FB99
:100E0000DDF800E001B070470050004081B0CDF83F
:100E100000E00348FFF7AEFBDDF800E001B07047EB
:100E20000050004081B0CDF800E008B413460A46F7
:100E3000C1B20448FFF7A4FB01B0DDF800E001B047
:100E4000704700BF0058004081B0CDF800E008B402
:100E500013460A46C1B20448FFF792FB01B0DDF821
:100E600000E001B0704700BF0054004081B0CDF8F1
:100E700000E008B413460A46C1B20448FFF7A8FAD6
:100E800001B0DDF800E001B0704700BF005800403D
:100E900081B0CDF800E00348FFF78EFADDF800E0FE
:100EA00001B070470050004081B0CDF800E0034829
:100EB000FFF75AFBDDF800E001B070470048004042
:100EC00081B0CDF800E00348FFF754FBDDF800E007
:100ED00001B070470048004081B0CDF800E0034801
:100EE000FFF76AFADDF800E001B070470048004003
:100EF00081B0CDF800E00348FFF736FBDDF800E0F5
:100F000001B07047004C004081B0CDF800E00348CC
:100F1000FFF730FBDDF800E001B07047004C004007
:100F200081B0CDF800E00348FFF746FADDF800E0B5
:100F300001B07047004C004081B0CDF800E003489C
:100F4000FFF792FDDDF800E001B07047005400406B
:100F500081B00248006801B0704700BF0001002066
:100F600082B0CDF800E040F20004ADF80440054C3A
:100F70002468A047BDF90440044320B2DDF800E036
:100F800002B07047E000002082B0CDF800E040F2EF
:100F90000004ADF80440044C2468A047BDF90400E7
:100FA000DDF800E002B07047F400002083B0CDF817
:100FB00000E000F0FF031A09104603F00F02134689
:100FC00014E0194A02921FE0184A02921CE0184AE3
:100FD000029219E0174A029216E0174A029213E0B1
:100FE000164A029210E0164A02920DE00028E8D05C
:100FF0000128E9D00228EAD00328EBD00428ECD05D
:101000000528EDD00628EED0012212B29A40ADF8A4
:10101000042002980A46BDF80410FFF7BBFDDDF876
:1010200000E003B0704700BF00080140000C014021
:10103000001001400014014000180140001C014054
:101040000020014082B0CDF800E040F20004ADF88D
:101050000440064C2468A047BDF9041041EA000092
:1010600000B2DDF800E002B0704700BFFC000020D5
:1010700082B0CDF800E0034619460191FFF768FF02
:1010800040F2E83100FB01F201990A601F4909783A
:10109000C1F30311C8B21E4909180878C0B21A1D5D
:1010A0001968C140116019490988C1F3022188B249
:1010B000174909180878C0B203F20802191D096817
:1010C000C140116011490988C1F3C22188B2104999
:1010D00009180878C0B203F20C02191D0968C14052
:1010E00011600A490988C1F3813188B20949091898
:1010F0000978C8B203F2100203F20C010968B1FBCF
:10110000F0F11160DDF800E002B070470410024019
:101110005A3100003418000081B0CDF800E00122FF
:1011200052B23E490A6000F268010B686FF000613C
:1011300003EA0102144603F00061C90E0B4602F0F7
:101140000041B1F1004F02D135490A6801E035494B
:101150000A6804F47021090C0E464FF6FF7104EA88
:1011600001010D4604F44011B1F5401F0DD16FF09F
:10117000706102EA01010E462A490A686FF0706147
:101180000A4028490A60324616E004F48011B1F59D
:10119000801F09D14FF00301B140C94302EA0101A8
:1011A00041F070610A4607E0610D090105FA01F19D
:1011B000C9430A4042F070622BB1610D090105FA82
:1011C00001F10A43FFE704F00041B1F1004F02D101
:1011D00013490A6001E013490A6040F2000A81469F
:1011E0004FEA8A0109EB01010968B1F1FF3F10D014
:1011F00009F134014FEA8A03C91809680A4609EB64
:101200000301096808461146FFF7D0FE0AF1010AFA
:10121000E6E7DDF800E001B0704700BF000342429E
:101220001C0001400400014082B0CDF800E001AA9A
:1012300000F47F4189B2090A1170521C00F0FF01CD
:101240001170FFF7FFFE01AA104909780023C8B208
:1012500011460222FFF784FE0DF106020B490978C0
:101260000123C8B211460222FFF78EFE0DF10603DC
:101270001978C8B2020212B2591C097842EA010177
:1012800008B2DDF800E002B0704700BF7700002030
:1012900082B0CDF800E0019001A90968C90D01F004
:1012A000FF0109B27F3909B208B200290EDA019AAA
:1012B0004FF0000000F05CFD40F2000000DD012076
:1012C00008B111481CE04FF0000019E081B2182964
:1012D00001D9019814E0019800F0FCFB00F0CEFC6D
:1012E0000146019A00F044FD40F2000000DD0120BB
:1012F00028B108464FF07E5200F0A6FD00E00846F7
:10130000DDF800E002B07047000080BF83B0CDF888
:1013100000E0ADF804100146BDF904000291BDF8EB
:101320000A20C2F3C712821810B212B2002A02DADF
:101330004FF0000019E0B0F1FF0F0EDD4FF000009C
:101340000A4600F015FD40F2000000DD012010B15A
:101350006FF4000009E0074807E083B2BDF80A20F7
:1013600063F3CE12ADF80A200298DDF800E003B076
:10137000704700BFFFFF7F7F89B0CDF800E0834654
:1013800098B28C46BDF824100A9E04ACADF8041047
:10139000ADF808002046FFF76BFEBDF80800BDF869
:1013A0000410644CA34512D101256DB2624C256036
:1013B000624D634C2560634D634C2560634D644C06
:1013C0002560644D644C2560079C039456E0634C93
:1013D000A34512D101256DB2614C2560614D584C79
:1013E0002560614D584C2560604D594C2560604D1D
:1013F000594C2560069C039440E05E4CA34512D1F5
:1014000001256DB25C4C25605C4D4D4C25605C4DFA
:101410004D4C25605B4D4E4C25605B4D4E4C256020
:10142000069C03942AE0594CA34512D101256DB2C4
:10143000574C2560574D424C2560574D424C256016
:10144000564D434C2560564D434C2560069C0394F5
:1014500014E0544CA34511D101256DB2524C2560C6
:10146000524D374C2560524D374C2560514D384C0C
:101470002560514D384C2560069C0394ADF804104E
:10148000ADF808003046FFF747FEBDF80800BDF88C
:1014900004100BF1100500242C600BF110052C68D2
:1014A0000C432C600BF10C0500242C6018B140F4A7
:1014B000806080B2FFE70BF10C052C6804432C60C0
:1014C0000BF10C060125346865F34D3434600BF1E3
:1014D0000C060125346865F3C30434600BF10C0677
:1014E0000125346865F3820434600BF1140500248F
:1014F0002C60039D192465434FEA8C04B5FBF4F777
:101500006424B7FBF4F42601350964246C433C1BC6
:10151000240104F232056424B5FBF4F404F00F0452
:1015200046EA04040BF10805A4B22C60DDF800E0E3
:1015300009B070470038014038034242F9180000F2
:101540001C010020890D000020010020B90D0000C1
:1015500024010020A10D00002801002000440040CB
:10156000C403424219180000650B00004D0B000037
:10157000350B000000480040C8034242DD1800005F
:10158000D90E0000C10E0000A90E0000004C004062
:10159000CC034242C1180000210F0000090F0000D7
:1015A000F10E000000500040D0034242A518000098
:1015B000910E00000D0E0000F50D000082B00190AC
:1015C000BDF80620C2F3C7127E3A10B208807E230F
:1015D000BDF8062063F3CE12ADF80620019802B0E4
:1015E0007047FFFF88B0CDF800E00E46554B98429B
:1015F0000DD1012464B2544B1C60544C544B1C60FC
:10160000544C554B1C60554C554B1C600FE0554BD2
:1016100098420CD1012464B2534B1C60534C4C4B88
:101620001C60534C4C4B1C60524C4D4B1C60019643
:1016300002901046FFF770FD0298019E031D1B6883
:101640009CB26FF03F0304EA03039DB203AB019029
:101650001846FFF70DFD0198059F059C464BB4FB0E
:10166000F3F399B29BB245EA0304A4B2031D1C60D4
:101670000024036864F30003036000223F4B9E4292
:1016800012D87300B7FBF3F4A4B2042C02D20423E3
:101690001C46FFE742EA04039AB200F220044B1C06
:1016A0009BB2236091B23FE0032306FB03F4B7FB38
:1016B000F4F31FFA83F8192306FB03F5B7FBF5F3E0
:1016C0001FFA83F908FB04F409FB05F33C1BFB1A22
:1016D0009C4205D203237343B7FBF3F4A4B206E0A4
:1016E00019237343B7FBF3F4A4B244F4804440F6E7
:1016F000FF7304EA030313B944F00104FFE744F461
:1017000000439BB21A4392B200F2200540F22C1320
:1017100001FB03F4A4B240F2E833B4FBF3F39BB251
:101720005B1C9BB22B6091B200F21C03196000237A
:1017300003600124036864F300030360DDF800E044
:1017400008B0704700540040D4034242390F0000F3
:1017500010010020490E000014010020D10D0000EE
:101760001801002000580040D80342427D0B0000C1
:10177000250E00006D0E000040420F00A086010003
:1017800081B0ADF800100146BDF800000B68C3F34E
:10179000C01202B9FAE70A1D106001B07047FFFFDE
:1017A00081B0CDF800E043F6FF70FFF73DFD80B259
:1017B000DDF800E001B0704781B0CDF800E09300A3
:1017C000CB181B681C468246204689460FFA82F8D1
:1017D000B8F1000F10D0524600F0CCFBA8F1010385
:1017E0001BB20FFA83FB9B0009EB03031A6800F09E
:1017F00007FC0FFA8BF8EBE7DDF800E001B070476B
:1018000081B0CDF800E0FFF7CBFF00F40070C0B26C
:10181000DDF800E001B0704781B0CDF800E081B2A2
:101820000348FFF7ADFFDDF800E001B0704700BFEF
:10183000004400400204060881B042F6DF67C0F2AF
:1018400000077F1EFDD100BF00BF00BF00BF00BF6B
:1018500001B0704782B0CDF800E001ACE31C01F4A8
:101860007F4292B2120A1A70A31C01F0FF021A7092
:1018700000F47F4292B2120A2270631C00F0FF0251
:101880001A70FFF7DFFB01AB054A127819460123F6
:10189000D0B20422FFF764FBDDF800E002B070472D
:1018A0007700002081B0CDF800E081B20348FFF757
:1018B00067FFDDF800E001B0704700BF0050004056
:1018C00081B0CDF800E081B20348FFF759FFDDF8A1
:1018D00000E001B0704700BF004C004081B0CDF87F
:1018E00000E081B20348FFF74BFFDDF800E001B0F4
:1018F000704700BF0048004081B0CDF800E081B2E1
:101900000348FFF73DFFDDF800E001B0704700BF7E
:101910000038014081B0CDF800E00A460146034896
:10192000FFF760FEDDF800E001B0704700540040B2
:1019300084B0CDF800E002464FF00000019200F0C4
:1019400017FA40F2000000D10120019A10B14FF0C7
:101950007E5060E03248019200F00AFA40F2000046
:1019600000DA0120019A08B12E4854E02E48019275
:1019700000F0FEF940F2000000DD0120019A10B1F4
:101980004FF0000047E04FF00000019200F0F0F946
:1019900040F2000000DD0120019A5FFA80FCC1B234
:1019A00021B182F000410846014600E011461F487F
:1019B0000A4600F0DFFA8146FFF76AFC00F08AF879
:1019C00000B2ADF8080000F059F90390039A4846B8
:1019D00000F03AFA40F2090212B21549FFF7ECFEA4
:1019E000BDF90810FFF792FC0146BCF1000F11D0C1
:1019F0000C480A4600F0BCF940F2000000D101207A
:101A000010B14FF0000006E04FF07E500A4600F0A3
:101A1000B7F800E00846DDF800E004B0704700BF0A
:101A2000FED4B242FFFF7F7F50ACAEC23BAAB83FAC
:101A3000F830000081B0CDF800E0019D2C4610B4D4
:101A400008B493B28AB201460348FFF795FC02B08E
:101A5000DDF800E001B070470048004082B0CDF8EA
:101A600000E003464FF000001A4600F081F940F212
:101A7000000000DB012010B14FF0000021E001A9BF
:101A80001846FFF79BFD4FF0804200F073FA4FF0CD
:101A90007E5200F0D9F9BDF90410491EADF80410CA
:101AA00040F2080212B20949FFF786FE8046BDF9EE
:101AB000040000F0E3F8064A00F05CFA424600F049
:101AC0009FFADDF800E002B0704700BF203100004F
:101AD0001872313F81B006B54FEA40024FEA1262F8
:101AE0007F3A44BF4FF0000011E0D2F11F0209D944
:101AF0004FEA002141F00041D14000284CBF48424C
:101B0000084604E000284FF0004058BF401EBDE8E2
:101B1000064001B07047FFFF81B0CDF800E0019DA5
:101B20002C4610B408B493B28AB201460348FFF7BA
:101B300023FC02B0DDF800E001B070470044004033
:101B400081B0CDF800E0FFF72BFE00F00100C0B23D
:101B5000DDF800E001B0704781B0CDF800E0019DF4
:101B60002C4610B408B493B28AB201460348FFF77A
:101B700003FC02B0DDF800E001B07047003801401E
:101B800081B0FAB590EA02064CBF4FF000464FF024
:101B90000006010243001B0E12BF41F000414FF04E
:101BA00000003BE0FF2B35D05FEA02245FEA4205EC
:101BB0005FEA156511BF44F000444FF0FF40304329
:101BC0002CE0FF2D26D05B1B00202027640849084D
:101BD000A14240EB000028BF091B7F1E04D0002952
:101BE00018BF4900F4D1B84010F0004F04BF4000C6
:101BF000B3F1010380302CBF5B1C40007F33DCBF9E
:101C00004FF000000AE0FF2B04D2400A40EAC35024
:101C1000304303E0FF27FF0556EA0700BDE8FA401E
:101C200001B0704781B0CDF800E0FFF7B9FD00F0DA
:101C30007C0080B28008C0B2DDF800E001B07047DF
:101C400083B0CDF800E0ADF8080040F20001ADF837
:101C50000410FFF775FF68B9FFF7EEFDBDF804103B
:101C60004A1C92B2ADF80420BDF808108A4200D98F
:101C700000E0EEE7DDF800E003B0704781B0002837
:101C800008BF19E006B554BF0146D0F100014FF07E
:101C90009E0202D4521E4900FCD580312CBF521C3A
:101CA00049004FEA512141EAC25100284CBF41F09E
:101CB00000400846BDE8064001B0704784B0CDF84A
:101CC00000E00391014600228DF80820039A4FF0AE
:101CD000000000F04DF840F2000000D1012010B1EA
:101CE0004FF07E503FE04FF000000A4600F040F811
:101CF00040F2000000D1012010B14FF0000032E0AE
:101D00004FF000000A4600F033F840F2000000DD1A
:101D10000120C8B101910398FFF7DCFE0346FFF7ED
:101D2000ADFF0199039A00F023F840F2000000D0C3
:101D3000012010B14FF0000015E003F001028DF812
:101D4000082081F0004000E00846FFF787FE039A74
:101D500000F010F9FFF7ECFD9DF808201AB180F0B3
:101D600000421046FFE7DDF800E004B07047FFFFD7
:101D700081B010B5904208BF2AE040EA02044FEA61
:101D80004404002C08BF23E0440004D1944201D451
:101D9000A41C012C1CE04FEA40044FEA1464FF2C01
:101DA0000AD14FEA42044FEA1464FF2C04D14FEAEF
:101DB000D274B4EBD0340BE0002A06D4002802DC45
:101DC0000024012C04E0904202E0002848BF824237
:101DD000BDE8104001B0704781B0CDF800E043F29B
:101DE0000100FFF721FA80B2400880B200F0030042
:101DF000C0B2DDF800E001B07047FFFF81B0CDF860
:101E000000E043F20100FFF70FFA80B240F0080053
:101E100081B243F20100FFF71DFDDDF800E001B0E3
:101E20007047FFFF81B0CDF800E0FFF7B9FC4FF637
:101E3000FE71084081B243F6FF70FFF70BFDDDF83D
:101E400000E001B07047FFFF81B082F000422DE951
:101E5000FA414FEA02244FEA42052D0E04D1002C2C
:101E600018BF4FF000006CE044F00044FF2D5FD03D
:101E70004FEA9404002A48BF64424FEA00214FEA27
:101E800040031B0E05D1002914BF4FF0000010467F
:101E900057E041F00041FF2B4BD04FEA9101002861
:101EA00048BF49425E1B41BF0F4621463C46764231
:101EB00048BF2B46192E47BF44FA06F7C9194FF001
:101EC000000803E0C6F11C0704FA07F8002904BF64
:101ED0004FF0000035E046BF49424FF001074FF098
:101EE0000007A3F101034900FBD511F080040DD0D8
:101EF00001F0200548EA0508803128BF5B1C01F08D
:101F0000400458EA040808BF21F480719B1CDCBF20
:101F10004FF0000015E0FF2B0DD221F0FF014FEA3A
:101F200041014FEA512040EAC35040EAC77008E03F
:101F300010464FEAD0774FEAC777FF204FEAC050EC
:101F40003843BDE8FA4101B07047FFFF81B000910E
:101F5000014600980B461C465A1C15460346421C77
:101F600010461A78227022780AB12B46F3E7084609
:101F700001B0704781B0FAB590EA02064CBF4FF04D
:101F800000464FF000064FEA00214FEA40031B0EC7
:101F900012BF41F000414FF000002CE0FF2B26D093
:101FA0004FEA02244FEA42052D0E12BF44F00044CE
:101FB0004FF000001FE0FF2D19D05B19A1FB045466
:101FC000002C5CBF64005B1E803424BF5B1C640873
:101FD0007E3BDCBF4FF000000DE0FF2B07D24FEA45
:101FE000142030F4000040EAC350304303E0FF27E0
:101FF000FF0546EA0700BDE8FA4001B07047FFFF61
:1020000081B02DE9FA414FEA02244FEA42052D0E34
:1020100004D1002C18BF4FF000006CE044F00044E5
:10202000FF2D5FD04FEA9404002A48BF64424FEA74
:1020300000214FEA40031B0E05D1002914BF4FF0C9
:102040000000104657E041F00041FF2B4BD04FEA13
:102050009101002848BF49425E1B41BF0F462146FF
:102060003C46764248BF2B46192E47BF44FA06F736
:10207000C9194FF0000803E0C6F11C0704FA07F87D
:10208000002904BF4FF0000035E046BF49424FF041
:1020900001074FF00007A3F101034900FBD511F040
:1020A00080040DD001F0200548EA0508803128BFE2
:1020B0005B1C01F0400458EA040808BF21F4807159
:1020C0009B1CDCBF4FF0000015E0FF2B0DD221F070
:1020D000FF014FEA41014FEA512040EAC35040EA74
:1020E000C77008E010464FEAD0774FEAC777FF2065
:1020F0004FEAC0503843BDE8FA4101B07047FFFFD6
:1021000083B0CDF800E001AA010A1170521C00F062
:10211000FF011170FEF796FF01AA15490978002307
:10212000C8B211460222FEF71BFF0DF1060210494C
:1021300009780123C8B211460422FEF725FF0DF1EC
:102140000603991C0978C8B20202D91C097842EA30
:1021500001010A02197842EA01010A02591C0978B0
:1021600042EA01010846DDF800E003B0704700BF15
:102170007700002081B0CDF800E0094902B440F2B8
:10218000000340F2000240F20001FFF7E5FC01B05D
:10219000044A05490A600020DDF800E001B07047FC
:1021A0002C300000F9180000BC00002081B0CDF8F0
:1021B00000E0094902B440F2000340F2000240F29C
:1021C0000001FFF7A9FC01B0044A05490A6000209C
:1021D000DDF800E001B07047E82E0000191800009B
:1021E000BC00002081B0CDF800E00178CCB2A0B2F4
:1021F000034C2468A0470020DDF800E001B07047E0
:10220000BC00002081B0CDF800E0094902B440F2E2
:10221000000340F2000240F20001FFF77DFC01B034
:10222000044A05490A600020DDF800E001B070476B
:10223000E82E000019180000BC00002081B0CDF885
:1022400000E0016808460449FFF764FB0020DDF860
:1022500000E001B0704700BF542F000081B0CDF8FE
:1022600000E0094902B440F2000340F2000240F2EB
:102270000001FFF7DFFB01B0044A05490A600020B6
:10228000DDF800E001B07047C02F0000DD1800004D
:10229000BC00002081B0CDF800E001680846044988
:1022A000FFF738FB0020DDF800E001B0704700BF09
:1022B000542F000081B001B07047FFFF81B0026869
:1022C00006490A60011D0A6805490A6000F2080112
:1022D0000A6804490A6001B0704700BFFC00002092
:1022E000E0000020F400002083B0CDF800E0ADF85D
:1022F000080040F20001ADF80410FFF781FA012850
:102300000DD1FFF799FABDF804104A1C92B2ADF84E
:102310000420BDF808108A4200D900E0EDE7DDF89E
:1023200000E003B07047FFFF82B0CDF800E08DF809
:10233000040043F20100FEF777FF82B24FF6F97115
:102340000A4092B29DF80410490089B242EA0101A4
:1023500043F20100FFF77EFADDF800E002B07047BB
:1023600081B0CDF800E08B4609E05846FFF792FFB8
:102370000AE05846FFF762FF06E0012004E000286B
:10238000F3D00128F5D0F8E7DDF800E001B07047A0
:102390008AB0CDF800E0FFF71FFD032801D0FFF75A
:1023A0002DFDFFF73FFD40F2EE20FFF749FC44F220
:1023B0000300FEF739FFADF8040044F20400FEF715
:1023C00033FFBDF90410091809B2022000B291FBD5
:1023D000F0F0ADF8040044F20600FEF725FFADF87A
:1023E000060044F20700FEF71FFFBDF906100918AA
:1023F00009B2022000B291FBF0F0ADF8060044F201
:102400000500FEF711FFADF8080044F20800FEF7E2
:102410000BFFADF80A00BDF90800FFF72FFC09908B
:102420005A4AFFF7ADFB5A490A68FFF7A3FD089027
:10243000BDF90A00FFF722FC089AFFF7E1FD80468C
:10244000524A0998FFF79CFB4246FFF799FB4FF071
:102450009242FFF78FFD039000F0CAF90490BDF996
:1024600008100C2000B291FBF0F000B2FFF706FC60
:1024700048490A68FFF77EFD0890BDF90A00FFF79A
:10248000FDFB089AFFF7BCFD0590FFF7CBFB022888
:1024900012D1BDF906100C2000B291FBF0F000B291
:1024A000FFF7ECFB059AFFF76BFB4FF09242FFF74B
:1024B00061FD8146CA4611E0BDF904100C2000B24E
:1024C00091FBF0F000B2FFF7D9FB059AFFF758FB3C
:1024D0004FF09242FFF74EFD8146CA462E480268F1
:1024E0000398FFF7B1FC2D490A68FFF749FB2C4A16
:1024F000FFF786FD83462B4AFFF782FD81462A4877
:1025000002682A480068FFF735FD844628480268BB
:102510000498FFF799FC27490A68FFF72BFD4FF055
:102520007E52FFF76DFD0890234802685846FFF77A
:102530008BFC22490A68FFF71DFD089AFFF760FD32
:102540006246FFF717FD0690069A5046FFF718FB04
:10255000804648464A46FFF70DFD4A46FFF70AFD0A
:102560004A46FFF707FD4246FFF74AFD4FF07A5112
:10257000FFF7A4FB124AFFF767FC12490A68FFF74E
:1025800063FC0046DDF800E00AB0704700004041FF
:10259000C0000020C4000020C8000020CC000020A3
:1025A0000000C84133938843D00000207800002009
:1025B0007C000020D400002080000020D8000020F3
:1025C000EC918843DC00002081B0CDF800E00446A7
:1025D000054B1A700846FFF771FE2046FFF76AFEAA
:1025E000DDF800E001B070477700002081B0CDF841
:1025F00000E040F2EE20FFF777FE0220FFF794FEA6
:1026000042F20C40FFF77CFDFFF738FB4FF06E52B3
:10261000FFF7B0FC4A49086042F20E40FFF770FD38
:10262000FFF72CFB474AFFF7A5FC4749086042F239
:102630001040FFF765FDFFF721FB4FF02652FFF733
:1026400099FC4249086042F21240FFF759FDFFF73A
:1026500015FB4FF06E52FFF78DFC3D49086042F2CA
:102660002440FFF74DFDFFF709FB3A4AFFF782FCD4
:102670003949086042F22640FFF742FDFFF7FEFAB3
:102680004FF06E52FFF776FC3449086042F2284062
:10269000FFF736FDFFF7F2FA4FF02252FFF76AFC20
:1026A0002F49086042F22A40FFF72AFDFFF7E6FAB9
:1026B0004FF03652FFF75EFC2A49086042F22C4088
:1026C000FFF71EFDFFF7DAFA4FF03652FFF752FC24
:1026D0002549086042F22E40FEF7A6FDFFF7CEFA2C
:1026E0004FF06A52FFF746FC2049086042F22F4043
:1026F000FEF79AFDFFF7C2FA4FF06A52FFF73AFC75
:102700001B49086042F28140FEF78EFDFFF7B6FAE2
:10271000184AFFF72FFC1849086042F28240FEF782
:1027200083FDFFF7ABFA134AFFF724FC1349086057
:102730000620FFF7F9FDDDF800E001B0704700BFAB
:10274000E8000020A9D17F35EC000020F000002037
:10275000E400002040DA7F37CC000020C8000020D1
:10276000D0000020D8000020D4000020C0000020AD
:10277000C4000020D5FF7F38F8000020DC000020D6
:1027800083B0CDF800E0024610460D228DF80820F7
:102790000A228DF809201FE0FFF724FD23E00278CC
:1027A0002AB10190FFF71EFD0198401CF7E71AE0DF
:1027B00002782AB10190FFF715FD0198401CF7E758
:1027C00002AA1046FFF70EFD0DF109021046FFF7B1
:1027D00009FD08E0062007E00029DDD00129DED050
:1027E0000229E5D0F6E70020DDF800E003B07047ED
:1027F00084B0CDF800E0FFF7EFFA032801D0FFF72F
:10280000FDFAFFF70FFB40F2EE20FFF719FA44F252
:102810000500FEF709FD01B2ADF8041044F208000E
:10282000FEF702FDBDF904100FFA80F808B2FFF7B9
:1028300025FA03901F4AFFF7A3F91F490A68FFF71B
:1028400099FB02900FFA88F0FFF718FA029AFFF747
:10285000D7FB8046174A0398FFF792F94246FFF7E5
:102860008FF94FF09242FFF785FB814613490291A1
:102870000A68FFF7E9FA12490A68FFF781F9114976
:102880000A68FFF7BDFB02990390084602684846B4
:10289000FFF7DAFA02900C490A68FFF76BFB029A1D
:1028A000FFF768FB039AFFF7ABFBDDF800E004B02D
:1028B000704700BF00004041C0000020E800002039
:1028C000EC000020E4000020F000002081B0CDF8F2
:1028D00000E011E00846FFF7C1FC16E00846FFF7EC
:1028E00091FC12E00846FFF745FC0EE00846FFF7B2
:1028F0005DFC0AE0012008E00028EBD00128EDD0C3
:102900002028EFD03028F1D0F4E7DDF800E001B066
:102910007047FFFF82B0CDF800E002460C46002071
:10292000002149B20192019AB2F1FF3F06D1714AEA
:1029300011462046FFF70AFB0320D7E0012501AA34
:10294000D21C127802F08002D2B272B101AAD31C5A
:102950001A7882F080021A706A1CD3B22D2222707B
:10296000621C1446DEB2A24601E0A246EEB2019A13
:1029700032B9614A11465046FFF7E8FA0020B5E047
:10298000019AB2F1FF4F06D15C4A11465046FFF75B
:10299000DDFAF0B2AAE05FFA80F94FFA81F8019A05
:1029A0004FF07E50FFF7E4F940F2000000DD012017
:1029B00048B1019A5248FFF7DDFA0190A8F10108E9
:1029C0004FFA88F8EBE7019A4D48FFF7D1F940F24A
:1029D000000000DC012048B1019A4A48FFF7CAFA1A
:1029E000019008F101084FFA88F8ECE7019A5200CB
:1029F000019201AAD21C12787F3AD0B201AAD31C4C
:102A000001221A70019A8240019201AAD21C127806
:102A100030328AF800200AF10100B8F1010F06DB1C
:102A2000B8F1060F03DC05465FFA89F103E02E22B8
:102A30000270451C012106204FFA88F400B301AA58
:102A4000D31C00221A70019A9300019AD2180192A5
:102A5000019A5200019201AAD21C127830322A70D7
:102A60006D1C51B9621E52B253B222B92E222A7085
:102A70006D1C0121FFE75CB2FFE7401EC0B2DDE73D
:102A8000294660B24A1E1278302A01D1491EF9E760
:102A90004A1E12782E2A01D1491EFFE710B3652283
:102AA0000A70491C002806DA2D220A70491C42428D
:102AB00050B243B200E043B2D8B2DAB2092A07D921
:102AC0000A22B0FBF2F2D2B230320A70491CFFE7A0
:102AD0000A23B0FBF3F203FB1202D2B230320A70C7
:102AE000481C00E00846002202700020DDF800E0EB
:102AF00002B0704784000020880000208A00002077
:102B000000002041CDCCCC3D81B01548006840F09C
:102B1000010113480160134913480160104801681E
:102B2000124801400E4801600D4801686FF4802092
:102B300001400B4801600C4801686FF4FE00014041
:102B400009480160064801686FF0A0500140044840
:102B500001604FF000010648016001B0704700BFFE
:102B6000001002400000FFF004100240FFFFF6FEDC
:102B70002C10024081B01CF8019B0BF8019BBBEBB1
:102B80000A0FF8D101B0704781B04FF000094FF043
:102B9000000CBDEB0A0F04DCBDEB0B0F01DBD446D0
:102BA000EA464BF8049BBBEB0A0FFAD1BCEB0A0FC9
:102BB00005DDE246D9F800B00BF1040BF1E701B0F6
:102BC0007047FFFFA086010081B0CDF800E00E48FD
:102BD00001460020FFF7C4FB4FF4E1312020FFF74E
:102BE00075FE44F67F77C0F212077F1EFDD100BF4D
:102BF00000BF00BF00BF00BF04480221FFF7C0FDB7
:102C0000DDF800E001B07047C42B00003300002065
:102C100081B0CDF800E0FFF7EBFD194908601948D5
:102C20000121FFF7ADFD164800681749FFF772FE56
:102C300002211548FFF7A4FDFFF7AAFB134908601E
:102C400013480121FFF79CFD104800680E49FFF76B
:102C500061FE02210C48FFF793FD0E480221FFF7A9
:102C60008FFD43F6FF57C0F249077F1EFDD100BF1D
:102C700000BF00BF00BF00BFDDF800E001B070473B
:102C80009C00002047000020A0000020B800002089
:102C90005F0000207500002081B0CDF800E03A22EE
:102CA0000E490F48FFF790FC0E480221FFF768FD20
:102CB000FFF79CFC48F67F57C0F25B0700BF00BFE0
:102CC0007F1EFDD100BF00BF00BF07480221FFF7F4
:102CD00057FDDDF800E001B0704700BF6C31000027
:102CE00098300000000000201900002081B0FEE7AD
:102CF00001B0704781B002490248016001B07047DD
:102D0000401901000001002081B000F00FF800F030
:102D100095FAFFF7EFFF00F035FAFFF755FFFFF7E1
:102D2000BBFFFFF775FFFCE7FEE7FFFF81B0CDF8C3
:102D300000E0464A464B474C47494BF680308142BB
:102D400006D94648006840F002014448016011E09D
:102D500045F6C050814206D94048006840F0010164
:102D60003E48016006E03D4801686FF00700014001
:102D70003A480160FFF7C8FE3948036039480460EB
:102D8000394802EA00013948016002F0010040B10F
:102D900019463648006800F00200002800D1F8E724
:102DA00000E0194602F4803040B10B462F4800681D
:102DB00000F40030002800D1F8E700E00B4602F0F4
:102DC000805068B12948006840F080512748016070
:102DD0002648006800F00050002800D1F8E7FFE71F
:102DE00002F0806078B12148006840F080611F489F
:102DF000016011461A461D48006800F00060002876
:102E000000D1F8E701E011461A4601F0807070B178
:102E10001648006840F0807114480160114613485C
:102E2000006800F0007000B9F9E70A46FFE70C48B7
:102E3000006800F00C01900000F00C00814200D00E
:102E4000F5E7DDF800E001B0704700BF8100010543
:102E500002841D00440601004019010000200240C8
:102E6000041002402C100240FFFF0F00001002402F
:102E70002D2D2D204170706C69636174696F6E2017
:102E8000696E6974202D2D2D002D2D2D2053746118
:102E90007274206D6561737572656D656E74202D39
:102EA0002D2D002D2D2D2053797374656D20696EA5
:102EB0006974202D2D2D0020416D6269656E74208E
:102EC00074656D7065726174757265203A200020BA
:102ED0004F626A6563742074656D706572617475A4
:102EE0007265203A002000FF350000003600000027
:102EF000FFFFFFFF000000000000000000000000D6
:102F000000000000000000000000000000000000C1
:102F10000000000000000000000000001808000091
:102F20001800000000000000000000000000000089
:102F30000000000000000000000000000000000091
:102F40000000000000000000000000000000000081
:102F5000080000081600000017000000FFFFFFFF38
:102F60000000000000000000000000000000000061
:102F70000000000000000000000000000000000051
:102F800000000000000000002808000028080000E1
:102F90000000000000000000000000000000000031
:102FA0000000000000000000000000000000000021
:102FB000000000000000000000000000020000000F
:102FC0003800000039000000FFFFFFFF0000000094
:102FD00000000000000000000000000000000000F1
:102FE00000000000000000000000000000000000E1
:102FF0000000000018080000180000000000000099
:1030000000000000000000000000000000000000C0
:1030100000000000000000000000000000000000B0
:10302000000000000000000030001408090000004B
:103030000A000000FFFFFFFF00000000000000008A
:103040000000000000000000000000000000000080
:103050000000000000000000000000000000000070
:103060001808000018000000000000000000000028
:103070000000000000000000000000000000000050
:103080000000000000000000000000000000000040
:10309000000000000400000015020000050200000E
:1030A000F501000045020000350200002502000085
:1030B000E5010000A5010000950100008501000068
:1030C000D5010000C5010000FFFFFFFFFFFFFFFF6C
:1030D000FFFFFFFFFFFFFFFFFFFFFFFFFFFFFFFF00
:1030E000FFFFFFFFFFFFFFFFFFFFFFFFFFFFFFFFF0
:1030F000FFFFFFFFFFFFFFFF0000803F1872313F1F
:10310000F0FD753E4758633D58951D3C82C4AE3A6C
:10311000A8782139EF938037A092A7354656153409
:10312000FFE6DB2EC4FF7F3F80EFFFBE90E1A93EAC
:10313000EC8276BE82AD2B3E0E3CC3BD87D1133DE3
:103140004178D3BB0000803F0000C8410000C84167
:103150004E614E003000494E460000000000010262
:1031600003040102030406070809FFFF390F0000EA
:10317000D10D0000490E000000000000000000001A
:103180000000000000B5DFF834B0DFF834A0DFF84D
:1031900034C0FFF7EFFCDFF830B0DFF830A0DFF825
:1031A00030C0FFF7E7FCDFF82CB0DFF82CA0DFF829
:1031B0002CC0FFF7DFFC00BD704700BF00000020FF
:1031C00077000020702E0000780000208E00002084
:1031D00044310000900000209C0000207831000065
:1031E000FFFFFFFFFFFFFFFFFFFFFFFFFFFFFFFFEF
:1031F000FFFFFFFFFFFFFFFFFFFFFFFFFFFFFFFFDF
:10320000FFFFFFFFFFFFFFFFFFFFFFFFFFFFFFFFCE
:10321000FFFFFFFFFFFFFFFFFFFFFFFFFFFFFFFFBE
:10322000FFFFFFFFFFFFFFFFFFFFFFFFFFFFFFFFAE
:10323000FFFFFFFFFFFFFFFFFFFFFFFF00B5DFF80E
:1032400010B0DFF810A0FFF79FFC00BD704700BF73
:10325000000000202C010020FFFFFFFFFFFFFFFF09
:00000001FF
