:10000000FCFF0320E9330000713200007132000070
:100010007132000071320000713200007132000054
:100020007132000071320000713200007132000044
:100030007132000071320000713200007132000034
:100040007132000071320000713200007132000024
:100050007132000071320000713200007132000014
:100060007132000071320000713200007132000004
:1000700071320000713200007132000071320000F4
:1000800071320000713200007132000071320000E4
:1000900071320000713200007132000071320000D4
:1000A00071320000713200007132000071320000C4
:1000B00071320000713200007132000071320000B4
:1000C00071320000713200007132000071320000A4
:1000D0007132000071320000713200007132000094
:1000E0007132000071320000713200007132000084
:1000F0007132000071320000713200007132000074
:100100007132000071320000713200007132000063
:100110007132000071320000713200007132000053
:100120007132000071320000713200007132000043
:100130007132000071320000713200007132000033
:100140007132000071320000713200007132000023
:100150007132000071320000713200007132000013
:100160007132000071320000713200007132000003
:1001700071320000713200007132000071320000F3
:1001800071320000713200007132000071320000E3
:1001900071320000713200007132000071320000D3
:1001A00071320000713200007132000071320000C3
:1001B00071320000713200007132000071320000B3
:1001C00071320000713200007132000071320000A3
:1001D0007132000071320000713200007132000093
:1001E0007132000071320000713200007132000083
:1001F0007132000071320000713200007132000073
:080200007132000071320000B0
:1033E800FFF766FFFFF744FF00F0ACFAFFF756FF60
:1033F80000F05AFAFFF7FCFEFFF77AFEFFF798FE97
:04340800FCE7FEE7F8
:1031E40081B01CF8019B0BF8019BBBEB0A0FF8D1D3
:0431F40001B070476F
:1032340081B04FF000094FF0000CBDEB0A0F04DC25
:10324400BDEB0B0F01DBD446EA464BF8049BBBEB0A
:103254000A0FFAD1BCEB0A0F05DDE246D9F800B03B
:0A3264000BF1040BF1E701B0704715
:1031F80081B0CDF800E00C4801460020FFF7F2FB53
:103208004DF6C0212020FFF713FA40F6FE07C0F262
:103218003D077F1EFDD100BF00BF00BF00BF00BF3C
:0C322800DDF800E001B07047A83800009D
:1029EC0081B0CDF800E009E00846FFF7FDFC0AE0F5
:1029FC000846FFF7E9FC06E0012004E00028F3D0CC
:0E2A0C000128F5D0F8E7DDF800E001B07047D2
:1023F40081B0CDF800E0016808460449FFF722FDEA
:102404000020DDF800E001B0704700BFA0360000F6
:101E480081B0CDF800E00A4601460348FFF7FEFBE3
:0C1E5800DDF800E001B07047000002401F
:1016540083B0CDF800E001920A46014601985C4B44
:10166400994216D100245B4B1C60012464B25A4B8E
:101674001C605A4C5A4B1C605A4C5B4B1C605B4CB4
:101684005B4B1C605B4C5C4B1C605C4C5C4B1C609F
:1016940065E15C4B994216D100245B4B1C6001242C
:1016A40064B25A4B1C605A4C4D4B1C60594C4E4B07
:1016B4001C60594C4E4B1C60584C4F4B1C60584C92
:1016C4004F4B1C604BE1574B994216D10024564BAB
:1016D4001C60012464B2554B1C60554C404B1C608B
:1016E400544C414B1C60544C414B1C60534C424B7A
:1016F4001C60534C424B1C6031E1524B994216D151
:101704000024514B1C60012464B2504B1C60504CAB
:10171400334B1C604F4C344B1C604F4C344B1C609F
:101724004E4C354B1C604E4C354B1C6017E14D4BF9
:10173400994216D100244C4B1C60012464B24B4BDB
:101744001C604B4C264B1C604A4C274B1C604A4C7B
:10175400274B1C60494C284B1C60494C284B1C608F
:10176400FDE0484B994216D10024474B1C600124EC
:1017740064B2464B1C60464C194B1C60454C1A4BDA
:101784001C60454C1A4B1C60444C1B4B1C60444C65
:101794001B4B1C60E3E0434B994216D10024424B9F
:1017A4001C60012464B2414B1C60414C0C4B1C6016
:1017B400404C0D4B1C60404C0D4B1C603F4C0E4B81
:1017C4001C603F4C0E4B1C60C9E03E4B99427BE0D1
:1017D400000002401C00002000C4FC43FFFFFFFF88
:1017E400B4000020290C0000B8000020650B0000A4
:1017F400BC000020DD0A0000C0000020FFFFFFFF46
:10180400C4000020001002402000002004C4FC4357
:10181400FFFFFFFF0D0C0000BD070000110B0000CF
:10182400FFFFFFFF002002402400002008C4FC4307
:10183400FFFFFFFF610C0000C5090000490B000019
:10184400FFFFFFFF00300240280000200CC4FC43CF
:10185400FFFFFFFF450C0000FD0900002D0B0000F9
:10186400FFFFFFFF00000C402C00002010C4FC43CD
:10187400FFFFFFFFF10B0000E1090000C10A0000B7
:10188400FFFFFFFF00100C403000002014C4FC4395
:10189400FFFFFFFF9D0B0000A1070000510A00009D
:1018A400FFFFFFFF00200C403400002018C4FC435D
:1018B400FFFFFFFF810B00004D070000350A000009
:1018C400FFFFFFFF00300C4016D10024414B1C6089
:1018D400012464B2404B1C60404C414B1C60414CA1
:1018E400414B1C60414C424B1C60424C424B1C60BF
:1018F400424C434B1C6032E0424B994216D10024C7
:10190400414B1C60012464B2404B1C60404C344B7E
:101914001C60404C344B1C603F4C354B1C603F4CAE
:10192400354B1C603E4C364B1C6018E03D4B9942D5
:1019340015D100243C4B1C60012464B23B4B1C6059
:101944003B4C274B1C603B4C274B1C603A4C284BB0
:101954001C603A4C284B1C60394C294B1C6001928A
:101964000291FFF78BFD0299019A01F220041023E2
:101974002360344B9A4207D106260D1D01242B689F
:1019840064F304132B6006E014260D1D00242B6859
:1019940064F304132B60FFF7EFFD40F2E83300FB20
:1019A40003F506FB02F4B5FBF4F318466343EB1AA4
:1019B4000BB9401EFFE77F2801D97F20FFE70128EC
:1019C40001D20120FFE701F20C031860DDF800E00A
:1019D40003B07047380000201CC4FC43FFFFFFFF26
:1019E400B4000020D50B0000B800002069070000F7
:1019F400BC0000206D0A0000C0000020FFFFFFFFB4
:101A0400C400002000800B403C00002020C4FC43A4
:101A1400FFFFFFFFB90B000085070000A50A0000C7
:101A2400FFFFFFFF00900B404000002024C4FC4354
:101A3400FFFFFFFF7D0C0000190A0000890A000067
:081A4400FFFFFFFFD0CF3200CD
:1014800081B0CDF800E040F2000B82460AF1D801AD
:1014900009788B4539D20C210BFB01F10AEB0101D4
:1014A0008C460CF108010978A9B90CF108010978FA
:1014B000CCB20CF1060109888BB20CF10401097859
:1014C000CAB2DCF800100846D1B2002210B4FFF70F
:1014D00075FC01B014E00CF108010978CCB20CF1F4
:1014E000060109888BB20CF104010978CAB2DCF854
:1014F00000100846D1B20F2210B4FFF75FFC01B014
:101500000BF1010B5FFA8BFBC0E7DDF800E001B0E7
:02151000704722
:100DBC0082B0CDF800E05FFA81F8D5B29FB29DF811
:100DCC000830F54C00EA0404A1462046FFF7FEFC6F
:100DDC00F24CA54208D109F580666FEA0805EDB220
:100DEC0034682C40346008E0ED4CA54205D109F57F
:100DFC0080652C6844EA08042C6040F2010407EA80
:100E0C000404A4B234B109F5A2652C6844EA0804C0
:100E1C002C6007E009F5A2666FEA0805EDB23468AC
:100E2C002C40346040F2020407EA0404A4B234B14A
:100E3C0009F214552C6844EA08042C6007E009F206
:100E4C0014566FEA0805EDB234682C40346040F259
:100E5C00080407EA0404A4B234B109F20C552C6856
:100E6C0044EA08042C6007E009F20C566FEA080506
:100E7C00EDB234682C40346040F2100407EA0404EC
:100E8C00A4B234B109F5A0652C6844EA08042C60BE
:100E9C0007E009F5A0666FEA0805EDB234682C404E
:100EAC00346040F2200407EA0404A4B234B109F21D
:100EBC0004552C6844EA08042C6007E009F2045637
:100ECC006FEA0805EDB234682C40346040F24004FF
:100EDC0007EA0404A4B234B109F5A1652C6844EA0C
:100EEC0008042C6007E009F5A1666FEA0805EDB26D
:100EFC0034682C40346041F2000407EA0404A4B2C4
:100F0C00012C13D042F2000407EA0404A4B2012C11
:100F1C000CD044F2000407EA0404A4B2012C05D05E
:100F2C00DEB24B46B8B25FFA88F53CE000200026F2
:100F3C00DAB2BBB207465FFA88F04946082E13D2E4
:100F4C0020FA06F4E4B204F00104E4B24CB17500EA
:100F5C002DB2032424B2AC4024B247EA04052F4638
:100F6C00FFE7761CF6B2E9E701F6C476FD43346878
:100F7C002C40346001F23C56C543EDB234682C4031
:100F8C00346001F5A166C543EDB234682C40346081
:100F9C0001F20456C543EDB234682C403460C5B23E
:100FAC0098B20B46D6B2002141F2000400EA0404C8
:100FBC00A4B23CB300220F46E9B2082A13D221FA9C
:100FCC0002F4E4B204F00104E4B24CB155002DB2C9
:100FDC00012424B2AC4024B247EA04052F46FFE7B3
:100FEC00521CD2B2E9E703F6C4752C683C432C6062
:100FFC0003F5A1652C680C432C603D461F4683B25B
:10100C00C8B203E01F4683B2E8B20D4642F20004B8
:10101C0003EA0404A4B26CB30022A8463946082A99
:10102C0013D220FA02F4E4B204F00104E4B24CB19D
:10103C0055002DB2032424B2AC4024B248EA040576
:10104C00A846FFE7521CD2B2E9E701F6C4752C683A
:10105C0044EA08042C6001F23C552C6804432C60D3
:10106C0001F5A1652C6804432C60F7B20E46C2B2A0
:10107C0098B205E00197C2B298B2F7B2A846019EA9
:10108C0044F2000400EA0404A4B284B30023D1B2F5
:10109C00082B14D221FA03F4E4B204F00104E4B2F4
:1010AC0054B15D002DB2032424B2AC4024B248EA02
:1010BC00040422469046FFE75B1CDBB2E8E706F629
:1010CC00C4752C6844EA08042C6006F23C552C6864
:1010DC000C432C6006F5A1652C680C432C6006F2C1
:1010EC0004552C680C432C60FBB2324602E0D1B2A2
:1010FC003246FBB240F2800400EA0404A4B274B19C
:10110C0040F2400400EA0404A4B22CB102F5A36539
:10111C002C680C432C6001E00120FAE006E002F59B
:10112C00A366CD43EDB234682C40346040F2001419
:10113C0000EA0404A4B22CB102F21C552C680C4336
:10114C002C6006E002F21C56CD43EDB234682C4004
:10115C00346040F2002400EA0404A4B2002C3AD01B
:10116C00104CA24240F2000500D001250E4CA242C8
:10117C0040F2000400D0012425400C4CA24240F265
:10118C00000400D001242540094CA24240F2000486
:10119C0000D0012425400DE000F0FFFF000000000E
:1011AC000100000000C0054000B005400090054063
:1011BC0000100640594CA24240F2000400D0012419
:1011CC0005EA04040CB10120A3E002F5A5652C6826
:1011DC000C432C602AE0524CA24240F2000500D194
:1011EC000125504CA24240F2000400D101242543B9
:1011FC004D4CA24240F2000400D1012425434B4C3B
:10120C00A24240F2000400D101242543434CA242E7
:10121C0040F2000400D1012445EA040434B102F583
:10122C00A566CD43EDB234682C40346040F6000422
:10123C0000EA0404A4B22CB102F5A6652C680C4398
:10124C002C6006E002F5A666CD43EDB234682C4066
:10125C00346040F2004400EA0404A4B22CB102F55C
:10126C0084652C680C432C6006E002F58466CD4343
:10127C00EDB234682C4034600BB9002049E00F2BE0
:10128C0001D9012045E0002700208DF80430C3B2BD
:10129C0010469DF80420082B12D221FA03F4E4B274
:1012AC0004F00104E4B244B19D002DB24FF00F04E0
:1012BC00AC4047EA04052F46FFE75B1CDBB2EAE7CC
:1012CC0000F22C56FD4334682C4034600026002379
:1012DC008DF80430CBB29DF80410082913D223FAF0
:1012EC0001F4E4B204F00104E4B24CB1D5B28C00C8
:1012FC0024B205FA04F446EA040425462E46FFE718
:10130C00491CC9B2E9E700F22C552C6834432C6017
:10131C000020DDF800E002B0704700BF005006402E
:10132C0000C0054000B0054000900540001006408C
:1007D80081B0664900EA010108467DE0644909687C
:1007E80041F0010262490A60BEE06149096841F0CE
:1007F80002025F490A60B7E05D49096841F00402F6
:100808005B490A60B0E05A49096841F00802584952
:100818000A60A9E05649096841F0100254490A6083
:10082800A2E05349096841F0200251490A609BE05F
:100838004F49096841F040024D490A6094E04C492B
:10084800096841F080024A490A608DE04849096810
:1008580041F4807246490A6086E04549096841F4D6
:10086800007243490A607FE04149096841F48062A7
:100878003F490A6078E03E49096841F400623C4912
:100888000A6071E03A49096841F4805238490A60BF
:100898006AE03749096841F4005235490A6063E063
:1008A8003349096841F4804231490A605CE03049C3
:1008B800096841F400422E490A6055E02C4909684C
:1008C80041F480322A490A604EE02949096841F416
:1008D800003227490A6047E0264988423FF47EAF44
:1008E800254988423FF481AF244988423FF484AFC8
:1008F800234988423FF487AF224988423FF48AAFB0
:10090800214988423FF48DAF204988423FF490AF97
:100918001F4988423FF493AF1E4988423FF496AF7F
:100928001D4988423FF499AF1C4988423FF49CAF67
:100938001B4988423FF49FAF1A4988423FF4A2AF4F
:10094800194988423FF4A5AF184988423FF4A8AF37
:10095800174988423FF4ABAF164988423FF4AEAF1F
:10096800154988423FF4B1AF01B0704700F0FFFF6E
:1009780008E60F40008005400090054000A00540B3
:1009880000B0054000C0054000D0054000E005402B
:1009980000F0054000000640001006400020064018
:1009A8000030064000400640005006400060064007
:0C09B800007006400080064000900640E1
:0C157C0001480068704700BF8800002094
:1023D40081B0CDF800E0016808460449FFF732FDFA
:1023E4000020DDF800E001B0704700BFA036000017
:1026380081B0CDF800E011E00846FFF7E7FE16E0AC
:102648000846FFF7F5FE12E00846FFF7CDFF0EE05B
:102658000846FFF7DBFF0AE0012008E00028EBD07E
:102668000128EDD02028EFD03028F1D0F4E7DDF8AC
:0626780000E001B0704714
:1024140081B0CDF800E0FFF731FD044A04490A60B9
:102424000020DDF800E001B0704700BFF51D00009A
:042434004400002040
:101E800082B0CDF800E00346214A22490A60224A86
:101E900022490A60224A23490A60234A23490A60E8
:101EA00001932348FFF7ECFA019B012252B221492A
:101EB0000A6000BF00BF00BFFFF7DEFDFFF75EFB5B
:101EC00040F2E83100FB01F210461901914205D9B8
:101ED000012252B218490A605A0804E0002252B2A4
:101EE00015490A601A46C100B1FBF2F1491C4B08C2
:101EF0009A0912490A6003F03F0211490A60602200
:101F000010490A60FFF794FBDDF800E002B070476B
:101F1000F51D0000C8000020FFFFFFFFCC000020DF
:101F2000FFFFFFFFD0000020FFFFFFFFD4000020D5
:101F30000C34000014C3FC43140622422410014058
:081F4000281001402C100140A3
:101A780081B0002149B2044801600448016004486B
:101A8800016001B0704700BF0006224220062242D2
:041A980024062242BC
:1016300081B0012149B204480160044801600448B6
:10164000016001B0704700BF00062242200622421E
:041650002406224208
:1024380081B0CDF800E0FFF7E7FD044A04490A60DF
:102448000020DDF800E001B0704700BF111E000059
:04245800440000201C
:1020100082B0CDF800E00346214A22490A60224AF4
:1020200022490A60224A23490A60234A23490A6056
:1020300001932348FFF724FA019B012252B2214960
:102040000A6000BF00BF00BFFFF7E0FAFFF796FA93
:1020500040F2E83100FB01F210461901914205D926
:10206000012252B218490A605A0804E0002252B212
:1020700015490A601A46C100B1FBF2F1491C4B0830
:102080009A0912490A6003F03F0211490A6060226E
:1020900010490A60FFF7A8FADDF800E002B07047C7
:1020A000111E0000C8000020FFFFFFFFCC00002031
:1020B000FFFFFFFFD0000020FFFFFFFFD400002044
:1020C000C43500001CC3FC431406264224300140E2
:0820D000283001402C300140D2
:10160C0081B0002149B204480160044801600448DB
:10161C00016001B0704700BF00062642200626423A
:04162C002406264228
:1015E80081B0012149B204480160044801600448FF
:1015F800016001B0704700BF00062642200626425F
:04160800240626424C
:1025F00081B0CDF800E0FFF7A7FC044A04490A6067
:102600000020DDF800E001B0704700BF651E00004B
:042610004400002062
:101F480082B0CDF800E00346214A22490A60224ABD
:101F580022490A60224A23490A60234A23490A601F
:101F680001932348FFF788FA019B012252B22149C5
:101F78000A6000BF00BF00BFFFF720FBFFF7FAFAB7
:101F880040F2E83100FB01F210461901914205D9EF
:101F9800012252B218490A605A0804E0002252B2DB
:101FA80015490A601A46C100B1FBF2F1491C4B08F9
:101FB8009A0912490A6003F03F0211490A60602237
:101FC80010490A60FFF7DCFADDF800E002B070475C
:101FD800651E0000C8000020FFFFFFFFCC000020A6
:101FE800FFFFFFFFD0000020FFFFFFFFD40000200D
:101FF800E834000008C3FC4314061C4224E00040F7
:0820080028E000402CE000403C
:1015C40081B0002149B20448016004480160044824
:1015D400016001B0704700BF00061C4220061C4297
:0415E40024061C427B
:1015880081B0012149B2044801600448016004485F
:10159800016001B0704700BF00061C4220061C42D3
:0415A80024061C42B7
:1026140081B0CDF800E0FFF7F9FC044A04490A60F0
:102624000020DDF800E001B0704700BF111E00007B
:04263400440000203E
:1030F80081B0CDF800E03A220B490C48FFF78AFC72
:1031080042F6FE47C0F231177F1EFDD100BF00BF57
:1031180000BF00BF00BFFFF781FE0320FFF7F4F9EF
:10312800DDF800E001B070479C3800007C370000F3
:102A1C0081B0CDF800E00446054B1A700846FFF76C
:102A2C00BFFC2046FFF7BAFCDDF800E001B07047B0
:042A3C000300002073
:1023AC00026806490A60011D0A6805490A6000F2C4
:1023BC0008010A6803490A60704700BF5C000020EE
:0823CC00600000206400002005
:0223A80070477C
:102E240082B0CDF800E040F2EE20FFF715FB012060
:102E3400FFF76CFB42F20C40FFF72CFB00EE100A8C
:102E4400B8EE400A8DED010AFAEE000AB0EE000A6F
:102E5400FFF778FBDDED010A20EE800A8F4800EDD4
:102E6400000A42F20E40FFF715FB00EE100AB8EE1E
:102E7400400A8DED010AFBEE040AB0EE000AFFF7EA
:102E840061FBDDED010A20EE800A854800ED000AB1
:102E940042F21040FFF7FEFA00EE100AB8EE400AC4
:102EA4008DED010A7F4800EE900AB0EE000AFFF7AC
:102EB40049FBDDED010A20EE800A7B4800ED000AA3
:102EC40042F21240FFF7E6FA00EE100AB8EE400AAA
:102ED4008DED010AFAEE000AB0EE000AFFF732FBAC
:102EE400DDED010A20EE800A704800ED000A42F28E
:102EF4002440FFF7CFFA00EE100AB8EE400A8DED39
:102F0400010AFBEE000AB0EE000AFFF71BFBDDED41
:102F1400010A20EE800A664800ED000A42F22640CB
:102F2400FFF7B8FA00EE100AB8EE400A8DED010A78
:102F3400FAEE000AB0EE000AFFF704FBDDED010A29
:102F440020EE800A5B4800ED000A42F22840FFF7B9
:102F5400A1FA00EE100AB8EE400A8DED010A5648B7
:102F640000EE900AB0EE000AFFF7ECFADDED010A7C
:102F740020EE800A514800ED000A42F22A40FFF791
:102F840089FA00EE100AB8EE400A8DED010A4C48A9
:102F940000EE900AB0EE000AFFF7D4FADDED010A64
:102FA40020EE800A474800ED000A42F22C40FFF769
:102FB40071FA00EE100AB8EE400A8DED010A40489D
:102FC40000EE900AB0EE000AFFF7BCFADDED010A4C
:102FD40020EE800A3C4800ED000A42F22E40FEF743
:102FE40097FA00EE100AB8EE400A8DED010AFAEEE7
:102FF400040AB0EE000AFFF7A5FADDED010A20EE9F
:10300400800A324800ED000A42F22F40FEF780FAAF
:1030140000EE100AB8EE400A8DED010AFAEE040A39
:10302400B0EE000AFFF78EFADDED010A20EE800A09
:10303400274800ED000A42F28140FEF769FA00EEEB
:10304400100AB8EE400A8DED010AFAEE0C0AB0EE51
:10305400000AFFF777FADDED010A20EE800A1D4829
:1030640000ED000A42F28240FEF752FA00EE100A26
:10307400B8EE400A8DED010AFAEE0C0AB0EE000A31
:10308400FFF760FADDED010A20EE800A124800ED38
:10309400000ADDF800E002B0704700BF50000020D5
:1030A40054000020000030C2580000204C000020D2
:1030B400680000206C000020000038C2700000206E
:1030C400000010C274000020780000204800002096
:0C30D4007C000020800000208400002010
:10245C0083B0CDF800E0ADF8080040F20001ADF813
:10246C000410FFF72DFC68B1FEF740FBBDF804101B
:10247C004A1C92B2ADF80420BDF808108A4200D96B
:0C248C0000E0EEE7DDF800E003B0704770
:101CCC0081B0CDF800E0FFF76BFC00F40070C0B2FF
:081CDC00DDF800E001B07047E3
:1015AC0081B0CDF800E043F6FF70FFF7ADFFDDF83A
:0615BC0000E001B07047E1
:1015140082B0CDF800E001AA00F47F4189B2090A43
:101524001170521C00F0FF011170FFF705FF01AAB2
:10153400104909780123C8B211460222FFF706FFB9
:101544000DF106020B4909780023C8B211460222A4
:10155400FFF7A0FB0DF106031978C8B2020292B29C
:10156400591C097842EA010188B2DDF800E002B0B2
:08157400704700BF03000020D6
:10133C0040F2000212B201210148017010B2704754
:04134C00000000207D
:1013500085B0CDF800E0ADF80C200A468DF81030CD
:1013600040F20004ADF808401146424C247854B1D4
:1013700001910021404C2468A0470199FFF7BCFB74
:1013800000253C4C2570BDF80C40012C0DD10C788B
:101390000721E0B2394C2468A047BDF90840044356
:1013A000ADF80840FFF7A8FB57E0BDF80C40022C51
:1013B0001CD10C7801910321E0B2304C2468A04785
:1013C0000199BDF908400443ADF808404C1C204683
:1013D000FFF792FB04780521E0B2284C2468A0476F
:1013E000BDF908400443ADF8084036E00C7801919F
:1013F0000321E0B2214C2468A0470199BDF90840BF
:101400000443ADF808404B1CFFF776FB1946BDF8C6
:101410000C40641EA4B2ADF80C40012C12D90C781B
:1014200001910121E0B2154C2468A0470199BDF952
:1014300008400443ADF808404C1C2346FFF75CFB12
:101440001946E4E70C780521E0B20C4C2468A0476B
:10145000BDF908400443ADF808409DF81040012C48
:1014600002D10125034C2570BDF90800DDF800E02C
:1014700005B07047000000205C00002060000020E4
:100C280081B0CDF800E0CAB2C1B20348FFF784FB37
:0C0C3800DDF800E001B070470000024051
:1003400081B04B009BB213439BB2036001B0704776
:100C0C0081B0CDF800E0CAB2C1B20348FFF792FB45
:0C0C1C00DDF800E001B07047001002405D
:100C600081B0CDF800E0CAB2C1B20348FFF768FB1B
:0C0C7000DDF800E001B0704700200240F9
:100C440081B0CDF800E0CAB2C1B20348FFF776FB29
:0C0C5400DDF800E001B070470030024005
:100BF00081B0CDF800E0CAB2C1B20348FFF7A0FB54
:0C0C0000DDF800E001B0704700000C407F
:100B9C0081B0CDF800E0CAB2C1B20348FFF7CAFB7E
:0C0BAC00DDF800E001B0704700100C40C4
:100B800081B0CDF800E0CAB2C1B20348FFF7D8FB8C
:0C0B9000DDF800E001B0704700200C40D0
:100BD40081B0CDF800E0CAB2C1B20348FFF7AEFB62
:0C0BE400DDF800E001B0704700300C406C
:100BB80081B0CDF800E0CAB2C1B20348FFF7BCFB70
:0C0BC800DDF800E001B0704700800B4039
:100C7C0081B0CDF800E0CAB2C1B20348FFF75AFB0D
:0C0C8C00DDF800E001B0704700900B4064
:100B640081B0CDF800E0CAB2C1B20348FFF7F0FC8F
:0C0B7400DDF800E001B070470000024016
:1005540082B0CDF800E04FF000045D4B984205D125
:100564005C4B1D685C4B1B6801935BE05B4B9842E2
:1005740006D15B4B1C685B4B1B680193254651E01D
:10058400594B984206D1594B1C68594B1B6801932F
:10059400234646E0574B984206D1574B1C68574BAD
:1005A4001B68019323463CE0554B984206D1554BBA
:1005B4001C68554B1B680193234632E0534B984209
:1005C40006D1534B1C68534B1B680193234628E008
:1005D400514B984206D1514B1C68514B1B680193F7
:1005E40023461EE04F4B984206D14F4B1C684F4B9D
:1005F4001B680193234614E04D4B984206D14D4BA2
:100604001C684D4B1B68019323460AE04B4B9842F0
:1006140006D14B4B1C684B4B1B680193234600E0EF
:1006240023461D4600F208031960072A05D0032A51
:1006340003D004462846D1B215E02E46D1B2024674
:100644002846131D1C68C4F380135BB148B126B956
:100654000420019CA047012036E0731E1C46264658
:10066400FFE7EEE71446231D1960FFF72BFEFFF7A3
:1006740029FEFFF727FE024625462B1D1C68C4F3FE
:1006840000034BB138B122B90420019CA0470120DA
:100694001AE0521EFFE7F0E72B1D1C68C4F3400369
:1006A4006BB1012902D0032900D008E02B1D1C687E
:1006B400C4F300131BB92C1D40F2040323602B1D4B
:1006C4001C68C4F34003D8B2DDF800E002B0704700
:1006D400000002401C0000208C000020001002409A
:1006E4002000002090000020002002402400002070
:1006F40094000020003002402800002098000020D0
:1007040000000C402C0000209C00002000100C4035
:1007140030000020A000002000200C403400002005
:10072400A400002000300C4038000020A800002065
:1007340000800B403C000020AC00002000900B40E7
:0807440040000020B00000207D
:0C02680001490860704700BF907FB84259
:0C025C0001490860704700BF807FB84275
:0C02500001490860704700BF807FB24287
:0C028C0001490860704700BF887FB04245
:0C02800001490860704700BF907FB04249
:0C02740001490860704700BF947FB04251
:0C02200001490860704700BF807FB642B3
:0C02140001490860704700BF907FBA42AB
:0C02080001490860704700BF987FB442B5
:0C02440001490860704700BF9C7FB44275
:0C02380001490860704700BF887FB24297
:0C022C0001490860704700BF8C7FB2429F
:0C02980001490860704700BF947FB84225
:0C03100001490860704700BF847FB842BC
:0C03040001490860704700BF947FB242BE
:0C02F80001490860704700BF887FB042D9
:0C03340001490860704700BF907FB04294
:0C03280001490860704700BF947FB0429C
:0C031C0001490860704700BF847FB642B2
:0C02BC0001490860704700BF987FB642FF
:0C02B00001490860704700BF907FB44215
:0C02A40001490860704700BF947FB4421D
:0C02EC0001490860704700BF887FB242E3
:0C02E00001490860704700BF8C7FB242EB
:1002C80040F22607C0F200077F1EFDD100BF00BF25
:0802D80000BF00BF00BF70472A
:1007BC0081B0CDF800E0CAB2C1B20348FFF7C4FE65
:0C07CC00DDF800E001B0704700100240B2
:1009C40081B0CDF800E0CAB2C1B20348FFF7C0FD60
:0C09D400DDF800E001B070470020024098
:1009FC0081B0CDF800E0CAB2C1B20348FFF7A4FD44
:0C0A0C00DDF800E001B07047003002404F
:1009E00081B0CDF800E0CAB2C1B20348FFF7B2FD52
:0C09F000DDF800E001B0704700000C4092
:1007A00081B0CDF800E0CAB2C1B20348FFF7D2FE73
:0C07B000DDF800E001B0704700100C40C4
:10074C0081B0CDF800E0CAB2C1B20348FFF7FCFE9D
:0C075C00DDF800E001B0704700200C4008
:1007680081B0CDF800E0CAB2C1B20348FFF7EEFE8F
:0C077800DDF800E001B0704700300C40DC
:1007840081B0CDF800E0CAB2C1B20348FFF7E0FE81
:0C079400DDF800E001B0704700800B4071
:100A180081B0CDF800E0CAB2C1B20348FFF796FD35
:0C0A2800DDF800E001B0704700900B40CA
:100AF80049F63E47C0F200077F1EFDD100BF00BF88
:080B080000BF00BF00BF7047F1
:100C980085B0CDF800E0ADF80C200A468DF810308C
:100CA80040F20004ADF8084011463F4C247854B196
:100CB800019101213D4C2468A0470199FFF718FFD5
:100CC8000025394C2570BDF80C40012C0CD1084684
:100CD8000721374C2468A047BDF908400443ADF804
:100CE8000840FFF705FF51E0BDF80C40022C19D170
:100CF800019108460B212E4C2468A0470199BDF9A3
:100D080008400443ADF808404C1C2046FFF7F0FEAD
:100D18000521274C2468A047BDF908400443ADF8D5
:100D2800084033E0019108460B21214C2468A04774
:100D38000199BDF908400443ADF808404B1CFFF782
:100D4800D7FE1946BDF80C40641EA4B2ADF80C409D
:100D5800012C11D9019108460921154C2468A04796
:100D68000199BDF908400443ADF808404C1C2346DE
:100D7800FFF7BEFE1946E5E7084605210C4C246836
:100D8800A047BDF908400443ADF808409DF810405D
:100D9800012C02D10125044C2570BDF90800DDF8AD
:100DA80000E005B0704700BF000000205C00002094
:040DB80064000020B3
:100ADC0081B0CDF800E0CAB201460348FFF732FC02
:0C0AEC00DDF800E001B07047000002409F
:1003500084B0CDF800E0044603914FF0000302930F
:100360005E4B9C4206D15E4B1B6802935D4B1B6843
:10037000019358E05C4B9C4206D15C4B1B68029396
:100380005B4B1B6801934EE05A4B9C4206D15A4B83
:100390001B680293594B1B68019344E0584B9C42E5
:1003A00006D1584B1B680293574B1B6801933AE0E8
:1003B000564B9C4206D1564B1B680293554B1B680B
:1003C000019330E0544B9C4206D1544B1B6802937E
:1003D000534B1B68019326E0524B9C4206D1524B73
:1003E0001B680293514B1B6801931CE0504B9C42CD
:1003F00006D1504B1B6802934F4B1B68019312E0D0
:100400004E4B9C4206D14E4B1B6802934D4B1B68D2
:10041000019308E04C4B9C4205D14C4B1B68029366
:100420004B4B1B680193072A03D00B2A01D02046AF
:1004300017E0029E2046D1B2031D1C68C4F380134E
:1004400073B1029B4BB126B90320019CA047012048
:1004500040E0731E1A46134600E033461E46EBE7A3
:10046000CAB2031D1A60FFF72FFFFFF72DFFFFF73A
:100470002BFF029E031D1C68C4F3000363B1029BA3
:100480003BB126B90320019CA047012022E0711E48
:1004900000E031460E46EDE7031D1C68C4F340033F
:1004A00073B1092A02D00B2A00D008E0031D1C6892
:1004B000C4F300131BB9041D40F20403236004E0DD
:1004C00000F208031C68039B1C70031D1C68C4F326
:1004D0004003D8B2DDF800E004B0704700000240ED
:1004E0001C0000208C000020001002402000002092
:1004F00090000020002002402400002094000020F2
:1005000000300240280000209800002000000C402D
:100510002C0000209C00002000100C403000002027
:10052000A000002000200C4034000020A400002087
:1005300000300C4038000020A800002000800B4054
:100540003C000020AC00002000900B404000002048
:04055000B0000020D7
:100B100081B0CDF800E0CAB201460348FFF718FCE7
:0C0B2000DDF800E001B07047001002405A
:100B480081B0CDF800E0CAB201460348FFF7FCFBCC
:0C0B5800DDF800E001B070470020024012
:100B2C0081B0CDF800E0CAB201460348FFF70AFCD9
:0C0B3C00DDF800E001B07047003002401E
:100AC00081B0CDF800E0CAB201460348FFF740FC10
:0C0AD000DDF800E001B0704700000C40B1
:100A500081B0CDF800E0CAB201460348FFF778FC48
:0C0A6000DDF800E001B0704700100C4011
:100A340081B0CDF800E0CAB201460348FFF786FC56
:0C0A4400DDF800E001B0704700200C401D
:100A6C0081B0CDF800E0CAB201460348FFF76AFC3A
:0C0A7C00DDF800E001B0704700300C40D5
:100AA40081B0CDF800E0CAB201460348FFF74EFC1E
:0C0AB400DDF800E001B0704700800B404E
:100A880081B0CDF800E0CAB201460348FFF75CFC2C
:0C0A9800DDF800E001B0704700900B405A
:1025100082B0CDF800E08DF8040043F20100FEF730
:10252000F9FF4FF6F97100EA010292B29DF804102A
:10253000490089B242EA010143F20100FFF792FB30
:08254000DDF800E002B0704775
:101C640082B0CDF800E00DF1060301F47F4292B298
:101C7400120A1A705B1C01F0FF021A7001AB00F427
:101C84007F4292B2120A1A705B1C00F0FF021A70B3
:101C9400FFF752FB01AB0B4A127819460123D0B26D
:101CA4000222FFF753FB0DF10603064A1278194688
:101CB4000023D0B20222FFF749FBDDF800E002B0B6
:081CC400704700BF030000207F
:1024980083B0CDF800E001AA00F47F4189B2090AAF
:1024A8001170521C00F0FF011170FEF743FF01AAE2
:1024B800144909780123C8B211460222FEF744FFE5
:1024C8000DF106020F4909780023C8B2114604220B
:1024D800FEF7DEFB0DF10603991C0978C8B202026B
:1024E800D91C097842EA01010A02197842EA010175
:1024F8000A02591C097842EA01010846DDF800E0A1
:0825080003B07047030000203E
:1025480082B0CDF800E0F0EE402AB0EE602A00201C
:10255800B5EEC02AF1EE10FA02D1B7EE000A3EE05D
:10256800F5EEC02AF1EE10FA04D14FF0000200EEA9
:10257800102A34E0F5EEC02AF1EE10FA1BDABDEEAF
:10258800420A10EE102A104600EE102AB8EEC00AD1
:10259800B4EEC20AF1EE10FA04D04FF0000200EED9
:1025A800102A1CE000F00102D0B2F1EE620AC5B2B6
:1025B800B0EE600A05E08DF80400B0EE620A9DF8FE
:1025C8000450FFF711FB20EE020AFFF787FBF0EE3D
:1025D800400A15B1B1EE600A01E0B0EE600ADDF81C
:0625E80000E002B07047A4
:101BF00082B0CDF800E0B5EEC00AF1EE10FA04DCD8
:101C00004FF0000100EE101A23E001A90846FFF78B
:101C10001DFFF0EE000A60EE200AB7EE000A30EE7B
:101C2000C00ABDF90410491EADF8041040F20801C5
:101C300009B20A48FFF732FFBDF9041001EE101A8D
:101C4000B8EEC11A064900EE901A60EE810A30EE35
:101C5000200ADDF800E002B0704700BF78380000CD
:041C60001872313F86
:101A4C0082B08DED010ABDF80610C1F3C7117E39C5
:101A5C0009B201807E22BDF8061062F3CE11ADF8FA
:0A1A6C0006109DED010A02B070475C
:101A9C0081B0F0EE400A8A00821812ED000AB0EE16
:101AAC00401AB0EE410AB0EE601A79B161EE000A4C
:101ABC004A1E12B211B29200821812ED000A30EED8
:101ACC00800A0DED000A1DED000AEEE701B070472B
:101CE40081B0CDF800E0F0EE401AF5EEC01AF1EE46
:101CF40010FA02D1B7EE000A5DE0314900EE101A85
:101D0400F4EEC01AF1EE10FA03DD2E4900EE101ABB
:101D140051E02D4900EE101AF4EEC01AF1EE10FA5B
:101D240004DA4FF0000100EE101A44E0F5EEC01A98
:101D3400F1EE10FA40F2000100DA0121CBB2C9B28F
:101D440011B1F1EE610A01E0F0EE610A1F4900EE03
:101D5400101A20EE800AF0EE401AFFF7BDFEBDEE29
:101D6400400A10EE101A09B20CB200EE101AB8EEC6
:101D7400C00A31EEC00A40F2090109B21448FFF763
:101D84008BFE20B2FFF7E8FEF0EE400A8BB10D495E
:101D940000EE101AF4EEC00AF1EE10FA04D14FF07E
:101DA400000100EE101A06E0B7EE000A80EE200AE9
:101DB40001E0B0EE600ADDF800E001B0704700BF5A
:101DC400FED4B242FFFF7F7F50ACAEC23BAAB83F05
:041DD4005038000083
:101ADC0082B08DED010A01A90968C90D01F0FF0161
:101AEC0009B27F3909B208B200290EDA9DED010A5C
:101AFC00B5EEC00AF1EE10FA02DABFEE000A24E0ED
:101B0C004FF0000100EE101A1FE081B2182902D923
:101B1C009DED010A19E09DED010ABDEE400A10EEA3
:101B2C00101A00EE901AF8EEE00AB0EE601A9DED75
:101B3C00010AF4EEC00AF1EE10FA04DDB7EE000A69
:0E1B4C0031EE400A01E0B0EE410A02B07047EF
:101B5C0082B08DED010ABDF80610C1F3C711411812
:101B6C0008B209B2002904DA4FF0000100EE101A95
:101B7C0019E0B0F1FF0F0DDDB5EEC00AF1EE10FA71
:101B8C0004DA6FF4000100EE101A0CE0074900EEC5
:101B9C00101A08E082B2BDF8061062F3CE11ADF84F
:101BAC0006109DED010A02B0704700BFFFFF7F7F5A
:1031380095B0CDF800E00DF11F0B0BF1310ADFF867
:1031480098C000F04BF8FFF777FC0DF11F008DEDEC
:10315800010A0121FFF7E2FC9DED010A02A8149083
:1031680010EE100AFFF788FA149A00EE100A00EE23
:10317800901A1046FFF7A0FA02A80221FFF7CEFC2A
:10318800FFF704FD0EA88DED010A0121FFF7C6FC2B
:103198009DED010A02A8149010EE100AFFF76CFAD0
:1031A800149A00EE100A00EE901A1046FFF784FAFF
:1031B80002A80221FFF7B2FC4BF2FE37C0F2C44767
:1031C8007F1EFDD100BF00BF00BF00BF00BFDDF8FC
:0C31D80000E015B0704700BF1C3800007C
:102A400083B0CDF800E0FFF77BFC032801D0FFF74F
:102A500087FCFFF797FC40F2EE20FFF753FC44F2AF
:102A60000500FEF757FD01B2ADF8041044F208006E
:102A7000FEF750FDBDF9041001EE101AB8EEC11AB0
:102A8000B2EE080AC1EE000A214911ED000A60EE1B
:102A9000200A00EE100AB8EEC00A70EE200AB2EE6C
:102AA000080A81EE000A80EE200A8DED020AF3EE9C
:102AB000030AB0EE000AFFF747FDDDED020A60EE03
:102AC000800A144810ED000A30EEC01A124810EDCA
:102AD000000AC1EE000A114810ED000A30EE200A8B
:102AE0008DED020AF0EE000AB0EE410AFFF72CFD70
:102AF0000B4850ED000A60EE800A9DED020A30EEB0
:102B0000200AB0EE400ADDF800E003B0704700BFD5
:102B10004800002050000020540000204C000020FD
:042B20005800002039
:1023400081B0CDF800E043F20100FFF7E3F8400868
:1023500080B200F00300C0B2DDF800E001B07047C9
:1023600081B0CDF800E043F20100FFF7D3F840F070
:10237000080081B243F20100FFF774FCDDF800E0D1
:0423800001B07047F1
:1023840081B0CDF800E0FFF70FF94FF6FE71084079
:1023940081B243F6FF70FFF763FCDDF800E001B0A3
:0223A400704780
:1023040083B0CDF800E0ADF8080040F20001ADF86C
:102314000410FFF75FFC68B9FEF7ECFBBDF804108E
:102324004A1C92B2ADF80420BDF808108A4200D9C4
:0C23340000E0EEE7DDF800E003B07047C9
:101BD80081B0CDF800E0FFF7E5FC00F00100C0B2ED
:081BE800DDF800E001B07047D8
:102B240083B0CDF800E0024610460D228DF808204F
:102B34000A228DF809201FE0FFF740FB23E002780A
:102B44002AB10190FFF73AFB0198401CF7E71AE01D
:102B540002782AB10190FFF731FB0198401CF7E796
:102B640002AA1046FFF72AFB0DF109021046FFF7EF
:102B740025FB08E0062007E00029DDD00129DED08E
:102B84000229E5D0F6E70020DDF800E003B0704745
:1021C00081B0CDF800E00178CCB2A0B2034C246815
:1021D000A0470020DDF800E001B070474400002077
:101BBC0081B00449096801B1FBE70349086001B031
:0C1BCC00704700BF1403184200C0004026
:1020D80081B00449096801B1FBE70349086001B010
:0C20E800704700BF14031A4200D00040F3
:101E640081B00449096801B1FBE70349086001B086
:0C1E7400704700BF14031C4200E0004057
:101DD80081B00449096801B1FBE70349086001B013
:0C1DE800704700BF14031E4200F00040D2
:1020F40081B00449096801B1FBE70349086001B0F4
:0C210400704700BF14032042000001409F
:101DF40081B00449096801B1FBE70349086001B0F7
:0C1E0400704700BF140322420010014090
:101E2C0081B00449096801B1FBE70349086001B0BE
:0C1E3C00704700BF140324420020014046
:101E100081B00449096801B1FBE70349086001B0DA
:0C1E2000704700BF140326420030014050
:1026800081B004B54200120E0DD0FF2A0ED002F523
:102690006072C10F42EAC122014648074902090B94
:1026A00041EA025108E00021002005E04FF000005F
:1026B000C90DC900C91D0905BDE8044001B0704736
:1026C00083B0CDF800E010EE102A10EE903A0446E8
:1026D000002040F2000109B2CDE90123DDE9012328
:1026E00092F0FF3201D193F0FF3206D1B74A114682
:1026F0002046FFF751FD032064E101279DF80B30D0
:10270000C3F3C0125AB19DF80B206FF3C7128DF8B6
:102710000B207F1CBFB22D222270661C00E02646D3
:10272000DDE9012392F0000201D193F0000206D10D
:10273000A74A11463046FFF72FFD002042E1DDE9B0
:1027400001454FF00002A34B94EA020201D195EA41
:10275000030206D1A04A11463046FFF71DFDF8B22C
:1027600030E15FFA80FA0FFA81F9B3469DED011B63
:102770004FF00002994B00EE102A00EE903A11EE55
:10278000102A11EE903A10EE100A10EE901AFFF790
:10279000BFFC40F2000000DD0120C8B19DED011B2F
:1027A0004FF000028E4B00EE102A00EE903A11EE30
:1027B000100A11EE901A10EE102A10EE903AFFF760
:1027C0000FFDCDE90101A9F101090FFA89F9CDE762
:1027D0009DED011B4FF00002814B00EE102A00EE30
:1027E000903A11EE102A11EE903A10EE100A10EE07
:1027F000901AFFF78DFC40F2000000DC0120C0B110
:102800009DED011B774A784B00EE102A00EE903ABE
:1028100011EE100A11EE901A10EE102A10EE903AF6
:10282000FFF7DEFCCDE9010109F101090FFA89F991
:10283000CEE7029AC2F30A52A2F2FF3290B201AA84
:10284000D31D01221A700123029A63F31E520292D1
:10285000DDE901452B01220F13432201CDE90123BC
:1028600086B20027DDE90145B6F1200209D5C6F19F
:10287000200224FA02F205FA06F3134304FA06F2E0
:1028800002E004FA02F30022CDE9012301AAD21DDD
:10289000127830328BF800200BF10100B9F1010FF2
:1028A00006DBB9F1060F03DC07465FFA8AF103E0A5
:1028B0002E220270471C012140F20F000FFA89F608
:1028C00078B301AAD31D00221A70DDE901239D000F
:1028D000940F25439400DDE9012312196B41CDE9E2
:1028E0000123DDE901456B00E20F13436200CDE9EE
:1028F000012301AAD21D127830323A707A1C144694
:1029000059B9721E12B213B222B92E222270671C5C
:10291000012100E027461EB200E02746401E80B29B
:10292000CEE7394630B24A1E1278302A01D1491E0C
:10293000F9E74A1E12782E2A01D1491EFFE7002826
:102940003CD065220A70491C002805DA2D220A7045
:10295000491C43421BB200E003B298B29AB2632A08
:1029600015D96422B0FBF2F292B230320A704D1CDB
:1029700029460A22B0FBF2F4A4B20A23B4FBF3F214
:1029800003FB124292B230322A70491CFFE7092839
:1029900009D9632808D20A22B0FBF2F292B230328F
:1029A0000A70491CFFE7FFE70A23B0FBF3F203FBC1
:1029B000120292B230320A70481C00E0084600222F
:1029C00002700020DDF800E003B070471400002022
:1029D000010000200000F07F180000200000F03F00
:0C29E000000024409A9999999999B93FF8
:1021980081B00091014600980B461C465A1C154612
:1021A8000346421C10461A78227022780AB12B4640
:0821B800F3E7084601B070478F
:1021100081B010B5994201D190422FD050EA02040B
:1021200004D141EA03046400002C27D050EA4104A2
:1021300001D19C4222E04C006415641C07D15C0074
:102140006415641C03D1DC0FB4EBD13416E0002B12
:102150000AD4002912D4994210D190EA020401D481
:1021600090420BE0002A09E0002907DC8B4205D1F0
:1021700090EA020401D4824200E00028EFF30084D8
:1021800054BF44F0005424F0005484F30088BDE8A8
:06219000104001B0704791
:1021E00081B02DE9FC4191EA03084CBF4FF0004853
:1021F0004FF000084FEAC32545EA52554FEAC22680
:102200004FEA43077F0D11BF45F000454FF0000135
:102210004FF0000063E05FF4E06E1EF1FF0E7745C3
:1022200056D04FEAC12343EA50534FEAC0224FEA47
:102230004104640D11BF43F000434FF000014FF023
:1022400000004CE0744543D0E419A3FB0501A3FB57
:1022500006E7A2FB06631EEB030E57F1000751F1E0
:102260000001A2FB05631EEB060E57F1000751F1BA
:102270000001FF1851F10001C01951F100014CBFDC
:102280004FF4806E4FF4007E10EB0E0051F1000110
:1022900048BF641C01D4400049415FF44077FF37D8
:1022A000E41BDEBF4FF000014FF0000017E017F510
:1022B0008067BC420CD24FEAD02040EA41504FEA3E
:1022C00041014FEA113141EA045141EA080106E0B7
:1022D0000020FF21C900C91D090551EA0801BDE818
:0622E000FC4101B0704753
:102B940085B0CDF800E0FFF7D1FB032801D0FFF7A3
:102BA400DDFBFFF7EDFB40F2EE20FFF7A9FBFFF79B
:102BB40045FF44F20500FEF7ABFCADF8080044F213
:102BC4000800FEF7A5FCADF80A00FFF78BFBC1B2C5
:102BD40001280CD144F20300FEF79AFCADF804007E
:102BE40044F20400FEF794FCADF806001AE0022952
:102BF4000CD144F20600FEF78BFCADF8040044F25D
:102C04000700FEF785FCADF806000BE044F2030074
:102C1400FEF77EFCADF8040044F20400FEF778FCF5
:102C2400ADF8060040F2000A5FFA8AF6032E80F03F
:102C3400D180BDF9080001EE100AB8EEC11AB2EE57
:102C4400080AC1EE000A674810ED000A60EE200A87
:102C5400BDF90A0000EE100AB8EEC00A70EE200AB0
:102C6400B2EE080A81EE000A80EE200A8DED040A15
:102C7400F3EE030AB0EE000AFFF764FCDDED040A8C
:102C840060EE800AF0EE603A574810ED000A30EE2C
:102C9400C00AF0EE000AFFF755FCBDF90610BDF9B5
:102CA4000400401800B200EE900AF8EEE00AB0EE1C
:102CB400000A80EE801ABDF9080000EE900AF8EED2
:102CC400E00AB2EE080AC0EE800A484810ED000A95
:102CD40060EE200ABDF90A0000EE100AB8EEC00A40
:102CE40070EE200AB2EE080A81EE000A80EE200A95
:102CF4008DED040AF3EE030AB0EE000AFFF722FC9E
:102D0400DDED040A20EE803A394810ED000A73EE36
:102D1400C00A384810ED000AC0EE800AB3EE090A72
:102D240070EE802A344800EE100A32EE802A3348CE
:102D340050ED000A324810ED000A60EE200A3148D6
:102D440010ED000A60EE801A2F4850ED000A2F485B
:102D540010ED000A70EE600A2D4810ED000A60EED6
:102D6400200AB7EE000A30EE201A2A4810ED000AB5
:102D740072EEC00A284810ED000A20EE200A31EE57
:102D8400000A21EE800A83EE000A8DED040AF1EEBA
:102D9400000AB0EE420AFFF7D5FBDDED040A30EE7F
:102DA400800AF5EE000AB0EE400AFFF7CBFB1248AA
:102DB40000EE900A70EE600A184810ED000A30EE3A
:102DC400C00A114800ED000A701C5FFA80FA5FFA2D
:102DD4008AF62BE70C4810ED000ADDF800E005B098
:102DE400704700BF48000020500000207C000020F5
:102DF4006C0000206800002033938843700000209A
:102E040004000020800000200C00002008000020A6
:102E140078000020100000207400002084000020AE
:1022E80081B0CDF800E0FFF75DF900F07C0080B226
:0C22F8008008C0B2DDF800E001B07047C3
:1032B80081B0CDF800E0344A344B354C354D364EAC
:1032C8004FF03011354801600021354801606FF03A
:1032D800010003EA000133480160C3F3C00018B9D4
:1032E800FFF7FAFEFFF7F8FEC3F3000018B101215B
:1032F80049B22D4801602D48864203D92C492748F8
:10330800016021E02B48864203D92B4923480160FC
:103318001AE04CF25030864203D928491F48016010
:1033280012E047F23050864203D925491B48016014
:103338000AE0B6F57A5F03D922491848016003E02C
:103348004FF03011154801601F4804601F480560A0
:103358006FF0805002EA000111480160012149B272
:103368001B4801601B48016002F0805038B11A48C0
:10337800006800B9FBE7012149B218480160DDF88F
:1033880000E001B0704700BF0400303311000000B6
:103398001800800000000000C0D40100C0E00F4009
:1033A800B0E00F407CE00F40800FFC43A086010096
:1033B800960130008038010055013000D3003000FC
:1033C800B20030007100300060E10F4064E10F404E
:1033D8007C16FC437816FC43002DFC437016FC4316
:1030E00041F67E27C0F206077F1EFDD100BF00BF5C
:0830F00000BF00BF00BF7047E4
:1032A40081B002490248016001B07047C0D40100F6
:0432B400880000206E
:0832700081B0FEE701B07047D8
:1032780081B04EF68850CEF20000016841F470012A
:10328800016000BF00BF00BF00BFF1EE100A40F4AC
:0A3298004000E1EE100A01B070479B
:1038B00000B5DFF824B0DFF824A0DFF824C0FFF75C
:1038C00091FCDFF820B0DFF820A0DFF820C0FFF780
:1038D00089FC00BD704700BF0000002003000020ED
:1038E000AC3800000400002044000020DC37000059
:10394C0000B5DFF810B0DFF810A0FFF76DFC00BD7C
:0C395C00704700BF00000020D8000020D1
:10340C0000F00540400040050100000000F00540C0
:10341C0080004005010000000000000000000000DA
:10342C000000000000000000000000000000000090
:10343C000000000000000000000000000000000080
:10344C000000000000000000000000000000000070
:10345C000000000000000000000000000000000060
:10346C000000000000000000000000000000000050
:10347C000000000000000000000000000000000040
:10348C000000000000000000000000000000000030
:10349C000000000000000000000000000000000020
:1034AC000000000000000000000000000000000010
:1034BC000000000000000000000000000000000000
:1034CC0000000000000000000000000000000000F0
:0C34DC00000000000000000002000000E2
:1034E80000B00540100040050100000000B0054094
:1034F800200040050100000000000000000000005E
:1035080000000000000000000000000000000000B3
:1035180000000000000000000000000000000000A3
:103528000000000000000000000000000000000093
:103538000000000000000000000000000000000083
:103548000000000000000000000000000000000073
:103558000000000000000000000000000000000063
:103568000000000000000000000000000000000053
:103578000000000000000000000000000000000043
:103588000000000000000000000000000000000033
:103598000000000000000000000000000000000023
:1035A8000000000000000000000000000000000013
:0C35B80000000000000000000200000005
:1035C40000A00540100040050100000000A00540D7
:1035D4002000400501000000000000000000000081
:1035E40000000000000000000000000000000000D7
:1035F40000000000000000000000000000000000C7
:1036040000000000000000000000000000000000B6
:1036140000000000000000000000000000000000A6
:103624000000000000000000000000000000000096
:103634000000000000000000000000000000000086
:103644000000000000000000000000000000000076
:103654000000000000000000000000000000000066
:103664000000000000000000000000000000000056
:103674000000000000000000000000000000000046
:103684000000000000000000000000000000000036
:0C36940000000000000000000200000028
:1036A0000090054004004005020000000090054025
:1036B00008000805020000000000000000000000F3
:1036C00000000000000000000000000000000000FA
:1036D00000000000000000000000000000000000EA
:1036E00000000000000000000000000000000000DA
:1036F00000000000000000000000000000000000CA
:1037000000000000000000000000000000000000B9
:1037100000000000000000000000000000000000A9
:103720000000000000000000000000000000000099
:103730000000000000000000000000000000000089
:103740000000000000000000000000000000000079
:103750000000000000000000000000000000000069
:103760000000000000000000000000000000000059
:0C3770000000000000000000020000004B
:10377C00690200005D020000510200008D02000091
:10378C0081020000750200002102000015020000F9
:10379C000902000045020000390200002D02000061
:1037AC00FFFFFFFFFFFFFFFFFFFFFFFFFFFFFFFF1D
:1037BC00FFFFFFFFFFFFFFFFFFFFFFFFFFFFFFFF0D
:1037CC00FFFFFFFFFFFFFFFFFFFFFFFFFFFFFFFFFD
:0437DC000000803F2A
:0437E0000000C841DC
:0437E4000000C841D8
:0437E8000000C841D4
:0437EC004E614E00DC
:0437F000494E4600F8
:0437F40000000000D1
:0437F80000000000CD
:0437FC0000000000C9
:0438000000000000C4
:0438040000000000C0
:0438080000000000BC
:04380C0000000000B8
:0438100000000000B4
:0438140000000000B0
:0438180000000000AC
:10381C00414D4249454E542054454D50455241541A
:10382C005552452049533A20004F424A45435420B3
:10383C0054454D50455241545552452049533A2018
:01384C00007B
:103850000000803F1872313FF0FD753E4758633DD0
:1038600058951D3C82C4AE3AA8782139EF93803731
:08387000A092A735465615345D
:10387800FFE6DB2EC4FF7F3F80EFFFBE90E1A93E4D
:10388800EC8276BE82AD2B3E0E3CC3BD87D1133D84
:043898004178D3BBE5
:0C389C00290C0000650B0000DD0A000094
:0438A800A0860100F5
:0338AC00003000E9
:00000001FF
