:02000004000BEF
:10000000FCFF00204D260B00F5250B00F5250B000D
:10001000F5250B00F5250B00F5250B00F5250B004C
:10002000F5250B00F5250B00F5250B00F5250B003C
:10003000F5250B00F5250B00F5250B00F5250B002C
:10004000F5250B00F5250B00F5250B00F5250B001C
:10264C00FFF7D6FF00F010F8FFF7E4FF00F0BCF93D
:10265C0000F05AF800F06AF9FFF7A8FFFFF730FF17
:08266C00FFF74EFFFCE7FEE75B
:1024640081B01CF8019B0BF8019BBBEB0A0FF8D160
:0424740001B07047FC
:1024900081B04FF000094FF0000CBDEB0A0F04DCD7
:1024A000BDEB0B0F01DBD446EA464BF8049BBBEBBC
:1024B0000A0FFAD1BCEB0A0F05DDE246D9F800B0ED
:0A24C0000BF1040BF1E701B07047C7
:1025B80081B0CDF800E00C4801460020FFF7ACFEE2
:1025C8004DF6C0210120FFF731FF46F6FE17C0F295
:1025D800180700BF00BF7F1EFDD100BF00BF00BFAE
:0C25E800DDF800E001B0704734290B0062
:1023200081B0CDF800E009E00846FFF703F90AE0C4
:102330000846FFF7EFF806E0012004E00028F3D09C
:0E2340000128F5D0F8E7DDF800E001B07047A5
:1015340081B0CDF800E0016808460449FFF7E2FEF7
:101544000020DDF800E001B0704700BFA0270B00C9
:1013080081B0CDF800E083468C4600230D4A136077
:101318006046FFF745FE0C4C0C4B0D4A194610462B
:101328002246FFF7D1FE0CF10C021268D3B2094A2B
:10133800126859461046DAB2FFF758FEDDF800E0A9
:1013480001B070472C000020A50A0B00F1090B0022
:08135800110B0B00280000201E
:100FA80081B0CDF800E040F2000A81464FEA8A019C
:100FB80009EB01010968B1F1FF3F12D009F13401D1
:100FC8004FEA8A03C91809680A4609EB0301096848
:100FD80008461146FFF7CAFE0AF1010A1FFA8AFA03
:0A0FE800E4E7DDF800E001B0704717
:100D740082B0CDF800E000F0FF02130902F00F0288
:100D84001446D8B2FFF778FF012212B2A240ADF8A0
:100D9400042000460A469DF80410FFF701FFDDF821
:060DA40000E002B0704700
:100C7C0081B027E028484DE028484BE0284849E05F
:100C8C00284847E0284845E0284843E0284841E008
:100C9C0028483FE028483DE028483BE0284839E018
:100CAC00284837E0284835E0284833E0284831E028
:100CBC0028482FE028482DE028482BE0284829E038
:100CCC00284827E00028D5D00128D5D00228D5D037
:100CDC000328D5D00428D5D00528D5D00628D5D0C2
:100CEC000728D5D00828D5D00928D5D00A28D5D0A2
:100CFC000B28D5D00C28D5D00D28D5D00E28D5D082
:100D0C000F28D5D01028D5D01128D5D01228D5D061
:100D1C001328D5D001B070470010084020100840AF
:100D2C00401008406010084080100840A010084097
:100D3C00C0100840E0100840001108402011084085
:100D4C00401108406011084080110840A011084073
:100D5C00C0110840E0110840001208402012084061
:080D6C0040120840601208402B
:100BA40081B01446314B984203D8314B984200D35C
:100BB40000E058E02E4BC31A03F01F0303B152E0C8
:100BC400064600F5A0624FF6FF7304EA03031846D5
:100BD400284B04EA03031B0C40F20008CFB2014681
:100BE4001846B8F1080F3ED201231BB203FA08F3EA
:100BF4001BB21CB207EA0403A34231D101F44053EF
:100C04008BB14FEA8803F5182C686FF4405304EA5B
:100C140003032B604FEA8803F51801F440542B6852
:100C240023432B601CE04FEA8803F5182C68114B12
:100C340004EA03032B604FEA8803F41823680B4388
:100C440023604FEA8803D5182C686FF0FF0304EA89
:100C540003032B604FEA8803D418236803432360FB
:100C640008F10108BDE701B0704700BFC012084099
:080C7400001008400000FFFF22
:1010D00081B0044B1860044B1960044B1A6001B0D6
:1010E000704700BF980000209C000020A000002056
:100FF40081B000F2280440F20023236000F22804A8
:101004000023236080230370041D0123238001290E
:1010140015D100F22C0444F64F73238000F24004EF
:10102400234B236000F22404224B236000F2440487
:10103400214B236000F218044D2323702EE0042971
:1010440015D100F22C0440F61773238000F24004FB
:101054001A4B236000F22404194B236000F2440469
:10106400184B236000F218040A23237016E0102999
:1010740014D100F22C0440F20953238000F24004FE
:10108400114B236000F224040D4B236000F244044E
:101094000C4B236000F2180406232370C123037051
:1010A40000F2280442F4E0531BB2236001B07047FD
:1010B40006434D0CED01FC01C7C29C4B010A0A0416
:0C10C40050000001C7C29C140106060683
:1015140081B0CDF800E0016808460449FFF7F2FE07
:101524000020DDF800E001B0704700BFA0270B00E9
:1024340081B0CDF800E009E00846FFF73FF90AE073
:102444000846FFF751F806E0012004E00028F3D025
:0E2454000128F5D0F8E7DDF800E001B0704790
:1016C00081B0CDF800E0002300220321FFF748FE9F
:1016D000034A04490A600020DDF800E001B07047C9
:0816E0006D030B004000002027
:1013600084B0CDF800E01FFA82FB1FFA83FC002254
:101370008DF80420ADF8081003904A48FFF714FEDA
:101380000398BDF808109DF80420ADF804100290F1
:10139000FFF740FD0298BDF804100025424C25706F
:1013A0000025424C2570B0F5E13F06D9404CA042E3
:1013B00003D83F4CB4FBF0F308E0B0F5E13F04D8AC
:1013C0004FF4E134B4FBF0F300E00123ADF8041076
:1013D0000290FFF72BFD0298BDF8041003F0FF0404
:1013E000E5B2344C25701C0A04F07F04E5B2324C9F
:1013F0002570B0F5E13F06D92F4C247844F08005E4
:101400002D4C257005E02C4C247804F07F052A4CE7
:101410002570ADF80410FFF7FDFCBDF804100025A1
:10142000264C25700BE042F00100C0B20EE042F005
:101430000200C0B20AE042F00300C0B206E0012997
:10144000F1D00229F3D00329F5D0F4E74FEA8C0458
:10145000A4B240EA04044FEACB05ADB2E4B22C4397
:10146000E4B204F07F05154C25700025144C25705E
:101470000025144C2570144D144C2560144D154C4A
:101480002560154D154C2560154D164C2560164CE4
:10149000247844F00105144C2570DDF800E004B018
:1014A000704700BF38270B00F0270F4001240F4082
:1014B00060E3160000240F4001240F4003240F4076
:1014C00004240F4002240F408D090B00AC000020C3
:1014D0006D030B00B0000020F1080B00B4000020E9
:0C14E000D5080B00B800002030270F409A
:100E140081B00448007800F07F010248017001B0FD
:080E2400704700BF03240F40DA
:100E2C0081B00448007840F080010248017001B0A4
:080E3C00704700BF03240F40C2
:1014EC0081B0CDF800E0002300220321FFF732FF8A
:1014FC00034A04490A600020DDF800E001B070479F
:08150C006D030B0040000020FC
:1024CC0081B0CDF800E03A220B490C48FFF710FF21
:1024DC0041F2FE17C0F27A0700BF00BF7F1EFDD18C
:1024EC0000BF00BF00BFFFF7A5FD0320FFF710FAE8
:1024FC00DDF800E001B0704728290B0008280B001C
:1022FC0081B0CDF800E00446054B1A700846FFF794
:10230C0031FB2046FFF77EFADDF800E001B07047A4
:04231C001A00002083
:10197000026806490A60011D0A6805490A6000F20A
:1019800008010A6803490A60704700BF6000002030
:081990005C000020440000206F
:0218100070471F
:1020400082B0CDF800E040F2EE20FFF7A5FC0120C1
:10205000FFF764FC42F20C40FFF746FB00EE100A6B
:10206000B8EE400A8DED010AFAEE000AB0EE000A61
:10207000FFF770FADDED010A20EE800A8F4800EDCF
:10208000000A42F20E40FFF72FFB00EE100AB8EEF6
:10209000400A8DED010AFBEE040AB0EE000AFFF7DC
:1020A00059FADDED010A20EE800A854800ED000AAC
:1020B00042F21040FFF718FB00EE100AB8EE400A9B
:1020C0008DED010A7F4800EE900AB0EE000AFFF79E
:1020D00041FADDED010A20EE800A7B4800ED000A9E
:1020E00042F21240FFF700FB00EE100AB8EE400A81
:1020F0008DED010AFAEE000AB0EE000AFFF72AFAA7
:10210000DDED010A20EE800A704800ED000A42F27F
:102110002440FFF7E9FA00EE100AB8EE400A8DED10
:10212000010AFBEE000AB0EE000AFFF713FADDED3C
:10213000010A20EE800A664800ED000A42F22640BD
:10214000FFF7D2FA00EE100AB8EE400A8DED010A50
:10215000FAEE000AB0EE000AFFF7FCF9DDED010A25
:1021600020EE800A5B4800ED000A42F22840FFF7AB
:10217000BBFA00EE100AB8EE400A8DED010A56488F
:1021800000EE900AB0EE000AFFF7E4F9DDED010A77
:1021900020EE800A514800ED000A42F22A40FFF783
:1021A000A3FA00EE100AB8EE400A8DED010A4C4881
:1021B00000EE900AB0EE000AFFF7CCF9DDED010A5F
:1021C00020EE800A474800ED000A42F22C40FFF75B
:1021D0008BFA00EE100AB8EE400A8DED010A404875
:1021E00000EE900AB0EE000AFFF7B4F9DDED010A47
:1021F00020EE800A3C4800ED000A42F22E40FEF735
:10220000D5FD00EE100AB8EE400A8DED010AFAEE97
:10221000040AB0EE000AFFF79DF9DDED010A20EE99
:10222000800A324800ED000A42F22F40FEF7BEFD60
:1022300000EE100AB8EE400A8DED010AFAEE040A2B
:10224000B0EE000AFFF786F9DDED010A20EE800A04
:10225000274800ED000A42F28140FEF7A7FD00EE9C
:10226000100AB8EE400A8DED010AFAEE0C0AB0EE43
:10227000000AFFF76FF9DDED010A20EE800A1D4824
:1022800000ED000A42F28240FEF790FD00EE100AD7
:10229000B8EE400A8DED010AFAEE0C0AB0EE000A23
:1022A000FFF758F9DDED010A20EE800A124800ED33
:1022B000000ADDF800E002B0704700BF50000020C7
:1022C00054000020000030C2580000204C000020C4
:1022D0006C00002068000020000038C27000002060
:1022E000000010C27C000020780000204800002080
:0C22F0006400002074000020800000202A
:1019980083B0CDF800E0ADF8080040F20001ADF8E2
:1019A8000410FFF7A1FB68B1FFF7DEFBBDF80410D8
:1019B8004A1C92B2ADF80420BDF808108A4200D93A
:0C19C80000E0EEE7DDF800E003B070473F
:1010F00081B0CDF800E0FFF735FF00F40070C0B21A
:08110000DDF800E001B07047CA
:100F640081B0CDF800E043F6FF70FFF71DFFDDF818
:060F740000E001B070472F
:100DAC0082B0CDF800E001AA00F47F4189B2090AB3
:100DBC001170521C00F0FF011170FFF7D7FE01AA51
:100DCC00104909780023C8B211460222FFF7BAFE77
:100DDC000DF106020B4909780123C8B21146022213
:100DEC00FFF79EFE0DF106031978C8B2020292B20B
:100DFC00591C097842EA010188B2DDF800E002B022
:080E0C00704700BF1A0000202E
:100B780082B0CDF800E040F20004ADF80440064C25
:100B88002468A047BDF9041041EA000000B2DDF86E
:0C0B980000E002B0704700BF60000020C9
:100B100081B0CDF800E004480068FFF7AFFD002089
:0C0B2000DDF800E001B070472800002064
:10067C0081B0CDF800E04FF00002244909688842AF
:10068C0007D123490B6823490A6823490A601A4693
:10069C0025E022490968884207D121490B68214984
:1006AC000A681D490A601A4619E01F490968884200
:1006BC0007D11E490B681E490A6817490A6019467A
:1006CC000CE01C490968884207D11B490B681B497F
:1006DC000A6811490A60194600E011460A46184991
:1006EC000A60017801F00101C9B259B914490968CD
:1006FC0039B122B90520084C2468A04702E0521EEB
:10070C00FFE7EEE7DDF800E001B0704728000020BD
:10071C002C00002088000020840000201C000020F9
:10072C00300000208C000020240000203400002029
:10073C0090000020200000203800002094000020B1
:04074C003C0000204D
:10036C0082B0CDF800E08DF8040000F04DFD084996
:10037C00097801F02001C9B201B9F8E79DF8041021
:10038C0001F0FF0203490A70DDF800E002B070478B
:08039C0005240F4000240F406E
:1003340082B0CDF800E08DF80400FFF7B5FF08495E
:10034400097801F02001C9B201B9F8E79DF8041059
:1003540001F0FF0203490A70DDF800E002B07047C3
:0803640005280F4000280F409E
:1002AC0081B00448007800F07F010248017001B071
:0802BC00704700BF03280F404A
:10032400024A117860F3000111707047901308407D
:1003C400024A117860F34511117070478413084094
:1003B400024A117860F3C30111707047801308403A
:1003A400024A117860F304111170704783130840F6
:1002D400024A117860F38611117070478313084045
:1002E400024A117860F304111170704780130840BA
:1002C400024A117860F30411117070478B130840CF
:10031400024A117860F3000111707047831308409A
:10030400024A117860F34511117070478813084050
:1002F400024A117860F304111170704788130840A2
:1003D400024A117860F300011170704781130840DC
:10047400024A117860F3C711117070478013084065
:10046400024A117860F341011170704790130840FB
:10045400024A117860F3C711117070478413084081
:1004A400024A117860F34511117070478E130840A9
:10049400024A117860F30411117070478313084005
:10048400024A117860F38611117070478313084093
:10044400024A117860F30411117070478013084058
:10040400024A117860F3820111707047801308402A
:1003F400024A117860F38201117070478913084032
:1003E400024A117860F34511117070478813084070
:10043400024A117860F30411117070478813084060
:10042400024A117860F3000111707047811308408B
:10041400024A117860F3C7111170704780130840C5
:1009700081B0CDF800E004480068FFF77FFE00205A
:0C098000DDF800E001B070471C00002012
:1009540081B0CDF800E004480068FFF78DFE002068
:0C096400DDF800E001B070472400002026
:1009B80081B0CDF800E004480068FFF75BFE002036
:0C09C800DDF800E001B0704720000020C6
:10098C0081B0CDF800E000F03FFA0648007800F0A6
:10099C000100C0B200B9F8E703480078DDF800E0C8
:0C09AC0001B0704705240F4000240F40EC
:1008F00081B00548007800F00100C0B208B10120C5
:0C09000000E0002001B0704705240F400B
:1008D40081B00548007800F04000C0B208B10120A2
:0C08E40000E0002001B0704705240F4028
:1009280081B0CDF800E0FFF7BDFC0648007800F084
:100938000100C0B200B9F8E703480078DDF800E02C
:0C09480001B0704705280F4000280F4048
:10090C0081B00548007800F00100C0B208B10120A8
:0C091C0000E0002001B0704705280F40EB
:1009D40081B00548007800F04000C0B208B10120A1
:0C09E40000E0002001B0704705280F4023
:100B500082B0CDF800E040F20004ADF80440054C4E
:100B60002468A047BDF90440044320B2DDF800E04A
:080B700002B070475C00002098
:100AA40081B0CDF800E0064C246808B413460A4629
:100AB4002146FFF74BFE01B0DDF800E001B07047BE
:040AC40028000020E6
:1007500082B0CDF800E0029E40F200074FF00005A5
:100760004E4C2468A14208D14D4CD4F800804D4C29
:1007700025684D4C2560454628E04C4C2468A14234
:1007800008D14B4CD4F800804A4C2568464C256073
:1007900045461BE0484C2468A14208D1474CD4F898
:1007A0000080474C2568404C256044460DE0454C90
:1007B0002468A14208D1444CD4F80080434C2568F9
:1007C000394C2560444600E02C462546404C2560C7
:1007D00001F2080544002C70C5240C70B8B20F4615
:1007E0001D46A84231D23A4CD4F8008033463946EF
:1007F00017462A460C7804F08004E4B27CB1344CED
:1008000024685CB1B8F1000F04D10420264C2468A0
:10081000A0473FE0A8F10105A846FFE7EAE70C780A
:1008200004F00804E4B23CB901F208053C1824784D
:100830002C70401C80B203E001911146019A07E040
:1008400015463A460F461E46CBE73A4629463346FA
:100850001F4C2568147804F08004E4B25CB11C4C91
:1008600024683CB125B904200F4C2468A04711E04E
:100870006D1EFFE7EEE733B1C324147002F20805E2
:1008800000242C7001E045241470884201D201201C
:1008900000E00020DDF800E002B0704728000020F2
:1008A0002C00002088000020840000201C00002074
:1008B000300000208C0000202400002034000020A4
:1008C000900000202000002038000020940000202C
:0408D0003C000020C8
:100AEC0081B0CDF800E0064C246808B413460A46E1
:100AFC002146FFF727FE01B0DDF800E001B070479A
:040B0C001C000020A9
:100AC80081B0CDF800E0064C246808B413460A4605
:100AD8002146FFF739FE01B0DDF800E001B07047AC
:040AE80024000020C6
:100A140081B0CDF800E0064C246808B413460A46B9
:100A24002146FFF793FE01B0DDF800E001B0704706
:040A3400200000207E
:100B2C0082B0CDF800E040F20004ADF80440044C73
:100B3C002468A047BDF90400DDF800E002B070475E
:040B4C004400002041
:1009F00081B0CDF800E0064C246808B413460A46DE
:100A00002146FFF757FD01B0DDF800E001B0704767
:040A1000280000209A
:1004B40082B0CDF800E0029C40F2000601274FF024
:1004C40000055F4C2468A14208D15E4CD4F800803A
:1004D4005D4C25685D4C2560454628E05C4C2468ED
:1004E400A14208D15B4CD4F800805B4C2568574C82
:1004F400256045461BE0594C2468A14208D1584C5C
:10050400D4F80080574C2568504C256044460DE0D3
:10051400554C2468A14208D1544CD4F80080544C62
:1005240025684A4C2560444600E02C462546514C3B
:10053400256001F208054400A4B244F001042C70C3
:100544000846B5B21E46FBB24A4C216801913146B9
:10055400AEB2019D047804F08004E4B25CB1454C71
:1005640024683CB125B90320384C2468A04762E0D4
:100574006D1EFFE7EEE7047804F00804E4B28CB9DA
:10058400B41CA4B28C420DD2951900F2080424784C
:100594002C70751CADB223B1002400239DB2E3B2CC
:1005A400FFE746E0047804F00804E4B2002C38D1F4
:1005B400022902D04024047002E00BB940240470E4
:1005C400951900F2080424782C70741C3BB10023A4
:1005D4000025022901D10E46B6E7A9B200E0A1B276
:1005E400244C2368ADF8041011460246BDF80400FB
:1005F400147804F08004E4B25CB11E4C24683CB16D
:1006040023B90320114C2468A04714E05B1EFFE7C4
:10061400EEE7C32414700D1802F2080424782C7039
:1006240009E0C3240470951900F2080424782C709E
:1006340001E00E4688E7DDF800E002B0704700BF35
:10064400280000202C0000208800002084000020C6
:100654001C000020300000208C000020240000201A
:1006640034000020900000202000002038000020EA
:08067400940000203C0000206E
:100A380081B0CDF800E0064C246808B413460A4695
:100A48002146FFF733FD01B0DDF800E001B0704743
:040A58001C0000205E
:100A5C0081B0CDF800E0064C246808B413460A4671
:100A6C002146FFF721FD01B0DDF800E001B0704731
:040A7C002400002032
:100A800081B0CDF800E0064C246808B413460A464D
:100A90002146FFF70FFD01B0DDF800E001B070471F
:040AA0002000002012
:1011700043F67E67C0F2000700BF00BF7F1EFDD1AF
:0811800000BF00BF00BF704773
:10191C0082B0CDF800E08DF8040043F20100FFF72F
:10192C003FFA4FF6F97100EA010292B29DF80410E9
:10193C00490089B242EA010143F20100FFF7DEFBE4
:08194C00DDF800E002B0704775
:1011080082B0CDF800E00DF1060301F47F4292B2FF
:10111800120A1A705B1C01F0FF021A7001AB00F48E
:101128007F4292B2120A1A705B1C00F0FF021A701A
:10113800FFF71EFD01AB0B4A127819460023D0B207
:101148000222FFF701FD0DF10603064A127819463F
:101158000123D0B20222FFF7F7FCDDF800E002B06D
:08116800704700BF1A000020CF
:1016E80083B0CDF800E001AA00F47F4189B2090A6D
:1016F8001170521C00F0FF011170FFF739FA01AAAE
:10170800144909780023C8B211460222FFF71CFACF
:101718000DF106020F4909780123C8B211460422C7
:10172800FFF700FA0DF10603991C0978C8B2020206
:10173800D91C097842EA01010A02197842EA010132
:101748000A02591C097842EA01010846DDF800E05E
:0817580003B070471A000020E5
:1015540082B0CDF800E0F0EE402AB0EE602A002020
:10156400B5EEC02AF1EE10FA02D1B7EE000A3EE061
:10157400F5EEC02AF1EE10FA04D14FF0000200EEAD
:10158400102A34E0F5EEC02AF1EE10FA1BDABDEEB3
:10159400420A10EE102A104600EE102AB8EEC00AD5
:1015A400B4EEC20AF1EE10FA04D04FF0000200EEDD
:1015B400102A1CE000F00102D0B2F1EE620AC5B2BA
:1015C400B0EE600A05E08DF80400B0EE620A9DF802
:1015D4000450FFF75DFE20EE020AFFF7D3FDF0EEA4
:1015E400400A15B1B1EE600A01E0B0EE600ADDF820
:0615F40000E002B07047A8
:1012940082B0CDF800E0B5EEC00AF1EE10FA04DC3D
:1012A4004FF0000100EE101A23E001A90846FFF7F1
:1012B40063FEF0EE000A60EE200AB7EE000A30EE9C
:1012C400C00ABDF90410491EADF8041040F208012B
:1012D40009B20A48FFF724FEBDF9041001EE101A02
:1012E400B8EEC11A064900EE901A60EE810A30EE9B
:1012F400200ADDF800E002B0704700BFE8280B00C8
:041304001872313FEB
:100F7C0082B08DED010ABDF80610C1F3C7117E39A0
:100F8C0009B201807E22BDF8061062F3CE11ADF8D5
:0A0F9C0006109DED010A02B0704737
:100F240081B0F0EE400A8A00821812ED000AB0EE99
:100F3400401AB0EE410AB0EE601A79B161EE000ACF
:100F44004A1E12B211B29200821812ED000A30EE5B
:100F5400800A0DED000A1DED000AEEE701B07047AE
:1011880081B0CDF800E0F0EE401AF5EEC01AF1EEAD
:1011980010FA02D1B7EE000A5DE0314900EE101AEC
:1011A800F4EEC01AF1EE10FA03DD2E4900EE101A23
:1011B80051E02D4900EE101AF4EEC01AF1EE10FAC3
:1011C80004DA4FF0000100EE101A44E0F5EEC01A00
:1011D800F1EE10FA40F2000100DA0121CBB2C9B2F7
:1011E80011B1F1EE610A01E0F0EE610A1F4900EE6B
:1011F800101A20EE800AF0EE401AFFF71FFEBDEE2F
:10120800400A10EE101A09B20CB200EE101AB8EE2D
:10121800C00A31EEC00A40F2090109B21448FFF7CA
:101228007DFE20B2FFF74AFEF0EE400A8BB10D4971
:1012380000EE101AF4EEC00AF1EE10FA04D14FF0E5
:10124800000100EE101A06E0B7EE000A80EE200A50
:1012580001E0B0EE600ADDF800E001B0704700BFC1
:10126800FED4B242FFFF7F7F50ACAEC23BAAB83F6C
:041278009C280B00A3
:100E440082B08DED010A01A90968C90D01F0FF0105
:100E540009B27F3909B208B200290EDA9DED010A00
:100E6400B5EEC00AF1EE10FA02DABFEE000A24E091
:100E74004FF0000100EE101A1FE081B2182902D9C8
:100E84009DED010A19E09DED010ABDEE400A10EE48
:100E9400101A00EE901AF8EEE00AB0EE601A9DED1A
:100EA400010AF4EEC00AF1EE10FA04DDB7EE000A0E
:0E0EB40031EE400A01E0B0EE410A02B0704794
:100EC40082B08DED010ABDF80610C1F3C7114118B7
:100ED40008B209B2002904DA4FF0000100EE101A3A
:100EE40019E0B0F1FF0F0DDDB5EEC00AF1EE10FA16
:100EF40004DA6FF4000100EE101A0CE0074900EE6A
:100F0400101A08E082B2BDF8061062F3CE11ADF8F3
:100F140006109DED010A02B0704700BFFFFF7F7FFE
:10250C0095B0CDF800E00DF11F0B0BF1310ADFF89F
:10251C0098C0FFF7A1FFFFF715FF0DF11F008DED20
:10252C00010A0121FFF74EFD9DED010A02A814904E
:10253C0010EE100AFFF790FB149A00EE100A00EE52
:10254C00901A1046FFF7A8FB02A80221FFF73AFDEC
:10255C00FFF73AFA0EA88DED010A0121FFF732FDC3
:10256C009DED010A02A8149010EE100AFFF774FBFF
:10257C00149A00EE100A00EE901A1046FFF78CFB2E
:10258C0002A80221FFF71EFD44F2FE77C0F2E81705
:10259C0000BF00BF7F1EFDD100BF00BF00BFDDF834
:0C25AC0000E015B0704700BF68280B006D
:1023500083B0CDF800E0FFF761F9032801D0FFF763
:102360006DF9FFF79BF940F2EE20FFF779F944F29F
:102370000500FEF71BFD01B2ADF8041044F20800A1
:10238000FEF714FDBDF9041001EE101AB8EEC11AE3
:10239000B2EE080AC1EE000A214911ED000A60EE12
:1023A000200A00EE100AB8EEC00A70EE200AB2EE63
:1023B000080A81EE000A80EE200A8DED020AF3EE93
:1023C000030AB0EE000AFFF7C5F8DDED020A60EE81
:1023D000800A144810ED000A30EEC01A124810EDC1
:1023E000000AC1EE000A114810ED000A30EE200A82
:1023F0008DED020AF0EE000AB0EE410AFFF7AAF8EE
:102400000B4850ED000A60EE800A9DED020A30EEA6
:10241000200AB0EE400ADDF800E003B0704700BFCC
:102420004800002050000020540000204C000020F4
:042430005800002030
:10161C0081B0CDF800E043F20100FFF7C1FB4008B8
:10162C0080B200F00300C0B2DDF800E001B07047FA
:10163C0081B0CDF800E043F20100FFF7B1FB40F0C0
:10164C00080081B243F20100FFF758FDDDF800E01D
:04165C0001B0704722
:10169C0081B0CDF800E0FFF75FFC4FF6FE7108401B
:1016AC0081B243F6FF70FFF729FDDDF800E001B0D1
:0216BC00704775
:1016600083B0CDF800E0ADF8080040F20001ADF81D
:101670000410FFF703FE68B9FFF77AFDBDF8041008
:101680004A1C92B2ADF80420BDF808108A4200D975
:0C16900000E0EEE7DDF800E003B070477A
:10127C0081B0CDF800E0FFF76FFE00F00100C0B2C6
:08128C00DDF800E001B070473D
:101FD00083B0CDF800E0024610460D228DF80820AF
:101FE0000A228DF809201FE0FFF708FB23E00278A2
:101FF0002AB10190FFF702FB0198401CF7E71AE0B5
:1020000002782AB10190FFF7F9FA0198401CF7E72E
:1020100002AA1046FFF7F2FA0DF109021046FFF787
:10202000EDFA08E0062007E00029DDD00129DED026
:102030000229E5D0F6E70020DDF800E003B07047A4
:1015FC0081B0CDF800E00178CCB2E0B2034C2468A5
:10160C00A0470020DDF800E001B07047400000204A
:101C640081B004B54200120E0DD0FF2A0ED002F549
:101C74006072C10F42EAC122014648074902090BBA
:101C840041EA025108E00021002005E04FF0000085
:101C9400C90DC900C91D0905BDE8044001B070475C
:101CA40083B0CDF800E010EE102A10EE903A05460D
:101CB400002040F2000109B2CDE90123DDE901234E
:101CC40092F0FF3201D193F0FF3206D1B74A1146A8
:101CD4002846FFF787FD032064E10127DDE901348D
:101CE400C3F3C0725AB1DDE901236FF3DF72CDE9AA
:101CF40001237F1CBFB22D222A706E1C00E02E46E9
:101D0400DDE9012392F0000201D193F0000206D133
:101D1400A74A11463046FFF765FD002042E1DDE9A0
:101D240001454FF00002A34B94EA020201D195EA67
:101D3400030206D1A04A11463046FFF753FDF8B21C
:101D440030E15FFA80FA0FFA81F9B3469DED011B89
:101D54004FF00002994B00EE102A00EE903A11EE7B
:101D6400102A11EE903A10EE100A10EE901AFFF7B6
:101D7400F5FC40F2000000DD0120C8B19DED011B1F
:101D84004FF000028E4B00EE102A00EE903A11EE56
:101D9400100A11EE901A10EE102A10EE903AFFF786
:101DA40037FDCDE90101A9F101090FFA89F9CDE760
:101DB4009DED011B4FF00002814B00EE102A00EE56
:101DC400903A11EE102A11EE903A10EE100A10EE2D
:101DD400901AFFF7C3FC40F2000000DC0120C0B100
:101DE4009DED011B774A784B00EE102A00EE903AE5
:101DF40011EE100A11EE901A10EE102A10EE903A1D
:101E0400FFF706FDCDE9010109F101090FFA89F98E
:101E1400CEE7029AC2F30A52A2F2FF3290B201AAAA
:101E2400D31D01221A700123029A63F31E520292F7
:101E3400DDE901452B01220F13432201CDE90123E2
:101E440086B20027DDE90145B6F1200209D5C6F1C5
:101E5400200224FA02F205FA06F3134304FA06F206
:101E640002E004FA02F30022CDE9012301AAD21D03
:101E7400127830328BF800200BF10100B9F1010F18
:101E840006DBB9F1060F03DC07465FFA8AF103E0CB
:101E94002E220270471C012140F20F000FFA89F62E
:101EA40078B301AAD31D00221A70DDE901239D0035
:101EB400940F25439400DDE9012312196B41CDE908
:101EC4000123DDE901456B00E20F13436200CDE914
:101ED400012301AAD21D127830323A707A1C1446BA
:101EE40059B9721E12B213B222B92E222270671C83
:101EF400012100E027461EB200E02746401E80B2C2
:101F0400CEE7394630B24A1E1278302A01D1491E32
:101F1400F9E74A1E12782E2A01D1491EFFE700284C
:101F24003CD065220A70491C002805DA2D220A706B
:101F3400491C43421BB200E003B298B29AB2632A2E
:101F440015D96422B0FBF2F292B230320A704D1C01
:101F540029460A22B0FBF2F4A4B20A23B4FBF3F23A
:101F640003FB124292B230322A70491CFFE709285F
:101F740009D9632808D20A22B0FBF2F292B23032B5
:101F84000A70491CFFE7FFE70A23B0FBF3F203FBE7
:101F9400120292B230320A70481C00E00846002255
:101FA40002700020DDF800E003B07047100000204C
:101FB400140000200000F07F160000200000F03F15
:0C1FC400000024409A9999999999B93F1E
:1017E80081B00091014600980B461C465A1C1546CC
:1017F8000346421C10461A78227022780AB12B46FA
:08180800F3E7084601B0704748
:1017600081B010B5994201D190422FD050EA0204C5
:1017700004D141EA03046400002C27D050EA41045C
:1017800001D19C4222E04C006415641C07D15C002E
:101790006415641C03D1DC0FB4EBD13416E0002BCC
:1017A0000AD4002912D4994210D190EA020401D43B
:1017B00090420BE0002A09E0002907DC8B4205D1AA
:1017C00090EA020401D4824200E00028EFF3008492
:1017D00054BF44F0005424F0005484F30088BDE862
:0617E000104001B070474B
:1018140081B02DE9FC4191EA03084CBF4FF0004828
:101824004FF000084FEAC32545EA52554FEAC22655
:101834004FEA43077F0D11BF45F000454FF000010B
:101844004FF0000063E05FF4E06E1EF1FF0E774599
:1018540056D04FEAC12343EA50534FEAC0224FEA1D
:101864004104640D11BF43F000434FF000014FF0F9
:1018740000004CE0744543D0E419A3FB0501A3FB2D
:1018840006E7A2FB06631EEB030E57F1000751F1B6
:101894000001A2FB05631EEB060E57F1000751F190
:1018A4000001FF1851F10001C01951F100014CBFB2
:1018B4004FF4806E4FF4007E10EB0E0051F10001E6
:1018C40048BF641C01D4400049415FF44077FF37AE
:1018D400E41BDEBF4FF000014FF0000017E017F5E6
:1018E4008067BC420CD24FEAD02040EA41504FEA14
:1018F40041014FEA113141EA045141EA080106E08D
:101904000020FF21C900C91D090551EA0801BDE8ED
:06191400FC4101B0704728
:1019D40085B0CDF800E0FFF71FFE032801D0FFF724
:1019E4002BFEFFF759FE40F2EE20FFF737FE00F022
:1019F400ADFC44F20500FFF7D7F9ADF8080044F256
:101A04000800FFF7D1F9ADF80A00FFF7A1FFC1B252
:101A140001280CD144F20300FFF7C6F9ADF8040025
:101A240044F20400FFF7C0F9ADF806001AE00229F9
:101A34000CD144F20600FFF7B7F9ADF8040044F204
:101A44000700FFF7B1F9ADF806000BE044F203001C
:101A5400FFF7AAF9ADF8040044F20400FFF7A4F973
:101A6400ADF8060040F2000A5FFA8AF6032E80F011
:101A7400D180BDF9080001EE100AB8EEC11AB2EE29
:101A8400080AC1EE000A674810ED000A60EE200A59
:101A9400BDF90A0000EE100AB8EEC00A70EE200A82
:101AA400B2EE080A81EE000A80EE200A8DED040AE7
:101AB400F3EE030AB0EE000AFFF74AFDDDED040A77
:101AC40060EE800AF0EE603A574810ED000A30EEFE
:101AD400C00AF0EE000AFFF73BFDBDF90610BDF9A0
:101AE4000400401800B200EE900AF8EEE00AB0EEEE
:101AF400000A80EE801ABDF9080000EE900AF8EEA4
:101B0400E00AB2EE080AC0EE800A484810ED000A66
:101B140060EE200ABDF90A0000EE100AB8EEC00A11
:101B240070EE200AB2EE080A81EE000A80EE200A66
:101B34008DED040AF3EE030AB0EE000AFFF708FD88
:101B4400DDED040A20EE803A394810ED000A73EE08
:101B5400C00A384810ED000AC0EE800AB3EE090A44
:101B640070EE802A344800EE100A32EE802A3348A0
:101B740050ED000A324810ED000A60EE200A3148A8
:101B840010ED000A60EE801A2F4850ED000A2F482D
:101B940010ED000A70EE600A2D4810ED000A60EEA8
:101BA400200AB7EE000A30EE201A2A4810ED000A87
:101BB40072EEC00A284810ED000A20EE200A31EE29
:101BC400000A21EE800A83EE000A8DED040AF1EE8C
:101BD400000AB0EE420AFFF7BBFCDDED040A30EE6A
:101BE400800AF5EE000AB0EE400AFFF7B1FC124895
:101BF40000EE900A70EE600A184810ED000A30EE0C
:101C0400C00A114800ED000A701C5FFA80FA5FFAFE
:101C14008AF62BE70C4810ED000ADDF800E005B069
:101C2400704700BF480000205000002064000020DE
:101C3400680000206C00002033938843700000206B
:101C44000000002074000020080000200400002090
:101C5400780000200C0000207C0000208000002080
:1019540081B0CDF800E0FFF703FB00F07C0080B21B
:0C1964008008C0B2DDF800E001B0704760
:1026740081B0CDF800E01F4B1F4A204C2048006871
:1026840040F002011E480160012A08D0032A06D046
:10269400042A04D0102A02D0302A00D002E01948BB
:1026A400026002E0012117480160C4F3C002164928
:1026B400086862F3C3000860C4F380021249086822
:1026C40062F382000860C4F340020F49086862F3B1
:1026D40041000860C4F300020B49086862F300007B
:1026E4000860FFF7C7FE09480360DDF800E001B0A9
:1026F400704700BFE001000001000000000000007E
:1027040008E000E00401084008A400400801084073
:1024780046F6FE17C0F2180700BF00BF7F1EFDD149
:0824880000BF00BF00BF704758
:1027140081B004490448016004490548016001B0DE
:10272400704700BF80BB0000A40000200000000030
:04273400A8000020D9
:0825F40081B0FEE701B0704761
:1026200081B04EF68850CEF20000016841F470018E
:10263000016000BF00BF00BF00BFF1EE100A40F410
:0A2640004000E1EE100A01B07047FF
:1025FC0081B0DFF81000DFF810100860D0F800D0C0
:10260C0000F004B800000B0008ED00E000BF01B0C2
:02261C00704705
:1029380000B5DFF824B0DFF824A0DFF824C0FFF7E3
:102948008DFDDFF820B0DFF820A0DFF820C0FFF70A
:1029580085FD00BD704700BF000000201A00002060
:102968000C290B001C00002040000020C4280B008C
:1029D40000B5DFF810B0DFF810A0FFF757FD00BD19
:0C29E400704700BF00000020BC00002075
:102738008500000084000000FFFFFFFF000000008C
:102748000000000000000000000000000000000081
:102758000000000000000000000000000000000071
:102768000000000000100000001000000000000041
:102778000000000000000000000000000000000051
:102788000000000000000000000000000000000041
:08279800000000000000000039
:1027A0001000000007000000FFFFFFFF0300000013
:1027B0000000000000000000000000000000000019
:1027C0000000000000000000000000000000000009
:1027D00000000000001000000010000000000000D9
:1027E00000000000000000000000000000000000E9
:1027F00000000000000000000000000000000000D9
:082800000000000000000000D0
:1028080025030B00C5030B00B5030B00A5030B0044
:10281800D5020B00E5020B00C5020B0015030B00E7
:1028280005030B00F5020B00D5030B0075040B0024
:10283800FFFFFFFFFFFFFFFFFFFFFFFFFFFFFFFFA0
:10284800FFFFFFFFFFFFFFFFFFFFFFFFFFFFFFFF90
:10285800FFFFFFFFFFFFFFFFFFFFFFFFFFFFFFFF80
:10286800414D4249454E542054454D5045524154DE
:102878005552452049533A20004F424A4543542077
:1028880054454D50455241545552452049533A20DC
:01289800003F
:10289C000000803F1872313FF0FD753E4758633D94
:1028AC0058951D3C82C4AE3AA8782139EF938037F5
:0828BC00A092A7354656153421
:0428C400004400408C
:0428C800004C004080
:0428CC000048004080
:0428D0000040004084
:0428D4000000000000
:0428D80000000000FC
:0428DC0000000000F8
:0428E00000000000F4
:0428E40000000000F0
:1028E800FFE6DB2EC4FF7F3F80EFFFBE90E1A93EED
:1028F800EC8276BE82AD2B3E0E3CC3BD87D1133D24
:042908004178D3BB84
:04290C000000803F08
:042910000000C841BA
:042914000000C841B6
:042918000000C841B2
:04291C004E614E00BA
:02292000300085
:04292200494E4600D4
:0C292800110B0B00A50A0B00F1090B00BD
:04293400010000009E
:00000001FF
