:10000000FCFF0020792E0000ED2C0000ED2C0000FC
:10001000ED2C0000ED2C0000ED2C0000ED2C00007C
:10002000ED2C0000ED2C0000ED2C0000ED2C00006C
:10003000ED2C0000ED2C0000ED2C0000ED2C00005C
:10004000ED2C0000ED2C0000ED2C0000ED2C00004C
:10005000ED2C0000ED2C0000ED2C0000ED2C00003C
:10006000ED2C0000ED2C0000ED2C0000ED2C00002C
:10007000ED2C0000ED2C0000ED2C0000ED2C00001C
:10008000ED2C0000ED2C0000ED2C0000ED2C00000C
:10009000ED2C0000ED2C0000ED2C0000ED2C0000FC
:1000A000ED2C0000ED2C0000ED2C0000ED2C0000EC
:1000B000ED2C0000ED2C0000ED2C0000ED2C0000DC
:1000C000ED2C0000ED2C0000ED2C0000ED2C0000CC
:1000D000ED2C0000ED2C0000ED2C0000ED2C0000BC
:1000E000ED2C0000ED2C0000ED2C0000ED2C0000AC
:1000F000ED2C0000ED2C0000ED2C0000ED2C00009C
:102E7800FFF75CFFFFF73AFF00F0E4FAFFF74CFFBB
:102E880000F092FAFFF7B8FEFFF766FEFFF7D4FEF0
:042E9800FCE7FEE76E
:102B4C0081B01CF8019B0BF8019BBBEB0A0FF8D171
:042B5C0001B070470D
:102BB80081B04FF000094FF0000CBDEB0A0F04DCA8
:102BC800BDEB0B0F01DBD446EA464BF8049BBBEB8D
:102BD8000A0FFAD1BCEB0A0F05DDE246D9F800B0BE
:0A2BE8000BF1040BF1E701B0704798
:102C000081B0CDF800E00C4801460020FFF76CFDD4
:102C10004DF6C0210120FFF749FD44F67D77C0F253
:102C2000120700BF7F1EFDD100BF00BF00BF00BF65
:0C2C3000DDF800E001B07047FC2B000054
:1026E80081B0CDF800E009E00846FFF7CBFB0AE02F
:1026F8000846FFF75BFA06E0012004E00028F3D063
:0E2708000128F5D0F8E7DDF800E001B07047D9
:101E8C0081B0CDF800E0011D0A68016808461146D2
:101E9C00034AFFF779FE0020DDF800E001B070473F
:041EAC0030310000D1
:101B940081B0CDF800E013460A4601460348FFF73A
:101BA400A1FCDDF800E001B0704700BF0024004054
:1014E80087B0CDF800E08446059106921846FFF7CC
:1014F80031FE6046FFF784FE06996046FFF774FEEA
:10150800BCF8005040F6017445EA0404ACF8004009
:1015180001AC2046FFF7C6FD069C402C05D1059D71
:10152800019CB4FBF5F4A0B209E0069C802C05D11F
:10153800059D049CB4FBF5F4A0B200E000200CF17A
:10154800060420801D4CA44506D11D4D1D4C256068
:101558001D4D1E4C25601CE01D4CA44506D11D4D9B
:10156800184C25601C4D194C256012E01B4CA445F5
:1015780006D11B4D134C25601A4D144C256008E00C
:10158800194CA44505D1194D0E4C2560184D0F4C2A
:10159800256040F201016046FFF774FD6046FFF7E1
:1015A80079FD03216046FFF75BFD02216046FFF7E6
:1015B80061FDDDF800E007B0704700BF0020004083
:1015C800F50A000088000020150A00008C000020A1
:1015D80000240040D10A0000C5090000002800408E
:1015E8003D0B0000A1090000002C0040190B000071
:0415F800610B000083
:1010AC0082B0CDF800E004462849096801F4E061FB
:1010BC00090A08462549096801F0E061090E0A464B
:1010CC00214601911146FFF7D7FE019908601F498F
:1010DC00096801F07001090908461C49096801F406
:1010EC00E001090D0A4604F2080101911146FFF7CF
:1010FC00C3FE019908601549096801F070010909DE
:10110C0008461249096801F0E041090F0A4604F249
:10111C000C0101911146FFF7AFFE019908600B49D4
:10112C00096801F0070108460849096801F4E02143
:10113C00090C0A46211D01911146FFF79DFE0199EC
:10114C000860DDF800E002B0704700BF0804014001
:100E840081B0CDF800E002460846FFF77FFDC3B20B
:100E940071E0424A126802F00102D2B140F201004C
:100EA400FFF7A0FD3D4A126802F001028AB13C4AF4
:100EB400126802F400422AB14FF4FA3292FBF3F2C0
:100EC400104666E048F20002B2FBF3F292B290B22E
:100ED4005FE0344A1268B2FBF3F2104659E02F4A3D
:100EE400126802F00202D2B140F20200FFF77AFD6A
:100EF4002A4A126802F002028AB1294A126802F4EC
:100F040000422AB14FF4FA3292FBF3F2104640E069
:100F140048F20002B2FBF3F292B290B239E0224AF4
:100F24001268B2FBF3F2104633E0204A1268B2FBB7
:100F3400F3F210462DE01A4A126802F400422AB174
:100F44004FF4FA3292FBF3F2104622E048F2000228
:100F5400B2FBF3F292B290B21BE0FFF779FDB0FB63
:100F6400F3F2104615E0124A1268B2FBF3F210468F
:100F74000FE000200DE0002A3FF48BAF052AAED02D
:100F8400012AD2D0022AD6D0032AE6D0042AEAD0F3
:100F9400EFE7DDF800E001B0704700BF480401400E
:100FA4003004014094000020980000202C00002010
:040FB40030000020E9
:1009900081B0012109B2814009B208B201B07047AB
:1009E80081B0074A07490A600749096841EA0002D5
:1009F80005490A60012203490A6001B0704700BF37
:0C0A08005A690000000401405004014045
:100A540082B01748006800F4E02114E015480190C2
:100A640023E01548019020E0144801901DE014484B
:100A740001901AE01348019017E01348019014E024
:100A84000020019011E00029E8D0B1F5803FE8D0C2
:100A9400B1F5003FE8D0B1F5403FE8D0B1F5802F83
:100AA400E8D0B1F5A02FE8D0EAE7019802B070478A
:100AB4000404014060E31600C0C62D00808D5B0075
:0C0AC400001BB70000366E01006CDC0265
:10115C0081B0CDF800E040F2000A814609F1D801D7
:10116C0009788A453AD20C210AFB01F109EB0101FD
:10117C008B460BF1080109781F2915D10BF10801D9
:10118C000978CCB20BF1060109888BB20BF1040182
:10119C0009888AB2DBF80010084691B2002210B41C
:1011AC00FFF714FD01B014E00BF108010978CCB283
:1011BC000BF1060109888BB20BF1040109888AB284
:1011CC00DBF80010084691B2FF2210B4FFF7FEFCCA
:1011DC0001B00AF1010A5FFA8AFABFE7DDF800E014
:0411EC0001B0704797
:100BD80083B0CDF800E08DB20146D0B2BDF90C204B
:100BE80001F0010414B12F02BFB200E0AFB28F4C84
:100BF8000C1B640965018D4C6419A0468C4CA042FD
:100C080007D108F10406FD43ADB234882C40348086
:100C180007E0884CA04204D108F104052C883C4325
:100C28002C8040F2010403EA0404A4B23CB108F1A8
:100C38000606FD43ADB234882C4034800AE040F209
:100C4800020403EA0404A4B224B108F106052C88BE
:100C58003C432C8040F2040403EA0404A4B23CB1EF
:100C680008F10806FD43ADB234882C4034800AE010
:100C780040F2080403EA0404A4B224B108F1080508
:100C88002C883C432C8040F2100403EA0404A4B2EC
:100C98003CB108F11806FD43ADB234882C403480CD
:100CA8000AE040F2200403EA0404A4B224B108F1E3
:100CB80018052C883C432C8040F2400403EA0404C5
:100CC800A4B23CB108F11A06FD43ADB234882C40F9
:100CD80034800AE040F2800403EA0404A4B224B198
:100CE80008F11A052C883C432C8003F48074A4B2C4
:100CF8007CB908F10A06FD43ADB234882C40348033
:100D080008F10C06FD43ADB234882C403480002035
:100D180087E01F2A01DD012083E0FFF789FE00201C
:100D2800B9B2C7B24046102F80F07A8021FA07F492
:100D3800A4B204F00104A4B2002C00F06E8000F20A
:100D48000A06CD43ADB234882C40348000F20C063C
:100D5800CD43ADB234882C40348003F48064A4B20F
:100D68002CB1ADF806100024ADF808400DE003F4EE
:100D78000064A4B22CB10024ADF80640ADF8081008
:100D880003E0ADF80610ADF8081000F20A06358841
:100D9800BDF8064045EA0404348000F20C063588A4
:100DA800BDF8084045EA04043480234C041B640958
:100DB800ADF80440214CA24218D0BDF80440E4002C
:100DC800A4B265001E4C65197C08E4B264002E19B3
:100DD80007F00104E4B2E5002DB240F2FF04AC4094
:100DE800A4B2E543ADB234882C403480BDF8044049
:100DF800E400A4B26500124C65197C08E4B26400F2
:100E08002E1907F00104E4B2E5002DB294B204FAF9
:100E180005F5ADB234882C4334807F1CFFB282E7DD
:100E28000020DDF800E003B0704700BF004C004030
:100E38000000000001000000004C0040000000001D
:040E4800085000400E
:100A380081B042F6525103480180022102480180E8
:0C0A480001B07047005000400250004018
:1012080081B00122018862F30001018001B07047BA
:1011F00081B003884FF63F7203EA02020280028840
:081200000A43028001B07047AF
:10108C0081B08BB2028863F30412028001B0704706
:10109C0081B00022018862F30001018001B0704729
:1010680081B000F22C04CB439BB222881A40228024
:0410780001B070470C
:10107C0081B000F22A031A880A431A8001B0704723
:101BB40081B0CDF800E0011D0A68016808461146AD
:101BC400034AFFF7E5FF0020DDF800E001B07047AD
:041BD40030310000AC
:1026AC0081B0CDF800E00DE00846FFF783FC10E0A8
:1026BC000846FFF719FC0CE00846FFF703FC08E09E
:1026CC00012006E00028EFD00128F1D01028F3D02B
:0A26DC00F6E7DDF800E001B07047FA
:101FC00081B0CDF800E0FFF76BFD044A04490A60D8
:101FD0000020DDF800E001B0704700BF191B0000D1
:041FE00034000020A9
:101AA00081B0CDF800E084460B4A0C490A600C4A2C
:101AB0000C490A600C4A0D490A600D4A0D490A603A
:101AC0000D48FFF74BFB61460C48FFF7CDFDDDF8F5
:101AD00000E001B0704700BF191B00009C0000200F
:101AE000FFFFFFFFA0000020FFFFFFFFA40000207A
:101AF000FFFFFFFFA8000020782F00000018004023
:1016680081B0CDF800E007460C463846FFF740FE4B
:1016780040F280013846FFF7D9FD40F200013846B4
:10168800FFF7C6FD40F200013846FFF739FE40F289
:1016980000013846FFF74EFE40F200013846FFF7DA
:1016A80015FE40F200013846FFF700FE2146384695
:1016B800FFF766FE3846FFF733FEDDF800E001B0BD
:0216C800704769
:0E12F80081B0018841F00101018001B0704712
:1012340081B003884FF63F7203EA020202800288FB
:081244000A43028001B070476B
:1012180081B031B903884DF6FF7203EA02020280F9
:0C12280002E002880A43028001B0704717
:1013080081B0B1F5006F03D102880A43028005E07D
:1013180003884FF2FF7203EA0202028001B07047AD
:10133C0081B019E0038847F6FF7203EA02020280CB
:10134C0019E0028842F40042028002880A430280BB
:10135C0011E0028842F40042028003884BF6FF72CF
:10136C0003EA0202028006E00029E3D0B1F5804FC7
:0A137C00E7D00029EDD001B0704762
:1012D40081B0B1F5807F04D1028842F4807202802B
:1012E40005E003884FF6FF6203EA0202028001B0C0
:0212F400704741
:1012B40081B0B1F5805F03D102880A43028005E062
:1012C40003884EF6FF7203EA0202028001B07047FF
:1013880088B0CDF800E005460E4604AA1046FFF7DF
:1013980089FE04AA11462846FFF754FD00EE900A7C
:1013A800F8EE600A00EE106AB8EE400A80EE800A95
:1013B800B0EE401A01AA1046FFF7FAFDDDED010A6A
:1013C800FCEE600A10EE902A92B291B2414A00EE09
:1013D800902A20EE200ABCEE400A10EE100A80B2D5
:1013E80005F2080423884FF6FE7203EA02022280FF
:1013F80010292ED905F208031A8842F001021A8032
:10140800B3EE000A81EE000ABCEE400A10EE102A84
:1014180092B2ADF80820B3EE000AC1EE000AB3EEAE
:10142800000A81EE000ABCEE400A10EE102A92B2C1
:1014380000EE102AB8EE400A70EEC00AB3EE000AB9
:1014480020EE800ABCEE400A10EE102A92B2ADF8E7
:101458000A2020B90022ADF80C20284616E0012405
:101468002946242C11D263001B4AD21812889042B4
:1014780008D2621E12B25300184AD2181288ADF868
:101488000C2002E0641CE4B2EBE70846831D00224E
:101498001A80841D2388BDF8082043EA02022280AE
:1014A80000F208031A8802F001021A8000F2080408
:1014B800BDF80C2013029BB2BDF80A20120192B2AB
:1014C80013439BB222881A432280DDF800E008B05B
:1014D800704700BF00401C466C320000B432000068
:100E4C0081B0028802F0C00292B2920992B290B2C2
:100E5C000AB900200EE0012802D10A68104609E008
:100E6C00022802D0032800D004E001F20C02126820
:080E7C001046FFE701B07047CA
:100FB80082B08DED010A9DED010AB5EEC00AF1EE91
:100FC80010FA0ADBDDED010AB7EE000AF4EEC00AFA
:100FD800F1EE10FA01DA012100E0002189B9DDED16
:100FE800010ABFEE000AF4EEC00AF1EE10FA07DDBE
:100FF8009DED010AB5EEC00AF1EE10FA00DC00E042
:1010080008E04FF0000100EE101A00ED000A9DED17
:10101800010A23E001A90968C90D01F0FF017F3920
:1010280089B2182908D99DED010A00ED000A4FF090
:10103800000100EE101A11E09DED010ABDEE400A14
:1010480010EE101A00EE101AB8EEC00A00ED000AF1
:1010580050ED000A9DED010A30EE600A02B07047BB
:1013280081B002884FF6FE7102EA0101018001B026
:021338007047FC
:101EF40081B0CDF800E0FFF777FC044A04490A609A
:101F04000020DDF800E001B0704700BF4D1800006C
:041F14003400002075
:1017EC0081B0CDF800E084460B4A0C490A600C4AE3
:1017FC000C490A600C4A0D490A600D4A0D490A60F1
:10180C000D48FFF7A5FC61460C48FFF727FFDDF8F4
:10181C0000E001B0704700BF4D1800009C00002094
:10182C00FFFFFFFFA0000020FFFFFFFFA400002030
:10183C00FFFFFFFFA80000209C2E000000140040BA
:101ED00081B0CDF800E0FFF72DFE044A04490A6006
:101EE0000020DDF800E001B0704700BF811800005D
:041EF000340000209A
:101B340081B0CDF800E084460B4A0C490A600C4A97
:101B44000C490A600C4A0D490A600D4A0D490A60A5
:101B54000D48FFF701FB61460C48FFF783FDDDF8F4
:101B640000E001B0704700BF811800009C00002015
:101B7400FFFFFFFFA0000020FFFFFFFFA4000020E5
:101B8400FFFFFFFFA80000205430000000100040B9
:102B600081B0CDF800E03A220B490C48FFF7D4FDC4
:102B700048F67D57C0F25B0700BF00BF7F1EFDD146
:102B800000BF00BF00BFFFF7D9FD0320FFF766FAC3
:102B9000DDF800E001B07047F42B00000C320000BB
:1027180081B0CDF800E00446054B1A700846FFF773
:1027280091FB2046FFF754FADDF800E001B070474E
:042738001B00002062
:101E4C00026803490A60011D0A6802490A6070476A
:081E5C00380000207000002096
:021BD800704754
:10273C0082B0CDF800E040F2EE20FFF7CDFA012098
:10274C00FFF786FC42F20C40FFF746FC00EE100A45
:10275C00B8EE400A8DED010AFAEE000AB0EE000A5E
:10276C00FFF7D4FBDDED010A20EE800A8F4800ED67
:10277C00000A42F20E40FFF72FFC00EE100AB8EEF2
:10278C00400A8DED010AFBEE040AB0EE000AFFF7D9
:10279C00BDFBDDED010A20EE800A854800ED000A44
:1027AC0042F21040FFF718FC00EE100AB8EE400A97
:1027BC008DED010A7F4800EE900AB0EE000AFFF79B
:1027CC00A5FBDDED010A20EE800A7B4800ED000A36
:1027DC0042F21240FFF700FC00EE100AB8EE400A7D
:1027EC008DED010AFAEE000AB0EE000AFFF78EFB3F
:1027FC00DDED010A20EE800A704800ED000A42F27D
:10280C002440FFF7E9FB00EE100AB8EE400A8DED0C
:10281C00010AFBEE000AB0EE000AFFF777FBDDEDD4
:10282C00010A20EE800A664800ED000A42F22640BA
:10283C00FFF7D2FB00EE100AB8EE400A8DED010A4C
:10284C00FAEE000AB0EE000AFFF760FBDDED010ABC
:10285C0020EE800A5B4800ED000A42F22840FFF7A8
:10286C00BBFB00EE100AB8EE400A8DED010A56488B
:10287C0000EE900AB0EE000AFFF748FBDDED010A0E
:10288C0020EE800A514800ED000A42F22A40FFF780
:10289C00A3FB00EE100AB8EE400A8DED010A4C487D
:1028AC0000EE900AB0EE000AFFF730FBDDED010AF6
:1028BC0020EE800A474800ED000A42F22C40FFF758
:1028CC008BFB00EE100AB8EE400A8DED010A404871
:1028DC0000EE900AB0EE000AFFF718FBDDED010ADE
:1028EC0020EE800A3C4800ED000A42F22E40FEF732
:1028FC00A7FC00EE100AB8EE400A8DED010AFAEEC4
:10290C00040AB0EE000AFFF701FBDDED010A20EE30
:10291C00800A324800ED000A42F22F40FEF790FC8C
:10292C0000EE100AB8EE400A8DED010AFAEE040A28
:10293C00B0EE000AFFF7EAFADDED010A20EE800A9C
:10294C00274800ED000A42F28140FEF779FC00EEC8
:10295C00100AB8EE400A8DED010AFAEE0C0AB0EE40
:10296C00000AFFF7D3FADDED010A20EE800A1D48BC
:10297C0000ED000A42F28240FEF762FC00EE100A03
:10298C00B8EE400A8DED010AFAEE0C0AB0EE000A20
:10299C00FFF7BCFADDED010A20EE800A124800EDCB
:1029AC00000ADDF800E002B0704700BF3C000020D8
:1029BC0040000020000030C24400002048000020ED
:1029CC004C00002050000020000038C254000020B1
:1029DC00000010C2580000205C00002060000020A5
:0C29EC0064000020680000206C00002047
:101CE40083B0CDF800E0ADF8080040F20001ADF893
:101CF4000410FFF703FF68B1FFF748FEBDF80410B6
:101D04004A1C92B2ADF80420BDF808108A4200D9EA
:0C1D140000E0EEE7DDF800E003B07047EF
:101B000081B0CDF800E0FFF7F5FD00F40070C0B241
:081B1000DDF800E001B07047B0
:1016F40081B0CDF800E043F6FF70FFF7A5FDDDF8FB
:0617040000E001B0704797
:10124C0082B0CDF800E001AA00F47F4189B2090A0E
:10125C001170521C00F0FF011170FFF7B3FC01AAD2
:10126C00104909780023C8B211460222FFF796FCF8
:10127C000DF106020B4909780123C8B2114602226E
:10128C00FFF77AFC0DF106031978C8B2020292B28C
:10129C00591C097842EA010188B2DDF800E002B07D
:0812AC00704700BF1B00002089
:080BD00040F2000000B2704782
:100BA80082B0CDF800E040F20004ADF80440054CF6
:100BB8002468A047BDF90440044320B2DDF800E0F2
:080BC80002B070473800002064
:100A140081B0CDF800E008B413460A46C1B20448D8
:100A2400FFF7F2FE01B0DDF800E001B0704700BF4F
:040A3400002000405E
:10080C0087B0CDF800E08DF8041001469DF8040087
:10081C0005920693079C07944C4CA1420AD14C4D6F
:10082C002C6803942C46246804944A4C25684A4C42
:10083C00256028E0494CA1420AD1494D2C6803940B
:10084C002C4624680494474C2568434C25601AE0D8
:10085C00454CA1420AD1454D2C6803942C46246882
:10086C000494434C25683C4C25600CE0414CA1425F
:10087C0009D1414D2C6803942C46246804943F4CB8
:10088C002568354C256001910291C1B20298FFF7A1
:10089C000FFD01993A4C247854B901910846012175
:1008AC00FFF7BCFD019908B101204BE00D461FE09C
:1008BC0001250C8865F304140C8008460588C5F3E3
:1008CC0080046CB1049C54B1039C2CB90720224CBD
:1008DC002468A047012035E0039C641E0394EDE7D7
:1008EC00048844F0020404800025254C257005463C
:1008FC0000262A463146069CA14214D2059C641857
:10090C00247801920291E1B21046FFF7FFFC0299A4
:10091C00019A20B11046FFF7E7FC012012E04C1CB5
:10092C0026463146E7E7079C012C07D11046FFF716
:10093C00DBFC002801D0012004E002E00125104C72
:10094C0025700020DDF800E007B070470020004063
:10095C001C000020780000207400002000240040BF
:10096C00200000207C0000200028004024000020F3
:10097C0080000020002C0040280000208400002073
:04098C001A0000202D
:0C025C0001490870704700BF608809422B
:0C02500001490870704700BF588809423F
:0C02440001490870704700BF4088094263
:0C02680001490870704700BF5480094233
:0C028C0001490870704700BF5C80094207
:0C02800001490870704700BF5880094217
:0C02740001490870704700BF7C800942FF
:0C02080001490870704700BF7080094277
:0C01FC0001490870704700BF48840942A8
:0C01F00001490870704700BF4C840942B0
:0C02140001490870704700BF748809425F
:0C02380001490870704700BF708809423F
:0C022C0001490870704700BF6C84094253
:0C02200001490870704700BF7C8809424B
:0C05980001490870704700BF4888094204
:0C058C0001490870704700BF548009420C
:0C05800001490870704700BF5C80094210
:0C05A40001490870704700BF58800942F0
:0C05C80001490870704700BF78800942AC
:0C05BC0001490870704700BF78880942B0
:0C05B00001490870704700BF68800942D4
:0C02B00001490870704700BF6C800942D3
:0C02A40001490870704700BF74880942CF
:0C02980001490870704700BF70880942DF
:1002BC0081B000F2140212888A420FD000F21602AA
:1002CC0012888A420AD000F2180212888A4205D09B
:1002DC0000F21A0212888A4200D000E002E000F21A
:0802EC002002118001B07047EF
:1004280085B0CDF800E0CCB20146464A91420AD1E7
:10043800454B1A6803921A4612680492434A136895
:10044800434A136028E0434A91420AD1424B1A6852
:1004580003921A4612680492404A13683C4A136091
:100468001AE03F4A91420AD13E4B1A6803921A4653
:10047800126804923C4A1368354A13600CE03B4A00
:10048800914209D13A4B1A6803921A4612680492AB
:10049800384A13682E4A13608DF8044002910846C2
:1004A800FFF736FE02999DF8044008B1012044E0A8
:1004B800E3B20A8863F304120A800A8842F002024F
:1004C8000A80012C1CD1084600F22C021388C3F3C1
:1004D80040026AB9049A52B1039A2AB906201C4C00
:1004E8002468A047012028E0039A521E0392EBE7F4
:1004F80000F22C040023228863F3410222801BE0CF
:10050800084600F22C021388C3F300026AB9049A61
:1005180052B1039A2AB906200D4C2468A04701203D
:100528000BE0039A521E0392EBE700F22C0400231F
:10053800228863F3000222800020DDF800E005B085
:10054800704700BF002000401C00002078000020F9
:100558007400002000240040200000207C000020BF
:10056800002800402400002080000020002C0040CB
:0805780028000020840000208F
:1001180083B0CDF800E0274988420AD1264A116801
:10012800019111460968029124490A6824490A6024
:1001380028E0244988420AD1234A116801911146CE
:100148000968029121490A681D490A601AE0204994
:1001580088420AD11F4A1168019111460968029123
:100168001D490A6816490A600CE01C49884209D1F1
:100178001B4A1168019111460968029119490A68D8
:100188000F490A6003461846FFF7B6FF68B9029997
:1001980051B1019929B90520094C2468A0470120CB
:1001A80004E00199491E0191EDE70020DDF800E027
:1001B80003B07047002000401C0000207800002099
:1001C8007400002000240040200000207C00002053
:1001D800002800402400002080000020002C00405F
:0801E800280000208400002023
:1001000081B000F208010A88C2F3001181F00101F8
:08011000C9B2C8B201B070478A
:1003180083B0CDF800E0354A90420AD1344B1A68D0
:1003280001921A4612680292324A1368324A1360DE
:1003380028E0324A90420AD1314B1A6801921A4693
:10034800126802922F4A13682B4A13601AE02E4A49
:1003580090420AD12D4B1A6801921A4612680292ED
:100368002B4A1368244A13600CE02A4A904209D1A8
:10037800294B1A6801921A4612680292274A136892
:100388001D4A136000F22C021388C3F3401232B1E5
:1003980000F22C040023228863F34512228000F225
:1003A8000E02118000F22C021388C3F340026AB9CE
:1003B800029A52B1019A2AB904200F4C2468A04726
:1003C80001200FE0019A521E0192EBE700F22C0483
:1003D8000023228863F34102228000F22C02138852
:1003E800C3F34010DDF800E003B070470020004080
:1003F8001C00002078000020740000200024004029
:10040800200000207C00002000280040240000205C
:1004180080000020002C00402800002084000020DC
:1002F40081B0CDF800E00122018862F3820101801F
:10030400FFF708FF08B1012000E00020DDF800E05D
:0403140001B070477D
:1009C40081B0CDF800E008B413460A46C1B2044829
:1009D400FFF71AFF01B0DDF800E001B0704700BF77
:0409E40000240040AB
:1009A00081B0CDF800E008B413460A46C1B204484D
:1009B000FFF72CFF01B0DDF800E001B0704700BF89
:0409C00000280040CB
:100B600081B0CDF800E008B413460A46C1B204488B
:100B7000FFF74CFE01B0DDF800E001B0704700BFA8
:040B8000002C004005
:100B840082B0CDF800E040F20004ADF80440044C1B
:100B94002468A047BDF90400DDF800E002B0704706
:040BA40070000020BD
:100AF40081B0CDF800E008B413460A46C1B20448F8
:100B0400FFF766FD01B0DDF800E001B0704700BFFB
:040B1400002000407D
:1005D40087B0CDF800E08DF8041001469DF80400C2
:1005E400079E7B4CA1420AD17A4D2C6805942C4677
:1005F40024680694784C2568784C256028E0784C6B
:10060400A1420AD1774D2C6805942C46246806949F
:10061400754C2568714C25601AE0744CA1420AD1CE
:10062400734D2C6805942C4624680694714C2568F7
:100634006A4C25600CE0704CA14209D16F4D2C68C6
:1006440005942C46246806946D4C2568634C2560FB
:10065400019202910391C1B20398FFF72DFE029912
:10066400019A684C24787CB9019602930392049110
:1006740008460021FFF7D6FE0499039A029B019EC7
:1006840000B1A0E0304661E000250C8865F3041455
:100694000C80012B39D130460D88C5F3800464B138
:1006A400069C4CB1059C24B907204C4C2468A047F7
:1006B40089E0059C641E0594EEE7069C05940C886D
:1006C40044F002040C80019111461A460346019835
:1006D4000588C5F3400464B1069C4CB1059C24B95B
:1006E40006203E4C2468A0476DE0059C641E0594DA
:1006F400EEE7069C0594048844F004040480019207
:100704000A4601461846019B1DE001930B463046FC
:1007140001991D88C5F3800464B1069C4CB1059C05
:1007240024B907202D4C2468A0474CE0059C641E86
:100734000594EEE7069C05941C8844F002041C8092
:1007440001930B46019900252E4C25705C1E23460F
:1007540001931346019A002A31DB01F22C04258807
:10076400C5F3000464B9069C4CB1059C24B903206C
:100774001A4C2468A04726E0059C641E0594ECE707
:1007840016E001F20C0424881C705B1C15E00125A2
:100794000C8865F382040C8001F20C0424881C701C
:1007A4005B1C0AE001F20C0424881C705B1C04E04E
:1007B400002AE6D0012AEAD0F4E7521ECBE710B9AA
:1007C4000125104C2570DDF800E007B0704700BF2C
:1007D400002000401C00002078000020740000204D
:1007E40000240040200000207C000020002800405D
:1007F4002400002080000020002C0040280000205D
:08080400840000201A0000200E
:100AD00081B0CDF800E008B413460A46C1B204481C
:100AE000FFF778FD01B0DDF800E001B0704700BF0E
:040AF000002400409E
:100B3C0081B0CDF800E008B413460A46C1B20448AF
:100B4C00FFF742FD01B0DDF800E001B0704700BFD7
:040B5C00002800402D
:100B180081B0CDF800E008B413460A46C1B20448D3
:100B2800FFF754FD01B0DDF800E001B0704700BFE9
:040B3800002C00404D
:1019900042F6DD67C0F2000700BF00BF7F1EFDD129
:0819A00000BF00BF00BF70474B
:10205C0082B0CDF800E08DF8040043F20100FFF7E8
:10206C00EFF84FF6F97100EA010292B29DF80410F4
:10207C00490089B242EA010143F20100FFF78EFCEC
:08208C00DDF800E002B070472E
:1019A80082B0CDF800E00DF1060301F47F4292B257
:1019B800120A1A705B1C01F0FF021A7001AB00F4E6
:1019C8007F4292B2120A1A705B1C00F0FF021A7072
:1019D800FFF7FAF801AB0B4A127819460023D0B288
:1019E8000222FFF7DDF80DF10603064A12781946C0
:1019F8000123D0B20222FFF7D3F8DDF800E002B0ED
:081A0800704700BF1B00002025
:101FE40083B0CDF800E001AA00F47F4189B2090A68
:101FF4001170521C00F0FF011170FEF7E7FD01AAF9
:10200400144909780023C8B211460222FEF7CAFD1A
:102014000DF106020F4909780123C8B211460422C2
:10202400FEF7AEFD0DF10603991C0978C8B2020251
:10203400D91C097842EA01010A02197842EA01012D
:102044000A02591C097842EA01010846DDF800E059
:0820540003B070471B000020DF
:101F180082B0CDF800E0F0EE402AB0EE602A002052
:101F2800B5EEC02AF1EE10FA02D1B7EE000A3EE093
:101F3800F5EEC02AF1EE10FA04D14FF0000200EEDF
:101F4800102A34E0F5EEC02AF1EE10FA1BDABDEEE5
:101F5800420A10EE102A104600EE102AB8EEC00A07
:101F6800B4EEC20AF1EE10FA04D04FF0000200EE0F
:101F7800102A1CE000F00102D0B2F1EE620AC5B2EC
:101F8800B0EE600A05E08DF80400B0EE620A9DF834
:101F98000450FFF739FD20EE020AFFF77BFCF0EE54
:101FA800400A15B1B1EE600A01E0B0EE600ADDF852
:061FB80000E002B07047DA
:101A100082B0CDF800E0B5EEC00AF1EE10FA04DCB9
:101A20004FF0000100EE101A23E001A90846FFF76D
:101A300005FEF0EE000A60EE200AB7EE000A30EE76
:101A4000C00ABDF90410491EADF8041040F20801A7
:101A500009B20A48FFF7D2FDBDF9041001EE101AD1
:101A6000B8EEC11A064900EE901A60EE810A30EE17
:101A7000200ADDF800E002B0704700BF58330000D4
:041A80001872313F68
:10163C0082B08DED010ABDF80610C1F3C7117E39D9
:10164C0009B201807E22BDF8061062F3CE11ADF80E
:0A165C0006109DED010A02B0704770
:1015FC0081B0F0EE400A8A00821812ED000AB0EEBB
:10160C00401AB0EE410AB0EE601A79B161EE000AF0
:10161C004A1E12B211B29200821812ED000A30EE7C
:10162C00800A0DED000A1DED000AEEE701B07047CF
:10189C0081B0CDF800E0F0EE401AF5EEC01AF1EE92
:1018AC0010FA02D1B7EE000A5DE0314900EE101AD1
:1018BC00F4EEC01AF1EE10FA03DD2E4900EE101A08
:1018CC0051E02D4900EE101AF4EEC01AF1EE10FAA8
:1018DC0004DA4FF0000100EE101A44E0F5EEC01AE5
:1018EC00F1EE10FA40F2000100DA0121CBB2C9B2DC
:1018FC0011B1F1EE610A01E0F0EE610A1F4900EE50
:10190C00101A20EE800AF0EE401AFFF7F9FEBDEE39
:10191C00400A10EE101A09B20CB200EE101AB8EE12
:10192C00C00A31EEC00A40F2090109B21448FFF7AF
:10193C005FFE20B2FFF724FFF0EE400A8BB10D4999
:10194C0000EE101AF4EEC00AF1EE10FA04D14FF0CA
:10195C00000100EE101A06E0B7EE000A80EE200A35
:10196C0001E0B0EE600ADDF800E001B0704700BFA6
:10197C00FED4B242FFFF7F7F50ACAEC23BAAB83F51
:04198C0030330000F4
:10170C0082B08DED010A01A90968C90D01F0FF0134
:10171C0009B27F3909B208B200290EDA9DED010A2F
:10172C00B5EEC00AF1EE10FA02DABFEE000A24E0C0
:10173C004FF0000100EE101A1FE081B2182902D9F7
:10174C009DED010A19E09DED010ABDEE400A10EE77
:10175C00101A00EE901AF8EEE00AB0EE601A9DED49
:10176C00010AF4EEC00AF1EE10FA04DDB7EE000A3D
:0E177C0031EE400A01E0B0EE410A02B07047C3
:10178C0082B08DED010ABDF80610C1F3C7114118E6
:10179C0008B209B2002904DA4FF0000100EE101A69
:1017AC0019E0B0F1FF0F0DDDB5EEC00AF1EE10FA45
:1017BC0004DA6FF4000100EE101A0CE0074900EE99
:1017CC00101A08E082B2BDF8061062F3CE11ADF823
:1017DC0006109DED010A02B0704700BFFFFF7F7F2E
:102C400095B0CDF800E00DF11F0B0BF1310ADFF864
:102C500098C0FFF77BFFFFF7CFFE0DF11F008DED52
:102C6000010A0121FFF73AFF9DED010A02A8149025
:102C700010EE100AFFF71CFA149A00EE100A00EE8C
:102C8000901A1046FFF734FA02A80221FFF726FF38
:102C9000FFF7C4FB0EA88DED010A0121FFF71EFF0F
:102CA0009DED010A02A8149010EE100AFFF700FA39
:102CB000149A00EE100A00EE901A1046FFF718FA68
:102CC00002A80221FFF70AFF43F2FD57C0F26E1778
:102CD00000BF00BF7F1EFDD100BF00BF00BFDDF8F9
:0C2CE00000E015B0704700BFFC3200009F
:1029F80083B0CDF800E0FFF715FA032801D0FFF700
:102A0800BBF9FFF789F940F2EE20FFF797F944F296
:102A18000500FEF717FC01B2ADF8041044F20800F7
:102A2800FEF710FCBDF9041001EE101AB8EEC11A39
:102A3800B2EE080AC1EE000A214911ED000A60EE63
:102A4800200A00EE100AB8EEC00A70EE200AB2EEB4
:102A5800080A81EE000A80EE200A8DED020AF3EEE4
:102A6800030AB0EE000AFFF753FADDED020A60EE42
:102A7800800A144810ED000A30EEC01A124810ED12
:102A8800000AC1EE000A114810ED000A30EE200AD3
:102A98008DED020AF0EE000AB0EE410AFFF738FAAF
:102AA8000B4850ED000A60EE800A9DED020A30EEF8
:102AB800200AB0EE400ADDF800E003B0704700BF1E
:102AC800600000203C00002040000020480000205A
:042AD8004400002096
:101E2C0081B0CDF800E043F20100FFF709FA400859
:101E3C0080B200F00300C0B2DDF800E001B07047E2
:101D800081B0CDF800E043F20100FFF75FFA40F0C8
:101D9000080081B243F20100FFF706FEDDF800E023
:041DA00001B07047D7
:101D200081B0CDF800E0FFF7E5FC4FF6FE7108400A
:101D300081B243F6FF70FFF737FEDDF800E001B037
:021D40007047EA
:101D440083B0CDF800E0ADF8080040F20001ADF832
:101D54000410FFF787FD68B9FFF718FEBDF80410FB
:101D64004A1C92B2ADF80420BDF808108A4200D98A
:0C1D740000E0EEE7DDF800E003B070478F
:1018680081B0CDF800E0FFF741FF00F00100C0B201
:08187800DDF800E001B070474B
:102ADC0083B0CDF800E0024610460D228DF8082098
:102AEC000A228DF809201FE0FFF7DCF923E00278B9
:102AFC002AB10190FFF7D6F90198401CF7E71AE0CC
:102B0C0002782AB10190FFF7CDF90198401CF7E744
:102B1C0002AA1046FFF7C6F90DF109021046FFF79D
:102B2C00C1F908E0062007E00029DDD00129DED03C
:102B3C000229E5D0F6E70020DDF800E003B070478D
:101EB00081B0CDF800E00178CCB2A0B2034C246828
:101EC000A0470020DDF800E001B07047340000209A
:1018800081B0CDF800E081B20348FFF71FFFDDF81B
:0C18900000E001B0704700BF00100040F5
:1016CC0081B0ADF800100146BDF8000001F20A022D
:1016DC00128802F0010292B202B1F7E701F20E0297
:0616EC00108001B0704700
:10184C0081B0CDF800E081B20348FFF739FFDDF835
:0C185C0000E001B0704700BF0014004025
:101B180081B0CDF800E081B20348FFF7D3FDDDF8CE
:0C1B280000E001B0704700BF0018004052
:101A840081B0CDF800E081B20348FFF71DFEDDF818
:0C1A940000E001B0704700BF001C0040E3
:1020B00081B004B54200120E0DD0FF2A0ED002F5F9
:1020C0006072C10F42EAC122014648074902090B6A
:1020D00041EA025108E00021002005E04FF0000035
:1020E000C90DC900C91D0905BDE8044001B070470C
:1020F00083B0CDF800E010EE102A10EE903A0446BE
:10210000002040F2000109B2CDE90123DDE90123FD
:1021100092F0FF3201D193F0FF3206D1B74A114657
:102120002046FFF79FFE032064E101279DF80B3056
:10213000C3F3C0125AB19DF80B206FF3C7128DF88C
:102140000B207F1CBFB22D222270661C00E02646A9
:10215000DDE9012392F0000201D193F0000206D1E3
:10216000A74A11463046FFF77DFE002042E1DDE937
:1021700001454FF00002A34B94EA020201D195EA17
:10218000030206D1A04A11463046FFF76BFEF8B2B3
:1021900030E15FFA80FA0FFA81F9B3469DED011B39
:1021A0004FF00002994B00EE102A00EE903A11EE2B
:1021B000102A11EE903A10EE100A10EE901AFFF766
:1021C000F1FD40F2000000DD0120C8B19DED011BD2
:1021D0004FF000028E4B00EE102A00EE903A11EE06
:1021E000100A11EE901A10EE102A10EE903AFFF736
:1021F000F5FCCDE90101A9F101090FFA89F9CDE753
:102200009DED011B4FF00002814B00EE102A00EE05
:10221000903A11EE102A11EE903A10EE100A10EEDC
:10222000901AFFF7BFFD40F2000000DC0120C0B1B2
:102230009DED011B774A784B00EE102A00EE903A94
:1022400011EE100A11EE901A10EE102A10EE903ACC
:10225000FFF7C4FCCDE9010109F101090FFA89F981
:10226000CEE7029AC2F30A52A2F2FF3290B201AA5A
:10227000D31D01221A700123029A63F31E520292A7
:10228000DDE901452B01220F13432201CDE9012392
:1022900086B20027DDE90145B6F1200209D5C6F175
:1022A000200224FA02F205FA06F3134304FA06F2B6
:1022B00002E004FA02F30022CDE9012301AAD21DB3
:1022C000127830328BF800200BF10100B9F1010FC8
:1022D00006DBB9F1060F03DC07465FFA8AF103E07B
:1022E0002E220270471C012140F20F000FFA89F6DE
:1022F00078B301AAD31D00221A70DDE901239D00E5
:10230000940F25439400DDE9012312196B41CDE9B7
:102310000123DDE901456B00E20F13436200CDE9C3
:10232000012301AAD21D127830323A707A1C144669
:1023300059B9721E12B213B222B92E222270671C32
:10234000012100E027461EB200E02746401E80B271
:10235000CEE7394630B24A1E1278302A01D1491EE2
:10236000F9E74A1E12782E2A01D1491EFFE70028FC
:102370003CD065220A70491C002805DA2D220A701B
:10238000491C43421BB200E003B298B29AB2632ADE
:1023900015D96422B0FBF2F292B230320A704D1CB1
:1023A00029460A22B0FBF2F4A4B20A23B4FBF3F2EA
:1023B00003FB124292B230322A70491CFFE709280F
:1023C00009D9632808D20A22B0FBF2F292B2303265
:1023D0000A70491CFFE7FFE70A23B0FBF3F203FB97
:1023E000120292B230320A70481C00E00846002205
:1023F00002700020DDF800E003B0704710000020FC
:10240000140000200000F07F160000200000F03FC4
:0C241000000024409A9999999999B93FCD
:101E640081B00091014600980B461C465A1C154649
:101E74000346421C10461A78227022780AB12B4677
:081E8400F3E7084601B07047C6
:101DA40081B010B5994201D190422FD050EA02047B
:101DB40004D141EA03046400002C27D050EA410412
:101DC40001D19C4222E04C006415641C07D15C00E4
:101DD4006415641C03D1DC0FB4EBD13416E0002B82
:101DE4000AD4002912D4994210D190EA020401D4F1
:101DF40090420BE0002A09E0002907DC8B4205D160
:101E040090EA020401D4824200E00028EFF3008447
:101E140054BF44F0005424F0005484F30088BDE817
:061E2400104001B0704700
:101BDC0081B02DE9FC4191EA03084CBF4FF000485D
:101BEC004FF000084FEAC32545EA52554FEAC2268A
:101BFC004FEA43077F0D11BF45F000454FF0000140
:101C0C004FF0000063E05FF4E06E1EF1FF0E7745CD
:101C1C0056D04FEAC12343EA50534FEAC0224FEA51
:101C2C004104640D11BF43F000434FF000014FF02D
:101C3C0000004CE0744543D0E419A3FB0501A3FB61
:101C4C0006E7A2FB06631EEB030E57F1000751F1EA
:101C5C000001A2FB05631EEB060E57F1000751F1C4
:101C6C000001FF1851F10001C01951F100014CBFE6
:101C7C004FF4806E4FF4007E10EB0E0051F100011A
:101C8C0048BF641C01D4400049415FF44077FF37E2
:101C9C00E41BDEBF4FF000014FF0000017E017F51A
:101CAC008067BC420CD24FEAD02040EA41504FEA48
:101CBC0041014FEA113141EA045141EA080106E0C1
:101CCC000020FF21C900C91D090551EA0801BDE822
:061CDC00FC4101B070475D
:10241C0085B0CDF800E0FFF703FD032801D0FFF7EE
:10242C00A9FCFFF777FC40F2EE20FFF785FC00F0EB
:10243C00DDFA44F20500FEF703FFADF8080044F2A4
:10244C000800FEF7FDFEADF80A00FFF71DFEC1B255
:10245C0001280CD144F20300FEF7F2FEADF80400A3
:10246C0044F20400FEF7ECFEADF806001AE0022977
:10247C000CD144F20600FEF7E3FEADF8040044F282
:10248C000700FEF7DDFEADF806000BE044F203009A
:10249C00FEF7D6FEADF8040044F20400FEF7D0FEC1
:1024AC00ADF8060040F2000A5FFA8AF6032E80F0BF
:1024BC00D180BDF9080001EE100AB8EEC11AB2EED7
:1024CC00080AC1EE000A674810ED000A60EE200A07
:1024DC00BDF90A0000EE100AB8EEC00A70EE200A30
:1024EC00B2EE080A81EE000A80EE200A8DED040A95
:1024FC00F3EE030AB0EE000AFFF708FDDDED040A67
:10250C0060EE800AF0EE603A574810ED000A30EEAB
:10251C00C00AF0EE000AFFF7F9FCBDF90610BDF990
:10252C000400401800B200EE900AF8EEE00AB0EE9B
:10253C00000A80EE801ABDF9080000EE900AF8EE51
:10254C00E00AB2EE080AC0EE800A484810ED000A14
:10255C0060EE200ABDF90A0000EE100AB8EEC00ABF
:10256C0070EE200AB2EE080A81EE000A80EE200A14
:10257C008DED040AF3EE030AB0EE000AFFF7C6FC79
:10258C00DDED040A20EE803A394810ED000A73EEB6
:10259C00C00A384810ED000AC0EE800AB3EE090AF2
:1025AC0070EE802A344800EE100A32EE802A33484E
:1025BC0050ED000A324810ED000A60EE200A314856
:1025CC0010ED000A60EE801A2F4850ED000A2F48DB
:1025DC0010ED000A70EE600A2D4810ED000A60EE56
:1025EC00200AB7EE000A30EE201A2A4810ED000A35
:1025FC0072EEC00A284810ED000A20EE200A31EED7
:10260C00000A21EE800A83EE000A8DED040AF1EE39
:10261C00000AB0EE420AFFF779FCDDED040A30EE59
:10262C00800AF5EE000AB0EE400AFFF76FFC124884
:10263C0000EE900A70EE600A184810ED000A30EEB9
:10264C00C00A114800ED000A701C5FFA80FA5FFAAC
:10265C008AF62BE70C4810ED000ADDF800E005B017
:10266C00704700BF600000203C0000206400002088
:10267C00500000204C00002033938843540000206D
:10268C00000000206800002008000020040000204A
:10269C005C0000200C000020580000206C00002082
:1020940081B0CDF800E0FFF72BFB00F07C0080B2AC
:0C20A4008008C0B2DDF800E001B0704719
:102D340083B0CDF800E0374B374C384D384E394F1F
:102D4400394845F680213948018004F007000528F8
:102D540004D004F07000502800D00BE0012252B2DD
:102D640033480280002149B232480180324802804F
:102D740032480180802132480160019502961E4646
:102D840025463A46029B019C2E48006800F4807058
:102D940000B1F9E72C492D480160019511463246EE
:102DA4001D46019B2748006800F4807000B1F9E7D4
:102DB40027480160274801602749284801602848BE
:102DC400026028480360200D00F0070028B944F091
:102DD4000301254801602A4610E044F4803040F0A5
:102DE4000301214801602A462048006830B1FFF7FA
:102DF400D5FE012149B21E480160F5E700211748BC
:102E0400016042F4B44109480180DDF800E003B0F8
:102E1400704700BF000005003300000003000100FC
:102E2400840000000010000080BB00000C4800403B
:102E34004CA509428CA5094248A5094288A5094226
:102E4400143004E00400014001005A69000001400C
:102E540010100140141001405A69000000040140A0
:102E640004040140080401400C0401400489204288
:042E7400048A20426A
:102BA00040F20907C0F2000700BF00BF7F1EFDD141
:082BB00000BF00BF00BF704729
:102D200081B002490248016001B0704780BB0000D9
:042D300090000020EF
:082CEC0081B0FEE701B0704762
:102CF40081B04EF68850CEF20000016841F47001B4
:102D0400016000BF00BF00BF00BFF1EE100A40F435
:0A2D14004000E1EE100A01B0704724
:1033B00000B5DFF824B0DFF824A0DFF824C0FFF761
:1033C000C5FBDFF820B0DFF820A0DFF820C0FFF752
:1033D000BDFB00BD704700BF000000201B000020A7
:1033E0007C3300001C0000203400002098330000D3
:10344C0000B5DFF810B0DFF810A0FFF7AFFB00BD40
:0C345C00704700BF00000020AC00002002
:082BF400C5090000D10A000030
:042BFC00A0860100AE
:102E9C00004C00400004050500000000004C004000
:102EAC000008050500000000000000000000000004
:102EBC000000000000000000000000000000000006
:102ECC0000000000000000000000000000000000F6
:102EDC0000000000000000000000000000000000E6
:102EEC0000000000000000000000000000000000D6
:102EFC0000000000000000000000000000000000C6
:102F0C0000000000000000000000000000000000B5
:102F1C0000000000000000000000000000000000A5
:102F2C000000000000000000000000000000000095
:102F3C000000000000000000000000000000000085
:102F4C000000000000000000000000000000000075
:102F5C000000000000000000000000000000000065
:0C2F6C0000000000000000000200000057
:102F7800204C00400400050500000000204C0040E3
:102F88000800050500000000000000000000000027
:102F98000000000000000000000000000000000029
:102FA8000000000000000000000000000000000019
:102FB8000000000000000000000000000000000009
:102FC80000000000000000000000000000000000F9
:102FD80000000000000000000000000000000000E9
:102FE80000000000000000000000000000000000D9
:102FF80000000000000000000000000000000000C9
:1030080000000000000000000000000000000000B8
:1030180000000000000000000000000000000000A8
:103028000000000000000000000000000000000098
:103038000000000000000000000000000000000088
:0C3048000000000000000000020000007A
:10305400004C00400400050500000000004C004046
:10306400080005050000000000000000000000004A
:10307400000000000000000000000000000000004C
:10308400000000000000000000000000000000003C
:10309400000000000000000000000000000000002C
:1030A400000000000000000000000000000000001C
:1030B400000000000000000000000000000000000C
:1030C40000000000000000000000000000000000FC
:1030D40000000000000000000000000000000000EC
:1030E40000000000000000000000000000000000DC
:1030F40000000000000000000000000000000000CC
:1031040000000000000000000000000000000000BB
:1031140000000000000000000000000000000000AB
:0C3124000000000000000000020000009D
:10313000404C00400010000500000000404C0040E2
:10314000002000050000000000000000000000005A
:10315000000000000000000000000000000000006F
:10316000000000000000000000000000000000005F
:10317000000000000000000000000000000000004F
:10318000000000000000000000000000000000003F
:10319000000000000000000000000000000000002F
:1031A000000000000000000000000000000000001F
:1031B000000000000000000000000000000000000F
:1031C00000000000000000000000000000000000FF
:1031D00000000000000000000000000000000000EF
:1031E00000000000000000000000000000000000DF
:1031F00000000000000000000000000000000000CF
:0C320000000000000000000002000000C0
:10320C005D0200005102000045020000690200004E
:10321C008D0200008102000075020000090200000E
:10322C00FD010000F1010000150200003902000050
:10323C00FFFFFFFFFFFFFFFFFFFFFFFFFFFFFFFF92
:10324C00FFFFFFFFFFFFFFFFFFFFFFFFFFFFFFFF82
:10325C00FFFFFFFFFFFFFFFFFFFFFFFFFFFFFFFF72
:10326C0000001102CB024303E903E4049605860631
:10327C006308B008C709B80B070DF70DA90EA30F0B
:10328C00BE101A118A13531673176E1820190B1AC5
:10329C00591BEB1B4F1DB51E441F8D2010217C218B
:0832AC002F222C23D223482419
:1032B40000000100020004000800100020001100BA
:1032C400210022004400250049004A0052009200D7
:1032D40053005500AA006B00AD00B500B600D6003F
:1032E400B700BB00DD00ED00EE00BF00DF00EF0023
:0832F400F700FB00FD00FE00E5
:1032FC00414D4249454E542054454D504552415440
:10330C005552452049533A20004F424A45435420D8
:10331C0054454D50455241545552452049533A203D
:01332C0000A0
:103330000000803F1872313FF0FD753E4758633DF5
:1033400058951D3C82C4AE3AA8782139EF93803756
:08335000A092A7354656153482
:10335800FFE6DB2EC4FF7F3F80EFFFBE90E1A93E72
:10336800EC8276BE82AD2B3E0E3CC3BD87D1133DA9
:043378004178D3BB0A
:04337C000000803F8E
:043380000000C84140
:043384000000C8413C
:043388000000C84138
:04338C004E614E0040
:0233900030000B
:04339200494E46005A
:013396000036
:043398000000000031
:04339C00000000002D
:0433A0000000000029
:0433A4000000000025
:0433A80010270000EA
:0433AC0000366E0178
:00000001FF
