:10000000FCFF02207D2D0000352D0000352D000065
:10001000352D0000352D0000352D0000352D000058
:10002000352D0000352D0000352D0000352D000048
:10003000352D0000352D0000352D0000352D000038
:10004000352D0000352D0000352D0000352D000028
:10005000352D0000352D0000352D0000352D000018
:10006000352D0000352D0000352D0000352D000008
:10007000352D0000352D0000352D0000352D0000F8
:10008000352D0000352D0000352D0000352D0000E8
:10009000352D0000352D0000352D0000352D0000D8
:1000A000352D0000352D0000352D0000352D0000C8
:1000B000352D0000352D0000352D0000352D0000B8
:1000C000352D0000352D0000352D0000352D0000A8
:1000D000352D0000352D0000352D0000352D000098
:1000E000352D0000352D0000352D0000352D000088
:1000F000352D0000352D0000352D0000352D000078
:10010000352D0000352D0000352D0000352D000067
:10011000352D0000352D0000352D0000352D000057
:10012000352D0000352D0000352D0000352D000047
:10013000352D0000352D0000352D0000352D000037
:10014000352D0000352D0000352D0000352D000027
:10015000352D0000352D0000352D0000352D000017
:10016000352D0000352D0000352D0000352D000007
:10017000352D0000352D0000352D0000352D0000F7
:10018000352D0000352D0000352D0000352D0000E7
:08019000352D0000352D0000A3
:102D7C0000F010F8FFF7DCFF00F01CFDFFF7EEFF92
:102D8C0000F0CAFCFFF732FFFFF74EFFFFF76CFFB6
:042D9C00FCE7FEE76B
:102D200081B01CF8019B0BF8019BBBEB0A0FF8D19B
:042D300001B0704737
:102BBC0081B04FF000094FF0000CBDEB0A0F04DCA4
:102BCC00BDEB0B0F01DBD446EA464BF8049BBBEB89
:102BDC000A0FFAD1BCEB0A0F05DDE246D9F800B0BA
:0A2BEC000BF1040BF1E701B0704794
:102BF80081B0CDF800E00C4801460020FFF782FDC7
:102C08004DF6C0210120FFF71DFC40F6FE07C0F27B
:102C18003D0700BF00BF7F1EFDD100BF00BF00BF42
:0C2C2800DDF800E001B07047203700002C
:10270C0081B0CDF800E009E00846FFF731FB0AE0A4
:10271C000846FFF7F5FC06E0012004E00028F3D0A2
:0E272C000128F5D0F8E7DDF800E001B07047B5
:101D7C0081B0CDF800E0016808460449FFF728FF60
:101D8C000020DDF800E001B0704700BF34350000E2
:101BDC0081B0CDF800E00A4601460348FFF786FCC9
:0C1BEC00DDF800E001B07047006006402A
:1014F8008AB0CDF800E0504B984210D100244F4BF1
:101508001C60012464B24E4B1C604E4C4E4B1C6058
:101518004E4C4F4B1C604F4C4F4B1C6026E04F4BC2
:10152800984210D100244E4B1C60012464B24D4BEC
:101538001C604D4C444B1C604C4C454B1C604C4C47
:10154800454B1C6012E04B4B98420FD100244A4B8C
:101558001C60012464B2494B1C60494C3A4B1C6026
:10156800484C3B4B1C60484C3B4B1C600191029023
:101578001046FFF753FE06AB1846FFF775FE0298B4
:1015880001994FF0FF39002740F200080022022A93
:1015980037D8B9F1000F34D001231BB203FA02F592
:1015A8002DB20026322E28D2F400384B1B191B1DF1
:1015B8001B6805FB03F4079BB3FBF4F30493994200
:1015C80003D9049BCB1A039302E0049B5B1A039391
:1015D800039B0593039B4B450BD21746F4002B4BFB
:1015E8001B19D3F80080059C059B002B00D105E052
:1015F80000E04C46761CA146D4E74C46521CA14656
:10160800C5E7441CBB0143EA08032370851C012479
:101618002B7864F3C7132B70851C01242B7864F393
:1016280086132B70851D01242B7864F345132B70CA
:10163800DDF800E00AB07047006006401C00FF1F9C
:1016480098069042591000007C00FF1F350E0000DC
:101658008000FF1FA10E00008400FF1F00700640DD
:101668002000FF1F9C069042550F0000590E0000F5
:10167800C50E000000600E402400FF1F18059042B0
:101688006D0F00007D0E0000E90E0000CC32000056
:1012700081B0CDF800E00446FFF73AFF40F2E831D4
:1012800000FB01F3194909680A0F1849096801F0C0
:101290007061090EC8B21549096801F47001090DA1
:1012A000CDB21249096801F47021090CCEB2D1B255
:1012B000491C09B259430F462360221D411C09B243
:1012C000B7FBF1F1116004F20802691C09B2B7FB27
:1012D000F1F1116004F20C02711C09B2B7FBF1F1DB
:1012E0001160DDF800E001B0704700BF44800440A9
:0C10F00001480068704700BF6C00FF1F43
:1012240081B0CDF800E040F2000C83464FEA8C0117
:101234000BEB01010968B1F1FF3F12D00BF134014E
:101244004FEA8C03C91809680A460BEB03010968C5
:1012540008461146FFF71EFF0CF1010C1FFA8CFC27
:0A126400E4E7DDF800E001B0704798
:1010980082B0CDF800E080464FEA581202F007020D
:1010A800914608F01F04A24693010D4AD3184FF049
:1010B8000102A240019218460A460199FFF7BEFFB5
:1010C8004FEA0933074AD3184FEA8A029C1808F4F2
:1010D800E06322681A432260DDF800E002B070473E
:0810E80000F00F4000900440ED
:1010440081B0CDF800E0FFF795FCDDF800E001B0D9
:021054007047E3
:1009780083B0CDF800E006460C4615463046FFF732
:100988005BFF40F2FF1306EA0300800900262246B7
:100998002946202E39D24FF0010303FA06F402EA61
:1009A80004031F46A3422ED104031A4B1C19B3009B
:1009B800E51801952C68184B04EA03032B60174BC4
:1009C80001EA0304019B1B6843EA0404019B1C60C1
:1009D80001F48033B3F5803F15D08401104B1B1907
:1009E8001433029301F400333BB1FC43029B1B68B0
:1009F80003EA0404029B1C6005E0029B1B6843EAAF
:100A08000704029B1C60761CC3E7DDF800E003B016
:100A1800704700BF009004400000FFFFFFFF000088
:040A280000F00F408B
:1008400081B040F2FF1100EA01018909084600F277
:1008500009024FF0010101FA02F20449096841EA74
:10086000020202490A6001B0704700BF38800440AC
:10210C0081B0CDF800E0016808460449FFF734FDC2
:10211C000020DDF800E001B0704700BFA0350000E2
:101B840081B0CDF800E00A4601460348FFF7B2FCF5
:0C1B9400DDF800E001B070470070064072
:10244C0081B0CDF800E009E00846FFF7D5FD0AE0C1
:10245C000846FFF705FC06E0012004E00028F3D055
:0E246C000128F5D0F8E7DDF800E001B0704778
:1020040081B0CDF800E0FFF701FE044A04490A60FC
:102014000020DDF800E001B0704700BF691B00003C
:042024002800FF1F72
:101C100081B0CDF800E003460A48FFF789FD0A4A83
:101C200040F2000104B402B440F20002194640F24E
:101C300000030448FFF73CFD02B0DDF800E001B00E
:0C1C4000704700BF00C006405C3400008C
:1017300081B0304988420CD12F4A30490A60304A82
:1017400030490A60304A31490A60314A31490A60F9
:101750004EE0314988420CD1304A28490A60304A6B
:1017600028490A602F4A29490A602F4A29490A60F4
:101770003EE02E4988420CD12D4A20490A602D4A6C
:1017800020490A602C4A21490A602C4A21490A60F2
:101790002EE02B4988420CD12A4A18490A602A4A6D
:1017A00018490A60294A19490A60294A19490A60F0
:1017B0001EE0284988420CD1274A10490A60274A6E
:1017C00010490A60264A11490A60264A11490A60EE
:1017D0000EE0254988420BD1244A08490A60244A70
:1017E00008490A60234A09490A60234A09490A60EC
:1017F00001B0704700A00640DD1800008800FF1F00
:10180000850F00008C00FF1F0D0F00009000FF1FD0
:10181000250F00009400FF1F00B00640AD19000026
:101820003D0F00009D0F0000FD0F000000C00640AE
:10183000691B0000151000002D100000B50F0000FE
:1018400000D006404D1B0000CD0F0000E50F00004A
:10185000D50D000000A00E40311B0000ED0D000072
:10186000050E00008D0D000000B00E40F9180000BC
:0C187000A50D0000BD0D00001D0E0000C5
:1016B00085B0CDF800E001900291ADF80C20ADF8B6
:1016C0001030BDF81440ADF814400698FFF7AAFD9D
:1016D0000198FFF70DFE02990198FFF769FDBDF82B
:1016E0000C100198FFF732FDBDF810100198FFF7BC
:1016F00043FDBDF814100198FFF738FD0198FFF77E
:1017000041FE0198FFF77AFEDDF800E005B0704772
:1012F00081B01849884204D1012252B216490A60CD
:1013000026E01649884204D1012252B214490A60EB
:101310001EE01449884204D1012252B212490A60E7
:1013200016E01249884204D1012252B210490A60E3
:101330000EE01049884204D1012252B20E490A60DF
:1013400006E00E49884203D1012252B20C490A60DC
:1013500001B0704700A00640A806904200B00640C9
:10136000AC06904200C00640B006904200D0064055
:10137000B406904200A00E402805904200B00E40F6
:041380002C05904266
:1011B00085B0CDF800E08046894601AA104600F0CF
:1011C00057F8164A904503D0154A904500D001E0E3
:1011D000019800E002984FEA0912B0FBF2F291B2D6
:1011E00092B2130A9BB298F800201A4388F80020A4
:1011F00008F10103CAB21A7043014FEA0912B3FBA6
:10120000F2F34A0192B29A1AD0B208F10A031A789C
:1012100002431A70DDF800E005B0704700A00640F8
:0412200000B00640D4
:10114C0081B0841C23784FF6EF7212B203EA0202CC
:10115C002270841C0B0122781A43227001B0704754
:1011780081B001F0020262B1841C01F002032278FE
:101188001A432270841C01F0010322781A4322704A
:1011980007E0841C23784FF6FD7212B203EA0202BC
:0611A800227001B0704747
:0C116C0081B002780A43027001B07047A5
:1013840081B0C21C117841F00401117001B07047A2
:1013FC0081B0C21C117841F00801117001B0704726
:101C6C0081B0CDF800E0FFF795FF044A04490A6003
:101C7C000020DDF800E001B0704700BF4D1B0000F4
:041C8C002800FF1F0E
:101BA00081B0CDF800E003460A48FFF7C1FD0A4ABC
:101BB00040F2000104B402B440F20002194640F2BF
:101BC00000030448FFF774FD02B0DDF800E001B047
:0C1BD000704700BF00D00640C834000081
:102C340081B0CDF800E03A220B490C48FFF7F2FBD3
:102C440042F6FE47C0F2311700BF00BF7F1EFDD120
:102C540000BF00BF00BFFFF787FA0320FFF79CF80F
:102C6400DDF800E001B07047143700000C360000B6
:1024280081B0CDF800E00446054B1A700846FFF766
:102438005DFC2046FFF728FCDDF800E001B070479E
:042448001A00FF1F58
:101CF400026806490A60011D0A6805490A6000F283
:101D040008010A6803490A60704700BF6800FF1FA2
:081D14002C00FF1F3000FF1F2F
:021C900070479B
:10216C0082B0CDF800E040F2EE20FFF757FF0120DF
:10217C00FFF70EFE42F20C40FFF702FF00EE100AD2
:10218C00B8EE400A8DED010AFAEE000AB0EE000A34
:10219C00FFF762FFDDED010A20EE800A8F4800EDAB
:1021AC00000A42F20E40FFF7EBFE00EE100AB8EE0A
:1021BC00400A8DED010AFBEE040AB0EE000AFFF7AF
:1021CC004BFFDDED010A20EE800A854800ED000A88
:1021DC0042F21040FFF7D4FE00EE100AB8EE400AAF
:1021EC008DED010A7F4800EE900AB0EE000AFFF771
:1021FC0033FFDDED010A20EE800A7B4800ED000A7A
:10220C0042F21240FFF7BCFE00EE100AB8EE400A94
:10221C008DED010AFAEE000AB0EE000AFFF71CFF82
:10222C00DDED010A20EE800A704800ED000A42F252
:10223C002440FFF7A5FE00EE100AB8EE400A8DED23
:10224C00010AFBEE000AB0EE000AFFF705FFDDED18
:10225C00010A20EE800A664800ED000A42F2264090
:10226C00FFF78EFE00EE100AB8EE400A8DED010A63
:10227C00FAEE000AB0EE000AFFF7EEFEDDED010A01
:10228C0020EE800A5B4800ED000A42F22840FFF77E
:10229C0077FE00EE100AB8EE400A8DED010A5648A2
:1022AC0000EE900AB0EE000AFFF7D6FEDDED010A53
:1022BC0020EE800A514800ED000A42F22A40FFF756
:1022CC005FFE00EE100AB8EE400A8DED010A4C4894
:1022DC0000EE900AB0EE000AFFF7BEFEDDED010A3B
:1022EC0020EE800A474800ED000A42F22C40FFF72E
:1022FC0047FE00EE100AB8EE400A8DED010A404888
:10230C0000EE900AB0EE000AFFF7A6FEDDED010A22
:10231C0020EE800A3C4800ED000A42F22E40FFF706
:10232C0033F800EE100AB8EE400A8DED010AFAEE11
:10233C00040AB0EE000AFFF78FFEDDED010A20EE75
:10234C00800A324800ED000A42F22F40FFF71CF8D9
:10235C0000EE100AB8EE400A8DED010AFAEE040AFE
:10236C00B0EE000AFFF778FEDDED010A20EE800AE0
:10237C00274800ED000A42F28140FFF705F800EE15
:10238C00100AB8EE400A8DED010AFAEE0C0AB0EE16
:10239C00000AFFF761FEDDED010A20EE800A1D4800
:1023AC0000ED000A42F28240FEF7EEFF00EE100A4A
:1023BC00B8EE400A8DED010AFAEE0C0AB0EE000AF6
:1023CC00FFF74AFEDDED010A20EE800A124800ED0F
:1023DC00000ADDF800E002B0704700BF3C00FF1FB0
:1023EC004000FF1F000030C24400FF1F3800FF1FD9
:1023FC004800FF1F4C00FF1F000038C25000FF1F99
:10240C00000010C25400FF1F5800FF1F3400FF1FB4
:0C241C005C00FF1F6000FF1F6400FF1F3A
:1020280083B0CDF800E0ADF8080040F20001ADF84B
:102038000410FFF7DDFD68B1FFF774FCBDF804106C
:102048004A1C92B2ADF80420BDF808108A4200D9A3
:0C20580000E0EEE7DDF800E003B07047A8
:101BF80081B0CDF800E0FFF74BFD00F40070C0B2F3
:081C0800DDF800E001B07047B7
:1016980081B0CDF800E043F6FF70FFF777FEDDF884
:0616A80000E001B07047F4
:1013940082B0CDF800E001AA00F47F4189B2090AC5
:1013A4001170521C00F0FF011170FFF7B7FE01AA83
:1013B400104909780023C8B211460222FFF756FEED
:1013C4000DF106020B4909780123C8B21146022225
:1013D400FFF792FE0DF106031978C8B2020292B229
:1013E400591C097842EA010188B2DDF800E002B034
:0813F400704700BF1A00FF1F43
:1011200082B0CDF800E040F20004ADF80440064C77
:101130002468A047BDF9041041EA000000B2DDF8C0
:0C11400000E002B0704700BF6800FF1F15
:1010580081B0CDF800E00348FFF7F0FCDDF800E0D0
:0810680001B070470060064072
:100A440084B0CDF800E04FF000024349884205D15C
:100A540042490C6842490968039115E041498842BA
:100A640006D141490A6841490968039114460BE0DB
:100A74003F49884206D13F490A683F4909680391C2
:100A8400114600E011460C4601940290FFF706FD62
:100A94000298019C831C0122197862F34511197094
:100AA400C11C0A78C2F30011C9B1C31C0122197810
:100AB40062F304111970811D0A78C2F3001129B17F
:100AC400831D0122197862F304111970C31C0122D9
:100AD400197862F3410119704FF6FF7038E023462C
:100AE400019404460198E11C0A78C2F3400151B90B
:100AF40040B123B90520039CA047012028E05A1ED9
:100B04001346FFE7EFE7A11D0A78C2F3001129B1EC
:100B1400A31D0122197862F304111970E31C012248
:100B2400197862F34101197005462346D91C0A78E5
:100B3400C2F3400159B148B125B90520039CA0472F
:100B4400012005E0691E0A461546FFE7EEE700208E
:100B5400DDF800E004B07047006006401C00FF1F91
:100B64007000FF1F007006402000FF1F7400FF1F6D
:0C0B740000600E402400FF1F7800FF1FEF
:0C05500001490860704700BF0808FE4326
:0C05440001490860704700BF2C08FE430E
:0C047C0001490860704700BF1010FE43EB
:0C04400001490860704700BF1410FE4323
:0C04340001490860704700BF1C10FE4327
:0C04280001490860704700BF1810FE4337
:0C044C0001490860704700BF2800FE4313
:0C04700001490860704700BF3408FE43DB
:0C04640001490860704700BF0818FE4303
:0C04580001490860704700BF0C18FE430B
:0C05680001490860704700BF2018FE43E6
:0C08700001490860704700BF2418FE43D7
:0C08280001490860704700BF0C08FE4347
:0C08340001490860704700BF4C08FE43FB
:0C087C0001490860704700BF1018FE43DF
:0C05800001490860704700BF1418FE43DA
:0C05740001490860704700BF1C18FE43DE
:0C06900001490860704700BF1818FE43C5
:0C06A80001490860704700BF1000FE43CD
:0C069C0001490860704700BF2008FE43C1
:0C055C0001490860704700BF4010FE43DA
:0C05380001490860704700BF4410FE43FA
:0C04880001490860704700BF2810FE43C7
:0C04940001490860704700BF2C10FE43B7
:1004A00082B0CDF800E04FF000021A49884205D131
:1004B00019490B6819490968019115E018498842E2
:1004C00006D118490A6818490968019113460BE0DA
:1004D0001649884206D116490A68164909680191E9
:1004E000114600E011460B461D4604462046FFF724
:1004F0008FFF50B943B11DB90720019CA04704E00C
:10050000691E08460546FFE7F0E7DDF800E002B0A7
:10051000704700BF006006401C00FF1F7000FF1FF7
:10052000007006402000FF1F7400FF1F00600E4097
:080530002400FF1F7800FF1FEB
:1004100081B0C11C0A78C2F3401181F00101C9B258
:06042000C8B201B07047F4
:100F540081B0CDF800E00348FFF772FDDDF800E052
:080F640001B070470070064067
:100F6C0081B0CDF800E00348FFF766FDDDF800E046
:080F7C0001B0704700600E4057
:100F840081B0CDF800E00348FFF74EFDDDF800E046
:080F940001B0704700A0064007
:100A2C0081B0011D0A78C2F3401101B9F9E7C11D6B
:080A3C000978C8B201B070474F
:100F0C0081B0CDF800E00348FFF72AFFDDF800E0E0
:080F1C0001B0704700A006407F
:0E0D6C0081B0011D0978C1F3401001B070473D
:100F240081B0CDF800E00348FFF726FFDDF800E0CC
:080F340001B0704700A0064067
:0E0D7C0081B0011D0978C1F3801001B07047ED
:100F3C0081B0CDF800E00348FFF772FDDDF800E06A
:080F4C0001B0704700B006403F
:100F9C0081B0CDF800E00348FFF7E2FEDDF800E099
:080FAC0001B0704700B00640DF
:100FFC0081B0CDF800E00348FFF7BAFEDDF800E061
:08100C0001B0704700B006407E
:1010140081B0CDF800E00348FFF706FDDDF800E0FD
:0810240001B0704700C0064056
:10102C0081B0CDF800E00348FFF79AFEDDF800E050
:08103C0001B0704700C006403E
:100FB40081B0CDF800E00348FFF7DEFEDDF800E085
:080FC40001B0704700C00640B7
:100FCC0081B0CDF800E00348FFF72AFDDDF800E022
:080FDC0001B0704700D006408F
:100FE40081B0CDF800E00348FFF7BEFEDDF800E075
:080FF40001B0704700D0064077
:100DD40081B0CDF800E00348FFF7CEFFDDF800E076
:080DE40001B0704700D0064089
:100DEC0081B0CDF800E00348FFF71AFEDDF800E013
:080DFC0001B0704700A00E4099
:100E040081B0CDF800E00348FFF7AEFFDDF800E065
:080E140001B0704700A00E4080
:100D8C0081B0CDF800E00348FFF7F2FFDDF800E09A
:080D9C0001B0704700A00E40F9
:100DA40081B0CDF800E00348FFF73EFEDDF800E037
:080DB40001B0704700B00E40D1
:100DBC0081B0CDF800E00348FFF7D2FFDDF800E08A
:080DCC0001B0704700B00E40B9
:100E1C0081B0CDF800E00348FFF7AAFFDDF800E051
:080E2C0001B0704700B00E4058
:1010700082B0CDF800E040F20004ADF80440054C29
:101080002468A047BDF90440044320B2DDF800E025
:0810900002B070472C00FF1FA5
:100EA00081B0CDF800E008B413460A46C1B2044848
:100EB000FFF766FE01B0DDF800E001B0704700BF4B
:040EC0000060064088
:100B800087B0CDF800E005920246C8B20693079CF4
:100B900007944FF000016C4CA24206D16B4C2668C2
:100BA0006B4C24680494314614E06A4CA24205D18F
:100BB000694C2668694C246804940AE0684CA24297
:100BC00006D1684C2168684C246804940E4600E005
:100BD0000E463146440001910292E1B21046FFF701
:100BE000BFFD029A019920B91046FFF7CFFC002003
:100BF000A5E000273B46069CA34216D2059CE418BC
:100C00002478019202910393E1B21046FFF7A8FD08
:100C1000039B0299019A20B91046FFF7B7FC002008
:100C20008DE05C1C27463B46E5E7079C012C48D13C
:100C30000B461046C41C2578C5F3400464B141B18D
:100C400023B90420049CA047012078E05A1E1446D2
:100C500000E01C462346EDE7861C0025347865F34A
:100C6000451434700A46C41C2578C5F340045CB9A9
:100C700039B122B90420049CA04701205FE0531E33
:100C800000E013461A46EEE7841D2578C5F30014EC
:100C90002CB1861D0125347865F304143470841D4D
:100CA0002578C5F380142CB1861D0125347865F3B1
:100CB00086143470C61C0125347865F34104347001
:100CC0002AE0961C0125347865F3820434700B46C3
:100CD0001046C41C2578C5F3400464B941B123B95A
:100CE0000420049CA047012029E05A1E144600E07D
:100CF0001C462346EDE7841D2578C5F300142CB16E
:100D0000861D0125347865F304143470C61C012552
:100D1000347865F3410434700A46C41C2578C5F361
:100D200040045CB139B122B90420049CA0470120E1
:100D300005E0531E00E013461A46EEE70020DDF8FA
:100D400000E007B0704700BF006006401C00FF1FB6
:100D50007000FF1F007006402000FF1F7400FF1F7F
:0C0D600000600E402400FF1F7800FF1F01
:1007600082B0CDF800E04FF00003264A904205D158
:10077000254A1568254A1268019215E0244A9042DC
:1007800006D1244A1368244A126801921D460BE0E0
:10079000224A904206D1224A1368224A12680192E4
:1007A0001A4600E01A461546841C0123227863F39A
:1007B00004122270021D11702C462946C21C1378A7
:1007C000C3F340025AB949B124B90420019CA0479F
:1007D000012012E0621E13461C46FFE7EEE7C41C30
:1007E0000123227863F341022270C21C1378C3F301
:1007F000000282F00102D2B2D0B2DDF800E002B015
:10080000704700BF006006401C00FF1F7000FF1F04
:10081000007006402000FF1F7400FF1F00600E40A4
:080820002400FF1F7800FF1FF8
:10058C0084B0CDF800E04FF000023549884205D127
:10059C0034490C6834490968039115E033498842A1
:1005AC0006D133490A6833490968039114460BE0B4
:1005BC003149884206D131490A68314909680391A9
:1005CC00114600E011460C46831C0022197862F398
:1005DC0045111970831C0022197862F304111970EB
:1005EC0001940290FFF756FF0298019C2346C11C10
:1005FC000A78C2F3400151B944B123B90620039CD7
:10060C00A047012027E05A1E1346FFE7EFE7811DA4
:10061C000A78C2F3801129B1831D0122197862F383
:10062C0086111970C31C0122197862F341011970EB
:10063C002346C11C0A78C2F3400159B14CB123B90D
:10064C000620039CA047012005E0591E0A461346CC
:10065C00FFE7EEE70020DDF800E004B0704700BFD4
:10066C00006006401C00FF1F7000FF1F007006405A
:10067C002000FF1F7400FF1F00600E402400FF1FAE
:04068C007800FF1FD4
:100EC40081B0CDF800E008B413460A46C1B2044824
:100ED400FFF754FE01B0DDF800E001B0704700BF39
:040EE4000070064054
:100EE80081B0CDF800E008B413460A46C1B2044800
:100EF800FFF742FE01B0DDF800E001B0704700BF27
:040F080000600E4037
:1010FC0082B0CDF800E040F20004ADF80440044C9E
:10110C002468A047BDF90400DDF800E002B0704788
:04111C003000FF1F81
:100E340081B0CDF800E008B413460A46C1B20448B4
:100E4400FFF720FD01B0DDF800E001B0704700BFFE
:040E540000600640F4
:1008880085B0CDF800E08DF8041001469DF804000D
:1008980003920493059C05944400A4B244F0010417
:1008A80001910846E1B2FFF757FF019918B90846C8
:1008B800FFF768FE58E08E1C0025347865F30414B1
:1008C8003470049C012C06D18E1C0125347865F304
:1008D800C304347005E08E1C0025347865F3C30426
:1008E800347001910846FFF7E1FE0199049C621EED
:1008F800002A34DB15E0019102920846FFF742FE18
:10090800029A019912E08E1C0125347865F3C3041C
:1009180034700BE08E1C0025347865F3C304347002
:1009280004E0002AE7D0012AEDD0F3E73AB90C1D1C
:100938002578039C2570039C641C03940BE00191AB
:1009480002920846FFF7B2FE029A0199039C2070B2
:10095800039C641C0394541E23461A46C8E7059C4E
:1009680014B9084600F06AF8DDF800E005B07047F1
:1006B40082B0CDF800E04FF000021F49884205D116
:1006C4001E490B681E490968019115E01D498842BD
:1006D40006D11D490A681D490968019113460BE0BA
:1006E4001B49884206D11B490A681B4909680191C4
:1006F400114600E011460B46011D0C781D46C11C35
:100704000A78C2F3400159B94BB125B90320019CC1
:10071400A04701200BE0691E0A461546FFE7EEE7F5
:10072400C31C0122197862F341011970E0B2DDF8AB
:1007340000E002B0704700BF006006401C00FF1FCD
:100744007000FF1F007006402000FF1F7400FF1F91
:0C07540000600E402400FF1F7800FF1F13
:100E580081B0CDF800E008B413460A46C1B2044890
:100E6800FFF70EFD01B0DDF800E001B0704700BFEC
:040E780000700640C0
:100E7C0081B0CDF800E008B413460A46C1B204486C
:100E8C00FFF7FCFC01B0DDF800E001B0704700BFDB
:040E9C0000600E40A4
:10192C0049F63E47C0F2000700BF00BF7F1EFDD145
:08193C0000BF00BF00BF7047AF
:101D9C0082B0CDF800E08DF8040043F20100FFF7AB
:101DAC00F3FA4FF6F97100EA010292B29DF80410B1
:101DBC00490089B242EA010143F20100FFF7BCFD80
:081DCC00DDF800E002B07047F1
:1019440082B0CDF800E00DF1060301F47F4292B2BB
:10195400120A1A705B1C01F0FF021A7001AB00F44A
:101964007F4292B2120A1A705B1C00F0FF021A70D6
:10197400FFF7D4FB01AB0B4A127819460023D0B20F
:101984000222FFF773FB0DF10603064A127819468B
:101994000123D0B20222FFF769FBDDF800E002B0B8
:0819A400704700BF1A00FF1F8D
:101F8C0083B0CDF800E001AA00F47F4189B2090AC0
:101F9C001170521C00F0FF011170FFF7BBF801AA81
:101FAC00144909780023C8B211460222FFF75AF8E7
:101FBC000DF106020F4909780123C8B2114604221B
:101FCC00FFF796F80DF10603991C0978C8B20202C6
:101FDC00D91C097842EA01010A02197842EA010186
:101FEC000A02591C097842EA01010846DDF800E0B2
:081FFC0003B070471A00FF1F3B
:1020640082B0CDF800E0F0EE402AB0EE602A002005
:10207400B5EEC02AF1EE10FA02D1B7EE000A3EE046
:10208400F5EEC02AF1EE10FA04D14FF0000200EE92
:10209400102A34E0F5EEC02AF1EE10FA1BDABDEE98
:1020A400420A10EE102A104600EE102AB8EEC00ABA
:1020B400B4EEC20AF1EE10FA04D04FF0000200EEC2
:1020C400102A1CE000F00102D0B2F1EE620AC5B29F
:1020D400B0EE600A05E08DF80400B0EE620A9DF8E7
:1020E4000450FFF76FFC20EE020AFFF7A5FCF0EEA8
:1020F400400A15B1B1EE600A01E0B0EE600ADDF805
:0621040000E002B070478C
:1019C80082B0CDF800E0B5EEC00AF1EE10FA04DC02
:1019D8004FF0000100EE101A23E001A90846FFF7B6
:1019E80071FDF0EE000A60EE200AB7EE000A30EE54
:1019F800C00ABDF90410491EADF8041040F20801F0
:101A080009B20A48FFF7FEFCBDF9041001EE101AEE
:101A1800B8EEC11A064900EE901A60EE810A30EE5F
:101A2800200ADDF800E002B0704700BFC8360000A9
:041A38001872313FB0
:1014CC0082B08DED010ABDF80610C1F3C7117E394B
:1014DC0009B201807E22BDF8061062F3CE11ADF880
:0A14EC0006109DED010A02B07047E2
:10140C0081B0F0EE400A8A00821812ED000AB0EEAC
:10141C00401AB0EE410AB0EE601A79B161EE000AE2
:10142C004A1E12B211B29200821812ED000A30EE6E
:10143C00800A0DED000A1DED000AEEE701B07047C1
:101A3C0081B0CDF800E0F0EE401AF5EEC01AF1EEF0
:101A4C0010FA02D1B7EE000A5DE0314900EE101A2F
:101A5C00F4EEC01AF1EE10FA03DD2E4900EE101A66
:101A6C0051E02D4900EE101AF4EEC01AF1EE10FA06
:101A7C0004DA4FF0000100EE101A44E0F5EEC01A43
:101A8C00F1EE10FA40F2000100DA0121CBB2C9B23A
:101A9C0011B1F1EE610A01E0F0EE610A1F4900EEAE
:101AAC00101A20EE800AF0EE401AFFF7C9FCBDEECA
:101ABC00400A10EE101A09B20CB200EE101AB8EE71
:101ACC00C00A31EEC00A40F2090109B21448FFF70E
:101ADC0097FC20B2FFF7CCFEF0EE400A8BB10D491B
:101AEC0000EE101AF4EEC00AF1EE10FA04D14FF029
:101AFC00000100EE101A06E0B7EE000A80EE200A94
:101B0C0001E0B0EE600ADDF800E001B0704700BF04
:101B1C00FED4B242FFFF7F7F50ACAEC23BAAB83FAF
:041B2C00A0360000DF
:10144C0082B08DED010A01A90968C90D01F0FF01F7
:10145C0009B27F3909B208B200290EDA9DED010AF2
:10146C00B5EEC00AF1EE10FA02DABFEE000A24E083
:10147C004FF0000100EE101A1FE081B2182902D9BA
:10148C009DED010A19E09DED010ABDEE400A10EE3A
:10149C00101A00EE901AF8EEE00AB0EE601A9DED0C
:1014AC00010AF4EEC00AF1EE10FA04DDB7EE000A00
:0E14BC0031EE400A01E0B0EE410A02B0704786
:10187C0082B08DED010ABDF80610C1F3C7114118F5
:10188C0008B209B2002904DA4FF0000100EE101A78
:10189C0019E0B0F1FF0F0DDDB5EEC00AF1EE10FA54
:1018AC0004DA6FF4000100EE101A0CE0074900EEA8
:1018BC00101A08E082B2BDF8061062F3CE11ADF832
:1018CC0006109DED010A02B0704700BFFFFF7F7F3D
:102C740095B0CDF800E00DF11F0B0BF1310ADFF830
:102C840098C000F04BF8FFF78FFD0DF11F008DED9C
:102C9400010A0121FFF750FD9DED010A02A81490DD
:102CA40010EE100AFFF740FA149A00EE100A00EE34
:102CB400901A1046FFF7EAFD02A80221FFF73CFD37
:102CC400FFF7DAFB0EA88DED010A0121FFF734FDB1
:102CD4009DED010A02A8149010EE100AFFF724FAE1
:102CE400149A00EE100A00EE901A1046FFF7CEFD7B
:102CF40002A80221FFF720FD4BF2FE37C0F2C447C1
:102D040000BF00BF7F1EFDD100BF00BF00BFDDF8C4
:0C2D140000E015B0704700BF6C360000F6
:1027AC0083B0CDF800E0FFF74BFA032801D0FFF718
:1027BC006BFAFFF7ADFA40F2EE20FFF7BBFA44F2EA
:1027CC000500FEF7E1FD01B2ADF8041044F208007B
:1027DC00FEF7DAFDBDF9041001EE101AB8EEC11ABD
:1027EC00B2EE080AC1EE000A214911ED000A60EEB2
:1027FC00200A00EE100AB8EEC00A70EE200AB2EE03
:10280C00080A81EE000A80EE200A8DED020AF3EE32
:10281C00030AB0EE000AFFF71FFCDDED020A60EEC2
:10282C00800A144810ED000A30EEC01A124810ED60
:10283C00000AC1EE000A114810ED000A30EE200A21
:10284C008DED020AF0EE000AB0EE410AFFF704FC2F
:10285C000B4850ED000A60EE800A9DED020A30EE46
:10286C00200AB0EE400ADDF800E003B0704700BF6C
:10287C003400FF1F3C00FF1F4000FF1F3800FF1FEC
:04288C004400FF1FE6
:101C4C0081B0CDF800E043F20100FFF79DFB4008A6
:101C5C0080B200F00300C0B2DDF800E001B07047C4
:101C940081B0CDF800E043F20100FFF779FB40F09A
:101CA400080081B243F20100FFF74AFEDDF800E0CC
:041CB40001B07047C4
:101D1C0081B0CDF800E0FFF7B9FC4FF6FE7108403A
:101D2C0081B243F6FF70FFF707FEDDF800E001B06B
:021D3C007047EE
:101D400083B0CDF800E0ADF8080040F20001ADF836
:101D50000410FFF7DFFD68B9FFF7E8FDBDF80410D8
:101D60004A1C92B2ADF80420BDF808108A4200D98E
:0C1D700000E0EEE7DDF800E003B0704793
:1019140081B0CDF800E0FFF7BDFE00F00100C0B2D9
:08192400DDF800E001B070479E
:10273C0083B0CDF800E0024610460D228DF808203B
:10274C000A228DF809201FE0FFF7B0FA23E0027887
:10275C002AB10190FFF7AAFA0198401CF7E71AE09A
:10276C0002782AB10190FFF7A1FA0198401CF7E713
:10277C0002AA1046FFF79AFA0DF109021046FFF76C
:10278C0095FA08E0062007E00029DDD00129DED00B
:10279C000229E5D0F6E70020DDF800E003B0704731
:101CB80081B0CDF800E00178CCB2A0B2034C246822
:101CC800A0470020DDF800E001B070472800FF1FA2
:1018DC0081B0CDF800E081B20348FFF713FFDDF8CB
:0C18EC0000E001B0704700BF00A0064003
:1017100081B0ADF800100146BDF800000A1D137835
:10172000C3F3C01202B9F9E7CA1D107001B07047C7
:1019AC0081B0CDF800E081B20348FFF7ABFEDDF863
:0C19BC0000E001B0704700BF00B0064022
:101B680081B0CDF800E081B20348FFF7CDFDDDF884
:0C1B780000E001B0704700BF00C0064054
:101B4C0081B0CDF800E081B20348FFF7DBFDDDF892
:0C1B5C0000E001B0704700BF00D0064060
:101B300081B0CDF800E081B20348FFF7E9FDDDF8A0
:0C1B400000E001B0704700BF00A00E40A4
:1018F80081B0CDF800E081B20348FFF705FFDDF8BD
:0C19080000E001B0704700BF00B00E40CE
:10212C0081B004B54200120E0DD0FF2A0ED002F57C
:10213C006072C10F42EAC122014648074902090BED
:10214C0041EA025108E00021002005E04FF00000B8
:10215C00C90DC900C91D0905BDE8044001B070478F
:1028900083B0CDF800E010EE102A10EE903A044616
:1028A000002040F2000109B2CDE90123DDE9012356
:1028B00092F0FF3201D193F0FF3206D1B74A1146B0
:1028C0002046FFF787FA032064E101279DF80B30CB
:1028D000C3F3C0125AB19DF80B206FF3C7128DF8E5
:1028E0000B207F1CBFB22D222270661C00E0264602
:1028F000DDE9012392F0000201D193F0000206D13C
:10290000A74A11463046FFF765FA002042E1DDE9AB
:1029100001454FF00002A34B94EA020201D195EA6F
:10292000030206D1A04A11463046FFF753FAF8B227
:1029300030E15FFA80FA0FFA81F9B3469DED011B91
:102940004FF00002994B00EE102A00EE903A11EE83
:10295000102A11EE903A10EE100A10EE901AFFF7BE
:10296000D1FA40F2000000DD0120C8B19DED011B4D
:102970004FF000028E4B00EE102A00EE903A11EE5E
:10298000100A11EE901A10EE102A10EE903AFFF78E
:1029900035FACDE90101A9F101090FFA89F9CDE76D
:1029A0009DED011B4FF00002814B00EE102A00EE5E
:1029B000903A11EE102A11EE903A10EE100A10EE35
:1029C000901AFFF79FFA40F2000000DC0120C0B12E
:1029D0009DED011B774A784B00EE102A00EE903AED
:1029E00011EE100A11EE901A10EE102A10EE903A25
:1029F000FFF704FACDE9010109F101090FFA89F99C
:102A0000CEE7029AC2F30A52A2F2FF3290B201AAB2
:102A1000D31D01221A700123029A63F31E520292FF
:102A2000DDE901452B01220F13432201CDE90123EA
:102A300086B20027DDE90145B6F1200209D5C6F1CD
:102A4000200224FA02F205FA06F3134304FA06F20E
:102A500002E004FA02F30022CDE9012301AAD21D0B
:102A6000127830328BF800200BF10100B9F1010F20
:102A700006DBB9F1060F03DC07465FFA8AF103E0D3
:102A80002E220270471C012140F20F000FFA89F636
:102A900078B301AAD31D00221A70DDE901239D003D
:102AA000940F25439400DDE9012312196B41CDE910
:102AB0000123DDE901456B00E20F13436200CDE91C
:102AC000012301AAD21D127830323A707A1C1446C2
:102AD00059B9721E12B213B222B92E222270671C8B
:102AE000012100E027461EB200E02746401E80B2CA
:102AF000CEE7394630B24A1E1278302A01D1491E3B
:102B0000F9E74A1E12782E2A01D1491EFFE7002854
:102B10003CD065220A70491C002805DA2D220A7073
:102B2000491C43421BB200E003B298B29AB2632A36
:102B300015D96422B0FBF2F292B230320A704D1C09
:102B400029460A22B0FBF2F4A4B20A23B4FBF3F242
:102B500003FB124292B230322A70491CFFE7092867
:102B600009D9632808D20A22B0FBF2F292B23032BD
:102B70000A70491CFFE7FFE70A23B0FBF3F203FBEF
:102B8000120292B230320A70481C00E0084600225D
:102B900002700020DDF800E003B070471000FF1F56
:102BA0001400FF1F0000F07F1600FF1F0000F03F21
:0C2BB000000024409A9999999999B93F26
:101DD40081B00091014600980B461C465A1C1546DA
:101DE4000346421C10461A78227022780AB12B4608
:081DF400F3E7084601B0704757
:101F040081B010B5994201D190422FD050EA020419
:101F140004D141EA03046400002C27D050EA4104B0
:101F240001D19C4222E04C006415641C07D15C0082
:101F34006415641C03D1DC0FB4EBD13416E0002B20
:101F44000AD4002912D4994210D190EA020401D48F
:101F540090420BE0002A09E0002907DC8B4205D1FE
:101F640090EA020401D4824200E00028EFF30084E6
:101F740054BF44F0005424F0005484F30088BDE8B6
:061F8400104001B070479F
:101DFC0081B02DE9FC4191EA03084CBF4FF000483B
:101E0C004FF000084FEAC32545EA52554FEAC22667
:101E1C004FEA43077F0D11BF45F000454FF000011D
:101E2C004FF0000063E05FF4E06E1EF1FF0E7745AB
:101E3C0056D04FEAC12343EA50534FEAC0224FEA2F
:101E4C004104640D11BF43F000434FF000014FF00B
:101E5C0000004CE0744543D0E419A3FB0501A3FB3F
:101E6C0006E7A2FB06631EEB030E57F1000751F1C8
:101E7C000001A2FB05631EEB060E57F1000751F1A2
:101E8C000001FF1851F10001C01951F100014CBFC4
:101E9C004FF4806E4FF4007E10EB0E0051F10001F8
:101EAC0048BF641C01D4400049415FF44077FF37C0
:101EBC00E41BDEBF4FF000014FF0000017E017F5F8
:101ECC008067BC420CD24FEAD02040EA41504FEA26
:101EDC0041014FEA113141EA045141EA080106E09F
:101EEC000020FF21C900C91D090551EA0801BDE800
:061EFC00FC4101B070473B
:10247C0085B0CDF800E0FFF7E3FB032801D0FFF7B0
:10248C0003FCFFF745FC40F2EE20FFF753FC00F095
:10249C0087F944F20500FEF777FFADF8080044F227
:1024AC000800FEF771FFADF80A00FFF70FFCC1B290
:1024BC0001280CD144F20300FEF766FFADF80400CE
:1024CC0044F20400FEF760FFADF806001AE00229A2
:1024DC000CD144F20600FEF757FFADF8040044F2AD
:1024EC000700FEF751FFADF806000BE044F20300C5
:1024FC00FEF74AFFADF8040044F20400FEF744FF77
:10250C00ADF8060040F2000A5FFA8AF6032E80F05E
:10251C00D180BDF9080001EE100AB8EEC11AB2EE76
:10252C00080AC1EE000A674810ED000A60EE200AA6
:10253C00BDF90A0000EE100AB8EEC00A70EE200ACF
:10254C00B2EE080A81EE000A80EE200A8DED040A34
:10255C00F3EE030AB0EE000AFFF77EFDDDED040A90
:10256C0060EE800AF0EE603A574810ED000A30EE4B
:10257C00C00AF0EE000AFFF76FFDBDF90610BDF9B9
:10258C000400401800B200EE900AF8EEE00AB0EE3B
:10259C00000A80EE801ABDF9080000EE900AF8EEF1
:1025AC00E00AB2EE080AC0EE800A484810ED000AB4
:1025BC0060EE200ABDF90A0000EE100AB8EEC00A5F
:1025CC0070EE200AB2EE080A81EE000A80EE200AB4
:1025DC008DED040AF3EE030AB0EE000AFFF73CFDA2
:1025EC00DDED040A20EE803A394810ED000A73EE56
:1025FC00C00A384810ED000AC0EE800AB3EE090A92
:10260C0070EE802A344800EE100A32EE802A3348ED
:10261C0050ED000A324810ED000A60EE200A3148F5
:10262C0010ED000A60EE801A2F4850ED000A2F487A
:10263C0010ED000A70EE600A2D4810ED000A60EEF5
:10264C00200AB7EE000A30EE201A2A4810ED000AD4
:10265C0072EEC00A284810ED000A20EE200A31EE76
:10266C00000A21EE800A83EE000A8DED040AF1EED9
:10267C00000AB0EE420AFFF7EFFCDDED040A30EE83
:10268C00800AF5EE000AB0EE400AFFF7E5FC1248AE
:10269C0000EE900A70EE600A184810ED000A30EE59
:1026AC00C00A114800ED000A701C5FFA80FA5FFA4C
:1026BC008AF62BE70C4810ED000ADDF800E005B0B7
:1026CC00704700BF3400FF1F3C00FF1F5C00FF1F62
:1026DC004C00FF1F4800FF1F339388435000FF1F1F
:1026EC000000FF1F6000FF1F0800FF1F0400FF1FFA
:1026FC005800FF1F0C00FF1F5400FF1F6400FF1F3A
:101CD80081B0CDF800E0FFF7DBFC00F07C0080B2BB
:0C1CE8008008C0B2DDF800E001B07047D9
:102DA00090B072B697480190974802909748039068
:102DB0009748049097480590974806909748079041
:102DC000974808909748099097480A9097480B9021
:102DD00097480C90974998480D9098480E900D98F8
:102DE00000F007000F9001F0010050B94CF22050A4
:102DF000934908804DF62810088040F2D21191487E
:102E000001809148007800F0010050B18F480078AF
:102E100000F0080020B18D49087840F008000870E3
:102E200021E08B48006840F00051894801608948E2
:102E3000006800F48070B0B9864801686FF4705083
:102E400001EA000040F44071824801608148006856
:102E500040F480717F4801607E4801686FF4007023
:102E600001407C480160AA217B4801700D9800F068
:102E7000100060B9794801786FF060000140774830
:102E8000017077480078012800D0FAE71CE00D981F
:102E900000F01000C0B10E997248814208D960213B
:102EA0006E4801706E480078802800D0FAE70BE089
:102EB0006A4801786FF06000014068480170684816
:102EC0000078012800D0FAE7049967480160674854
:102ED00001686FF440200140029800F44020014353
:102EE00062480160624801686FF440300140039815
:102EF00000F4403001435E4801600F9830B10F98F4
:102F0000012803D00F98022800D061E0019800F05A
:102F1000800050B9089800F0400028B10B9800F0EC
:102F20000300002800D100E015E05248006840F49A
:102F300000715048016050480168504801404E48B7
:102F40000160069800F0040028B14D4801684B4824
:102F500001404B4801600A994A48017005994A4866
:102F60000170059800F0040038B14848007800F07E
:102F70001000002800D1F8E705E04448007800F090
:102F8000100000B1F9E74248007800F0BF01C9B273
:102F9000069800F0FD0001433D480170079800F0DD
:102FA000E0013C48007800F01F00014339480170FF
:102FB0000199394801700B99384801700F9802281F
:102FC00005D13348007840F0020131480170B8E083
:102FD000019800F0800020B90B9800F0030000B1C8
:102FE00065E02448006840F40071224801602248EE
:102FF00001682248014020480160069800F0040062
:1030000000F04EB80000000000000C0000000100BD
:103010000000140122000000240000000000000055
:103020000200000046000000000000000000000058
:10303000000000000000000007000000C0D40100F4
:103040000E2005400020054000F0074002D0074058
:103050003C80044010D0034000E0074001E00740FE
:1030600003E00740803801004480044000700440C1
:10307000048004403880044048900440FFF8FFFE7C
:103080004C90044008400640004006400640064080
:103090000140064003400640005006400C400640F8
:1030A00028B17A4801687A480140784801600A9955
:1030B000784801707848007800F0BF01C9B20698DE
:1030C00000F0FD00014374480170019973480170DC
:1030D0000B99734801700F98072805D1059840F0A7
:1030E00080017048017002E005996E4801700698F1
:1030F00000F0040048B10B9800F0030028B96A48BA
:10310000007800F0020000B9F9E7059800F004002B
:1031100038B16548007800F01000002800D1F8E7C9
:1031200005E06148007800F0100000B1F9E7079869
:1031300000F0E0015D48007800F01F0001435B48AB
:103140000170089800F0BF0159480170099800F01B
:10315000BF0158480170089800F0400028B1544859
:10316000007840F04001524801700F98052806D1C0
:103170004948007840F00201474801701BE00F9871
:10318000062803D00F98072800D014E0494800789B
:1031900040F04001474801704348007800F040008B
:1031A00000B9F9E70F98072805D13E48007800F0EC
:1031B0003F013C4801700F9818B10F98032800D0C8
:1031C0002CE03948007800F00C0000B1F9E73A48EB
:1031D000006840F00101384801604FF000013748B5
:1031E00001604FF08001364801604FF0050135481D
:1031F00001604FF00101324801603148006800F081
:10320000800000B9F9E700212D4801602A480168D3
:103210006FF001000140284801602AE00F98012862
:1032200003D00F98022800D007E01F48007800F074
:103230000C00042800D0F8E71BE00F98042806D003
:103240000F98062803D00F98052800D007E01648ED
:10325000007800F00C00082800D0F8E709E00F988B
:10326000072806D11048007800F00C000C2800D088
:10327000F8E7154801686FF00F0001400C9800F066
:103280000F0001431048016010B070474C9004409B
:10329000FFF8FFFE0840064001400640005006408F
:1032A0000C400640004006400640064003400640F1
:1032B00004400640054006403880044008000440B1
:0C32C0000000044004000440488004406A
:102D680081B002490248016001B07047C0D4010037
:042D78006C00FF1FCD
:082D340081B0FEE701B0704719
:102D3C0081B072B60849086840F47000086000BFA2
:102D4C0000BF00BF00BFF1EE100A40F44000E1EEFE
:0C2D5C00100A62B601B0704788ED00E07C
:1037240000B5DFF824B0DFF824A0DFF824C0FFF7E9
:10373400F5FADFF820B0DFF820A0DFF820C0FFF7AB
:10374400EDFA00BD704700BF0000FF1F1A00FF1F05
:10375400EC3600001C00FF1F2800FF1F0837000084
:1037C00000B5DFF810B0DFF810A0FFF7F7F900BD83
:0C37D000704700BF0000FF1F9800FF1FA3
:100400000000000000000000FFFFFFFF02FDFFFFF3
:1032CC0000000000140000000100000016000000C7
:1032DC000200000018000000030000001A000000AB
:1032EC00040000001C000000050000001E0000008F
:1032FC000900000020000000060000002200000071
:10330C000A00000024000000070000002800000054
:10331C000C0000002C000000100000003000000029
:10332C0011000000380000001200000040000000F6
:10333C000F000000440000001300000048000000D3
:10334C0014000000500000001500000058000000A0
:10335C00190000006000000016000000680000006A
:10336C001A00000070000000170000008000000030
:10337C001C000000900000001D000000A0000000D8
:10338C001E000000C000000022000000E000000051
:10339C001F000000F00000002300000000010000EE
:1033AC002400000020010000250000004001000066
:1033BC0026000000800100002A000000C00100006F
:1033CC0027000000E00100002B00000000020000BC
:1033DC002C000000400200002D00000080020000C4
:1033EC002E000000000300003200000080030000EB
:1033FC002F000000C0030000330000000004000098
:10340C0034000000800400003500000000050000BE
:10341C0036000000000600003A0000000007000023
:10342C0037000000800700003B000000000800008F
:10343C003C000000000900003D000000000A0000F4
:10344C003E000000000C00003F000000000F0000D8
:10345C006303000062030000FFFFFFFF0000000099
:10346C000000000000000000000000000000000050
:10347C000000000000000000000000000000000040
:10348C00000000000000080000000800FFFFFFFF24
:10349C000000000000000000000000000000000020
:1034AC000000000000000000000000000000000010
:0C34BC0000000000000000000000000004
:1034C8005103000050030000FFFFFFFF0000000051
:1034D80000000000000000000000000000000000E4
:1034E80000000000000000000000000000000000D4
:1034F800000000000000080000000800FFFFFFFFB8
:1035080000000000000000000000000000000000B3
:1035180000000000000000000000000000000000A3
:0C35280000000000000000000000000097
:103534006802000069020000FFFFFFFF00000000B6
:103544000000000000000000000000000000000077
:103554000000000000000000000000000000000067
:10356400000000000000080000000800FFFFFFFF4B
:103574000000000000000000000000000000000047
:103584000000000000000000000000000000000037
:0C3594000000000000000000000000002B
:1035A0004A0200004B020000FFFFFFFF0000000086
:1035B000000000000000000000000000000000000B
:1035C00000000000000000000000000000000000FB
:1035D000000000000000080000000800FFFFFFFFDF
:1035E00000000000000000000000000000000000DB
:1035F00000000000000000000000000000000000CB
:0C360000000000000000000000000000BE
:10360C0051050000450500007D0400004104000048
:10361C0035040000290400004D0400007104000072
:10362C0065040000590400006905000071080000E1
:10363C00FFFFFFFFFFFFFFFFFFFFFFFFFFFFFFFF8E
:10364C00FFFFFFFFFFFFFFFFFFFFFFFFFFFFFFFF7E
:10365C00FFFFFFFFFFFFFFFFFFFFFFFFFFFFFFFF6E
:10366C00414D4249454E542054454D5045524154CC
:10367C005552452049533A20004F424A4543542065
:10368C0054454D50455241545552452049533A20CA
:01369C00002D
:1036A0000000803F1872313FF0FD753E4758633D82
:1036B00058951D3C82C4AE3AA8782139EF938037E3
:0836C000A092A735465615340F
:1036C800FFE6DB2EC4FF7F3F80EFFFBE90E1A93EFF
:1036D800EC8276BE82AD2B3E0E3CC3BD87D1133D36
:0436E8004178D3BB97
:0436EC000000803F1B
:0436F0000000C841CD
:0436F4000000C841C9
:0436F8000000C841C5
:0436FC004E614E00CD
:02370000300097
:04370200494E4600E6
:0437080000000000BD
:04370C0000000000B9
:0437100000000000B5
:0C37140059100000A10E0000350E00004E
:04372000A08601007E
:00000001FF
