:100000004DEF1FF00000000000EF00F000000000C6
:0A0010000000000000000000F3D71C
:0E001C000101ACB102D08B9801D08B8812008C
:0E002A000101ACB102D08B9601D08B86120082
:0E0038000101ACB102D08D9601D08D86120070
:0E0046000101ACB102D0899401D0898412006E
:0E0054000101ACB102D08B9C01D08B8C12004C
:0E0062000101ACB102D08B9401D08B8412004E
:0E0070000101ACB102D08B9A01D08B8A120034
:0E007E000101ACB102D08B9E01D08B8E12001E
:0E008C000101ACB102D08A9201D08A8212002A
:0E009A000101ACB102D08D9401D08D84120012
:0E00A8000101ACB102D08F9201D08F82120004
:0E00B6000101ACB102D08F9401D08F841200F2
:0E00C4000101ACB102D08B9801D08B881200E4
:0E00D2000101ACB102D08B9601D08B861200DA
:0E00E0000101ACB102D08A9401D08A841200D2
:0E00EE000101ACB102D08B9801D08B881200BA
:0E00FC000101ACB102D08B9601D08B861200B0
:0E010A000101ACB102D08F9001D08F801200A5
:0E0118000101ACB102D08B9A01D08B8A12008B
:0E0126000101ACB102D08B9801D08B88120081
:0E0134000101ACB102D08B9801D08B88120073
:0E0142000101ACB102D08B9601D08B86120069
:0E0150000101ACB102D08B9201D08B82120063
:0E015E000101ACB102D08B9A01D08B8A120045
:0E016C000101ACB102D08D9001D08D80120047
:10017A000F0121B302D00000FBD7ACC11CFF120053
:0E018A00ACB202D00000FCD7ACC1ADFF120039
:0E0198000101ACB102D08B9001D08B8012001F
:0E01A6000101ACB102D0899001D08980120015
:0E01B4000101ACB102D0899801D089881200F7
:0E01C2000101ACB102D0899201D089821200F5
:0E01D0000101ACB102D08B9601D08B861200DB
:0E01DE000101ACB102D08D9201D08D821200D1
:0E01EC000101ACB102D08B9801D08B881200BB
:0E01FA000101ACB102D08B9E01D08B8E1200A1
:0E0208000101ACB102D08A9001D08A801200B0
:0E0216000101ACB102D08B9601D08B86120094
:0E0224000101ACB102D08B9C01D08B8C12007A
:10023200F250026EF29E0500FF6A0150FE6E0050FF
:08024200FD6E02BEF28E1200F7
:10024A0068B409D01F0E6614016E0150000A03E15A
:0A025A00010E006E01D0006A1200D0
:10026400C7B409D01F0EC514016E0150000A03E182
:0A027400010E006E01D0006A1200B6
:0A027E00000E82BE010E006E120099
:0A028800000E82BC010E006E120091
:0A029200000E82B6010E006E12008D
:0A029C00000E9EBA010E006E120063
:0A02A600000EACB2010E006E120053
:0A02B000000E82BE010E006E120067
:0A02BA00000E81B2010E006E12006A
:0A02C400000E82B6010E006E12005B
:0A02CE00000E80B8010E006E120051
:0A02D800000E82B8010E006E120045
:0A02E200000E82B8010E006E12003B
:0A02EC00000E80B2010E006E120039
:0A02F600000E82B6010E006E120029
:0A030000000E86B2010E006E12001E
:0A030A00000E82B6010E006E120014
:0A031400000E82B8010E006E120008
:0A031E00000E84B0010E006E120004
:0A032800000E82BA010E006E1200F2
:0A033200000E82B2010E006E1200F0
:0A033C00000E81B0010E006E1200E9
:0A034600000E84B2010E006E1200DA
:1003500056C0A6F157C0A7F158C0A8F159C0A9F1DD
:10036000C582C5A21FD0565057105810591019E019
:100370000101A651A711A811A9110CE1C9C0E1FF03
:10038000CAC0E2FF060EE66EC7C000F0C8C001F0AA
:1003900050DF08D0010E0101A65F000EA75BA85B2D
:0603A000A95BDFD712008B
:0A03A600000E82B8010E006E120076
:1003B00056C0A8F157C0A9F158C0AAF159C0ABF175
:1003C0009E96C5869EB61FD056505710581059108D
:1003D00019E00101A851A911AA11AB110CE1C9C082
:1003E000E1FFCAC0E2FF030EE66EC7C000F0C8C05E
:1003F00001F01FDF08D0010E0101A85F000EA95B0C
:10040000AA5BAB5BDFD70101C9CFA7F1A651000AF8
:1004100002E1C58A01D0C59A9E96C58856C0A8F14A
:1004200057C0A9F158C0AAF159C0ABF19EB61FD070
:10043000565057105810591019E00101A851A91130
:10044000AA11AB110CE1C9C0E1FFCAC0E2FF030E63
:10045000E66EC7C000F0C8C001F0EBDE08D0010EA8
:100460000101A85F000EA95BAA5BAB5BDFD7A7C148
:0404700000F0120086
:0A047400000E86B0010E006E1200AB
:0A047E00000E81B4010E006E1200A2
:100488004EC0A8F14FC0A9F150C0AAF151C0ABF1BC
:10049800A19A6686A1BA1FD04E504F105010511025
:1004A80019E00101A851A911AA11AB110CE1CDC0A5
:1004B800E1FFCEC0E2FF030EE66ECBC000F0CCC079
:1004C80001F0B3DE08D0010E0101A85F000EA95BA0
:1004D800AA5BAB5BDFD701016ACFA7F1A651000A7F
:1004E80002E1668A01D0669AA19A66884EC0A8F190
:1004F8004FC0A9F150C0AAF151C0ABF1A1BA1FD0A9
:100508004E504F105010511019E00101A851A91177
:10051800AA11AB110CE1CDC0E1FFCEC0E2FF030E82
:10052800E66ECBC000F0CCC001F07FDE08D0010E33
:100538000101A85F000EA95BAA5BAB5BDFD7A7C16F
:0405480000F01200AD
:10054C00A19AA6C16AFF4EC0A7F14FC0A8F150C036
:10055C00A9F151C0AAF168A421D04E504F105010EF
:10056C0051101BE00101A751A811A911AA110EE10C
:10057C00CDC0E1FFCEC0E2FF040EE66ECBC000F0B2
:10058C00CCC001F050DE010E006E3AD0010E01011C
:10059C00A75F000EA85BA95BAA5BDDD74EC0A7F1D5
:1005AC004FC0A8F150C0A9F151C0AAF1A1BA21D0F5
:1005BC004E504F10501051101BE00101A751A811C3
:1005CC00A911AA110EE1CDC0E1FFCEC0E2FF040ECD
:1005DC00E66ECBC000F0CCC001F025DE010E006E43
:1005EC000FD0010E0101A75F000EA85BA95BAA5BEF
:1005FC00DDD766BC02D0006A03D06684020E006EA2
:02060C001200DA
:10060E009E96A6C1C9FF56C0A7F157C0A8F158C003
:10061E00A9F159C0AAF1C7A421D0565057105810AD
:10062E0059101BE00101A751A811A911AA110EE141
:10063E00C9C0E1FFCAC0E2FF040EE66EC7C000F0FB
:10064E00C8C001F0EFDD010E006E3AD0010E0101BF
:10065E00A75F000EA85BA95BAA5BDDD756C0A7F10A
:10066E0057C0A8F158C0A9F159C0AAF19EB621D021
:10067E0056505710581059101BE00101A751A811E0
:10068E00A911AA110EE1C9C0E1FFCAC0E2FF040E12
:10069E00E66EC7C000F0C8C001F0C4DD010E006EEA
:1006AE000FD0010E0101A75F000EA85BA95BAA5B2C
:1006BE00DDD7C5BC02D0006A03D0C584020E006E21
:0206CE00120018
:0A06D000000E82B4010E006E12004D
:0A06DA00000E82BA010E006E12003D
:0A06E400000E82B8010E006E120035
:0A06EE00000E80B4010E006E120031
:0A06F800000E82B6010E006E120023
:0A070200000E84B6010E006E120016
:0A070C00000E82BC010E006E120008
:100716004EC0A6F14FC0A7F150C0A8F151C0A9F133
:10072600668266A21FD04E504F105010511019E02D
:100736000101A651A711A811A9110CE1CDC0E1FF35
:10074600CEC0E2FF060EE66ECBC000F0CCC001F0D4
:100756006DDD08D0010E0101A65F000EA75BA85B48
:06076600A95BDFD71200C1
:04076C00668412008D
:04077000C58412002A
:0A077400000E82B6010E006E1200A6
:0A077E00000E84B4010E006E12009C
:0A078800000EA4BA010E006E12006C
:10079200AECF01F0ABA202D0AB98AB8801C000F0A3
:0207A200120043
:1007A40056C0A8F157C0A9F158C0AAF159C0ABF17D
:1007B4000101A66BA76BA751120802E1A6518E088E
:1007C40008E34EDD005201E004D00101A64BA72B43
:1007D400F2D70101120EA75D02E18F0EA65D03E3BD
:1007E4007B0E006E24D0C580C5A020D05650571073
:1007F400581059101AE0A851A911AA11AB110EE111
:10080400C9C0E1FFCAC0E2FF050EE66EC7C000F032
:10081400C8C001F00CDD010E006E09D0010E01010B
:10082400A85F000EA95BAA5BAB5BDED7006A12006F
:0C083400000E0F0121B3010E006E120037
:0A084000000E80B0010E006E1200E1
:0A084A00000E82B0010E006E1200D5
:0A085400000E86B4010E006E1200C3
:0A085E00000E82BA010E006E1200B7
:0A086800000E82B8010E006E1200AF
:100872004EC0A8F14FC0A9F150C0AAF151C0ABF1CE
:100882000101A66BA76BA751120802E1A6518E08BF
:1008920008E3DADC005201E004D00101A64BA72BE9
:1008A200F2D70101120EA75D02E18F0EA65D03E3EE
:1008B2007B0E006E24D0668066A020D04E504F1072
:1008C200501051101AE0A851A911AA11AB110EE152
:1008D200CDC0E1FFCEC0E2FF050EE66ECBC000F058
:1008E200CCC001F0A5DC010E006E09D0010E0101A1
:1008F200A85F000EA95BAA5BAB5BDED7006A1200A1
:100902001DCF01F00F0122A302D02299228901C03A
:0409120000F01200DF
:100916000B820BAE95EF04F003680268016800686D
:080926000A360232FF0E120036
:0E092E00026A016A006A086A036A000E12007B
:08093C000AAE029E000E12003B
:100944000B840BAEADEF04F0010E036E026A016A74
:0A095400006A0A360232FF0E12009C
:10095E000CB0F1EF04F00CA297EF05F00E6A000E4A
:10096E00026408EF05F0F00E0214D8A4D3EF04F0E1
:10097E00023A01380F0B02260138F00B016E0038D7
:10098E000F0B01260038F00B006E08380F0B0026F7
:10099E000838F00B086E0E84D89002BEECEF04F00F
:1009AE0008360036013602360E2A02BEECEF04F08F
:1009BE0008360036013602360E2A02BEECEF04F07F
:1009CE0008360036013602360E2A0E5003648DEFBD
:1009DE0005F0035E0BBC08AE92EF05F0D880800EDA
:1009EE0008640030000E002201220222D8A092EFED
:1009FE0005F0023201320032034A97EF05F092EF12
:100A0E0005F001C002F000C001F008C000F0086A55
:100A1E00000E0E8602643FEF05F0F00E0214D8A40D
:100A2E0027EF05F0023A01380F0B02260138F00BC2
:100A3E00016E00380F0B01260038F00B006E0E848D
:100A4E00D89002BEECEF04F00036013602360E2AC4
:100A5E0002BEECEF04F00036013602360E2A02BE5C
:100A6E00ECEF04F00036013602360E2AECEF04F0FD
:100A7E0001C002F000C001F0006A000E0E960E8852
:100A8E0002646CEF05F0F00E0214D8A457EF05F0D7
:100A9E00023A01380F0B02260138F00B016E0E845C
:100AAE00D89002BEECEF04F0013602360E2A02BEDA
:100ABE00ECEF04F0013602360E2A02BEECEF04F023
:100ACE00013602360E2AECEF04F001C002F0016A84
:100ADE00000E0E8602649CEF05F0F00E0214D8A4F0
:100AEE007BEF05F0023A0E84D89002BEECEF04F0D4
:100AFE0002360E2A02BEECEF04F002360E2A02BEB9
:100B0E00ECEF04F002360E2AECEF04F0010E0C6E40
:100B1E0012DF9FEF05F0020E0C6E09DF9FEF05F05E
:100B2E00040E0C6EF1DE9FEF05F0080E0C6EF8DE73
:020B3E001200A3
:100B40000101A46BA56B9DC1A2F19EC1A3F19CC143
:100B500000F0003600900080B9C0E1FFBAC0E2FFAB
:100B600000C0E6FFB7C000F0B8C001F019EC01F01A
:100B700000500101A413000EA513010E9F5F000E8B
:100B8000A05B9F51A01116E0B1C0E1FFB2C0E2FF2F
:100B9000010EE66EAFC000F0B0C001F019EC01F03C
:100BA000A2C1E1FFA3C1E2FF00C0E6FF0101A24B29
:100BB000A32BE3D7B1C0E1FFB2C0E2FFE66AAFC04A
:100BC00000F0B0C001F019EC01F0A2C1E1FFA3C137
:100BD000E2FF00C0E6FF0101A151000A06E1B3C037
:100BE00000F0B4C001F019EC01F00101A151010ABB
:100BF00006E1BFC000F0C0C001F019EC01F0A4C1D3
:080C000000F0A5C101F0120093
:100C08000101A46BA56B9DC1A2F19EC1A3F19CC17A
:100C180000F000360090B9C0E1FFBAC0E2FF00C0A2
:100C2800E6FFB7C000F0B8C001F019EC01F00050C1
:100C38000101A413000EA5139FC100F0A0C101F08B
:100C4800010E9F5F000EA05B0050011018E0B9C0B4
:100C5800E1FFBAC0E2FFA2C1E9FFA3C1EAFFEECFFC
:100C6800E6FFB7C000F0B8C001F019EC01F0005081
:100C78000101A413000EA513A24BA32BDDD7A1518C
:100C8800000A06E1B3C000F0B4C001F019EC01F0AD
:100C98000101A151010A06E1BFC000F0C0C001F086
:0E0CA80019EC01F0A4C100F0A5C101F012008A
:100CB60001019C6B9D6BBBC000F0BCC001F019EC40
:100CC60001F000C09CF1000E01019D6F9CC100F077
:060CD6009DC101F01200B7
:100CDC00025006180E6E086A096A0B6A0350076404
:100CEC0061EF07F006500A6E068E028E03500B6EF3
:100CFC000750036E000E0B64B1EF06F00B50075E4D
:100D0C00D8B452EF07F0070E076420EF07F0075E28
:100D1C0000C008F001C000F002C001F0026A074EEA
:100D2C0052EF07F00764F5EF06F0075E00C008F01D
:100D3C0001C000F0016A074E52EF07F00764D3EFD1
:100D4C0006F0075E00C008F0006A074E52EF07F08D
:100D5C000764BAEF06F00AC002F005C001F004C047
:100D6C0000F0086A7BEF08F0030E0764C5EF06F08D
:100D7C00075E08380F0B086E074E52EF07F0D8903D
:100D8C000832074E52EF07F0D8900832074E52EF58
:100D9C0007F0D890083252EF07F0030E0764E4EF27
:100DAC0006F0075E08380F0B086E0038F00B0826AB
:100DBC0000380F0B006E074E52EF07F0D890003240
:100DCC000832074E52EF07F0D89000320832074E27
:100DDC0052EF07F0D8900032083252EF07F0030EB2
:100DEC0007640CEF07F0075E08380F0B086E00382D
:100DFC00F00B082600380F0B006E0138F00B0026A4
:100E0C0001380F0B016E074E52EF07F0D8900132EC
:100E1C0000320832074E52EF07F0D8900132003200
:100E2C000832074E52EF07F0D890013200320832E8
:100E3C0052EF07F0030E07643DEF07F0075E08382A
:100E4C000F0B086E0038F00B082600380F0B006EE5
:100E5C000138F00B002601380F0B016E0238F00B35
:100E6C00012602380F0B026E074E52EF07F0D89096
:100E7C000232013200320832074E52EF07F0D8909E
:100E8C000232013200320832074E52EF07F0D8908E
:100E9C000232013200320832096A000E0EAE46EF01
:100EAC0008F0081E001E011E021E082A0022012244
:100EBC00022246EF08F00750D8A467EF07F07BEF4B
:100ECC0008F0096A02C00AF0028E068E0750035C15
:100EDC00076ED8B439EF08F0070E076407EF08F077
:100EEC00075E0450096E0550046E0650056E066AC6
:100EFC00074E39EF08F0070E0764DCEF07F0075ECA
:100F0C000450096E0550046E056A074E39EF08F05F
:100F1C00070E0764BAEF07F0075E0450096E046A07
:100F2C00074E39EF08F0070E0764A1EF07F00AC06F
:100F3C0002F07BEF08F0030E0764ACEF07F0075EDE
:100F4C0009380F0B096E074E39EF08F0D8900932AB
:100F5C00074E39EF08F0D8900932074E39EF08F0F8
:100F6C00D890093239EF08F0030E0764CBEF07F085
:100F7C00075E09380F0B096E0438F00B092604388C
:100F8C000F0B046E074E39EF08F0D890043209327B
:100F9C00074E39EF08F0D89004320932074E39EF7A
:100FAC0008F0D8900432093239EF08F0030E0764C8
:100FBC00F3EF07F0075E09380F0B096E0438F00BDE
:100FCC00092604380F0B046E0538F00B042605387F
:100FDC000F0B056E074E39EF08F0D890053204322E
:100FEC000932074E39EF08F0D89005320432093235
:100FFC00074E39EF08F0D89005320432093239EF38
:10100C0008F0030E076424EF08F0075E09380F0B95
:10101C00096E0438F00B092604380F0B046E0538E2
:10102C00F00B042605380F0B056E0638F00B052661
:10103C0006380F0B066E074E39EF08F0D8900632C3
:10104C00053204320932074E39EF08F0D8900632D7
:10105C00053204320932074E39EF08F0D8900632C7
:10106C00053204320932086A000E0EAE46EF08F063
:10107C00091E041E051E061E092A0422052206222C
:10108C000950082604500022055001220650022265
:10109C000EBE5DEF08F0D8A06CEF08F00232013202
:1010AC0000320832033E6CEF08F076EF08F0D8B04F
:1010BC0071EF08F0000E081E001E011E021E082A09
:1010CC000022012202220A7E71EF08F0010E0C6E42
:1010DC0040DC7DEF08F0020E0C6E3BDC7DEF08F07F
:1010EC00040E0C6E12DC7DEF08F0000E0C6E12007C
:1010FC000B800BAE8AEF08F0026A0AAEFF0E026E8E
:0C110C00016E006E0A360232FF0E120067
:1011180001019A6B9B6B000E9415036E9551FF0BA2
:10112800046E04C000F0016A00C096F1FF0E941529
:10113800976FBDDD60C09CF1960E9D6F010E9E6F8E
:10114800020E9F6F000EA06F010EA16F59DD60C0E7
:101158009CF1980E01019D6F010E9E6F020E9F6F0C
:10116800000EA06FA16BE8DC98C19AF1000E010196
:101178009B6F9AC101F0006A00C09AF101C09BF10F
:1011880099510012000E011200C09AF101C09BF1A2
:02119800120043
:10119A000050086E0150006E0250016E0350026E3C
:1011AA00036A0B6A0C6A9E0E036E0A6A02AEEAEFC3
:1011BA0008F0081E001E011E021E082AD8B4002AC2
:1011CA00D8B4012AD8B4022A0A8E020E0C6EAFECE9
:0411DA0004F012000B
:1011DE000B6A0C6A086A0350D8B473EF09F002C0A8
:1011EE000AF0028E9E0E035E03AE63EF09F0036CEF
:1011FE00080E035CD8A030EF09F0036E083600C06D
:10120E0008F001C000F002C001F0026A080E035C93
:10121E00D8A030EF09F0036E083600C008F001C008
:10122E0000F0016A080E035CD8A030EF09F0036EDF
:10123E00083600C008F0006A080E035CD8A030EF34
:10124E0009F0036E0836086A0350D8A4D8903CEF14
:10125E0009F00350D8B43CEF09F0D89002320132B5
:10126E0000320832032E34EF09F00BBC08A04DEF0C
:10127E0009F0D8A04DEF09F0082AD8B4002AD8B446
:10128E00012AD8B4022A02BE77EF09F00AAE73EF34
:10129E0009F0021E011E001E081E082AD8B4002ADC
:1012AE00D8B4012AD8B4022A73EF09F0026A016A8F
:1012BE00006A086A73EF09F00B800BAE7DEF09F040
:1012CE00026A0AAE7DEF09F0026E016E006E086EC4
:1012DE000A3602327DEF09F00C6A000E7EEF09F03D
:1012EE00010E0C6E000E03DF7EEF09F0FF0E0250B2
:1012FE00036E0150026E0050016E0850006E120017
:08130E000B6A0B86FF0E1200B2
:0E131600FF0E0101946F3F0E956FFBDE12007B
:06132400067EDADC120077
:10132A000A6A0350D8A40A800750D8A40A820A502D
:10133A00D8B4F8EF09F0030AD8B4B1EF09F00AB04B
:10134A00ACEF09F006AEF6EF09F0F4EF09F002AEE1
:10135A00F4EF09F0F6EF09F00250800B0A6E029ED4
:10136A000650800B069E0A18D8B4C2EF09F00A503C
:10137A00D8B4F4EF09F0F6EF09F00750035CD8B4DB
:10138A00CCEF09F0D8A0E8EF09F0EEEF09F006502B
:10139A00025CD8B4D6EF09F0D8A0E8EF09F0EEEF76
:1013AA0009F00550015CD8B4E0EF09F0D8A0E8EFE5
:1013BA0009F0EEEF09F00450005CD8B4F8EF09F038
:1013CA00D8B0EEEF09F00A52D8B4F6EF09F0F4EF0C
:1013DA0009F00A52D8B4F4EF09F0F6EF09F0D88010
:0E13EA001200D8901200D880D8841200120091
:1013F8000C6A0E6A0250D8A415EF0AF001C002F078
:1014080000C001F0006A0E860250D8A415EF0AF059
:1014180001C002F0016A0E960E880250D8B427EF78
:101428000AF00E50035ED8A4D8A02DEF0AF0D89089
:1014380002BE33EF0AF0003601360236032E1CEFE7
:101448000AF02DEF0AF0010E0C6E97EC04F037EF5E
:101458000AF0020E0C6EA2EC04F037EF0AF0040E4C
:081468000C6E9EEC04F0120072
:10147000086A096A000E07620364BDEF0AF00250B1
:1014800006180A6E075003267E0ED8A04EEF0AF00B
:10149000035ED8B0C2EF0AF052EF0AF0035ED8A0A4
:1014A000C7EF0AF0028E068E02C00EF001C00BF0EC
:1014B00000C00DF000500402F4CF0CF00150050202
:1014C000F4CF00F0F3CF08F00402F3500C26F450F0
:1014D0000822000E00220D500502F3500C26F45095
:1014E0000822000E002202500402F3500826F45095
:1014F000002202500502016A000E0122F35000266C
:10150000F45001220D500602F3500826F450002238
:10151000026A000E012202220B500602F35000263E
:10152000F4500122000E02220E500602F350012652
:10153000F450022202BEA5EF0AF00836003601364A
:1015400002360306D8B4C7EF0AF0B8EF0AF0D88025
:10155000800E08640030000E002201220222D8A072
:10156000B8EF0AF0023201320032034AC2EF0AF049
:101570000AAE029E000ECAEF0AF0010E97EC04F0CC
:10158000CAEF0AF0020E8BEC04F0CAEF0AF0040E68
:06159000A2EC04F01200C1
:101596000450000A12E10550000A0FE10650000A45
:1015A6000CE10750000A09E1FF0E006EFF0E016E06
:1015B6007F0E026EFF0E036EA7D0086A096A0750F7
:1015C600D8B476EF0BF00350D8B47AEF0BF0025094
:1015D60006180A6E028E068E0E6A02C008F001C058
:1015E6000CF000C00DF004500D5E0550D8A0053C6F
:1015F6000C5E0650D8A0063C085E086A0C6A0D6AA6
:10160600D8A00DEF0BF0D89002320132003208322A
:10161600010E0E6E0750035ED8A01AEF0BF07E0E79
:101626000E240326D8B07FEF0BF020EF0BF07E0ED2
:101636000E240326D8A084EF0BF0180E0B6E0D3681
:101646000C3608360036013602360E360450005E79
:101656000550D8A0053C015E0650D8A0063C025EA7
:1016660006340E120EA03BEF0BF00D8046EF0BF08A
:10167600045000260550D8B0053C01260650D8B0C7
:10168600062802260D900B2E22EF0BF06CEF0BF0C6
:10169600D8900036013602360E360450005E0550EC
:1016A600D8A0053C015E0650D8A0063C025E063472
:1016B6000E10010B0D26D8B00C2AD8B4082AD8A4CF
:1016C6006CEF0BF008320C320D32032AD8B47FEFE0
:1016D6000BF00AAE089E0850026E0C50016E0D50BB
:1016E600006E87EF0BF0010E0FDE87EF0BF0020E98
:1016F60097EC04F087EF0BF0040E8BEC04F087EF09
:0A1706000BF0080EA2EC04F0120034
:0C17100002DE010E0016000E0116120091
:10171C00150E0C6EC60E0D6E0D2EFED70C2EFCD7B4
:04172C0000001200A7
:101730000B6A0350D8B4DEEF0BF002500A6E028E33
:101740008E0E035E03AEE2EF0BF0036C080E035C3B
:10175000D8A0BDEF0BF0036E013602C001F0026AA3
:10176000080E035CD8A0BDEF0BF0036E0136016AD2
:101770000350D8A4D890C7EF0BF00350D8B4C7EFEC
:101780000BF0D89002320132032EC1EF0BF00BBCEC
:1017900001A0D4EF0BF0D8A0D4EF0BF0012AD8B4FD
:1017A000022A02BEF1EF0BF00AAEF6EF0BF0021EBA
:1017B000011E012AD8B4022AF6EF0BF0026A016A70
:1017C000F6EF0BF00B800BAEFAEF0BF0026A0AAEED
:1017D000FAEF0BF0FF0E026E016E0A360232FAEFDC
:1017E0000BF0010E0C6E8ADCFCEF0BF0000E0C6EA1
:1017F000FCEF0BF0FF0E0C6E0150006E0250016EFC
:021800001200D4
:10180200870E01018D6F010E8E6F030E8D25D96E2D
:10181200000E8E21DA6EDE508B25016E000E8C21B9
:10182200026E01C08BF102C08CF1800E0218006EB4
:10183200800E005C02E1000E015C05E2006A016AB2
:10184200026A036A3ED0800E006E800E8C19005C24
:1018520002E18B51FF0825E2046A056A066A076AFB
:1018620087C100F088C101F089C102F08AC103F08A
:101872005BDD010ED8B0000E006E005209E0FF0ED3
:10188200006EFF0E016EFF0E026EFF0E036E19D088
:10189200FF0E006EFF0E016E7F0E026EFF0E036ED4
:1018A20010D0030E8D25E16E000E8E21E26E8BC1EB
:1018B200E6FF87C100F088C101F089C102F08AC148
:0418C20003F012001D
:1018C600870E046E010E056E030E0424E96E000EEB
:1018D6000520EA6E7E0EEE5C006E016A000E015A6D
:1018E6008BC1E1FF8CC1E2FF00C0E6FF01C0E6FF4D
:1018F600030E0424E16E000E0520E26E7E0EE66EF7
:1019060087C100F088C101F089C102F08AC103F0E5
:021916001200BD
:1019180003500718D8A4A0EF0CF002500618D8A45A
:10192800A0EF0CF001500518D8A4A0EF0CF000505F
:0E1938000418D8B4D8841200D89412001200FB
:101946008AC100F0016A026A036AFF0E0016000EE1
:10195600011600C08FF101C090F17F0E005C026E8F
:10196600000E0158036E02C08FF103C090F1800E85
:101976000318006E800E005C02E1000E025C21E29C
:10198600046A056A066A076A87C100F088C101F021
:1019960089C102F08AC103F0C5DC010ED8B0000E81
:1019A600006E005209E0000E006E000E016E800E01
:1019B600026E7F0E036E5AD0006A016A026A036ADB
:1019C60055D001019051000802E18F51180809E233
:1019D60087C100F088C101F089C102F08AC103F015
:1019E60045D087C100F088C101F089C102F08AC1E3
:1019F60003F0EFEC08F0CDEC08F000C08BF101C06D
:101A06008CF102C08DF103C08EF100C004F001C05C
:101A160005F002C006F003C007F087C100F088C1D8
:101A260001F089C102F08AC103F07CDC010ED8B056
:101A3600000E006E005212E0000E046E000E056EDF
:101A4600000E066E7F0E076E8BC100F08CC101F092
:101A56008DC102F08EC103F062DC08D08BC100F0AC
:0E1A66008CC101F08DC102F08EC103F01200A0
:101A7400000E01018915036E8A51FF0B046E04C028
:101A840000F0016A00C08EF1FF0E89158D6F000E03
:101A94008715036E8851FF0B046E04C000F0016AC1
:101AA40000C08BF1FF0E87158C6F5BEC06F060C0F5
:101AB4009CF18B0E9D6F010E9E6F040E9F6F000EA6
:0A1AC400A06FA16B04EC06F0120005
:101ACE008EC100F08FC101F0000E01018FBFFF0E1D
:101ADE00026E036E00360090013602360336003673
:101AEE0000900136023603368B510024F66E8C516F
:101AFE000120F76E8D510220F86E0900F5CF90F19E
:101B0E000900F5CF91F10900F5CF92F10900F5CF5B
:101B1E0093F18E518F1148E087C100F088C101F01A
:101B2E0089C102F08AC103F090C104F091C105F0A1
:101B3E0092C106F093C107F094DC010E8E5F000E89
:101B4E008F5B8EC104F08FC105F0000E8FBFFF0EAC
:101B5E00066E076E043604900536063607360436D2
:101B6E0004900536063607368B510424F66E8C51DA
:101B7E000520F76E8D510620F86E0900F5CF04F0A2
:101B8E000900F5CF05F00900F5CF06F00900F5CFF5
:101B9E0007F06EEC06F000C090F101C091F102C0AA
:101BAE0092F103C093F1B5D790C100F091C101F04D
:0A1BBE0092C102F093C103F012007F
:101BC80000C008F00150006E016A026A036A0B6ADD
:101BD8000C6A016A026A036A960E036E0A6A00AE0C
:101BE800FCEF0DF0081E001E082AD8B4002A0A8E41
:101BF80000C001F008C000F0086A026AFCEC09F0B5
:021C08001200C8
:101C0A00010E0101946F300E956F8CEC08F0080EEE
:101C1A000010896F015000098A6F010E876F300E1C
:061C2A00886F23DF1200A9
:101C3000010E0101946F300E956F8CEC08F000C01E
:101C400002F001C003F003320232039E030E0214BD
:0C1C5000006E03C001F0000E011612002F
:101C5C007A0E0101196F010E1A6FAC0E1B6F010E7B
:101C6C001C6F020E116F090E126F000E136F000E17
:101C7C00146F880E0D6F070E0E6F000E0F6F000E97
:101C8C00106F340E406F080E416F000E426F000E45
:101C9C00436F0F01218B900E226F98849892A4AA07
:0A1CAC0003D01DCF00F0FBD712009B
:101CB6008A0E0101196F010E1A6FAC0E1B6F010E11
:101CC6001C6F920E116F070E126F000E136F000E2F
:101CD600146F9C0E0D6F020E0E6F000E0F6F000E2E
:101CE600106FA60E406F020E416F000E426F000E7F
:101CF600436FAC8A900EAB6E948E949C9EAA03D0D2
:081D0600AECF00F0FBD7120084
:101D0E00640E0001C36F020EC46F000EC56F000E8D
:101D1E00C66FA40E0101056F070E066F000E076F4A
:101D2E00000E086F500E096F030E0A6F000E0B6F38
:101D3E00000E0C6FB00E1D6F030E1E6FA60E1F6FE2
:101D4E00010E206F0E0E216F060E226FA60E236F50
:101D5E00010E246F700E156F070E166F000E176FA3
:101D6E00000E186F949894968B988B969488948600
:0A1D7E00C79EC79C380EC66E120007
:0E1D88008BEC09F0000E0016020E0116120080
:101D96008BEC09F0FE0E0014896F0150FF0B8A6F61
:0C1DA600FF0E876F3F0E886F62DE120098
:101DB2000134083609360450085E0550D8A0053CA7
:101DC200095E003601360F0E0C6E013408360936F4
:101DD200045000A006D0085E0550D8A0053C095E5C
:101DE20005D008260550D8B0053C09260036013634
:101DF2000C2EEBD700B006D0045008260550D8B000
:081E0200053C09260000120056
:101E0A007DC104F07EC105F07FC106F080C107F0F4
:101E1A00006A016A026A036A95EC09F0000ED8B0FA
:101E2A00010E006E005205E0006A016A026A036A46
:101E3A006AD07DC187F17EC188F17FC189F180C1F5
:101E4A008AF1810E01018B6F010E8C6F37DD000E56
:101E5A00046E000E056E000E066E800E076E38ECDC
:101E6A000AF0000E046E000E056E000E066E7F0E5E
:101E7A00076E92EC09F000C07DF101C07EF102C04C
:101E8A007FF103C080F1010E815F000E825B00C00A
:101E9A0087F101C088F102C089F103C08AF1BB0E43
:101EAA008B6F3F0E8C6F000E8D6F080E8E6F000EBB
:101EBA008F6F08DE00C083F101C084F102C085F192
:101ECA0003C086F183C17DF184C17EF185C17FF1B2
:101EDA0086C180F181C100F082C101F070DE180E66
:101EEA00046E720E056E310E066E7E0E076E38ECAB
:101EFA000AF083C104F084C105F085C106F086C1E9
:081F0A0007F06EEC06F0120076
:101F120001017F6B806B88EC0BF000520CE18EECC0
:101F22000BF07F4B802B80517E5D02E17F517D5D06
:081F320001E201D0F0D712001A
:101F3A00046A056A066A076A7DC100F07EC101F07B
:101F4A007FC102F080C103F0E2DC010ED8A4000ECA
:101F5A00006E005209E0000E006E000E016E000EC7
:101F6A00026E7F0E036EFED07DC104F07EC105F0C5
:101F7A007FC106F080C107F0FC0E006ED40E016E20
:101F8A00320E026E850E036E95EC09F0010ED8B082
:101F9A00000E006E005209E0FF0E006EFF0E016E89
:101FAA007F0E026EFF0E036EDDD04F0E046EAC0E76
:101FBA00056EAE0E066E850E076E7DC100F07EC1FF
:101FCA0001F07FC102F080C103F095EC09F0010E27
:101FDA00D8B0000E006E005205E0006A016A026A7B
:101FEA00036AC0D0046A056A066A076A7DC100F0FE
:101FFA007EC101F07FC102F080C103F095EC09F0C7
:10200A00010ED8B0000E006E00C083F1005202E04B
:10201A0001017F7F7DC100F07EC101F07FC102F026
:10202A0080C103F03B0E046EAA0E056E380E066ED2
:10203A007F0E076E38EC0AF000C07DF101C07EF118
:10204A0002C07FF103C080F100C087F101C088F1AE
:10205A0002C089F103C08AF171DC98EC0BF000C070
:10206A0081F101C082F1ABDD00C004F001C005F0CE
:10207A0002C006F003C007F07DC100F07EC101F086
:10208A007FC102F080C103F092EC09F000C07DF13B
:10209A0001C07EF102C07FF103C080F100C087F168
:1020AA0001C088F102C089F103C08AF1930E0101CF
:1020BA008B6F3F0E8C6F000E8D6F090E8E6F000EA8
:1020CA008F6F00DD00C087F101C088F102C089F17D
:1020DA0003C08AF181C18BF182C18CF101EC0CF051
:1020EA0000C07DF101C07EF102C07FF103C080F122
:1020FA00835330E0FF0E046EFF0E056E7F0E066EF0
:10210A00FF0E076E7DC100F07EC101F07FC102F0B3
:10211A0080C103F08CEC0CF0010ED8A4000E006E06
:10212A00005205E0006A016A026A036A1BD07DC197
:10213A0004F07EC105F07FC106F080C107F0000EF1
:10214A00006E000E016E000E026E7F0E036ECBEC67
:10215A000AF008D07DC100F07EC101F07FC102F013
:06216A0080C103F0120029
:1021700070C1F6FF71C1F7FF72C1F8FF0900F5CF1A
:10218000BBF00900F5CFBCF00900F5CFBDF00900A8
:10219000F5CFBEF0040E01017025F66E000E712120
:1021A000F76E000E7221F86E0900F5CFB3F009004A
:1021B000F5CFB4F00900F5CFB5F00900F5CFB6F0D2
:1021C000080E7025F66E000E7121F76E000E72215A
:1021D000F86E0900F5CFBFF00900F5CFC0F0090097
:1021E000F5CFC1F00900F5CFC2F00C0E7025F66EE8
:1021F000000E7121F76E000E7221F86E0900F5CF06
:10220000B7F00900F5CFB8F00900F5CFB9F0090033
:10221000F5CFBAF0100E7025F66E000E7121F76E34
:10222000000E7221F86E0900F5CFAFF00900F5CF6E
:10223000B0F00900F5CFB1F00900F5CFB2F012000F
:1022400070C173F171C174F172C175F10BD0A00E40
:10225000C86E5DDD44D0280EC86E59DD40D0040E36
:10226000006E3FD073C1F6FF74C1F7FF75C1F8FF70
:102270000900F5CF01F00900F5CF02F00900F5CF14
:1022800003F00900F5CF04F00450000A08E1035000
:10229000010A05E10250860A02E10150A00AD7E0D6
:1022A00073C1F6FF74C1F7FF75C1F8FF0900F5CFE0
:1022B00001F00900F5CF02F00900F5CF03F00900A5
:1022C000F5CF04F00450000A08E10350060A05E1C6
:1022D00002501A0A02E10150800ABDE0C0D7000E88
:0422E000006E12007A
:1022E40070C173F171C174F172C175F10BD0A00E9C
:1022F400C86E0BDD44D0280EC86E07DD40D0040E36
:10230400006E3FD073C1F6FF74C1F7FF75C1F8FFCB
:102314000900F5CF01F00900F5CF02F00900F5CF6F
:1023240003F00900F5CF04F00450000A08E103505B
:10233400010A05E10250860A02E10150A00AD7E031
:1023440073C1F6FF74C1F7FF75C1F8FF0900F5CF3B
:1023540001F00900F5CF02F00900F5CF03F0090000
:10236400F5CF04F00450000A08E10350060A05E121
:1023740002501A0A02E10150800ABDE0C0D7000EE3
:04238400006E1200D5
:02238800120041
:10238A00E5C0E1FFE6C0E2FF70C1E9FF71C1EAFF03
:10239A00EECFE6FFE3C000F0E4C001F019EC01F073
:0423AA00006A1200B3
:1023AE0038D00F0120870D0E1F6F040E1E6F218572
:1023BE004EDC7ED00F012087060E1F6F820E1E6F21
:1023CE00218545DC75D00F012087030E1F6F400E4F
:1023DE001E6F21853CDC6CD00F012087010E1F6F14
:1023EE00A00E1E6F218533DC63D00F012087010EF6
:1023FE001F6F150E1E6F21852ADC5AD00F01208704
:10240E001F6B8A0E1E6F218522DC52D0060E006EC7
:10241E0059D0000E006E0101731908E100507219B7
:10242E0005E1120E711902E17051C00ABAE0000EF8
:10243E00006E731908E10050721905E1250E71192D
:10244E0002E17051800AB6E0000E006E731908E1C9
:10245E000050721905E14B0E711902E17051000A1C
:10246E00B2E0000E006E731908E10050721905E11A
:10247E00960E711902E17051000AAEE0000E006E68
:10248E00731908E10050721905E1E10E711902E1AC
:10249E007051000AAAE07351000A08E17251010A54
:1024AE0005E17151C20A02E17051000AA7E0AED7F0
:1024BE007A0E0001E36F010EE46FAC0EE56F010EB4
:0624CE00E66F006A120037
:1024D40027D0CF0EAF6EAC945BEC0EF070D0670ECD
:1024E400AF6EAC945BEC0EF06AD0CF0EAF6EAC84E2
:1024F4005BEC0EF064D0670EAF6EAC845BEC0EF058
:102504005ED0440EAF6EAC845BEC0EF058D0220E5D
:10251400AF6EAC845BEC0EF052D0060E006E59D058
:102524000101000E006E731908E10050721905E1F3
:10253400120E711902E17051C00ACBE0000E006E58
:10254400731908E10050721905E1250E711902E1B1
:102554007051800AC4E0000E006E731908E1005047
:10256400721905E14B0E711902E17051000ABDE0C8
:10257400000E006E731908E10050721905E1960E01
:10258400711902E17051000AB6E0000E006E731971
:1025940008E10050721905E1E10E711902E1705170
:1025A400000AAFE07351000A08E17251010A05E123
:1025B4007151C20A02E17051000AA9E0AED78A0E35
:1025C4000001E36F010EE46FAC0EE56F010EE66FE0
:0425D400006A120087
:1025D80027D0CF0EAF6EAC945BEC0EF070D0670EC8
:1025E800AF6EAC945BEC0EF06AD0CF0EAF6EAC84DD
:1025F8005BEC0EF064D0670EAF6EAC845BEC0EF053
:102608005ED0440EAF6EAC845BEC0EF058D0220E58
:10261800AF6EAC845BEC0EF052D0060E006E59D053
:102628000101000E006E731908E10050721905E1EE
:10263800120E711902E17051C00ACBE0000E006E53
:10264800731908E10050721905E1250E711902E1AC
:102658007051800AC4E0000E006E731908E1005042
:10266800721905E14B0E711902E17051000ABDE0C3
:10267800000E006E731908E10050721905E1960EFC
:10268800711902E17051000AB6E0000E006E73196C
:1026980008E10050721905E1E10E711902E170516B
:1026A800000AAFE07351000A08E17251010A05E11E
:1026B8007151C20A02E17051000AA9E0AED78A0E30
:1026C8000001E36F010EE46FAC0EE56F010EE66FDB
:0426D800006A120082
:1026DC0027D0CF0EAF6EAC945BEC0EF070D0670EC3
:1026EC00AF6EAC945BEC0EF06AD0CF0EAF6EAC84D8
:1026FC005BEC0EF064D0670EAF6EAC845BEC0EF04E
:10270C005ED0440EAF6EAC845BEC0EF058D0220E53
:10271C00AF6EAC845BEC0EF052D0060E006E59D04E
:10272C000101000E006E731908E10050721905E1E9
:10273C00120E711902E17051C00ACBE0000E006E4E
:10274C00731908E10050721905E1250E711902E1A7
:10275C007051800AC4E0000E006E731908E100503D
:10276C00721905E14B0E711902E17051000ABDE0BE
:10277C00000E006E731908E10050721905E1960EF7
:10278C00711902E17051000AB6E0000E006E731967
:10279C0008E10050721905E1E10E711902E1705166
:1027AC00000AAFE07351000A08E17251010A05E119
:1027BC007151C20A02E17051000AA9E0AED78A0E2B
:1027CC000001E36F010EE46FAC0EE56F010EE66FD6
:0427DC00006A12007D
:1027E00070C104F071C105F004C002F005C003F02F
:1027F000044A052A72C100F073C101F00101724B55
:10280000732B00C0E9FF01C0EAFF02C0E1FF03C073
:10281000E2FFEECFE6FF02C0E9FF03C0EAFFEE529F
:0E28200001E0E2D770C100F071C101F01200BA
:10282E0070C173F171C174F172C175F10DD0A00E4A
:10283E00C86E87EC0EF045D0280EC86E87EC0EF0F1
:10284E0040D0040E006E3FD073C1F6FF74C1F7FF87
:10285E0075C1F8FF0900F5CF01F00900F5CF02F0C0
:10286E000900F5CF03F00900F5CF04F00450000A7B
:10287E0008E10350010A05E10250860A02E1015007
:10288E00A00AD5E073C1F6FF74C1F7FF75C1F8FF5A
:10289E000900F5CF01F00900F5CF02F00900F5CFE0
:1028AE0003F00900F5CF04F00450000A08E10350CC
:1028BE00060A05E102501A0A02E10150800ABCE044
:0828CE00C0D7000E006E1200DD
:1028D6000D6A086A0050D8B4000C04180A6E0ABEC5
:1028E6000D1E0B6A04AE02D0041E042A00AE02D0EE
:1028F600001E002A005004100A6E0ABE1FD00450A3
:10290600085E003600340836045008260036060EE7
:102916000C6E00340836045000B0085E00A008268D
:1029260000360C2EF6D700A008260BB015D00DAE3B
:10293600000C001E002A081E082A000C04AE09D04E
:1029460000BE04D00050086E006AF1D7006A002A63
:10295600000C001E0B2AD3D7082A0450085CD8A402
:0E296600E6D7086A002A00AEE2D7FF0C120086
:102974000450000A08E10550000A05E1FF0E006E4C
:102984007F0E016E58D00D6A096A086A0150001062
:10299400D8B4000C015005180A6E0ABE0D1E0B6A4D
:1029A40005AE05D0041E051E042AD8B4052A01AEBE
:1029B40005D0001E011E002AD8B4012A01500510BA
:1029C4000A6E0ABE10D0D9EC0EF00BB020D00DAEBA
:1029D400000C001E011E002AD8B4012A081E091E7C
:1029E400082AD8B4092A000C05AE0DD001BE07D0C0
:1029F4000150096E0050086E016A006AE8D7016A46
:102A0400006A002A000C011E001E0B2ADDD7082ACA
:102A1400D8B4092A0450085CD8A4D9D70550095C55
:102A2400D8A4D5D7096A086A002AD8B4012A01AE05
:082A3400CED70000FF0C1200D8
:102A3C0018EC0EF00050030A02E005EC0EF0CBECA3
:102A4C000EF0EE0E01017D6F020E7E6F89EC0FF021
:102A5C00050E946F400E956F8CEC08F000C070F171
:102A6C0001C071F1080E946F400E956F8CEC08F05C
:102A7C0000C07AF101C07BF170C100F071C101F0AE
:102A8C00E4EC0DF0000E046E000E056E400E066EAA
:102A9C00820E076ECBEC0AF000C076F101C077F124
:102AAC0002C078F103C079F1EBC000F0ECC001F08A
:102ABC00EDC002F0EEC003F076C104F077C105F072
:102ACC0078C106F079C107F038EC0AF000C072F159
:102ADC0001C073F102C074F103C075F17AC100F04A
:102AEC007BC101F0E4EC0DF072C104F073C105F090
:102AFC0074C106F075C107F06EEC06F000C004F06E
:102B0C0001C005F002C006F003C007F076C100F06A
:102B1C0077C101F078C102F079C103F0CBEC0AF077
:102B2C00000E046E000E056E000E066E920E076E01
:102B3C0038EC0AF0D7C004F0D8C005F0D9C006F0C4
:102B4C00DAC007F092EC09F000C076F101C077F121
:102B5C0002C078F103C079F1D3C004F0D4C005F001
:102B6C00D5C006F0D6C007F076C100F077C101F0F1
:102B7C0078C102F079C103F0CBEC0AF0E7C004F0A5
:102B8C00E8C005F0E9C006F0EAC007F06EEC06F00C
:102B9C0000C072F101C073F102C074F103C075F191
:102BAC00DFC000F0E0C001F0E1C002F0E2C003F0D1
:102BBC0076C104F077C105F078C106F079C107F051
:102BCC0038EC0AF076C104F077C105F078C106F054
:102BDC0079C107F038EC0AF072C104F073C105F04A
:0E2BEC0074C106F075C107F06EEC06F0120021
:102BFA008BEC09F07C0E0014036E01C004F0000E89
:102C0A00041603C000F004C001F001320032019E34
:082C1A0001320032019E12009C
:102C2200010E0101946F300E956F8CEC08F0F90ED5
:102C32000014896F0150FF0B8A6F70C100F0000E03
:102C4200016E0036009001360050891301508A133C
:0E2C5200010E876F300E886F3AEC0DF0120005
:102C600001017C6B046A056A066A076A74C100F098
:102C700075C101F076C102F077C103F08CEC0CF065
:102C8000010ED8A4000E006E005209E0000E006E86
:102C9000000E016E000E026E7F0E036EA8D0046A55
:102CA000056A066A076A70C100F071C101F072C15D
:102CB00002F073C103F08CEC0CF0010ED8A4000EEE
:102CC000006E005205E0006A016A026A036A8FD052
:102CD000046A056A066A076A70C100F071C101F0F2
:102CE00072C102F073C103F095EC09F0010ED8B087
:102CF000000E006E00522DE074C100F075C101F0AD
:102D000076C102F077C103F0EFEC08F000C078F173
:102D100001C079F102C07AF103C07BF1CDEC08F07B
:102D200074C104F075C105F076C106F077C107F0F3
:102D30008CEC0CF0000ED8A4010E006E005205E0E1
:102D4000006A016A026A036A52D0010E78157C6F2C
:102D5000727F70C17DF171C17EF172C17FF173C16B
:102D600080F105EC0FF000C070F101C071F102C0FC
:102D700072F103C073F174C104F075C105F076C13E
:102D800006F077C107F038EC0AF000C070F101C01E
:102D900071F102C072F103C073F100C07DF101C096
:102DA0007EF102C07FF103C080F19DEC0FF000C006
:102DB00070F101C071F102C072F103C073F1010141
:102DC0007C530DE0000E7019006E000E7119016E3B
:102DD000800E7219026E000E7319036E08D070C156
:102DE00000F071C101F072C102F073C103F0120072
:102DF0000101726B736BC4EC0EF00050010A0CE120
:102E00008EEC0BF0724B732B7351715D02E17251BA
:0A2E1000705D01E201D0EFD712005F
:102E1A000101786B796B7A6B7B6B71C100F0016A87
:102E2A0000C072F1FF0E7015736F5BEC06F060C0A4
:102E3A009CF1720E9D6F010E9E6F020E9F6F000E27
:102E4A00A06F010EA16F04EC06F060C09CF1740E35
:102E5A0001019D6F010E9E6F040E9F6F000EA06F01
:102E6A00A16BA0EC05F076C178F1000E0101796F33
:102E7A007A6F7B6F7AC103F079C102F078C101F0F1
:102E8A00006A00C078F101C079F102C07AF103C08A
:102E9A007BF177510010056E01C006F002C007F001
:102EAA0003C008F0000E06120712081205C078F1D6
:102EBA0006C079F107C07AF108C07BF107C003F0B8
:102ECA0006C002F005C001F0006A00C078F101C036
:102EDA0079F102C07AF103C07BF174510010056EDA
:102EEA0001C006F002C007F003C008F0000E061287
:102EFA000712081205C078F106C079F107C07AF105
:102F0A0008C07BF107C003F006C002F005C001F05B
:102F1A00006A00C078F101C079F102C07AF103C0F9
:102F2A007BF175510012000E01120212031200C049
:102F3A0078F101C079F102C07AF103C07BF1120085
:102F4A002FD049C170F14AC171F14BC172F14CC124
:102F5A0073F1ECEC12F032D049C170F14AC171F14F
:102F6A004BC172F14CC173F16AEC12F027D049C11E
:102F7A0070F14AC171F14BC172F14CC173F1D7ECD6
:102F8A0011F01CD049C170F14AC171F14BC172F103
:102F9A004CC173F16EEC13F011D0010E006E0ED01D
:102FAA0001014851000ACDE04851010AD5E04851D3
:0E2FBA00020ADDE04851100AE5E0EFD71200F0
:102FC8001DD049C170F14AC171F14BC172F12BDCBE
:102FD80020D049C170F14AC171F14BC172F172EC54
:102FE80011F017D049C170F14AC171F14BC172F1AA
:102FF80020EC11F00ED0010E006E0BD001014851EB
:10300800000ADFE04851010AE4E04851020AEAE018
:04301800F2D71200D9
:10301C00EE0E0101706F020E716FE4DE020E706F26
:10302C00FADD0C0E0101706F240E716FF0DECDEC29
:10303C0008F0000E046E000E056E000E066E770E84
:10304C00076E38EC0AF000C0D7F001C0D8F002C00F
:10305C00D9F003C0DAF00E0E706F240E716FD7DE4C
:10306C00CDEC08F0A90E046ED10E056E7F0E066E27
:10307C006A0E076E38EC0AF000C0D3F001C0D4F031
:10308C0002C0D5F003C0D6F0100E706F240E716F15
:10309C00BEDECDEC08F0000E046E000E056E000EC8
:1030AC00066E530E076E38EC0AF000C0DFF001C05C
:1030BC00E0F002C0E1F003C0E2F0120E706F240EDB
:1030CC00716FA5DECDEC08F0000E046E000E056EDF
:1030DC00000E066E770E076E38EC0AF000C0E7F0B3
:1030EC0001C0E8F002C0E9F003C0EAF0240E706FF2
:1030FC00240E716F8CDECDEC08F0400E046EDA0EEF
:10310C00056E7F0E066E6E0E076E38EC0AF000C070
:10311C00F7F001C0F8F002C0F9F003C0FAF0260E87
:10312C00706F240E716F73DECDEC08F0000E046E20
:10313C00000E056E000E066E770E076E38EC0AF068
:10314C0000C0FBF001C0FCF002C0FDF003C0FEF0BB
:10315C00280E706F240E716F5ADECDEC08F0000E45
:10316C00046E000E056E000E066E510E076E38ECE6
:10317C000AF000C001F101C002F102C003F103C06A
:10318C0004F12A0E706F240E716F41DECDEC08F045
:10319C00000E046E000E056E000E066E5B0E076EC2
:1031AC0038EC0AF000C0F3F001C0F4F002C0F5F006
:1031BC0003C0F6F02C0E706F240E716F28DECDEC70
:1031CC0008F0000E046E000E056E000E066E5B0E0F
:1031DC00076E38EC0AF000C0EFF001C0F0F002C04E
:1031EC00F1F003C0F2F02E0E946F240E956F8CEC60
:1031FC0008F0E4EC0DF0000E046E000E056E000EEF
:10320C00066E750E076E38EC0AF000C0EBF001C0CC
:10321C00ECF002C0EDF003C0EEF02F0E946F240E14
:10322C00956F8CEC08F0E4EC0DF0000E046E000EC3
:10323C00056E000E066E750E076E38EC0AF000C0B7
:10324C00DBF001C0DCF002C0DDF003C0DEF0810E6B
:10325C00946F240E956F8CEC08F0E4EC0DF0D50E09
:10326C00046EFF0E056E7F0E066E700E076E38EC48
:10327C000AF000C0ABF001C0ACF002C0ADF003C06E
:10328C00AEF0820E946F240E956F8CEC08F0E4EC8B
:10329C000DF0D50E046EFF0E056E7F0E066E700ED1
:1032AC00076E38EC0AF000C0CFF001C0D0F002C0BD
:0E32BC00D1F003C0D2F0060E706FADDC120030
:1032CA000101526B536B48C14EF149C14FF14AC1DA
:1032DA0050F14BC151F15151FF0A08E15051FF0A17
:1032EA0005E14F51FF0A02E14E51FF0A0DE14CC1BF
:1032FA0070F14DC171F1170E726F000E736FF0EC21
:10330A0013F0030E006EF5D1010E0001FF6F0101EB
:10331A0050AF10D0800E5019006E00C050F100015D
:10332A00FF2B4CC1E1FF4DC1E2FF2D0EE66E0101FC
:10333A004C4B4D2B000E006E511908E100505019EC
:10334A0005E100504F1902E14E51000A0CE14CC14F
:10335A0070F14DC171F1150E726F000E736FF0ECC2
:10336A0013F0006AC6D15151FF0A08E15051000A10
:10337A0005E14F51000A02E14E51000A0DE14CC12C
:10338A0070F14DC171F1520E726F000E736FF0EC55
:10339A0013F0FFC000F0ADD1000E046E000E056EF2
:1033AA00000E066E7F0E076E4EC100F04FC101F08F
:1033BA0050C102F051C103F095EC09F0010ED8B0EA
:1033CA00000E006E00521CE04EC100F04FC101F029
:1033DA0050C102F051C103F0000E046E000E056EDA
:1033EA00200E066E820E076E38EC0AF000C04EF10F
:1033FA0001C04FF102C050F103C051F15307CCD7BD
:10340A00000E046E000E056E200E066E820E076E0A
:10341A004EC100F04FC101F050C102F051C103F09A
:10342A0095EC09F0000ED8B0010E006E00521CE0B7
:10343A004EC100F04FC101F050C102F051C103F07A
:10344A00CD0E046ECC0E056E4C0E066E7B0E076E0C
:10345A0038EC0AF000C04EF101C04FF102C050F141
:10346A0003C051F1532BCCD7FF0E4E15086EFF0E39
:10347A004F15096E7F0E50150A6E000E51150B6E10
:10348A0008C004F009C005F00AC006F00BC007F036
:10349A0004360490053606360736000E4E15006EC1
:1034AA00000E4F15016E000E5015026EFF0E5115DB
:1034BA00036E00C04EF101C04FF102C050F103C0CB
:1034CA0051F104504E11006E05504F11016E065015
:1034DA005011026E07505111036E00C04EF101C027
:1034EA004FF102C050F103C051F17F0E515D006EE1
:1034FA0000C000F1010E516F00C004F04EC100F08F
:10350A004FC101F050C102F051C103F0045007E06D
:10351A0000360090013602360336FF0FF8D700C096
:10352A004EF101C04FF102C050F103C051F14CC13C
:10353A00E1FF4DC1E2FF5151300FE66E4C4B4D2B6E
:10354A00800E5319006E800E010A005C08E3800E9B
:10355A00060A006E800E5319005C01E30AD04CC1C2
:10356A00E1FF4DC1E2FF2E0EE66E4C4B4D2B010ED4
:10357A00526F060E006F0051000A54E0516B4EC1A3
:10358A0000F04FC101F050C102F051C103F0003602
:10359A0000900136023603360036009001360236B4
:1035AA0003364E5100264F510122505102225151E9
:1035BA00032200C04EF101C04FF102C050F103C016
:1035CA0051F14EC100F04FC101F050C102F051C19A
:1035DA0003F00036009001360236033600C04EF181
:1035EA0001C04FF102C050F103C051F14CC1E1FFDB
:1035FA004DC1E2FF5151300FE66E4C4B4D2B5251EB
:10360A00000A0EE153075351000A0AE14CC1E1FFD7
:10361A004DC1E2FF2E0EE66E4C4B4D2B010E526F42
:10362A000007A9D7FF0E4C25E96EFF0E4D21EA6E61
:10363A00EE50300A05E1010E4C5F000E4D5BF2D7E9
:10364A00FF0E4C25E96EFF0E4D21EA6EEE502E0A52
:10365A0004E1010E4C5F000E4D5B5351000A43E03A
:10366A004CC1E1FF4DC1E2FF650EE66E4C4B4D2B9E
:10367A00800E5319006E800E000A005C0BE24CC1EA
:10368A00E1FF4DC1E2FF2D0EE66E4C4B4D2B53511F
:10369A000008536F53C100F1800E090A006E800EB4
:1036AA005319005C0FE20A0E046E00C100F06BECC5
:1036BA0014F04CC1E1FF4DC1E2FF0050300FE66E3D
:1036CA004C4B4D2B0A0E046E00C100F06BEC14F04B
:1036DA0008C000F04CC1E1FF4DC1E2FF0050300FBD
:1036EA00E66E4C4B4D2B4CC1E1FF4DC1E2FFE66A41
:0436FA00006A120050
:1036FE0018EC0EF00050030A02E005EC0EF0CBECD5
:10370E000EF0EE0E01017D6F020E7E6F89EC0FF052
:10371E00030E946F400E956F8CEC08F000C048F1CC
:10372E0001C049F1040E946F400E956F8CEC08F0B9
:10373E00005048270150492349334833499F49BD1A
:10374E00498F49AF03D002E3484B492B060E946FC5
:10375E00400E956F8CEC08F000C04AF101C04BF1A1
:10376E00070E946F400E956F8CEC08F000504A27B0
:10377E0001504B234B334A334B9F4BBD4B8F4BAFBB
:10378E0003D002E34A4B4B2B050E946F400E956F00
:10379E008CEC08F000C04CF101C04DF1080E946F96
:1037AE00400E956F8CEC08F000C068F101C069F115
:1037BE0068C14EF169C14FF14CC100F04DC101F02D
:1037CE00E4EC0DF0000E046E000E056E400E066E5B
:1037DE00820E076ECBEC0AF000C064F101C065F1F9
:1037EE0002C066F103C067F1EBC000F0ECC001F05F
:1037FE00EDC002F0EEC003F064C104F065C105F047
:10380E0066C106F067C107F038EC0AF000C060F13F
:10381E0001C061F102C062F103C063F168C100F042
:10382E0069C101F0E4EC0DF060C104F061C105F076
:10383E0062C106F063C107F06EEC06F000C004F042
:10384E0001C005F002C006F003C007F064C100F02D
:10385E0065C101F066C102F067C103F0CBEC0AF05E
:10386E00000E046E000E056E000E066E920E076EB2
:10387E0038EC0AF000C050F101C051F102C052F113
:10388E0003C053F11EEC15F000C054F101C055F108
:10389E0002C056F103C057F10C0E046E000E056EF9
:1038AE004CC100F04DC101F0BAEC14F0E4EC0DF097
:1038BE00DBC004F0DCC005F0DDC006F0DEC007F0B2
:1038CE0038EC0AF000C060F101C061F102C062F193
:1038DE0003C063F14EC100F04FC101F0E4EC0DF0F6
:1038EE0060C104F061C105F062C106F063C107F06A
:1038FE006EEC06F000C058F101C059F102C05AF149
:10390E0003C05BF1FDEC15F00050020A31E10C0E24
:10391E00046E000E056E4AC100F04BC101F0BAEC08
:10392E0014F0E4EC0DF058C104F059C105F05AC181
:10393E0006F05BC107F0CBEC0AF000C05CF101C0F1
:10394E005DF102C05EF103C05FF1000E046E000E69
:10395E00056E000E066E920E076E38EC0AF000C071
:10396E005CF101C05DF102C05EF103C05FF130D0C9
:10397E000C0E046E000E056E48C100F049C101F038
:10398E00BAEC14F0E4EC0DF058C104F059C105F096
:10399E005AC106F05BC107F0CBEC0AF000C05CF137
:1039AE0001C05DF102C05EF103C05FF1000E046E56
:1039BE00000E056E000E066E920E076E38EC0AF0C3
:1039CE0000C05CF101C05DF102C05EF103C05FF1A9
:1039DE00FBC004F0FCC005F0FDC006F0FEC007F011
:1039EE0050C100F051C101F052C102F053C103F0B9
:1039FE0092EC09F0F7C004F0F8C005F0F9C006F03B
:103A0E00FAC007F0CBEC0AF0000E046E000E056E45
:103A1E00480E066E830E076E6EEC06F000C06CF15B
:103A2E0001C06DF102C06EF103C06FF16CC100F008
:103A3E006DC101F06EC102F06FC103F0330E046E62
:103A4E00930E056E080E066E870E076E6EEC06F070
:103A5E0000C068F101C069F102C06AF103C06BF1E8
:103A6E0065C000F066C001F067C002F068C003F0E8
:103A7E0001C104F002C105F003C106F004C107F054
:103A8E0038EC0AF000C064F101C065F102C066F1C5
:103A9E0003C067F15AC004F05BC005F05CC006F0CD
:103AAE005DC007F054C100F055C101F056C102F0DF
:103ABE0057C103F092EC09F0EFC004F0F0C005F02E
:103ACE00F1C006F0F2C007F038EC0AF0000E046EFA
:103ADE00000E056E000E066E7F0E076E6EEC06F083
:103AEE0000C060F101C061F102C062F103C063F178
:103AFE0061C004F062C005F063C006F064C007F058
:103B0E006CC100F06DC101F06EC102F06FC103F027
:103B1E0092EC09F0F3C004F0F4C005F0F5C006F025
:103B2E00F6C007F038EC0AF060C104F061C105F090
:103B3E0062C106F063C107F06EEC06F064C104F0DA
:103B4E0065C105F066C106F067C107F038EC0AF0F2
:103B5E0000C004F001C005F002C006F003C007F07B
:103B6E005CC100F05DC101F05EC102F05FC103F007
:103B7E00CBEC0AF000C060F101C061F102C062F14D
:103B8E0003C063F168C100F069C101F06AC102F0BF
:103B9E006BC103F068C104F069C105F06AC106F09B
:103BAE006BC107F038EC0AF068C104F069C105F08A
:103BBE006AC106F06BC107F038EC0AF068C104F078
:103BCE0069C105F06AC106F06BC107F038EC0AF066
:103BDE0060C104F061C105F062C106F063C107F077
:103BEE006EEC06F000C070F101C071F102C072F10E
:103BFE0003C073F1000E0101746F000E756F000E9D
:103C0E00766F7D0E776F30EC16F0EC0E046E910E23
:103C1E00056E080E066E870E076E92EC09F0CFC089
:103C2E0004F0D0C005F0D1C006F0D2C007F092EC7F
:043C3E0009F0120077
:103C420048C14BF149C14CF10D0E0001FF6F0A0E44
:103C52000101006F3AD04BC170F14CC171F1C5EC5A
:103C620011F03ED04BC1E9FF4CC1EAFFEE520AE02F
:103C72004BC170F14CC171F1C5EC11F001014B4B1C
:103C82004C2BF0D72DD04BC1E9FF4CC1EAFFEE52CD
:103C92000AE04BC170F14CC171F1C5EC11F00101A8
:103CA2004B4B4C2BF0D70101FF0E706F000E716F62
:103CB200C5EC11F0000E0101706F010E716FC5ECC1
:103CC20011F00ED0060E006E0CD001014A51000A0E
:103CD200C2E04A51010AC6E04A51020AD4E0F2D7D0
:043CE200006A120062
:103CE6004EC160F04BC170F14CC171F14DC172F122
:103CF600B8EC10F048C170F149C171F14AC172F1D6
:063D0600C4EC11F01200F4
:103D0C000101486BFB0E496F3F0E4A6F000E4B6F63
:103D1C00E4EC17F0100E0101486F000E496FC20E53
:103D2C004A6F010E4B6F000E4C6FA5EC17F0090E8D
:103D3C000B6E1E0E0C6EE40E0D6E0D2EFED70C2EA1
:103D4C00FCD70B2EFAD700007F0E0101486F000E36
:0A3D5C00496F020E4A6F6FDF12007C
:103D66000900F5CFE6FF0006FBE10106F9E11200C6
:103D76001EEC15F000C044F101C045F102C046F149
:103D860003C047F1930E0101486F000E496F010E03
:103D96004A6F54DF44C148F145C149F146C14AF171
:103DA60047C14BF1290E01014C6F010E4D6F65ECB9
:103DB60019F0290E486F010E496F020E4A6F3EDF59
:103DC6009BDC00C025F101C026F102C027F103C02B
:103DD60028F1690E486F000E496F010E4A6F2EDFFB
:103DE60025C148F126C149F127C14AF128C14BF145
:103DF600290E01014C6F010E4D6F65EC19F0290E6D
:103E0600486F010E496F020E4A6F18DF5E0E010100
:103E1600486F000E496F020E4A6F10DF210E0B6EBF
:103E2600780E0C6E980E0D6E0D2EFED70C2EFCD74E
:083E36000B2EFAD70000120068
:103E3E00A80E0101486F3E0E496F000E4A6FDF0E4D
:103E4E004B6F3F0E4C6F000E4D6F3A0E4E6F44DFB0
:103E5E001B0E486F000E496F020E4A6FEBDE0EEC22
:103E6E0018F0290E0B6E960E0C6E7F0E0D6E0D2E2B
:103E7E00FED70C2EFCD70B2EFAD7340E0101486F4D
:0C3E8E00000E496F020E4A6FD5DE1200D4
:0E3E9A0001EC20F036DFCEDF69DFFED7FFD768
:1040020010EE15F0490E006E010E016E080EF66EEE
:104012003F0EF76E000EF86EB3EC1EF010EE61F07C
:10402200080E006E010E016EF30EF66E3F0EF76E75
:10403200000EF86EB3EC1EF010EE5EF0020E006E93
:10404200010E016EFF0EF66E3F0EF76E000EF86E59
:10405200B3EC1EF010EE69F0420E006E010E016E1E
:10406200510EF66E3F0EF76E000EF86EB3EC1EF0B8
:0240720012003A
:103EA800A601AC019801AC016C01AC014201AC0166
:103EB8003401AC015E01AC015001AC010802AC0157
:103EC800FA01AC012402AC011602AC01EC01AC0110
:103ED800400800004A0800001E030000F602000027
:103EE800E202000028030000320300003C03000047
:103EF8007E02000088020000920200001403000005
:023F0800300087
:043F0A004E614E00B6
:103F0E002D2D2D204170706C69636174696F6E2068
:093F1E00696E6974202D2D2D003F
:103F27002D2D2D205374617274206D656173757228
:0A3F3700656D656E74202D2D2D00C0
:043F4100000000007C
:043F4500494E46009B
:043F49000000000074
:043F4D0000004883A5
:103F5100204F626A6563742074656D706572617467
:063F6100757265203A00B4
:103F67002D2D2D2053797374656D20696E6974202A
:043F77002D2D2D00BF
:103F7B0020416D6269656E742074656D7065726148
:083F8B0074757265203A2000F4
:103F93000000007F1872317EF0FD757C4758637A0C
:103FA30058951D7882C42E75A8782172EF93006FFF
:083FB300A092276B4656156829
:103FBB00FFE65B5DC4FF7F7E80EFFF7D90E1297D97
:103FCB00EC82F67C82AD2B7C0E3CC37B87D1137AC3
:043FDB004178D377DF
:103FDF00A407000070070000500300000E06A601A2
:043FEF00B003A60174
:043FF30000004883FF
:043FF7000000007F47
:043FFB00A08601009B
:023FFF002000A0
:020000040030CA
:0E00000015137F7CF98B91FFFFC0FFE0FF40DE
:00000001FF
